{"abi":[{"type":"function","name":"benchmark","inputs":[{"name":"input","type":"bytes","internalType":"bytes"}],"outputs":[{"name":"","type":"uint256","internalType":"uint256"}],"stateMutability":"pure"}],"bytecode":{"object":"0x6080604052348015600e575f5ffd5b506101e38061001c5f395ff3fe608060405234801561000f575f5ffd5b5060043610610029575f3560e01c80633c1d95001461002d575b5f5ffd5b61004760048036038101906100429190610131565b61005d565b6040516100549190610194565b60405180910390f35b5f5f5f90505f84849050905036820191505f5b60648110156100a257816020820206602083038110156100965780604401358085019450505b50600181019050610070565b506040516103e88210156100bc5781604482378051830192505b50819250505092915050565b5f5ffd5b5f5ffd5b5f5ffd5b5f5ffd5b5f5ffd5b5f5f83601f8401126100f1576100f06100d0565b5b8235905067ffffffffffffffff81111561010e5761010d6100d4565b5b60208301915083600182028301111561012a576101296100d8565b5b9250929050565b5f5f60208385031215610147576101466100c8565b5b5f83013567ffffffffffffffff811115610164576101636100cc565b5b610170858286016100dc565b92509250509250929050565b5f819050919050565b61018e8161017c565b82525050565b5f6020820190506101a75f830184610185565b9291505056fea2646970667358221220c67b1ea54087dfa80dd0b995a61be3e8b7fa8b3c6e8e917f9256ea7726885bf564736f6c634300081e0033","linkReferences":{}},"methodIdentifiers":{"benchmark(bytes)":"3c1d9500"},"id":0}