{"abi":[{"type":"function","name":"Benchmark","inputs":[{"name":"n","type":"uint256","internalType":"uint256"}],"outputs":[{"name":"","type":"uint256","internalType":"uint256"}],"stateMutability":"view"}],"bytecode":{"object":"0x6080604052348015600e575f5ffd5b5061036f8061001c5f395ff3fe608060405234801561000f575f5ffd5b5060043610610029575f3560e01c8063239b51bf1461002d575b5f5ffd5b610047600480360381019061004291906101a9565b61005d565b60405161005491906101e3565b60405180910390f35b5f5f82148061006c5750600182145b1561007a576001905061016d565b5f3073ffffffffffffffffffffffffffffffffffffffff1663239b51bf6001856100a49190610229565b6040518263ffffffff1660e01b81526004016100c091906101e3565b602060405180830381865afa1580156100db573d5f5f3e3d5ffd5b505050506040513d601f19601f820116820180604052508101906100ff9190610270565b9050827fffffffffffffffffffffffffffffffffffffffffffffffffffffffffffffffff61012d91906102c8565b81111561015d577fffffffffffffffffffffffffffffffffffffffffffffffffffffffffffffffff91505061016d565b808361016991906102f8565b9150505b919050565b5f5ffd5b5f819050919050565b61018881610176565b8114610192575f5ffd5b50565b5f813590506101a38161017f565b92915050565b5f602082840312156101be576101bd610172565b5b5f6101cb84828501610195565b91505092915050565b6101dd81610176565b82525050565b5f6020820190506101f65f8301846101d4565b92915050565b7f4e487b71000000000000000000000000000000000000000000000000000000005f52601160045260245ffd5b5f61023382610176565b915061023e83610176565b9250828203905081811115610256576102556101fc565b5b92915050565b5f8151905061026a8161017f565b92915050565b5f6020828403121561028557610284610172565b5b5f6102928482850161025c565b91505092915050565b7f4e487b71000000000000000000000000000000000000000000000000000000005f52601260045260245ffd5b5f6102d282610176565b91506102dd83610176565b9250826102ed576102ec61029b565b5b828204905092915050565b5f61030282610176565b915061030d83610176565b925082820261031b81610176565b91508282048414831517610332576103316101fc565b5b509291505056fea26469706673582212200bc13bf4751b75e7ad3dc615611afb2b487a631c6fffbee2549bfbb83c81446d64736f6c634300081c0033","linkReferences":{}},"methodIdentifiers":{"Benchmark(uint256)":"239b51bf"},"id":0}