{"abi":[{"type":"function","name":"benchmark","inputs":[],"outputs":[{"name":"","type":"uint256","internalType":"uint256"}],"stateMutability":"nonpayable"}],"bytecode":{"object":"0x6080604052348015600e575f5ffd5b506102828061001c5f395ff3fe608060405234801561000f575f5ffd5b5060043610610029575f3560e01c80638903c5a21461002d575b5f5ffd5b61003561004b565b604051610042919061015f565b60405180910390f35b5f5f5f90505f5f90505b60648110156101045760028161006b91906101a5565b5f5f8381526020019081526020015f20819055505f5f8281526020019081526020015f20548261009b91906101e6565b91505f8111156100f7575f5f5f6001846100b59190610219565b81526020019081526020015f20549050805f5f8481526020019081526020015f20546100e191906101e6565b5f5f8481526020019081526020015f2081905550505b8080600101915050610055565b505f5f90505b603281101561013f575f5f60028361012291906101a5565b81526020019081526020015f205f9055808060010191505061010a565b508091505090565b5f819050919050565b61015981610147565b82525050565b5f6020820190506101725f830184610150565b92915050565b7f4e487b71000000000000000000000000000000000000000000000000000000005f52601160045260245ffd5b5f6101af82610147565b91506101ba83610147565b92508282026101c881610147565b915082820484148315176101df576101de610178565b5b5092915050565b5f6101f082610147565b91506101fb83610147565b925082820190508082111561021357610212610178565b5b92915050565b5f61022382610147565b915061022e83610147565b925082820390508181111561024657610245610178565b5b9291505056fea26469706673582212200e498b090f95e389fd249e6339557bea78ba81793d5d781d5849c01ab01aec7a64736f6c634300081c0033","linkReferences":{}},"methodIdentifiers":{"benchmark()":"8903c5a2"},"id":0}