{"abi":[{"type":"constructor","inputs":[],"stateMutability":"nonpayable"},{"type":"function","name":"benchmark","inputs":[],"outputs":[{"name":"","type":"uint256","internalType":"uint256"}],"stateMutability":"nonpayable"},{"type":"function","name":"target","inputs":[],"outputs":[{"name":"","type":"address","internalType":"contract CallTarget"}],"stateMutability":"view"}],"bytecode":{"object":"0x6080604052348015600e575f5ffd5b506040516019906074565b604051809103905ff0801580156031573d5f5f3e3d5ffd5b505f5f6101000a81548173ffffffffffffffffffffffffffffffffffffffff021916908373ffffffffffffffffffffffffffffffffffffffff1602179055506081565b6101918061090f83390190565b6108818061008e5f395ff3fe608060405234801561000f575f5ffd5b5060043610610034575f3560e01c80638903c5a214610038578063d4b8399214610056575b5f5ffd5b610040610074565b60405161004d91906105a8565b60405180910390f35b61005e61056c565b60405161006b919061063b565b60405180910390f35b5f5f5f90505f5f5f5f9054906101000a900473ffffffffffffffffffffffffffffffffffffffff1673ffffffffffffffffffffffffffffffffffffffff166040516024016040516020818303038152906040527f20965255000000000000000000000000000000000000000000000000000000007bffffffffffffffffffffffffffffffffffffffffffffffffffffffff19166020820180517bffffffffffffffffffffffffffffffffffffffffffffffffffffffff838183161783525050505060405161014291906106a6565b5f604051808303815f865af19150503d805f811461017b576040519150601f19603f3d011682016040523d82523d5f602084013e610180565b606091505b509150915081156101a2578080602001905181019061019f91906106ea565b92505b5f5f5f9054906101000a900473ffffffffffffffffffffffffffffffffffffffff1673ffffffffffffffffffffffffffffffffffffffff1660646040516024016101ec919061075a565b6040516020818303038152906040527f55241077000000000000000000000000000000000000000000000000000000007bffffffffffffffffffffffffffffffffffffffffffffffffffffffff19166020820180517bffffffffffffffffffffffffffffffffffffffffffffffffffffffff838183161783525050505060405161027691906106a6565b5f604051808303815f865af19150503d805f81146102af576040519150601f19603f3d011682016040523d82523d5f602084013e6102b4565b606091505b50509050806102f8576040517f08c379a00000000000000000000000000000000000000000000000000000000081526004016102ef906107cd565b60405180910390fd5b5f5f5f5f9054906101000a900473ffffffffffffffffffffffffffffffffffffffff1673ffffffffffffffffffffffffffffffffffffffff166040516024016040516020818303038152906040527f20965255000000000000000000000000000000000000000000000000000000007bffffffffffffffffffffffffffffffffffffffffffffffffffffffff19166020820180517bffffffffffffffffffffffffffffffffffffffffffffffffffffffff83818316178352505050506040516103c191906106a6565b5f60405180830381855afa9150503d805f81146103f9576040519150601f19603f3d011682016040523d82523d5f602084013e6103fe565b606091505b5091509150811561042b578080602001905181019061041d91906106ea565b866104289190610818565b95505b5f5f5f5f9054906101000a900473ffffffffffffffffffffffffffffffffffffffff1673ffffffffffffffffffffffffffffffffffffffff166040516024016040516020818303038152906040527f20965255000000000000000000000000000000000000000000000000000000007bffffffffffffffffffffffffffffffffffffffffffffffffffffffff19166020820180517bffffffffffffffffffffffffffffffffffffffffffffffffffffffff83818316178352505050506040516104f491906106a6565b5f60405180830381855af49150503d805f811461052c576040519150601f19603f3d011682016040523d82523d5f602084013e610531565b606091505b5091509150811561055e578080602001905181019061055091906106ea565b8861055b9190610818565b97505b879850505050505050505090565b5f5f9054906101000a900473ffffffffffffffffffffffffffffffffffffffff1681565b5f819050919050565b6105a281610590565b82525050565b5f6020820190506105bb5f830184610599565b92915050565b5f73ffffffffffffffffffffffffffffffffffffffff82169050919050565b5f819050919050565b5f6106036105fe6105f9846105c1565b6105e0565b6105c1565b9050919050565b5f610614826105e9565b9050919050565b5f6106258261060a565b9050919050565b6106358161061b565b82525050565b5f60208201905061064e5f83018461062c565b92915050565b5f81519050919050565b5f81905092915050565b8281835e5f83830152505050565b5f61068082610654565b61068a818561065e565b935061069a818560208601610668565b80840191505092915050565b5f6106b18284610676565b915081905092915050565b5f5ffd5b6106c981610590565b81146106d3575f5ffd5b50565b5f815190506106e4816106c0565b92915050565b5f602082840312156106ff576106fe6106bc565b5b5f61070c848285016106d6565b91505092915050565b5f819050919050565b5f60ff82169050919050565b5f61074461073f61073a84610715565b6105e0565b61071e565b9050919050565b6107548161072a565b82525050565b5f60208201905061076d5f83018461074b565b92915050565b5f82825260208201905092915050565b7f43616c6c206661696c65640000000000000000000000000000000000000000005f82015250565b5f6107b7600b83610773565b91506107c282610783565b602082019050919050565b5f6020820190508181035f8301526107e4816107ab565b9050919050565b7f4e487b71000000000000000000000000000000000000000000000000000000005f52601160045260245ffd5b5f61082282610590565b915061082d83610590565b9250828201905080821115610845576108446107eb565b5b9291505056fea26469706673582212207f0dd4808899eb2597f009e9d0ad67467339261b9013e6d478b537fc147d139764736f6c634300081e00336080604052602a5f553480156012575f5ffd5b50610171806100205f395ff3fe608060405234801561000f575f5ffd5b506004361061003f575f3560e01c806320965255146100435780633fa4f24514610061578063552410771461007f575b5f5ffd5b61004b61009b565b60405161005891906100c9565b60405180910390f35b6100696100a3565b60405161007691906100c9565b60405180910390f35b61009960048036038101906100949190610110565b6100a8565b005b5f5f54905090565b5f5481565b805f8190555050565b5f819050919050565b6100c3816100b1565b82525050565b5f6020820190506100dc5f8301846100ba565b92915050565b5f5ffd5b6100ef816100b1565b81146100f9575f5ffd5b50565b5f8135905061010a816100e6565b92915050565b5f60208284031215610125576101246100e2565b5b5f610132848285016100fc565b9150509291505056fea2646970667358221220fc6c59c26f8117f9f8067dd28855141816eb54a535261f480d9ecf6ce48eb0d564736f6c634300081e0033","linkReferences":{}},"methodIdentifiers":{"benchmark()":"8903c5a2","target()":"d4b83992"},"id":0}