{"abi":[{"type":"function","name":"Benchmark","inputs":[],"outputs":[{"name":"r","type":"bytes1","internalType":"bytes1"},{"name":"g","type":"bytes1","internalType":"bytes1"},{"name":"b","type":"bytes1","internalType":"bytes1"}],"stateMutability":"nonpayable"},{"type":"function","name":"TraceImage","inputs":[{"name":"spp","type":"int256","internalType":"int256"}],"outputs":[{"name":"","type":"bytes","internalType":"bytes"}],"stateMutability":"nonpayable"},{"type":"function","name":"TracePixel","inputs":[{"name":"x","type":"int256","internalType":"int256"},{"name":"y","type":"int256","internalType":"int256"},{"name":"spp","type":"int256","internalType":"int256"}],"outputs":[{"name":"r","type":"bytes1","internalType":"bytes1"},{"name":"g","type":"bytes1","internalType":"bytes1"},{"name":"b","type":"bytes1","internalType":"bytes1"}],"stateMutability":"nonpayable"},{"type":"function","name":"TraceScanline","inputs":[{"name":"y","type":"int256","internalType":"int256"},{"name":"spp","type":"int256","internalType":"int256"}],"outputs":[{"name":"","type":"bytes","internalType":"bytes"}],"stateMutability":"nonpayable"}],"bytecode":{"object":"0x6080604052348015600e575f5ffd5b506155b08061001c5f395ff3fe608060405234801561000f575f5ffd5b506004361061004a575f3560e01c806330627b7c1461004e57806375ac892a1461006e578063784f13661461009e578063c2943601146100d0575b5f5ffd5b610056610100565b60405161006593929190614faf565b60405180910390f35b6100886004803603810190610083919061501b565b612eb8565b60405161009591906150c9565b60405180910390f35b6100b860048036038101906100b391906150e9565b61304f565b6040516100c793929190614faf565b60405180910390f35b6100ea60048036038101906100e59190615139565b613087565b6040516100f791906150c9565b60405180910390f35b5f5f5f6104005f81905550610300600181905550604051806080016040528060405180606001604052806302faf08081526020016303197500815260200163119e7f8081525081526020016101ae60405180606001604052805f81526020017fffffffffffffffffffffffffffffffffffffffffffffffffffffffffffff598c81526020017ffffffffffffffffffffffffffffffffffffffffffffffffffffffffffff0bdc0815250613257565b81526020015f81526020015f151581525060035f820151815f015f820151815f0155602082015181600101556040820151816002015550506020820151816003015f820151815f015560208201518160010155604082015181600201555050604082015181600601556060820151816007015f6101000a81548160ff02191690831515021790555090505060405180606001604052806001546207d5dc5f546102579190615191565b6102619190615234565b81526020015f81526020015f815250600b5f820151815f0155602082015181600101556040820151816002015590505061030f6103066102fd6102f8600b6040518060600160405290815f820154815260200160018201548152602001600282015481525050600380016040518060600160405290815f820154815260200160018201548152602001600282015481525050613331565b613257565b6207d5dc6133eb565b620f4240613442565b600e5f820151815f0155602082015181600101556040820151816002015590505060115f61033d9190614d06565b60125f61034a9190614d27565b60116040518060a0016040528064174876e80081526020016040518060600160405280641748862a40815260200163026e8f0081526020016304dd1e00815250815260200160405180606001604052805f81526020015f81526020015f81525081526020016040518060600160405280620b71b081526020016203d09081526020016203d09081525081526020015f60028111156103eb576103ea61529c565b5b815250908060018154018082558091505060019003905f5260205f2090600b02015f909190919091505f820151815f01556020820151816001015f820151815f0155602082015181600101556040820151816002015550506040820151816004015f820151815f0155602082015181600101556040820151816002015550506060820151816007015f820151815f015560208201518160010155604082015181600201555050608082015181600a015f6101000a81548160ff021916908360028111156104bb576104ba61529c565b5b0217905550505060116040518060a0016040528064174876e800815260200160405180606001604052807fffffffffffffffffffffffffffffffffffffffffffffffffffffffe8bd6fb6c0815260200163026e8f0081526020016304dd1e00815250815260200160405180606001604052805f81526020015f81526020015f815250815260200160405180606001604052806203d09081526020016203d0908152602001620b71b081525081526020015f600281111561057e5761057d61529c565b5b815250908060018154018082558091505060019003905f5260205f2090600b02015f909190919091505f820151815f01556020820151816001015f820151815f0155602082015181600101556040820151816002015550506040820151816004015f820151815f0155602082015181600101556040820151816002015550506060820151816007015f820151815f015560208201518160010155604082015181600201555050608082015181600a015f6101000a81548160ff0219169083600281111561064e5761064d61529c565b5b0217905550505060116040518060a0016040528064174876e800815260200160405180606001604052806302faf080815260200163026e8f00815260200164174876e800815250815260200160405180606001604052805f81526020015f81526020015f81525081526020016040518060600160405280620b71b08152602001620b71b08152602001620b71b081525081526020015f60028111156106f6576106f561529c565b5b815250908060018154018082558091505060019003905f5260205f2090600b02015f909190919091505f820151815f01556020820151816001015f820151815f0155602082015181600101556040820151816002015550506040820151816004015f820151815f0155602082015181600101556040820151816002015550506060820151816007015f820151815f015560208201518160010155604082015181600201555050608082015181600a015f6101000a81548160ff021916908360028111156107c6576107c561529c565b5b0217905550505060116040518060a0016040528064174876e800815260200160405180606001604052806302faf080815260200163026e8f0081526020017fffffffffffffffffffffffffffffffffffffffffffffffffffffffe8c1ab1680815250815260200160405180606001604052805f81526020015f81526020015f815250815260200160405180606001604052805f81526020015f81526020015f81525081526020015f60028111156108805761087f61529c565b5b815250908060018154018082558091505060019003905f5260205f2090600b02015f909190919091505f820151815f01556020820151816001015f820151815f0155602082015181600101556040820151816002015550506040820151816004015f820151815f0155602082015181600101556040820151816002015550506060820151816007015f820151815f015560208201518160010155604082015181600201555050608082015181600a015f6101000a81548160ff021916908360028111156109505761094f61529c565b5b0217905550505060116040518060a0016040528064174876e800815260200160405180606001604052806302faf080815260200164174876e80081526020016304dd1e00815250815260200160405180606001604052805f81526020015f81526020015f81525081526020016040518060600160405280620b71b08152602001620b71b08152602001620b71b081525081526020015f60028111156109f8576109f761529c565b5b815250908060018154018082558091505060019003905f5260205f2090600b02015f909190919091505f820151815f01556020820151816001015f820151815f0155602082015181600101556040820151816002015550506040820151816004015f820151815f0155602082015181600101556040820151816002015550506060820151816007015f820151815f015560208201518160010155604082015181600201555050608082015181600a015f6101000a81548160ff02191690836002811115610ac857610ac761529c565b5b0217905550505060116040518060a0016040528064174876e800815260200160405180606001604052806302faf08081526020017fffffffffffffffffffffffffffffffffffffffffffffffffffffffe8bc66360081526020016304dd1e00815250815260200160405180606001604052805f81526020015f81526020015f81525081526020016040518060600160405280620b71b08152602001620b71b08152602001620b71b081525081526020015f6002811115610b8b57610b8a61529c565b5b815250908060018154018082558091505060019003905f5260205f2090600b02015f909190919091505f820151815f01556020820151816001015f820151815f0155602082015181600101556040820151816002015550506040820151816004015f820151815f0155602082015181600101556040820151816002015550506060820151816007015f820151815f015560208201518160010155604082015181600201555050608082015181600a015f6101000a81548160ff02191690836002811115610c5b57610c5a61529c565b5b0217905550505060116040518060a0016040528062fbc5208152602001604051806060016040528063019bfcc0815260200162fbc52081526020016302cd29c0815250815260200160405180606001604052805f81526020015f81526020015f81525081526020016040518060600160405280620f3e588152602001620f3e588152602001620f3e58815250815260200160016002811115610d0057610cff61529c565b5b815250908060018154018082558091505060019003905f5260205f2090600b02015f909190919091505f820151815f01556020820151816001015f820151815f0155602082015181600101556040820151816002015550506040820151816004015f820151815f0155602082015181600101556040820151816002015550506060820151816007015f820151815f015560208201518160010155604082015181600201555050608082015181600a015f6101000a81548160ff02191690836002811115610dd057610dcf61529c565b5b0217905550505060116040518060a001604052806323c34600815260200160405180606001604052806302faf080815260200163289c455081526020016304dd1e008152508152602001604051806060016040528062b71b00815260200162b71b00815260200162b71b00815250815260200160405180606001604052805f81526020015f81526020015f81525081526020015f6002811115610e7657610e7561529c565b5b815250908060018154018082558091505060019003905f5260205f2090600b02015f909190919091505f820151815f01556020820151816001015f820151815f0155602082015181600101556040820151816002015550506040820151816004015f820151815f0155602082015181600101556040820151816002015550506060820151816007015f820151815f015560208201518160010155604082015181600201555050608082015181600a015f6101000a81548160ff02191690836002811115610f4657610f4561529c565b5b0217905550505060126040518060e00160405280604051806060016040528063035e1f208152602001630188c2e081526020016304a62f8081525081526020016040518060600160405280630459e4408152602001630188c2e081526020016305a1f4a081525081526020016040518060600160405280630459e44081526020016302f34f6081526020016304a62f80815250815260200160405180606001604052805f81526020015f81526020015f815250815260200160405180606001604052805f81526020015f81526020015f81525081526020016040518060600160405280620f3e588152602001620f3e588152602001620f3e5881525081526020016001600281111561105b5761105a61529c565b5b815250908060018154018082558091505060019003905f5260205f2090601302015f909190919091505f820151815f015f820151815f0155602082015181600101556040820151816002015550506020820151816003015f820151815f0155602082015181600101556040820151816002015550506040820151816006015f820151815f0155602082015181600101556040820151816002015550506060820151816009015f820151815f015560208201518160010155604082015181600201555050608082015181600c015f820151815f01556020820151816001015560408201518160020155505060a082015181600f015f820151815f01556020820151816001015560408201518160020155505060c0820151816012015f6101000a81548160ff021916908360028111156111965761119561529c565b5b0217905550505060126040518060e00160405280604051806060016040528063035e1f20815260200163016a8c8081526020016304a62f8081525081526020016040518060600160405280630459e44081526020015f81526020016304a62f8081525081526020016040518060600160405280630459e440815260200163016a8c8081526020016305a1f4a0815250815260200160405180606001604052805f81526020015f81526020015f815250815260200160405180606001604052805f81526020015f81526020015f81525081526020016040518060600160405280620f3e588152602001620f3e588152602001620f3e588152508152602001600160028111156112a7576112a661529c565b5b815250908060018154018082558091505060019003905f5260205f2090601302015f909190919091505f820151815f015f820151815f0155602082015181600101556040820151816002015550506020820151816003015f820151815f0155602082015181600101556040820151816002015550506040820151816006015f820151815f0155602082015181600101556040820151816002015550506060820151816009015f820151815f015560208201518160010155604082015181600201555050608082015181600c015f820151815f01556020820151816001015560408201518160020155505060a082015181600f015f820151815f01556020820151816001015560408201518160020155505060c0820151816012015f6101000a81548160ff021916908360028111156113e2576113e161529c565b5b0217905550505060126040518060e001604052806040518060600160405280630555a9608152602001630188c2e081526020016304a62f8081525081526020016040518060600160405280630459e44081526020016302f34f6081526020016304a62f8081525081526020016040518060600160405280630459e4408152602001630188c2e081526020016305a1f4a0815250815260200160405180606001604052805f81526020015f81526020015f815250815260200160405180606001604052805f81526020015f81526020015f81525081526020016040518060600160405280620f3e588152602001620f3e588152602001620f3e588152508152602001600160028111156114f7576114f661529c565b5b815250908060018154018082558091505060019003905f5260205f2090601302015f909190919091505f820151815f015f820151815f0155602082015181600101556040820151816002015550506020820151816003015f820151815f0155602082015181600101556040820151816002015550506040820151816006015f820151815f0155602082015181600101556040820151816002015550506060820151816009015f820151815f015560208201518160010155604082015181600201555050608082015181600c015f820151815f01556020820151816001015560408201518160020155505060a082015181600f015f820151815f01556020820151816001015560408201518160020155505060c0820151816012015f6101000a81548160ff021916908360028111156116325761163161529c565b5b0217905550505060126040518060e001604052806040518060600160405280630555a960815260200163016a8c8081526020016304a62f8081525081526020016040518060600160405280630459e440815260200163016a8c8081526020016305a1f4a081525081526020016040518060600160405280630459e44081526020015f81526020016304a62f80815250815260200160405180606001604052805f81526020015f81526020015f815250815260200160405180606001604052805f81526020015f81526020015f81525081526020016040518060600160405280620f3e588152602001620f3e588152602001620f3e588152508152602001600160028111156117435761174261529c565b5b815250908060018154018082558091505060019003905f5260205f2090601302015f909190919091505f820151815f015f820151815f0155602082015181600101556040820151816002015550506020820151816003015f820151815f0155602082015181600101556040820151816002015550506040820151816006015f820151815f0155602082015181600101556040820151816002015550506060820151816009015f820151815f015560208201518160010155604082015181600201555050608082015181600c015f820151815f01556020820151816001015560408201518160020155505060a082015181600f015f820151815f01556020820151816001015560408201518160020155505060c0820151816012015f6101000a81548160ff0219169083600281111561187e5761187d61529c565b5b0217905550505060126040518060e00160405280604051806060016040528063035e1f208152602001630188c2e081526020016304a62f8081525081526020016040518060600160405280630459e44081526020016302f34f6081526020016304a62f8081525081526020016040518060600160405280630459e4408152602001630188c2e081526020016303aa6a60815250815260200160405180606001604052805f81526020015f81526020015f815250815260200160405180606001604052805f81526020015f81526020015f81525081526020016040518060600160405280620f3e588152602001620f3e588152602001620f3e588152508152602001600160028111156119935761199261529c565b5b815250908060018154018082558091505060019003905f5260205f2090601302015f909190919091505f820151815f015f820151815f0155602082015181600101556040820151816002015550506020820151816003015f820151815f0155602082015181600101556040820151816002015550506040820151816006015f820151815f0155602082015181600101556040820151816002015550506060820151816009015f820151815f015560208201518160010155604082015181600201555050608082015181600c015f820151815f01556020820151816001015560408201518160020155505060a082015181600f015f820151815f01556020820151816001015560408201518160020155505060c0820151816012015f6101000a81548160ff02191690836002811115611ace57611acd61529c565b5b0217905550505060126040518060e00160405280604051806060016040528063035e1f20815260200163016a8c8081526020016304a62f8081525081526020016040518060600160405280630459e440815260200163016a8c8081526020016303aa6a6081525081526020016040518060600160405280630459e44081526020015f81526020016304a62f80815250815260200160405180606001604052805f81526020015f81526020015f815250815260200160405180606001604052805f81526020015f81526020015f81525081526020016040518060600160405280620f3e588152602001620f3e588152602001620f3e58815250815260200160016002811115611bdf57611bde61529c565b5b815250908060018154018082558091505060019003905f5260205f2090601302015f909190919091505f820151815f015f820151815f0155602082015181600101556040820151816002015550506020820151816003015f820151815f0155602082015181600101556040820151816002015550506040820151816006015f820151815f0155602082015181600101556040820151816002015550506060820151816009015f820151815f015560208201518160010155604082015181600201555050608082015181600c015f820151815f01556020820151816001015560408201518160020155505060a082015181600f015f820151815f01556020820151816001015560408201518160020155505060c0820151816012015f6101000a81548160ff02191690836002811115611d1a57611d1961529c565b5b0217905550505060126040518060e001604052806040518060600160405280630555a9608152602001630188c2e081526020016304a62f8081525081526020016040518060600160405280630459e4408152602001630188c2e081526020016303aa6a6081525081526020016040518060600160405280630459e44081526020016302f34f6081526020016304a62f80815250815260200160405180606001604052805f81526020015f81526020015f815250815260200160405180606001604052805f81526020015f81526020015f81525081526020016040518060600160405280620f3e588152602001620f3e588152602001620f3e58815250815260200160016002811115611e2f57611e2e61529c565b5b815250908060018154018082558091505060019003905f5260205f2090601302015f909190919091505f820151815f015f820151815f0155602082015181600101556040820151816002015550506020820151816003015f820151815f0155602082015181600101556040820151816002015550506040820151816006015f820151815f0155602082015181600101556040820151816002015550506060820151816009015f820151815f015560208201518160010155604082015181600201555050608082015181600c015f820151815f01556020820151816001015560408201518160020155505060a082015181600f015f820151815f01556020820151816001015560408201518160020155505060c0820151816012015f6101000a81548160ff02191690836002811115611f6a57611f6961529c565b5b0217905550505060126040518060e001604052806040518060600160405280630555a960815260200163016a8c8081526020016304a62f8081525081526020016040518060600160405280630459e44081526020015f81526020016304a62f8081525081526020016040518060600160405280630459e440815260200163016a8c8081526020016303aa6a60815250815260200160405180606001604052805f81526020015f81526020015f815250815260200160405180606001604052805f81526020015f81526020015f81525081526020016040518060600160405280620f3e588152602001620f3e588152602001620f3e5881525081526020016001600281111561207b5761207a61529c565b5b815250908060018154018082558091505060019003905f5260205f2090601302015f909190919091505f820151815f015f820151815f0155602082015181600101556040820151816002015550506020820151816003015f820151815f0155602082015181600101556040820151816002015550506040820151816006015f820151815f0155602082015181600101556040820151816002015550506060820151816009015f820151815f015560208201518160010155604082015181600201555050608082015181600c015f820151815f01556020820151816001015560408201518160020155505060a082015181600f015f820151815f01556020820151816001015560408201518160020155505060c0820151816012015f6101000a81548160ff021916908360028111156121b6576121b561529c565b5b0217905550505060126040518060e00160405280604051806060016040528063035e1f208152602001630188c2e081526020016304a62f8081525081526020016040518060600160405280630459e4408152602001630188c2e081526020016303aa6a6081525081526020016040518060600160405280630555a9608152602001630188c2e081526020016304a62f80815250815260200160405180606001604052805f81526020015f81526020015f815250815260200160405180606001604052805f81526020015f81526020015f81525081526020016040518060600160405280620f3e588152602001620f3e588152602001620f3e588152508152602001600160028111156122cb576122ca61529c565b5b815250908060018154018082558091505060019003905f5260205f2090601302015f909190919091505f820151815f015f820151815f0155602082015181600101556040820151816002015550506020820151816003015f820151815f0155602082015181600101556040820151816002015550506040820151816006015f820151815f0155602082015181600101556040820151816002015550506060820151816009015f820151815f015560208201518160010155604082015181600201555050608082015181600c015f820151815f01556020820151816001015560408201518160020155505060a082015181600f015f820151815f01556020820151816001015560408201518160020155505060c0820151816012015f6101000a81548160ff021916908360028111156124065761240561529c565b5b0217905550505060126040518060e00160405280604051806060016040528063035e1f208152602001630188c2e081526020016304a62f8081525081526020016040518060600160405280630555a9608152602001630188c2e081526020016304a62f8081525081526020016040518060600160405280630459e4408152602001630188c2e081526020016305a1f4a0815250815260200160405180606001604052805f81526020015f81526020015f815250815260200160405180606001604052805f81526020015f81526020015f81525081526020016040518060600160405280620f3e588152602001620f3e588152602001620f3e5881525081526020016001600281111561251b5761251a61529c565b5b815250908060018154018082558091505060019003905f5260205f2090601302015f909190919091505f820151815f015f820151815f0155602082015181600101556040820151816002015550506020820151816003015f820151815f0155602082015181600101556040820151816002015550506040820151816006015f820151815f0155602082015181600101556040820151816002015550506060820151816009015f820151815f015560208201518160010155604082015181600201555050608082015181600c015f820151815f01556020820151816001015560408201518160020155505060a082015181600f015f820151815f01556020820151816001015560408201518160020155505060c0820151816012015f6101000a81548160ff021916908360028111156126565761265561529c565b5b0217905550505060126040518060e00160405280604051806060016040528063035e1f20815260200163016a8c8081526020016304a62f8081525081526020016040518060600160405280630555a960815260200163016a8c8081526020016304a62f8081525081526020016040518060600160405280630459e440815260200163016a8c8081526020016303aa6a60815250815260200160405180606001604052805f81526020015f81526020015f815250815260200160405180606001604052805f81526020015f81526020015f81525081526020016040518060600160405280620f3e588152602001620f3e588152602001620f3e5881525081526020016001600281111561276b5761276a61529c565b5b815250908060018154018082558091505060019003905f5260205f2090601302015f909190919091505f820151815f015f820151815f0155602082015181600101556040820151816002015550506020820151816003015f820151815f0155602082015181600101556040820151816002015550506040820151816006015f820151815f0155602082015181600101556040820151816002015550506060820151816009015f820151815f015560208201518160010155604082015181600201555050608082015181600c015f820151815f01556020820151816001015560408201518160020155505060a082015181600f015f820151815f01556020820151816001015560408201518160020155505060c0820151816012015f6101000a81548160ff021916908360028111156128a6576128a561529c565b5b0217905550505060126040518060e00160405280604051806060016040528063035e1f20815260200163016a8c8081526020016304a62f8081525081526020016040518060600160405280630459e440815260200163016a8c8081526020016305a1f4a081525081526020016040518060600160405280630555a960815260200163016a8c8081526020016304a62f80815250815260200160405180606001604052805f81526020015f81526020015f815250815260200160405180606001604052805f81526020015f81526020015f81525081526020016040518060600160405280620f3e588152602001620f3e588152602001620f3e588152508152602001600160028111156129bb576129ba61529c565b5b815250908060018154018082558091505060019003905f5260205f2090601302015f909190919091505f820151815f015f820151815f0155602082015181600101556040820151816002015550506020820151816003015f820151815f0155602082015181600101556040820151816002015550506040820151816006015f820151815f0155602082015181600101556040820151816002015550506060820151816009015f820151815f015560208201518160010155604082015181600201555050608082015181600c015f820151815f01556020820151816001015560408201518160020155505060a082015181600f015f820151815f01556020820151816001015560408201518160020155505060c0820151816012015f6101000a81548160ff02191690836002811115612af657612af561529c565b5b021790555050505f5f90505b601280549050811015612d1e575f60128281548110612b2457612b236152c9565b5b905f5260205f2090601302016040518060e00160405290815f82016040518060600160405290815f8201548152602001600182015481526020016002820154815250508152602001600382016040518060600160405290815f8201548152602001600182015481526020016002820154815250508152602001600682016040518060600160405290815f8201548152602001600182015481526020016002820154815250508152602001600982016040518060600160405290815f8201548152602001600182015481526020016002820154815250508152602001600c82016040518060600160405290815f8201548152602001600182015481526020016002820154815250508152602001600f82016040518060600160405290815f8201548152602001600182015481526020016002820154815250508152602001601282015f9054906101000a900460ff166002811115612c8457612c8361529c565b5b6002811115612c9657612c9561529c565b5b815250509050612cce612cc9612cb38360200151845f0151613499565b612cc48460400151855f0151613499565b613331565b613257565b60128381548110612ce257612ce16152c9565b5b905f5260205f2090601302016009015f820151815f01556020820151816001015560408201518160020155905050508080600101915050612b02565b5060405180606001604052806001546207d5dc5f54612d3d9190615191565b612d479190615234565b81526020015f81526020015f815250600b5f820151815f01556020820151816001015560408201518160020155905050612df5612dec612de3612dde600b6040518060600160405290815f820154815260200160018201548152602001600282015481525050600380016040518060600160405290815f820154815260200160018201548152602001600282015481525050613331565b613257565b6207d5dc6133eb565b620f4240613442565b600e5f820151815f01556020820151816001015560408201518160020155905050612e1e614d48565b612e3781612e3261020061018060086134fb565b613773565b9050612e5281612e4d61014561021c60086134fb565b613773565b9050612e6b81612e666102588060086134fb565b613773565b9050612e8681612e8161020a61020c60086134fb565b613773565b9050612e93816004613442565b9050805f015160f81b816020015160f81b826040015160f81b93509350935050909192565b60605f60035f54612ec99190615191565b67ffffffffffffffff811115612ee257612ee16152f6565b5b6040519080825280601f01601f191660200182016040528015612f145781602001600182028036833780820191505090505b5090505f5f90505f5f90505b5f54811215613043575f612f358288886134fb565b9050805f015160f81b848480612f4a9061532c565b955081518110612f5d57612f5c6152c9565b5b60200101907effffffffffffffffffffffffffffffffffffffffffffffffffffffffffffff191690815f1a905350806020015160f81b848480612f9f9061532c565b955081518110612fb257612fb16152c9565b5b60200101907effffffffffffffffffffffffffffffffffffffffffffffffffffffffffffff191690815f1a905350806040015160f81b848480612ff49061532c565b955081518110613007576130066152c9565b5b60200101907effffffffffffffffffffffffffffffffffffffffffffffffffffffffffffff191690815f1a905350508080600101915050612f20565b50819250505092915050565b5f5f5f5f61305e8787876134fb565b9050805f015160f81b816020015160f81b826040015160f81b9350935093505093509350939050565b60605f60036001545f5461309b9190615191565b6130a59190615191565b67ffffffffffffffff8111156130be576130bd6152f6565b5b6040519080825280601f01601f1916602001820160405280156130f05781602001600182028036833780820191505090505b5090505f5f90505f600180546131069190615373565b90505b5f811261324c575f5f90505b5f54811215613238575f61312a8284896134fb565b9050805f015160f81b85858061313f9061532c565b965081518110613152576131516152c9565b5b60200101907effffffffffffffffffffffffffffffffffffffffffffffffffffffffffffff191690815f1a905350806020015160f81b8585806131949061532c565b9650815181106131a7576131a66152c9565b5b60200101907effffffffffffffffffffffffffffffffffffffffffffffffffffffffffffff191690815f1a905350806040015160f81b8585806131e99061532c565b9650815181106131fc576131fb6152c9565b5b60200101907effffffffffffffffffffffffffffffffffffffffffffffffffffffffffffff191690815f1a905350508080600101915050613115565b508080613244906153b3565b915050613109565b508192505050919050565b61325f614d48565b5f6132b6836040015184604001516132779190615191565b8460200151856020015161328b9190615191565b855f0151865f015161329d9190615191565b6132a791906153fa565b6132b191906153fa565b6137d5565b9050604051806060016040528082620f4240865f01516132d69190615191565b6132e09190615234565b815260200182620f424086602001516132f99190615191565b6133039190615234565b815260200182620f4240866040015161331c9190615191565b6133269190615234565b815250915050919050565b613339614d48565b6040518060600160405280836020015185604001516133589190615191565b8460400151866020015161336c9190615191565b6133769190615373565b81526020018360400151855f015161338e9190615191565b845f015186604001516133a19190615191565b6133ab9190615373565b8152602001835f015185602001516133c39190615191565b8460200151865f01516133d69190615191565b6133e09190615373565b815250905092915050565b6133f3614d48565b6040518060600160405280845f01518461340d9190615191565b81526020018460200151846134229190615191565b81526020018460400151846134379190615191565b815250905092915050565b61344a614d48565b604051806060016040528083855f01516134649190615234565b81526020018385602001516134799190615234565b815260200183856040015161348e9190615234565b815250905092915050565b6134a1614d48565b6040518060600160405280835f0151855f01516134be9190615373565b8152602001836020015185602001516134d79190615373565b8152602001836040015185604001516134f09190615373565b815250905092915050565b613503614d48565b835f54846135119190615191565b61351b91906153fa565b60135f6101000a81548163ffffffff021916908363ffffffff16021790555060405180606001604052805f81526020015f81526020015f81525090505f5f90505b8281121561374a575f6136b061367f6136766135ef600b6040518060600160405290815f8201548152602001600182015481526020016002820154815250506207a1205f546207a1206135ad613831565b6135b7919061544a565b63ffffffff168d620f42406135cc9190615191565b6135d691906153fa565b6135e09190615234565b6135ea9190615373565b6133eb565b613671600e6040518060600160405290815f8201548152602001600182015481526020016002820154815250506207a1206001546207a12061362f613831565b613639919061544a565b63ffffffff168d620f424061364e9190615191565b61365891906153fa565b6136629190615234565b61366c9190615373565b6133eb565b613773565b620f4240613442565b600380016040518060600160405290815f820154815260200160018201548152602001600282015481525050613773565b90505f60405180608001604052806136fd60035f016040518060600160405290815f8201548152602001600182015481526020016002820154815250506136f886608c6133eb565b613773565b815260200161370b84613257565b81526020015f81526020015f151581525090506137398461373461372e84613896565b88613442565b613773565b93505050808060010191505061355c565b5061376a61376161375a83613d3f565b60ff6133eb565b620f4240613442565b90509392505050565b61377b614d48565b6040518060600160405280835f0151855f015161379891906153fa565b8152602001836020015185602001516137b191906153fa565b8152602001836040015185604001516137ca91906153fa565b815250905092915050565b5f5f60026001846137e691906153fa565b6137f09190615234565b90508291505b8181121561382b5780915060028182856138109190615234565b61381a91906153fa565b6138249190615234565b90506137f6565b50919050565b5f61303960135f9054906101000a900463ffffffff166341c64e6d613856919061547a565b61386091906154b6565b60135f6101000a81548163ffffffff021916908363ffffffff16021790555060135f9054906101000a900463ffffffff16905090565b61389e614d48565b600a826040015113156138cd5760405180606001604052805f81526020015f81526020015f8152509050613d3a565b5f5f5f6138d985613d8c565b9250925092505f830361390b5760405180606001604052805f81526020015f81526020015f8152509350505050613d3a565b613913614d66565b61391b614db7565b613923614d48565b61392b614d48565b5f600181111561393e5761393d61529c565b5b8660018111156139515761395061529c565b5b03613a6c576011858154811061396a576139696152c9565b5b905f5260205f2090600b02016040518060a00160405290815f8201548152602001600182016040518060600160405290815f8201548152602001600182015481526020016002820154815250508152602001600482016040518060600160405290815f8201548152602001600182015481526020016002820154815250508152602001600782016040518060600160405290815f8201548152602001600182015481526020016002820154815250508152602001600a82015f9054906101000a900460ff166002811115613a4157613a4061529c565b5b6002811115613a5357613a5261529c565b5b8152505093508360600151915083604001519050613c07565b60128581548110613a8057613a7f6152c9565b5b905f5260205f2090601302016040518060e00160405290815f82016040518060600160405290815f8201548152602001600182015481526020016002820154815250508152602001600382016040518060600160405290815f8201548152602001600182015481526020016002820154815250508152602001600682016040518060600160405290815f8201548152602001600182015481526020016002820154815250508152602001600982016040518060600160405290815f8201548152602001600182015481526020016002820154815250508152602001600c82016040518060600160405290815f8201548152602001600182015481526020016002820154815250508152602001600f82016040518060600160405290815f8201548152602001600182015481526020016002820154815250508152602001601282015f9054906101000a900460ff166002811115613be057613bdf61529c565b5b6002811115613bf257613bf161529c565b5b8152505092508260a001519150826080015190505b5f600190508083604001511315613c2057826040015190505b8083602001511315613c3457826020015190505b8083604001511315613c4857826040015190505b896040018051809190613c5a906154ed565b8152505060058a604001511315613cbc5780620f4240613c78613831565b613c82919061544a565b63ffffffff161215613cab57613ca4613c9e84620f42406133eb565b82613442565b9250613cbb565b8198505050505050505050613d3a565b5b613cc4614d48565b5f6001811115613cd757613cd661529c565b5b886001811115613cea57613ce961529c565b5b03613d0157613cfa8b878b6140dc565b9050613d0f565b613d0c8b868b6141c1565b90505b613d2e83613d29613d2087856142d8565b620f4240613442565b613773565b99505050505050505050505b919050565b613d47614d48565b6040518060600160405280613d5e845f015161433a565b8152602001613d70846020015161433a565b8152602001613d82846040015161433a565b8152509050919050565b5f5f5f5f5f90505f5f5f5f90505b601180549050811015613ee9575f613eb260118381548110613dbf57613dbe6152c9565b5b905f5260205f2090600b02016040518060a00160405290815f8201548152602001600182016040518060600160405290815f8201548152602001600182015481526020016002820154815250508152602001600482016040518060600160405290815f8201548152602001600182015481526020016002820154815250508152602001600782016040518060600160405290815f8201548152602001600182015481526020016002820154815250508152602001600a82015f9054906101000a900460ff166002811115613e9657613e9561529c565b5b6002811115613ea857613ea761529c565b5b815250508a61436a565b90505f81138015613ecc57505f851480613ecb57508481125b5b15613edb578094505f93508192505b508080600101915050613d9a565b505f5f90505b6012805490508110156140c8575f61409060128381548110613f1457613f136152c9565b5b905f5260205f2090601302016040518060e00160405290815f82016040518060600160405290815f8201548152602001600182015481526020016002820154815250508152602001600382016040518060600160405290815f8201548152602001600182015481526020016002820154815250508152602001600682016040518060600160405290815f8201548152602001600182015481526020016002820154815250508152602001600982016040518060600160405290815f8201548152602001600182015481526020016002820154815250508152602001600c82016040518060600160405290815f8201548152602001600182015481526020016002820154815250508152602001600f82016040518060600160405290815f8201548152602001600182015481526020016002820154815250508152602001601282015f9054906101000a900460ff1660028111156140745761407361529c565b5b60028111156140865761408561529c565b5b815250508a61445e565b90505f811380156140aa57505f8514806140a957508481125b5b156140ba57809450600193508192505b508080600101915050613eef565b508282829550955095505050509193909250565b6140e4614d48565b5f61410b855f01516141066140fd8860200151876133eb565b620f4240613442565b613773565b90505f61412461411f838760200151613499565b613257565b90505f60028111156141395761413861529c565b5b856080015160028111156141505761414f61529c565b5b036141aa575f6141648288602001516145e1565b1261419657614193817fffffffffffffffffffffffffffffffffffffffffffffffffffffffffffffffff6133eb565b90505b6141a1868383614638565b925050506141ba565b6141b586838361481b565b925050505b9392505050565b6141c9614d48565b5f6141f0855f01516141eb6141e28860200151876133eb565b620f4240613442565b613773565b90505f620a2c2a905085606001511561420a576216e36090505b5f620f4240614221876060015189602001516145e1565b61422b9190615234565b90505f8112614241578061423e90615534565b90505b5f64e8d4a5100082836142549190615191565b64e8d4a510006142649190615373565b84856142709190615191565b61427a9190615191565b6142849190615234565b64e8d4a510006142949190615373565b90505f8112156142b8576142ad8885896060015161481b565b9450505050506142d1565b6142ca888589606001518686866148a9565b9450505050505b9392505050565b6142e0614d48565b6040518060600160405280835f0151855f01516142fd9190615191565b8152602001836020015185602001516143169190615191565b81526020018360400151856040015161432f9190615191565b815250905092915050565b5f5f82121561434b575f9050614365565b620f424082131561436157620f42409050614365565b8190505b919050565b5f5f61437d8460200151845f0151613499565b90505f620f42406143928386602001516145e1565b61439c9190615234565b90505f855f0151865f01516143b19190615191565b6143bb84856145e1565b83846143c79190615191565b6143d19190615373565b6143db91906153fa565b90505f8112156143f0575f9350505050614458565b6143f9816137d5565b90506103e8818361440a9190615373565b131561442657808261441c9190615373565b9350505050614458565b6103e8818361443591906153fa565b131561445157808261444791906153fa565b9350505050614458565b5f93505050505b92915050565b5f5f6144718460200151855f0151613499565b90505f6144858560400151865f0151613499565b90505f614496856020015183613331565b90505f620f42406144a785846145e1565b6144b19190615234565b90507ffffffffffffffffffffffffffffffffffffffffffffffffffffffffffffffc18811380156144e357506103e881125b156144f4575f9450505050506145db565b5f614505875f0151895f0151613499565b90505f8261451383866145e1565b61451d9190615234565b90505f81128061452f5750620f424081135b15614542575f96505050505050506145db565b5f61454d8388613331565b90505f8461455f8b60200151846145e1565b6145699190615234565b90505f8112806145865750620f4240818461458491906153fa565b135b1561459b575f985050505050505050506145db565b5f856145a789856145e1565b6145b19190615234565b90506103e88112156145ce575f99505050505050505050506145db565b8099505050505050505050505b92915050565b5f816040015183604001516145f69190615191565b8260200151846020015161460a9190615191565b835f0151855f015161461c9190615191565b61462691906153fa565b61463091906153fa565b905092915050565b614640614d48565b5f620f42408061464e613831565b614658919061544a565b63ffffffff16625fdfb061466c9190615191565b6146769190615234565b90505f620f4240614685613831565b61468f919061544a565b63ffffffff1690505f6103e86146a4836137d5565b6146ae9190615191565b90506146b8614d48565b620186a06146c8875f0151614b87565b13156146f35760405180606001604052805f8152602001620f424081526020015f8152509050614714565b6040518060600160405280620f424081526020015f81526020015f81525090505b6147266147218288613331565b613257565b90505f61473b6147368884613331565b613257565b90506147d86147d36147a161477185620f4240886147588c614baa565b6147629190615191565b61476c9190615234565b6133eb565b61479c85620f4240896147838d614be3565b61478d9190615191565b6147979190615234565b6133eb565b613773565b6147ce8a6103e86147bf8a620f42406147ba9190615373565b6137d5565b6147c99190615191565b6133eb565b613773565b613257565b915061480d60405180608001604052808a81526020018481526020018b6040015181526020018b606001511515815250613896565b955050505050509392505050565b614823614d48565b5f61486a614865866020015161486086620f4240614845898c602001516145e1565b60026148519190615191565b61485b9190615234565b6133eb565b613499565b613257565b905061489f60405180608001604052808681526020018381526020018760400151815260200187606001511515815250613896565b9150509392505050565b6148b1614d48565b5f7fffffffffffffffffffffffffffffffffffffffffffffffffffffffffffffffff90508760600151156148e457600190505b5f61495061494b6149426148fc8c602001518a6133eb565b61493d8b6149098a6137d5565b620f42408d8d6149199190615191565b6149239190615234565b61492d91906153fa565b886149389190615191565b6133eb565b613499565b620f4240613442565b613257565b90505f85620f424061496291906153fa565b9050896060015161499657620f424061497b838a6145e1565b6149859190615234565b620f42406149939190615373565b90505b5f6c0c9f2c9cd04674edea400000008283848586620ea6006149b89190615191565b6149c29190615191565b6149cc9190615191565b6149d69190615191565b6149e09190615191565b6149ea9190615234565b619c406149f791906153fa565b905060028b6040015113614a8957614a50614a3c60405180608001604052808d81526020018681526020018e6040015181526020018e60600151151515815250613896565b82620f4240614a4b9190615373565b6133eb565b9250614a6f83614a6a614a648e8e8e61481b565b846133eb565b613773565b9250614a7e83620f4240613442565b945050505050614b7d565b600281614a969190615234565b6203d090614aa491906153fa565b620f4240614ab0613831565b614aba919061544a565b63ffffffff161215614b0857614afd614add614ad78d8d8d61481b565b836133eb565b600283614aea9190615234565b6203d090614af891906153fa565b613442565b945050505050614b7d565b614b76614b56614b4260405180608001604052808e81526020018781526020018f6040015181526020018f60600151151515815250613896565b83620f4240614b519190615373565b6133eb565b600283614b639190615234565b620b71b0614b719190615373565b613442565b9450505050505b9695505050505050565b5f5f821315614b9857819050614ba5565b81614ba290615534565b90505b919050565b5f5f614bb583614be3565b9050614bdb8182614bc69190615191565b64e8d4a51000614bd69190615373565b6137d5565b915050919050565b5f5b5f821215614c0357625fdfb082614bfc91906153fa565b9150614be5565b5b625fdfb08212614c2457625fdfb082614c1d9190615373565b9150614c04565b5f600190505f8390505f600190505f600290505b81831315614cfd57818385614c4d9190615191565b614c579190615234565b85614c6291906153fa565b9450620f424080878886614c769190615191565b614c809190615191565b614c8a9190615234565b614c949190615234565b9250600181614ca391906153fa565b81614cae9190615191565b82614cb99190615191565b91507fffffffffffffffffffffffffffffffffffffffffffffffffffffffffffffffff84614ce79190615191565b9350600281614cf691906153fa565b9050614c38565b50505050919050565b5080545f8255600b02905f5260205f2090810190614d249190614e29565b50565b5080545f8255601302905f5260205f2090810190614d459190614eaa565b50565b60405180606001604052805f81526020015f81526020015f81525090565b6040518060a001604052805f8152602001614d7f614d48565b8152602001614d8c614d48565b8152602001614d99614d48565b81526020015f6002811115614db157614db061529c565b5b81525090565b6040518060e00160405280614dca614d48565b8152602001614dd7614d48565b8152602001614de4614d48565b8152602001614df1614d48565b8152602001614dfe614d48565b8152602001614e0b614d48565b81526020015f6002811115614e2357614e2261529c565b5b81525090565b5b80821115614ea6575f5f82015f9055600182015f5f82015f9055600182015f9055600282015f90555050600482015f5f82015f9055600182015f9055600282015f90555050600782015f5f82015f9055600182015f9055600282015f90555050600a82015f6101000a81549060ff021916905550600b01614e2a565b5090565b5b80821115614f71575f5f82015f5f82015f9055600182015f9055600282015f90555050600382015f5f82015f9055600182015f9055600282015f90555050600682015f5f82015f9055600182015f9055600282015f90555050600982015f5f82015f9055600182015f9055600282015f90555050600c82015f5f82015f9055600182015f9055600282015f90555050600f82015f5f82015f9055600182015f9055600282015f90555050601282015f6101000a81549060ff021916905550601301614eab565b5090565b5f7fff0000000000000000000000000000000000000000000000000000000000000082169050919050565b614fa981614f75565b82525050565b5f606082019050614fc25f830186614fa0565b614fcf6020830185614fa0565b614fdc6040830184614fa0565b949350505050565b5f5ffd5b5f819050919050565b614ffa81614fe8565b8114615004575f5ffd5b50565b5f8135905061501581614ff1565b92915050565b5f5f6040838503121561503157615030614fe4565b5b5f61503e85828601615007565b925050602061504f85828601615007565b9150509250929050565b5f81519050919050565b5f82825260208201905092915050565b8281835e5f83830152505050565b5f601f19601f8301169050919050565b5f61509b82615059565b6150a58185615063565b93506150b5818560208601615073565b6150be81615081565b840191505092915050565b5f6020820190508181035f8301526150e18184615091565b905092915050565b5f5f5f60608486031215615100576150ff614fe4565b5b5f61510d86828701615007565b935050602061511e86828701615007565b925050604061512f86828701615007565b9150509250925092565b5f6020828403121561514e5761514d614fe4565b5b5f61515b84828501615007565b91505092915050565b7f4e487b71000000000000000000000000000000000000000000000000000000005f52601160045260245ffd5b5f61519b82614fe8565b91506151a683614fe8565b92508282026151b481614fe8565b91507f800000000000000000000000000000000000000000000000000000000000000084145f841216156151eb576151ea615164565b5b8282058414831517615200576151ff615164565b5b5092915050565b7f4e487b71000000000000000000000000000000000000000000000000000000005f52601260045260245ffd5b5f61523e82614fe8565b915061524983614fe8565b92508261525957615258615207565b5b60015f0383147f80000000000000000000000000000000000000000000000000000000000000008314161561529157615290615164565b5b828205905092915050565b7f4e487b71000000000000000000000000000000000000000000000000000000005f52602160045260245ffd5b7f4e487b71000000000000000000000000000000000000000000000000000000005f52603260045260245ffd5b7f4e487b71000000000000000000000000000000000000000000000000000000005f52604160045260245ffd5b5f819050919050565b5f61533682615323565b91507fffffffffffffffffffffffffffffffffffffffffffffffffffffffffffffffff820361536857615367615164565b5b600182019050919050565b5f61537d82614fe8565b915061538883614fe8565b925082820390508181125f8412168282135f8512151617156153ad576153ac615164565b5b92915050565b5f6153bd82614fe8565b91507f800000000000000000000000000000000000000000000000000000000000000082036153ef576153ee615164565b5b600182039050919050565b5f61540482614fe8565b915061540f83614fe8565b92508282019050828112155f8312168382125f84121516171561543557615434615164565b5b92915050565b5f63ffffffff82169050919050565b5f6154548261543b565b915061545f8361543b565b92508261546f5761546e615207565b5b828206905092915050565b5f6154848261543b565b915061548f8361543b565b925082820261549d8161543b565b91508082146154af576154ae615164565b5b5092915050565b5f6154c08261543b565b91506154cb8361543b565b9250828201905063ffffffff8111156154e7576154e6615164565b5b92915050565b5f6154f782614fe8565b91507f7fffffffffffffffffffffffffffffffffffffffffffffffffffffffffffffff820361552957615528615164565b5b600182019050919050565b5f61553e82614fe8565b91507f800000000000000000000000000000000000000000000000000000000000000082036155705761556f615164565b5b815f03905091905056fea26469706673582212201304d89996cd99a61425ee71c4b38a98fbf258f7fcdae791ef1ec5246c634b3964736f6c634300081c0033","linkReferences":{}},"methodIdentifiers":{"Benchmark()":"30627b7c","TraceImage(int256)":"c2943601","TracePixel(int256,int256,int256)":"784f1366","TraceScanline(int256,int256)":"75ac892a"},"id":0}