{"abi":[{"type":"function","name":"Benchmark","inputs":[{"name":"_amount","type":"uint256","internalType":"uint256"}],"outputs":[{"name":"result","type":"uint256","internalType":"uint256"}],"stateMutability":"pure"},{"type":"function","name":"numbers","inputs":[{"name":"","type":"uint256","internalType":"uint256"}],"outputs":[{"name":"","type":"uint256","internalType":"uint256"}],"stateMutability":"view"}],"bytecode":{"object":"0x6080604052348015600e575f5ffd5b5061faf08061001c5f395ff3fe608060405234801561000f575f5ffd5b5060043610610034575f3560e01c8063239b51bf14610038578063d39fa23314610068575b5f5ffd5b610052600480360381019061004d919061fa3a565b610098565b60405161005f919061fa74565b60405180910390f35b610082600480360381019061007d919061fa3a565b61f9c0565b60405161008f919061fa74565b60405180910390f35b5f6100a161f9df565b7fdd15a3172beda9cbabc29078d70db1e4a7e6e90743a5d72c041be9d9aa1bc193815f6103e881106100d6576100d561fa8d565b5b6020020181815250507f3292f362f2112d2de241bd3ffaf3fb08658a99cb2539ac5843918e5ceb4345ce8160016103e881106101155761011461fa8d565b5b6020020181815250507f9a207f9737e7c944f5fc54447a3e1d4968426cefc55dbcc6fe917390156bce5f8160026103e881106101545761015361fa8d565b5b6020020181815250507f56948791940313a9c4430188cf6f8ce1fc344c570196910d50d8994c98ecffda8160036103e881106101935761019261fa8d565b5b6020020181815250507f3720a59cc366cb4479a1e2d7f18a40b622252783f31e1fbff34e41718659bd2e8160046103e881106101d2576101d161fa8d565b5b6020020181815250507ff6a8356cc2ec7fb9fb16e19549f0bd5a146346716a491ae2cfade6f0a848df568160056103e881106102115761021061fa8d565b5b6020020181815250507f1bd8ab3b7ae5e41b6d7031da7b75bba074349f6c474aa615724669f163958ba38160066103e881106102505761024f61fa8d565b5b6020020181815250507f0d7742197fb0a53b179020521d7172203056a385654e2855bc5beae1aecd217f8160076103e8811061028f5761028e61fa8d565b5b6020020181815250507f6570841f5d3debf156ca11269412d361c81a4dbd349ba81e603298d59f3fd5e88160086103e881106102ce576102cd61fa8d565b5b6020020181815250507f9f5baf50b34dee2c16708b7a34a95f5274944236d3143045fd4bb8f4280c484d8160096103e8811061030d5761030c61fa8d565b5b6020020181815250507fe774c5113ad4c14dccb7b231ce346da60a310fa56058558c4b419119c13ffb6e81600a6103e8811061034c5761034b61fa8d565b5b6020020181815250507fa984cb87501566787240cb8ba675a70c4c631b237fdab17927f9be115b0150e381600b6103e8811061038b5761038a61fa8d565b5b6020020181815250507f467ade8864385a8dd6c99cf1681343623ed9fbecfb36360ca61198ee9ee10b9c81600c6103e881106103ca576103c961fa8d565b5b6020020181815250507f8ce9d7c9eba62a7483e35434c33a3497561a3658cb1d4c2d005a3cf8f4b9e18781600d6103e881106104095761040861fa8d565b5b6020020181815250507f7c4138d0f008fba217c697f8e6567027cf72f2ac2a3a5a1a5fb8d67fe719762681600e6103e881106104485761044761fa8d565b5b6020020181815250507feb460f497b117869fdc299bfaa69c126ada80a129a49c69737656004cf7f762281600f6103e881106104875761048661fa8d565b5b6020020181815250507f4b957d17b9527617955624c0c15049101dc0ba02156bdfb2b85fd596503ed1968160106103e881106104c6576104c561fa8d565b5b6020020181815250507fda710f3b2e405ee41a36a1349c3a7d2b9adc844d6849cf4f0691604dde989d3c8160116103e881106105055761050461fa8d565b5b6020020181815250507fedaaba82e4f988469096c90429ddd65cb9e5a9d5fcf72a10a6d596d07d0411708160126103e881106105445761054361fa8d565b5b6020020181815250507fd59c33cde4d4f790b8a517fbf928e02e813a540ae0ef25e4c440216ddab4e1b58160136103e881106105835761058261fa8d565b5b6020020181815250507fecf82602c8f4c25972bbd24c667e72d21bd17e87e767c092b2b4f69b89a60afa8160146103e881106105c2576105c161fa8d565b5b6020020181815250507f1f77ee5167939ed72e2e46f9fdb89c50436965f25ac33c4d5ad0ea0a259ad3bb8160156103e881106106015761060061fa8d565b5b6020020181815250507f84acf1dab49a696415c5e7a28922b456a3e10743d9ee8d47a271ac917fc0ea278160166103e881106106405761063f61fa8d565b5b6020020181815250507f27605b86562bb21362787fbae7b4569a55196a2eb39d778c0b149e1466da08618160176103e8811061067f5761067e61fa8d565b5b6020020181815250507f157c9fab0c8c94e7ff61436c463ba09aa7aad73dd574e77d4dec87ef887917238160186103e881106106be576106bd61fa8d565b5b6020020181815250507fe94e6b3034825625133cf6851c6cc886b3a9c04d632fc40d4e865196ac532ba88160196103e881106106fd576106fc61fa8d565b5b6020020181815250507f5bd164a593e76ffefb27f8b6fafe3156db1709e0184a757f5271cf648f44c62d81601a6103e8811061073c5761073b61fa8d565b5b6020020181815250507f94a2159c8c9295cc767527ca2b4f57315439306eca803954e34ab1168d668e1b81601b6103e8811061077b5761077a61fa8d565b5b6020020181815250507f2d8464a6b579e86e23c189c89c1ffb8cef045058e0b772ee7e35ae0a0ffa5a2481601c6103e881106107ba576107b961fa8d565b5b6020020181815250507fb4216fc6686cb2f388529256ee1e946313a3673df945b406cc8d77eb9ace14d981601d6103e881106107f9576107f861fa8d565b5b6020020181815250507f7a320ac4a3bee48b8e4a0fda7634eb91f3cfcdea1aeba596d6f7393f2a7c84fb81601e6103e881106108385761083761fa8d565b5b6020020181815250507f5d9012920b3b2d584c56cb45d48426293ed2a395d43ac03abf26bbfb0285103281601f6103e881106108775761087661fa8d565b5b6020020181815250507f37837a24d89286a8f530f86f408797234689f4a1b10af607abed023839c3a7748160206103e881106108b6576108b561fa8d565b5b6020020181815250507faa6decf81f392889301cfa495444bba1643b87f3e5d977e5a0837751fa71ecdf8160216103e881106108f5576108f461fa8d565b5b6020020181815250507f6249a2285ee61a8bcb9d77d8d1bcfa779296a4e6707e1b925c65c9b74686bc588160226103e881106109345761093361fa8d565b5b6020020181815250507f1d6cbdd13bb0b6df9f791ef368cd49b5987a6908dc77118909aecccc71e9b5318160236103e881106109735761097261fa8d565b5b6020020181815250507f8dd0cfdee4074c35c721d60f245f7ef154859e73e5a0d7725a1080903a6fb3e18160246103e881106109b2576109b161fa8d565b5b6020020181815250507fe08616d56a694a1b77e41f94dd50a7d7e0acb98bc6b2165af33834b0c1d2af9e8160256103e881106109f1576109f061fa8d565b5b6020020181815250507fb547035e113371d706171e843e1ba6825fc63a3af62689e8bdf4500b2aa6f8cb8160266103e88110610a3057610a2f61fa8d565b5b6020020181815250507f356f9a5f0c865de35041c3a25ce85c131eb9ab7bd729a64657e6b9136b5d88a28160276103e88110610a6f57610a6e61fa8d565b5b6020020181815250507f6478c7b2f164ad30c783534f28fa71c915bb1642678835b959c99f03e67ce61f8160286103e88110610aae57610aad61fa8d565b5b6020020181815250507f47f62094bd37a4e76a0aa0f466126f929d914017859d1a0ee7c8d18ff9ae25688160296103e88110610aed57610aec61fa8d565b5b6020020181815250507f41ae63eb551dd8f4bd37742bf724c6c69d237ceda0d04d23b94f940e7087d41581602a6103e88110610b2c57610b2b61fa8d565b5b6020020181815250507f270be7d9d25ad6130f76d12f17710a9b0f535189a32bbbcf18dece58a395001081602b6103e88110610b6b57610b6a61fa8d565b5b6020020181815250507fabeb8f30fcf447680132c2f73fbaf41445a76219824cf715df275e23722068b281602c6103e88110610baa57610ba961fa8d565b5b6020020181815250507f32ee6ff8aa5f937227464fb4a623d1dd5ed9c3ba8c252214e713dcb0cdd8fe5a81602d6103e88110610be957610be861fa8d565b5b6020020181815250507f71a6b33f95cb77e62142afc60f7f1b8e27332b9be4ace1591eae30a5b9e7c2e281602e6103e88110610c2857610c2761fa8d565b5b6020020181815250507f0d0995330a916ca9214c1a4da5eb2eecefc3096eb0dc51d9d0e26c113bc4334481602f6103e88110610c6757610c6661fa8d565b5b6020020181815250507fb51a327b1314bb04bcf5794ce717c5710e16e415bd6bc8b9077d904dea309e638160306103e88110610ca657610ca561fa8d565b5b6020020181815250507fd312cb4c6f1e940bc49a92a76ceecf11eaaebd624684e600cb7842f5722d79178160316103e88110610ce557610ce461fa8d565b5b6020020181815250507f33ca402031935838484b8bffd6b12cf10a4c8f2ad11dc60a412d7e8f5edaf0798160326103e88110610d2457610d2361fa8d565b5b6020020181815250507fe2cb22f3f93e1c32189bbac1b7de51d6620b2f8abcdccff5e40c8a1b941c496a8160336103e88110610d6357610d6261fa8d565b5b6020020181815250507f0d9aa3b3df29cc4a01b05cfc99f68c18f2ba90fecf303a705cf4e866385d41208160346103e88110610da257610da161fa8d565b5b6020020181815250507f6289685523d96a344934202eeb71b6720393a657d30798d150b030d5ae2e8c048160356103e88110610de157610de061fa8d565b5b6020020181815250507fda8a51ab2ce81a7431ad557535ccf64e82cad9f436ef10f2d55c07c33a0d0ecf8160366103e88110610e2057610e1f61fa8d565b5b6020020181815250507f7178d477dc03e5f92718cef321a2b7da9ee249f67a556bd371e1f1fde9b9e85d8160376103e88110610e5f57610e5e61fa8d565b5b6020020181815250507fc4f1193419ed8a52e6d0c4763cf0fc239cec2548c82be6727d247d751cd4bf3c8160386103e88110610e9e57610e9d61fa8d565b5b6020020181815250507f3e9c34b1fccfcc64b4ee89e35961563a02a4097eb4dbdbb1fcf8d2cd913095508160396103e88110610edd57610edc61fa8d565b5b6020020181815250507f658ca40092ee3034562670661ec970879d0cace6c98d0a74d69bb6998833f04a81603a6103e88110610f1c57610f1b61fa8d565b5b6020020181815250507fc454420b3966abd87a5675a5d5c33e355619fb468c057847e4fe5a992f881da281603b6103e88110610f5b57610f5a61fa8d565b5b6020020181815250507f0fcdca91b62ab964f6a98bcaeeecd7f393a04784e0501a62c54be1a6f1d5dd4381603c6103e88110610f9a57610f9961fa8d565b5b6020020181815250507faba8c04d2173fb21569ae6e62f0756f5b8b1ea3361abb0d17c043d4ded44f2b081603d6103e88110610fd957610fd861fa8d565b5b6020020181815250507f8337b0c2d72191f324b2af14c602802e387d89a8d6653113de6885e6b355307781603e6103e881106110185761101761fa8d565b5b6020020181815250507f34827ab42f4b567e5b7eae03e8fb76ae90bea8e028f3a716108185c8d960709e81603f6103e881106110575761105661fa8d565b5b6020020181815250507fab44824ac521997303ffcd73f9d7f703dd67020726030dfd4c8978890ac040b08160406103e881106110965761109561fa8d565b5b6020020181815250507f357ef43a5369c0402b8b7ebf528acc8e2b07d7e7c5f25bab558ba3196bdd0d8b8160416103e881106110d5576110d461fa8d565b5b6020020181815250507fc8d4316f8f92c915a261a529989e9ef418ff487f7530b5b3e7f981e98d5c762a8160426103e881106111145761111361fa8d565b5b6020020181815250507f8ba918fcd883aac551584305ebb41200ef9fd14f8946d8c351ca1bfec73357528160436103e881106111535761115261fa8d565b5b6020020181815250507f7a3a74eff91a95b8ab2881b1c6f48d672f676973deb536a1f9471e2b50448f508160446103e881106111925761119161fa8d565b5b6020020181815250507fef853f48be8059caf27483f9803f67b82ef56014726405a04788b325c9a4113b8160456103e881106111d1576111d061fa8d565b5b6020020181815250507ffec896f3a1817330346ad913c9f3e3c2c45b59fb56480c2268665dc1d81c77568160466103e881106112105761120f61fa8d565b5b6020020181815250507ffb6a71fcddfa3cd5089b7610b5b55c7bee7449ea2f3fcd7c4b594c3d0e8b1d288160476103e8811061124f5761124e61fa8d565b5b6020020181815250507f7d34664495e2a735c5faa0a7688ab59c5a8da088a0826f5ace3d79be5ee8925e8160486103e8811061128e5761128d61fa8d565b5b6020020181815250507f2e99790f94774ccecadc4b2e74c40d914636b200ea0981799d8d232cc1dc50eb8160496103e881106112cd576112cc61fa8d565b5b6020020181815250507fb6962a484b083ed2b751185af3db316eafa3eb326a667549988626413534267381604a6103e8811061130c5761130b61fa8d565b5b6020020181815250507f8402dd3f37b692cfda2db14919b9fc1577ea879ee20ba1300c6a69c525802ee381604b6103e8811061134b5761134a61fa8d565b5b6020020181815250507f7d88a05c2e920cc080499124fcd99f4d1a49385c82fc994dd5eef0b1aafed52781604c6103e8811061138a5761138961fa8d565b5b6020020181815250507fb4d278c21dc18d627dfb6e410f65818374044f4f7c7d3d53bf4f84f4a3309c5a81604d6103e881106113c9576113c861fa8d565b5b6020020181815250507f06701e5b02eebc0f4126d28a5cf82bf0905f1c2e92d2381ab511eef85cc941f881604e6103e881106114085761140761fa8d565b5b6020020181815250507f53a14c13e8b6b402917ed01ea48a9e6221cc74e466b0233491f9aa42d0aafd8981604f6103e881106114475761144661fa8d565b5b6020020181815250507f912102cd548be19cc7d2c92bc543286e1903937822931ba0b4b0022e9559d3eb8160506103e881106114865761148561fa8d565b5b6020020181815250507faf78e97f9029858aafa2a67927cf759a450ffdafbb2d157385210e91ea5c09a48160516103e881106114c5576114c461fa8d565b5b6020020181815250507f60f0cfb3e63d825a3c8951e7803efb1bf9cc678dc92e12ff638d7cb2ddbf22528160526103e881106115045761150361fa8d565b5b6020020181815250507fc2e917e9b21d8b8cdb2ccb923ec881aecaee56bf717c10244006e16d75fcabc78160536103e881106115435761154261fa8d565b5b6020020181815250507f759737099ed78f3271f573e3935a4953993b6d307d175ca7ddfed5d181649ad88160546103e881106115825761158161fa8d565b5b6020020181815250507f3896e534bdb83f4ac1a67cfdb7f2b4a54440e66e9d82db0f9abee7d2463d83928160556103e881106115c1576115c061fa8d565b5b6020020181815250507fbd4f519b6abe004c338647d5d2e4e8ba5273634781d7e858524adc0d2c5cb2018160566103e88110611600576115ff61fa8d565b5b6020020181815250507f6316a3608f298fe9e4085aecb50629134f22f9b829d6a1549669ebcb554f10918160576103e8811061163f5761163e61fa8d565b5b6020020181815250507f8f2ae147e0e6a0fe41d5a717c18fb8e47a5a7f434f4f09cdf2e6712e3f34ba668160586103e8811061167e5761167d61fa8d565b5b6020020181815250507f10c1be1a414ceeb61458b478216c8defb5351f4125bab38530427b8a3c6c7e5b8160596103e881106116bd576116bc61fa8d565b5b6020020181815250507fb085cc0848d1b364c1b895ff68ff150c26a8cb4a2c2ca17580f4937b91a01b2081605a6103e881106116fc576116fb61fa8d565b5b6020020181815250507f1d3efc40107d604d703fef8a09c11186a1605e90d18a09ba0b04bc3cae47d6c081605b6103e8811061173b5761173a61fa8d565b5b6020020181815250507f010f2cc8a2afac4eb4f28c05a40eb556daeb59138bb612de7ca555dfaabb57e081605c6103e8811061177a5761177961fa8d565b5b6020020181815250507fe5ad9f2807c09b9efff4a7b9531408923bec9efa6c5dbca993151c5d1cd71cf081605d6103e881106117b9576117b861fa8d565b5b6020020181815250507f48a9015accae8827c3bec5fdaf09872435253110df10dbb4e6e3fefa7297859681605e6103e881106117f8576117f761fa8d565b5b6020020181815250507ffdc540d1ca05cec057e375bdb79dab1b64ec36e788b428fd4283719300963a5081605f6103e881106118375761183661fa8d565b5b6020020181815250507fcf718b7d75cf6816772dacd90cc07e0110c6f9c34c72b4a0d90010ea32158bd08160606103e881106118765761187561fa8d565b5b6020020181815250507f999a8508f2c8c3808df830659a414e875f923a945d706d849eb1cef6da277b878160616103e881106118b5576118b461fa8d565b5b6020020181815250507fd680456e4fb61c3ac2f3cafb3a84f1b0d937ec11a6f2bc7698b9420cc4c123058160626103e881106118f4576118f361fa8d565b5b6020020181815250507f3995a59cf2d560acdeac1bbee1a78b23d79d3f725cc1cabc4acff01464f1338d8160636103e881106119335761193261fa8d565b5b6020020181815250507f5db1c7f4349e6bdcb1cd26cf38bbcc8379b70d0c19b7e0c6e57cef20d6bc6e0b8160646103e881106119725761197161fa8d565b5b6020020181815250507f08caf3d94772cc9454c103ad9f9548d99a989c76b1f914ec2f03f9968d6a52ae8160656103e881106119b1576119b061fa8d565b5b6020020181815250507f2cce69f5834bfc6a6152d18ce5af09098aad877d7045f965f2d10f16bb0f500e8160666103e881106119f0576119ef61fa8d565b5b6020020181815250507f3e8b84701aaa6cae5edb61a89472213cc9f40202f368a5a4b26bf5db056344158160676103e88110611a2f57611a2e61fa8d565b5b6020020181815250507f1db08dd8fe5e2405ef9a11c3915417798e9ec75c814b43d609d5b4547a1a38598160686103e88110611a6e57611a6d61fa8d565b5b6020020181815250507ffe73c401d28a87d9a6f2f73474c1759e4f2ba79d31cb18d84d0ed2fb2f79e98d8160696103e88110611aad57611aac61fa8d565b5b6020020181815250507f7936e1489017da2bf6c77b2f04069deb16dbf9e50cf83a251b1010a52c3dcfd281606a6103e88110611aec57611aeb61fa8d565b5b6020020181815250507f53210fa5c30313215348fbc13c61f8de24e97b0b95087e95d2a741a5e3f17fdb81606b6103e88110611b2b57611b2a61fa8d565b5b6020020181815250507fc3f670242eef40115171c227dc850d760ce0e1192dffd6c7a8f727d29d7401bd81606c6103e88110611b6a57611b6961fa8d565b5b6020020181815250507fbe8fdd1705d277b226adfcbc465d38b723e0e7993b891b738b0510d8797fd82e81606d6103e88110611ba957611ba861fa8d565b5b6020020181815250507f209508dfbb53d4d50e4f82b75e0921e3cf57ed7997ac42220eb998de8ad458d881606e6103e88110611be857611be761fa8d565b5b6020020181815250507f34e919181f7e3f27557ea08261c8e2f1738292d877f2bebea1fcc8215143c2e581606f6103e88110611c2757611c2661fa8d565b5b6020020181815250507ffb2e80fd2558fb3485a5cee9dbf1070d3feead6399415ec14599611b4d90c2ba8160706103e88110611c6657611c6561fa8d565b5b6020020181815250507f9cff0aad3eb57107d179b9ae6615c8da5dd091da16a3b027f36fe2ea79c437148160716103e88110611ca557611ca461fa8d565b5b6020020181815250507f138b68ed97dfa662f7557766129b57bb350d4424c03835049c2b0758d05167828160726103e88110611ce457611ce361fa8d565b5b6020020181815250507f536c26531521941f97a53d9f2a458b71861eb9c8ad7473289f88f0c1a67d8bf88160736103e88110611d2357611d2261fa8d565b5b6020020181815250507f89dd560279191c51ce3e6b4925e52d806c17200c7ba3f8e35b1cee93c9b4eb028160746103e88110611d6257611d6161fa8d565b5b6020020181815250507fdeb52a804df8a28e4f6d1a475c084e1503d6751982743953b90ed02bc1a3f5668160756103e88110611da157611da061fa8d565b5b6020020181815250507f18d28bb3408d6c7ea5be12827cf9f5caf36cd805816c28e685f5cd4c49b8416d8160766103e88110611de057611ddf61fa8d565b5b6020020181815250507fce7a46b0ad5aacd78147bed302ea7f5cf0e559231327c868157eb2dac20b6e9d8160776103e88110611e1f57611e1e61fa8d565b5b6020020181815250507f0f90b32748b97b14a87c582bcb40006782246a536874c7e8889a4c17d5dded998160786103e88110611e5e57611e5d61fa8d565b5b6020020181815250507f889d80040c2bae19606723b8902400819740c4c5d1fb790bc5e8437272258f918160796103e88110611e9d57611e9c61fa8d565b5b6020020181815250507fe0598e6df8e1e6f86f8d1e7d9e3d84e4f96aedacf2458726034de801dd58791181607a6103e88110611edc57611edb61fa8d565b5b6020020181815250507fcb2ea191754ea77d3c62e2876f8c6e1357d263b6680d3725ffefe1bc4367034e81607b6103e88110611f1b57611f1a61fa8d565b5b6020020181815250507f36fd762f2b8ef1f3dfa8fcbbffecf8ccdfb9210ba513b8f79c688f8deb5480de81607c6103e88110611f5a57611f5961fa8d565b5b6020020181815250507f8d94bab6c83d222ff650b8928fe7e206f4142801d516521e6dd8eafb5e79636981607d6103e88110611f9957611f9861fa8d565b5b6020020181815250507f6f15b493af6da0a502426bbeec6457c7d75d38951727d6b7ea70c32bfa295ef881607e6103e88110611fd857611fd761fa8d565b5b6020020181815250507f1597437a8cd0d33c90727e21d8b83301fd2870e9519b6ffcc3ae2ba567ff24e081607f6103e881106120175761201661fa8d565b5b6020020181815250507f7feae968203a40f5062bcbf6c0983b75df169348e670e52fb428dde7a68f30138160806103e881106120565761205561fa8d565b5b6020020181815250507f48ed79018833a836e4505e7c196c94cdc18948a30865360791c3568baa8908af8160816103e881106120955761209461fa8d565b5b6020020181815250507fa0673487b5c2bf1e8d691ea80f6fef96600b824ac6c930256c4c8047280c4b538160826103e881106120d4576120d361fa8d565b5b6020020181815250507f8abf0181c9d960131a30f66ccd853f7c9ee35c089e7a3fc2d140d763e62769538160836103e881106121135761211261fa8d565b5b6020020181815250507f0ad2d855fafa0c91f7e045051688674d5e22a79da0de0e2d2dfeb3a97f5182498160846103e881106121525761215161fa8d565b5b6020020181815250507f75b85a74a520c06bc777c105914694bc017b178a697e53656c3b5060d1debdad8160856103e881106121915761219061fa8d565b5b6020020181815250507f39c5647f665064d726064225738ae2792c2fecc085fc335d0483482330c5713d8160866103e881106121d0576121cf61fa8d565b5b6020020181815250507f8543d84c237b30683f95b56cb7b5326c87537d44d61dad5061a1d86e21f792108160876103e8811061220f5761220e61fa8d565b5b6020020181815250507fa695cae2c6e113fcf92e2b29debfc420c3dd6c61c4906dde82cf45d878c49b418160886103e8811061224e5761224d61fa8d565b5b6020020181815250507f17f7c322594b9a6a5b08d94dc9e6cffcdea1be481ab0b8c1770fbbb149ed1e578160896103e8811061228d5761228c61fa8d565b5b6020020181815250507f9f29af17a3c9e400c69ba2a2ed65c97d79411dff6343d9bcb85360098e20daba81608a6103e881106122cc576122cb61fa8d565b5b6020020181815250507fcb1cecca456ee051aaa5474568552f637b4161afb920087eed812b1f27808abb81608b6103e8811061230b5761230a61fa8d565b5b6020020181815250507f831a9202ab57cbdc0ceafc9778a866fc8f2721996f418ffe894735f37000f07381608c6103e8811061234a5761234961fa8d565b5b6020020181815250507f55035eed00d3dfe2900f57d67ea4d90cd7dbfc8af216c1573d1350c0ea3994f081608d6103e881106123895761238861fa8d565b5b6020020181815250507fe8a6a047a9bcdcdd7eb7105239122d888fb262a78ee8054401cebdd232072c7881608e6103e881106123c8576123c761fa8d565b5b6020020181815250507f41683596f0075b3884d37ae574c53558b13dd76d1ca904118fa23583870d36da81608f6103e881106124075761240661fa8d565b5b6020020181815250507f9de34672ca1e755c14d036e2ba2fadf6ee4eaa0059f41adb751251f4a60969608160906103e881106124465761244561fa8d565b5b6020020181815250507fa3545cf05e94136201c2fd2e0f31f09b0a46782072f0517d17d973c91db6c2958160916103e881106124855761248461fa8d565b5b6020020181815250507fad665d95df44163210a1e732f1eb64c77f97786c0bce3ac03b70bc6db88b60ec8160926103e881106124c4576124c361fa8d565b5b6020020181815250507fcf9318151d8689cad5026cb665cc96d5ad3b4968d10dd77caaea3f64e57d935a8160936103e881106125035761250261fa8d565b5b6020020181815250507fa4c64fb135be8ce201b5a47c1c37f0004fe167da9d3d228ede5d1700662b63388160946103e881106125425761254161fa8d565b5b6020020181815250507fd81131cbbd2c91fcde5cabce01dc8e154cbc0d40ab17cac541e023fa6bbbf4f08160956103e881106125815761258061fa8d565b5b6020020181815250507f509731df3979c572e4d2754732c66515a9eb826ee69430002c8ce3585fb836888160966103e881106125c0576125bf61fa8d565b5b6020020181815250507f3f51fe0f746912f401b9baf9137d3b643f09d9cce04ad850a9ceef580eba3dd98160976103e881106125ff576125fe61fa8d565b5b6020020181815250507ff4a2c57708f5bf995969b01f47e9f0e1e855c58014774e804585e68b32cf223e8160986103e8811061263e5761263d61fa8d565b5b6020020181815250507fa5f2cf2c4886646a2f9e464c33398576d8f282ad390f7ebe9dbf9b6c887a54e58160996103e8811061267d5761267c61fa8d565b5b6020020181815250507f864b1bc7d2481bc9daf91a7808b3dfdebb68533a57adf3a832b5ca4246c8820981609a6103e881106126bc576126bb61fa8d565b5b6020020181815250507f5d1e59476df25d426889dc5cf061b4ea993dee8fa68b35048ce6cbaaefa142e181609b6103e881106126fb576126fa61fa8d565b5b6020020181815250507fd7a26e73297c7de899a9749155451614de630a9b106869785a4ccfcd768b1bc681609c6103e8811061273a5761273961fa8d565b5b6020020181815250507f93b56630a4961532587c27a2bd0e7141b3d2866781dddab0c34e8d18805c1a5281609d6103e881106127795761277861fa8d565b5b6020020181815250507fc5311723c61c5784cfb095a1e11d7bcd3c77b46283b352399cd105e591b6a36c81609e6103e881106127b8576127b761fa8d565b5b6020020181815250507f7b93a4e404a8053065f62fe4b39951ede9b859184eab15af7ee2fd26a8f4870381609f6103e881106127f7576127f661fa8d565b5b6020020181815250507f31fed95725f1aa1f3345eba1c6808ebd1a2618908ee35aa5ada4fa85351db4a18160a06103e881106128365761283561fa8d565b5b6020020181815250507fccb57a65e91e1fafcf5004d47b7529a7d5f20901be04129f26081af904cfa09c8160a16103e881106128755761287461fa8d565b5b6020020181815250507f9acd28d052e2f45f7b4a891f27f30d8c91cafe02e8fcbaf620e030c13e40bfa98160a26103e881106128b4576128b361fa8d565b5b6020020181815250507f9e6bbd3d2e39a4387a1c3dff5938d5afe203048774988adc3cf17c5c412bcaee8160a36103e881106128f3576128f261fa8d565b5b6020020181815250507f5bf1b26e1fde3b341a823667704d145270e2c88d0e72ad30c5b8f7b9ba8f806b8160a46103e881106129325761293161fa8d565b5b6020020181815250507f853293dc7b5bc44889ddede6051a805123b2f48fd673dc4870998f706711049f8160a56103e881106129715761297061fa8d565b5b6020020181815250507fdcbf1fe48389eae0381abbb4816c7d91190452151afa248901bd12b1f06ec6828160a66103e881106129b0576129af61fa8d565b5b6020020181815250507f01271bb56a93cfd255e6c8a5d55cac9e0866361362ee15a2325cee2505d38adf8160a76103e881106129ef576129ee61fa8d565b5b6020020181815250507fd02a367287edcb3818dc8e3247418c7112e32478bfd3df3ca033c4a624238ad78160a86103e88110612a2e57612a2d61fa8d565b5b6020020181815250507f856b2d5f303d8fbc25fed82b698bda62f650457d4d5f2b956589d3fb4dfa8d558160a96103e88110612a6d57612a6c61fa8d565b5b6020020181815250507f6fb4222c0edd72fdf2b549f41df0c42b9f4c03aaa475e5f0682ca9317a4bccf58160aa6103e88110612aac57612aab61fa8d565b5b6020020181815250507fa6e66ee4c16b1163f4320bea35a411fba78a91667438137c60ff4e50a9608cc78160ab6103e88110612aeb57612aea61fa8d565b5b6020020181815250507fbbbc4dba733fd81b73fb4966ac4f1649b6465294c0853e08a948c2798dfa00088160ac6103e88110612b2a57612b2961fa8d565b5b6020020181815250507f74ed1e89af0c2815b6b07408a062a2fcaa7561f6ab5933ab6c80fec44d689cd88160ad6103e88110612b6957612b6861fa8d565b5b6020020181815250507f259c0b6da6aab14629d8855624845a5ee7f9ba49b9343df73b108feb7c7c57b78160ae6103e88110612ba857612ba761fa8d565b5b6020020181815250507f67849df54c36882ebe76126038c55d4b9ca961f473c218bad4907c9e33366eef8160af6103e88110612be757612be661fa8d565b5b6020020181815250507f73a096e36a65f00a959927a6d49406a4c05519f74342f7db48ade701420de8a78160b06103e88110612c2657612c2561fa8d565b5b6020020181815250507f2db44181f8f7823338ab2af43bcea6eb1ae64b9144f999bd895e84efe8e9af488160b16103e88110612c6557612c6461fa8d565b5b6020020181815250507fd7865e50d393865f27aa44d86410325787e68477868c15382f7ca9b578837b418160b26103e88110612ca457612ca361fa8d565b5b6020020181815250507fabe5980b21d0c2fbc248db9a8dad8a743ec665ead5a239cff528d465c30360098160b36103e88110612ce357612ce261fa8d565b5b6020020181815250507fb7bbd3bcb1feecbdb5cbab0b2bcea3f299e1a82e320778f5a5b14147cd03d3d18160b46103e88110612d2257612d2161fa8d565b5b6020020181815250507fd5fbc245c77faa3668a66957f3ddbb40aaace1628583252d11857b1036ceb7838160b56103e88110612d6157612d6061fa8d565b5b6020020181815250507fb695b4faf917e22bdaa6cbfd59b650870166effe4d2b6172c215d8a7e8a2a1678160b66103e88110612da057612d9f61fa8d565b5b6020020181815250507f2732107fb80b27d9093f8905974193db0883973527aba39e4db26b44c3e656688160b76103e88110612ddf57612dde61fa8d565b5b6020020181815250507f747f617f229f609dd5b32934bcd5a304e4f0cb240050cd4d2430c2679c1a00078160b86103e88110612e1e57612e1d61fa8d565b5b6020020181815250507f931b4cbd00f3de9d908e25b398560478f06e5a1ef377eee0cfba000eb25d3d768160b96103e88110612e5d57612e5c61fa8d565b5b6020020181815250507fa4508dbdca4657d5d8932652a65a02ec1237b5afc825a5314b88760866cb45bd8160ba6103e88110612e9c57612e9b61fa8d565b5b6020020181815250507ea0d385c6724c2a4665f1caf55bc2f7623bfb395ed2a1fb7540e845f5e6a1e88160bb6103e88110612eda57612ed961fa8d565b5b6020020181815250507fa3c711c5a9733dff68ce956c8842de21915d229d30596d0c4f3f7e289838c4c68160bc6103e88110612f1957612f1861fa8d565b5b6020020181815250507f0bc8b5b7968c4f349913821491b20f01bc5506e787d301992aa6dc5f9c7d8c578160bd6103e88110612f5857612f5761fa8d565b5b6020020181815250507f5962c6538f967b5c986396af2c4321589d4fae8ba375b17aa1cdd426fb8b61a88160be6103e88110612f9757612f9661fa8d565b5b6020020181815250507fa54baf4c77981d1f7c18835f70a59b42a033ac953c267ab417c216f6f6b23c7f8160bf6103e88110612fd657612fd561fa8d565b5b6020020181815250507fdb7478edfc6ec8b13a3af40a6e16f4248e40620027323c2813b80d25128addfd8160c06103e881106130155761301461fa8d565b5b6020020181815250507fefa45939e61b42f0f8d6e183ad1378fd41bb0bd8504c0b6c455bd392c41736578160c16103e881106130545761305361fa8d565b5b6020020181815250507fa141dd29d8fa165eb9aea140726a1b74df24b9ee1957e30c6afb49d7beba8a9f8160c26103e881106130935761309261fa8d565b5b6020020181815250507ff7109c5ffd947f433bf2013806be458d4216a55a786373d9dc0420a22118d7c78160c36103e881106130d2576130d161fa8d565b5b6020020181815250507f120d95577e1b85a45e6feacd807edaa8a851e1b5f64c2eff73e055a541bb87b48160c46103e881106131115761311061fa8d565b5b6020020181815250507f1eb2f4bdd2d1646a1731d718fbff74a8a84648fc45b506298da81109f59eb8678160c56103e881106131505761314f61fa8d565b5b6020020181815250507faba599976b00521cd1f10dc5b59f59a7329ac75d7aa1d5334f865031fa2fa4608160c66103e8811061318f5761318e61fa8d565b5b6020020181815250507f0979ee2da485508d53760bad652ed1231a3cf69e397e60b2db930fa1b7ab8f5e8160c76103e881106131ce576131cd61fa8d565b5b6020020181815250507fdf19cf631fb83d1c30b4cbbb12160e503e2bb93b8e8e312716b1ca33c19671528160c86103e8811061320d5761320c61fa8d565b5b6020020181815250507fdc948b6912d9f2427b8ae5c717ddc7db598d0f1da555151e8015be074c1d46068160c96103e8811061324c5761324b61fa8d565b5b6020020181815250507f81ae571a2cd1991a1b8311fa4f12732ed2f8147e7cc58faf8383d99733da3d568160ca6103e8811061328b5761328a61fa8d565b5b6020020181815250507fe9ccaf1420fecaf0a33ed3a3f42464daaab1938adf4b88218c6806fe5e56faa48160cb6103e881106132ca576132c961fa8d565b5b6020020181815250507f409a86ff4d7ccc97c093ddc13efbbcfb29f65940fbc2547604241fd66ac446cc8160cc6103e881106133095761330861fa8d565b5b6020020181815250507f60adb7f8710b1631fb7b109fff0b7d0b3f6f0ce9e981a108e4e3b20a1b82ff4b8160cd6103e881106133485761334761fa8d565b5b6020020181815250507f914e08b4a2369282e41500610368feac6b202e33d8c020571daf65021c4b82f78160ce6103e881106133875761338661fa8d565b5b6020020181815250507fc1c7575b0b4b5fcc508a1aa1468d121d716549b3db81a0c6804175778a4e88e48160cf6103e881106133c6576133c561fa8d565b5b6020020181815250507f877ebef5096c8a191a5a725aae45e9cf5d2ce444d77cf7f12979866a547587488160d06103e881106134055761340461fa8d565b5b6020020181815250507f8cf3ad4298adeccd083f10b07513806dac7ff58b3d0575aba1b4655adf8482b38160d16103e881106134445761344361fa8d565b5b6020020181815250507f74c6119c586465068adb1d35be5162dbecf50c35b2d2dde2f41bda54060ee6db8160d26103e881106134835761348261fa8d565b5b6020020181815250507f9c7d413160e57aa680615eba8cb244126eeac022796578a8d7bb1d1792e711938160d36103e881106134c2576134c161fa8d565b5b6020020181815250507fe0981b40671f57c7acc5b47c8b431a48f7e58c3f7b74cd2b4bba677bb031e6af8160d46103e881106135015761350061fa8d565b5b6020020181815250507f5186b0bbda7b2ae0f81b3b8028fb0e0c473c2d4df7727d431308da6a9e3b69e28160d56103e881106135405761353f61fa8d565b5b6020020181815250507f9de3e62dd566badac2de47a3fde8f4de92fe241968bdfd22cafe73663cc982c78160d66103e8811061357f5761357e61fa8d565b5b6020020181815250507f5401d339c8990d14ea93ec2c9348d6d3136fa679ab7c93f3efbca8001f26e10f8160d76103e881106135be576135bd61fa8d565b5b6020020181815250507ffd4959e0954551ff27fa3b35bb69ce82c3d9540ea25591f01792ae1e87dcae6e8160d86103e881106135fd576135fc61fa8d565b5b6020020181815250507fb7250b2a98871efd51d008de31329453dd94499dabc8a0f072ae8555ed802efc8160d96103e8811061363c5761363b61fa8d565b5b6020020181815250507febe2ef19224048ecd8bbb1bcda84f4788403f93014ac7f506e255e545b05a11b8160da6103e8811061367b5761367a61fa8d565b5b6020020181815250507f6c67816a000c7b715dbdeb0f866865c0816e8553826f745dff36df56e2ca94eb8160db6103e881106136ba576136b961fa8d565b5b6020020181815250507fd6a220c4a9f877708726a82bd7079f85eb8bc11c4804beca07e3d21daf71c9208160dc6103e881106136f9576136f861fa8d565b5b6020020181815250507fb616ddf46ac8d932bc573c3769b974fb1d45da59b0b9947782193e3c35a437298160dd6103e881106137385761373761fa8d565b5b6020020181815250507f4e9c501bf31cc5a0a8814631292d41607cb691a3445c5703f1bed6ec687fa31a8160de6103e881106137775761377661fa8d565b5b6020020181815250507fa6c70a4fab80e0494d53e56369dabad6ffbf20af67eced66bf1e53d94dd0f4388160df6103e881106137b6576137b561fa8d565b5b6020020181815250507f39460200f5f9c7dabf68579f9ff19f0d126ec158f5bb6609aa9289ebc07df94b8160e06103e881106137f5576137f461fa8d565b5b6020020181815250507f1af3e8996a9b5c33efb3abd72b533bb7f6ca181041fe02a7c736f35e011cb09c8160e16103e881106138345761383361fa8d565b5b6020020181815250507faa1e11f3d13190e53b9e2d681ed23b2df1303d80ca0fa4c73ac34f5a5e083c268160e26103e881106138735761387261fa8d565b5b6020020181815250507f0993321fe35de8f2ff1895fb469f8b6a6e9c096a91ee4e630c536067c5e8b7f08160e36103e881106138b2576138b161fa8d565b5b6020020181815250507f31b9ac76ef523f890f64c859e1dfd21fa87822c688d22cc87c239d407a4f68a38160e46103e881106138f1576138f061fa8d565b5b6020020181815250507fc7eadf89c6e2f6016e93e4840b36c3c61d7c83a6366df4eabe237e7f6c1ee1048160e56103e881106139305761392f61fa8d565b5b6020020181815250507f6c58f1a6914d763c271596389f98f825e6686281c3fb64dd32fcc1eb1d14bbed8160e66103e8811061396f5761396e61fa8d565b5b6020020181815250507f1ba659545b67d31dd74635a0cdb5c63e8762c0edd10535f2a032a576a40b91978160e76103e881106139ae576139ad61fa8d565b5b6020020181815250507f36f2de03329871c050d183b559b3f94196a38eff6b22be603145ad23e2a967a28160e86103e881106139ed576139ec61fa8d565b5b6020020181815250507f43eb72eab49d20b0d45f3d7ad3728c618d2f3e2e317b9c3285cdc674b8c7d63d8160e96103e88110613a2c57613a2b61fa8d565b5b6020020181815250507f7391bdd745394ef1bef5cefa4a4cc8a13fe91747bf0e6d572e0f97935ef792bf8160ea6103e88110613a6b57613a6a61fa8d565b5b6020020181815250507f4d1febbe55281cc668f8d52b940cb01c4d6ce59e610bd95770c08d1423a37c538160eb6103e88110613aaa57613aa961fa8d565b5b6020020181815250507f4e4cbba461530e72e1f16dad36289bb901a641378e8d69c460eaa0ab47cc70a78160ec6103e88110613ae957613ae861fa8d565b5b6020020181815250507f4bccca92fc775befbd81573c4120030e1576dbf524827754343ae1bdec9a2ddb8160ed6103e88110613b2857613b2761fa8d565b5b6020020181815250507f6911e5c5099e9c49c655f1bb23c7ea5343dd230ecf810ad053e8050e60f4edeb8160ee6103e88110613b6757613b6661fa8d565b5b6020020181815250507f65b59e505693d1856c728ba86412ba5121625246370c54b21fbb31058a3392968160ef6103e88110613ba657613ba561fa8d565b5b6020020181815250507f31eb9243bd648f28f64da9476864ac577a0cda30b7288ce9a655a4d0ebeb19378160f06103e88110613be557613be461fa8d565b5b6020020181815250507f1edd3edbc2ba2aa47791e231fa10a8632020613692f61015b6524e5f1d829d7e8160f16103e88110613c2457613c2361fa8d565b5b6020020181815250507fba405dc7925c3ea06692ef7c9f6f038e4bac788c69872309a7cf7b8c243462048160f26103e88110613c6357613c6261fa8d565b5b6020020181815250507fcf68487a485534aadf17522242154b994bb6cbe23bebd64bde64caafc46e1e588160f36103e88110613ca257613ca161fa8d565b5b6020020181815250507f04f3877820b12c5f8e0c21c227bbafebf8c2b0bddde061cb700c6a0364f8c5498160f46103e88110613ce157613ce061fa8d565b5b6020020181815250507fdec5879287aad0ce691148ce74ab47423bee093899f01be63f71cd2e4a95a87c8160f56103e88110613d2057613d1f61fa8d565b5b6020020181815250507ff57b27788af2423e025e49b6522f0138305512739d01dd09da438b2ab95ec3b68160f66103e88110613d5f57613d5e61fa8d565b5b6020020181815250507f9373f6457fdcdbf69e5cd851b403e0fb9e9688f5e5364ddd513972ae11e582218160f76103e88110613d9e57613d9d61fa8d565b5b6020020181815250507f9fd7da826f5f004da81b693dfdab9f2dbd74d50a272a7a7789e16e3fa5d908858160f86103e88110613ddd57613ddc61fa8d565b5b6020020181815250507f5609ff38e7d41c435e4e6fa6ec38c21d04f60c30007a0494e2b525dff21c4f468160f96103e88110613e1c57613e1b61fa8d565b5b6020020181815250507fa2c88a08127deecbc07a9887e5cb580232ef0a26148dcf8df08dbf55363ea3098160fa6103e88110613e5b57613e5a61fa8d565b5b6020020181815250507fa9de98eb4582bbdf4d0f7caa71ddd9e24afbebc010140b0328ee5a4816c872a08160fb6103e88110613e9a57613e9961fa8d565b5b6020020181815250507f9af38487f719ed842f3c11c40468ded919ccc56ce44eb7b6a90ae354f5e6e44a8160fc6103e88110613ed957613ed861fa8d565b5b6020020181815250507fb2952a1f20b64a4d3af35785459becd535d39574201b6cca59defffdfad293608160fd6103e88110613f1857613f1761fa8d565b5b6020020181815250507fc91a458ff6a65349f8c5e48e3fa07b28c85be5a3488b1ca10c3329b7e748fff38160fe6103e88110613f5757613f5661fa8d565b5b6020020181815250507fde405f4a5c5c05c0837aafa63827e147361219cb1dbd967f24c2b43735137ed48160ff6103e88110613f9657613f9561fa8d565b5b6020020181815250507fe60e49f78a5a00438cd38144884640455f5276cf257d297e689daef841c02bca816101006103e88110613fd657613fd561fa8d565b5b6020020181815250507f28f54f82a6c7dec93fc882e5fb687f4e15266b467745ed7074cb798695fd799b816101016103e881106140165761401561fa8d565b5b6020020181815250507f2b7eb1162dfcdfee0b698717bb69394c151a6438e6c5e1e4a77083cb62b56baf816101026103e881106140565761405561fa8d565b5b6020020181815250507fb4dee0f40fe0932b668137b2b705b7976cb01bef3acb7cb9b33ec28e03acf4e8816101036103e881106140965761409561fa8d565b5b6020020181815250507fbedecc2ebd75531f276348ac6a24b2071b2633fe2fe3d4652bcce3770cc8e4f8816101046103e881106140d6576140d561fa8d565b5b6020020181815250507f4075e9231c04b92b42976140ab52f511e47f7ec51b484b306574edadb8eb2b2c816101056103e881106141165761411561fa8d565b5b6020020181815250507f7a8c15e8041ae8e553d19e30f973d2108663b4c7469ecf8f49500c7125cc27ce816101066103e881106141565761415561fa8d565b5b6020020181815250507fe0182f05c4fa8bf96be83f30b5f586190d92d210f2db18202c8490fa2c51cf5c816101076103e881106141965761419561fa8d565b5b6020020181815250507ff09f7cbd218adbc8b9c6f537635d07a997199b82c850a1f1bbf258a9d08a068c816101086103e881106141d6576141d561fa8d565b5b6020020181815250507f4accfff98ac59a00866fcba437f2ed8eadda2e607068d77647f955f23049536d816101096103e881106142165761421561fa8d565b5b6020020181815250507f3109a6e598da802dd577ab852a05f2029fe94df1a90daa37a665c8ef821fff528161010a6103e881106142565761425561fa8d565b5b6020020181815250507f6629b369bc07c57419762bde254c1440d46663974132aa8d24cfdd7746c42ca38161010b6103e881106142965761429561fa8d565b5b6020020181815250507fac2c7704acddfa90d30899e9df2a134dfdebfda178b83acf666c9c8cd3a0b68f8161010c6103e881106142d6576142d561fa8d565b5b6020020181815250507f5539b600880167c434e313a6b100a2f17e64dba84fad0f9f8346b2a4ed33c9438161010d6103e881106143165761431561fa8d565b5b6020020181815250507f8574299f93630a4e4a0f76e59e97cc9bc7af705a54d45561d4bbabdda262e2aa8161010e6103e881106143565761435561fa8d565b5b6020020181815250507f6669441cb5e38973b378298f6d5d06cddac976ab29bf7744a843162d1c43d4e88161010f6103e881106143965761439561fa8d565b5b6020020181815250507f4690eff83c22f0d17f93c2525c89dc5fc8b8e2ccf752021e90523dccf666ded9816101106103e881106143d6576143d561fa8d565b5b6020020181815250507f3ccfbc7def4e8930a4d4af8ae02274099b5dfdeaaefe0d9b443de2c30da043e0816101116103e881106144165761441561fa8d565b5b6020020181815250507f28235a8dc7621edb4c3782acafb2a44bd4e3affe7b0f2d7f8773ab0742203160816101126103e881106144565761445561fa8d565b5b6020020181815250507f42322f38ebdbcb846d1cad5dc9f23f69498dfbf29f333df7f9fd2def72a44b97816101136103e881106144965761449561fa8d565b5b6020020181815250507f2dd6836e7e00c9bb226e3616da78fecfb51eabe4eca402f7f9d657297312598e816101146103e881106144d6576144d561fa8d565b5b6020020181815250507f3bec09b8f19828fa56dd9543eaa4dbd13fc1a06f37d144af43fa83fff79d3a32816101156103e881106145165761451561fa8d565b5b6020020181815250507f42591eb9fdce0acedd04cbec020292e950e15d2700f9edeb178927fb125c54b5816101166103e881106145565761455561fa8d565b5b6020020181815250507fddea31ed0f964b6ea63348a73c8cf5f02820a48ac315d6532be601da684fe89e816101176103e881106145965761459561fa8d565b5b6020020181815250507fc76aa26696914c1c914cdf2b8cf758e2ac1712408285dd648ad685f8a36ec941816101186103e881106145d6576145d561fa8d565b5b6020020181815250507f70da23764afeeccec322dd0091ba9961538f0e9978635802897860cb506fc576816101196103e881106146165761461561fa8d565b5b6020020181815250507fdfa7139c44c6147199b8852cd9f76a1d857d68a22253ceac20a1d7d66beac3658161011a6103e881106146565761465561fa8d565b5b6020020181815250507f11c5bade920d44247237972aa110a70b92fc6452b4898f5127a321d38eeb0ecc8161011b6103e881106146965761469561fa8d565b5b6020020181815250507f1b2574aa61e269a1d90fd0061fe20643a67aab7431f22d4da46bf69ba848675f8161011c6103e881106146d6576146d561fa8d565b5b6020020181815250507fc66a06b066e35c6bd4fa917bce914d5b0aaf27e3376ba55e450fcd6ff230f3c78161011d6103e881106147165761471561fa8d565b5b6020020181815250507fb50596325286af77e060f2724d2fa78256113f7b5b003ad43391134ccaccde5d8161011e6103e881106147565761475561fa8d565b5b6020020181815250507ff5ab48fe9b302f153ee359f3a31551402a3802a07bfdb6bfa8c0e0aa6c5f5d038161011f6103e881106147965761479561fa8d565b5b6020020181815250507f833d847890eafc5a8b236bd1a996eb46daafe34d710c36ac514006e5f5d39cd5816101206103e881106147d6576147d561fa8d565b5b6020020181815250507f98f93af7dc860ebd3caf20ff291c10f9e5e7a12edaa66b60f43dafef7a4319e3816101216103e881106148165761481561fa8d565b5b6020020181815250507f0923ca64708e0c75dbff023489bafe6b75b25d91d888c535ec7633da6e717a0f816101226103e881106148565761485561fa8d565b5b6020020181815250507f236d77cebb89d7a56950baec84c92481528a0324e733855e21cd3f3a6c101612816101236103e881106148965761489561fa8d565b5b6020020181815250507fa899d67627db344308e9893538a196f685cb3f3c5c2ed0f6ce755b7efc9c86bc816101246103e881106148d6576148d561fa8d565b5b6020020181815250507f2bc64b44c022b5143ecf86c26d2590a800fb8ba8a59ae8667995984a6e103a3c816101256103e881106149165761491561fa8d565b5b6020020181815250507fa4bf2361f4b91ad37321192d1c0cbd2553da40e7833c2472862fd5c944a5bb5e816101266103e881106149565761495561fa8d565b5b6020020181815250507f02267a0a9986520af8914e104ed936c90ada6baa41b83ae32245bdca38444fb8816101276103e881106149965761499561fa8d565b5b6020020181815250507f934ff6c98f1060ea77e46ac67687772e011091c28d2a40f2327e11c58b0bce30816101286103e881106149d6576149d561fa8d565b5b6020020181815250507f9e7a45b9a4aa9ee9d9be2b9cdc9a1fc9a6b5bb91f405b39f2b3bbe918937b54f816101296103e88110614a1657614a1561fa8d565b5b6020020181815250507fc4f234b2d73e00c87e85535228983c465bb71bea67792ee2c0834028b41cc3868161012a6103e88110614a5657614a5561fa8d565b5b6020020181815250507ff4673022cfdfa1cac35458684c9e334ccfc2c32672bee6f9c5bb8f1d91c840708161012b6103e88110614a9657614a9561fa8d565b5b6020020181815250507ff50bb11e062dfc07631c6c7eeb71dd9a35351d007c18fb28a3491b25c4bd200d8161012c6103e88110614ad657614ad561fa8d565b5b6020020181815250507f5af9135ee732c33e95d4e47f8d634a0892f1345368e98b4122688ad8c920b1cb8161012d6103e88110614b1657614b1561fa8d565b5b6020020181815250507f470e0776694b7ddb7dad054d9de133ff0fbbd4db270ff7c79511475f8e9397aa8161012e6103e88110614b5657614b5561fa8d565b5b6020020181815250507f05ba86ef7bb2d2188de19e929a191d7fed1378b053010b9d2b9d89877e3121ca8161012f6103e88110614b9657614b9561fa8d565b5b6020020181815250507ff547e7722c471bf32250b0702bf8887d14d8e2e7af10d5fe6cba67d19674cd53816101306103e88110614bd657614bd561fa8d565b5b6020020181815250507f6805fe9ceb5fbdf3dd31033dd0029e7e468a075de990b256bd62d58181c9f9ca816101316103e88110614c1657614c1561fa8d565b5b6020020181815250507f9904a23af0972a386a01f3e06dcb93886125ead85c9da54fd69c6f5039848997816101326103e88110614c5657614c5561fa8d565b5b6020020181815250507f10ae631d2c3a472fbff6b6bb104916079dab9924c3bcb55dff2c30789bf5043c816101336103e88110614c9657614c9561fa8d565b5b6020020181815250507feabdf10671d7a4dc9fd148c12bb9ff6254831051ea63f4362ebd347e7464c9fa816101346103e88110614cd657614cd561fa8d565b5b6020020181815250507f6eb38ef41ef6b9d5d6c3d7a81e36ccff4175f08a7955334ae0cf522eecb06ecd816101356103e88110614d1657614d1561fa8d565b5b6020020181815250507fe8e0c58f792676251c93f2cc583bd98662cb51458977634e4d925df699f00d4f816101366103e88110614d5657614d5561fa8d565b5b6020020181815250507f3b6c8fb00033450daf704cadedf07201d83462b9114460343aecb467e22eba73816101376103e88110614d9657614d9561fa8d565b5b6020020181815250507f862e97875eb231c5e7b88982863ea30180b500a755a25208430f8e230e583204816101386103e88110614dd657614dd561fa8d565b5b6020020181815250507f8b597c8d8015ab820f317a8409c0d8ad906fcf9c0b3c227e62aa30a907dcbf53816101396103e88110614e1657614e1561fa8d565b5b6020020181815250507f67900d89d40b2092d1e8984386a7f7ce070e34fdcb726dfdcad282e3cdee5c748161013a6103e88110614e5657614e5561fa8d565b5b6020020181815250507f1b3fb4fe720b2a38f815bb5914365444b06d8d44b7728209efde0f97cfdabea88161013b6103e88110614e9657614e9561fa8d565b5b6020020181815250507f965e87d96e8a5bdaa6dc1d17a92c5c9a516f6c01ec897ecadb8db5aa0780102a8161013c6103e88110614ed657614ed561fa8d565b5b6020020181815250507f915ad17aeba3d31ff01cd02d10320de9328f8ec698e679f30fa2408e530c26c68161013d6103e88110614f1657614f1561fa8d565b5b6020020181815250507f33b549cd27196be07a3b7afa5ca2e43576cc07bb1e80373308d1efa613bf42d58161013e6103e88110614f5657614f5561fa8d565b5b6020020181815250507fb476064bde9fd38b2a745712216caf576ee00e0dd0ede5f54e891d614017ef948161013f6103e88110614f9657614f9561fa8d565b5b6020020181815250507fa641840a1c1eaae5d7db44270cf21cbd7924b54f36954c836dde40f670e55ddf816101406103e88110614fd657614fd561fa8d565b5b6020020181815250507f7b58e9a117876ba4c777139f7d2c521165a0a33b2a9f86358222da8fc96177b2816101416103e881106150165761501561fa8d565b5b6020020181815250507fc70fc87e0df96558b6352b18a6b3735c0d03cc01109354dc7fca298ea83a7515816101426103e881106150565761505561fa8d565b5b6020020181815250507f18dbe46416b20beb88c9f562b86600ded14033a7080578ae02155f4629c9d358816101436103e881106150965761509561fa8d565b5b6020020181815250507f911505ff560a2469d1c8d31c6427a0f994694eb544a1769b3718a1c35218ab19816101446103e881106150d6576150d561fa8d565b5b6020020181815250507f1a0d32fec645b4dd60956727e8d56addaa51dbac5b075011ebebfbecde88002b816101456103e881106151165761511561fa8d565b5b6020020181815250507f549104571cdc346b7b8d96d7cc1c08f6e7ae10e8ef32a56b7297640ecd1dff01816101466103e881106151565761515561fa8d565b5b6020020181815250507f18c78c7c457303a569a10d87f383e2c77de0ca6ce0dfe465887cf6a5d5752a9c816101476103e881106151965761519561fa8d565b5b6020020181815250507f970953377fea376f86bd0f2ce6efd7518e40b615a312ae5f7d8aaf176de42238816101486103e881106151d6576151d561fa8d565b5b6020020181815250507f918c5f17ea78fcbc3daac6a1116e64a7657c36e4cace3ebd3dc9f5c1b0d237fa816101496103e881106152165761521561fa8d565b5b6020020181815250507f42e2664712d3bc26d2f350932a26adcaa4ea44808c985d30a2f95b0b6bd8694d8161014a6103e881106152565761525561fa8d565b5b6020020181815250507fe1359e150b7e0ea176d4139654e80939c80d6976ff48fc045afed3671fa329c98161014b6103e881106152965761529561fa8d565b5b6020020181815250507f9ce8ce43ac93c2e704ecc4d418ab5aea5ea283bcc41129b3e2536400ab7050058161014c6103e881106152d6576152d561fa8d565b5b6020020181815250507f09730d4c4b10149e5ce8e649b77617766ffa646f8caad9b222113cef6c767b278161014d6103e881106153165761531561fa8d565b5b6020020181815250507f4093d3b9d717b0206e42c8518879e9a2938f55f2c67d368fad9b02481d0396328161014e6103e881106153565761535561fa8d565b5b6020020181815250507f66f96c3a67bfd3768133c21cdd306c27dcf23b5e04ef0690c7419419ac5d73748161014f6103e881106153965761539561fa8d565b5b6020020181815250507f9af6df9f1c682b24844b76888972d52363286bd299a05f71460051c3a431ad1b816101506103e881106153d6576153d561fa8d565b5b6020020181815250507fd18be1e7e4729dd95493da3029c262aa025114de749f8b20e0a0e06d456909c1816101516103e881106154165761541561fa8d565b5b6020020181815250507f448832cf90dfbe416b83b6df6fcf0d4233f6c5ad5f05ca0bb70fa9b9989a5a75816101526103e881106154565761545561fa8d565b5b6020020181815250507f5d54b64cfd83eae466614fe92c6cd4445f47950984a0a094cb82876e559c36b4816101536103e881106154965761549561fa8d565b5b6020020181815250507f7ef4358115bd9868bea648ad39d50380688f65dc302fe6a1eae52a3d72255739816101546103e881106154d6576154d561fa8d565b5b6020020181815250507f3582c07d9534c30bf917f934d3447d69c4f9ccb961d8860da725590f6fa7f359816101556103e881106155165761551561fa8d565b5b6020020181815250507f4e305bfe010f6ea11b2a5bf13533bf1445a3e7356cab68bd1c2db00f9023f154816101566103e881106155565761555561fa8d565b5b6020020181815250507f8b1fb5b21b5a08e3f682db543249d8d24d1d139fce147c485c7103871998328e816101576103e881106155965761559561fa8d565b5b6020020181815250507f3fd874a1916abd5e318207dee8ea434a60c36968b447444b1b3cbadd2508eb05816101586103e881106155d6576155d561fa8d565b5b6020020181815250507f48d282095befada7cccf6e210d3b6ffc0317699c3e296cedecd92d5d9e8c947c816101596103e881106156165761561561fa8d565b5b6020020181815250507fd7e9d8e3be8ddd864bdc0dd5a12db33897c3406e6acbb26beef54ad3df26b7638161015a6103e881106156565761565561fa8d565b5b6020020181815250507f77418d797f0ec2123a160cfcee2c724f337b9a19dddb123c4c5ec4738a2ae4f78161015b6103e881106156965761569561fa8d565b5b6020020181815250507f76b1d71a301c8166da2c1c8fbec6c68f0f8f07c1f8e8835cdd5559843cf58fc48161015c6103e881106156d6576156d561fa8d565b5b6020020181815250507fcc8d9480708255f09da201cf2f426c2c8dde829f50687e16a1216fd7c648b89c8161015d6103e881106157165761571561fa8d565b5b6020020181815250507f33f8bf6f0c4d019c1fe809a0fad777ab89a2cce703561c49febbf704375e142a8161015e6103e881106157565761575561fa8d565b5b6020020181815250507fcb16f47baaca87ca46395c8a2407cf1b54b79ccfc5a39ec8ffd4823966b1adc38161015f6103e881106157965761579561fa8d565b5b6020020181815250507f40875ce189a371f96cb919f3848b066a3887ad1ec80877ece919c3bab67ed1b4816101606103e881106157d6576157d561fa8d565b5b6020020181815250507fa53ab3324d8f9b33549085fbfc2dd3569d7cb11c07e99cec3af0ffc688e355b8816101616103e881106158165761581561fa8d565b5b6020020181815250507fce88a1bc64f757f923047ee505dcec6245abcb7794babd4a0b232d6535f373cd816101626103e881106158565761585561fa8d565b5b6020020181815250507fa312f91fb21297eb3cc23bbabc280c090836b261237682cd716be35fab16f4cf816101636103e881106158965761589561fa8d565b5b6020020181815250507fe09689faec8493fbe8e96ebe19ba94f541aeb9faddeafb5d38c191b2d5f4235c816101646103e881106158d6576158d561fa8d565b5b6020020181815250507f100fbc5014b73888df4de3cd7ec3f1a21b4432d0abbdab4cbd026d1ccd511f97816101656103e881106159165761591561fa8d565b5b6020020181815250507f430ef7a85e41d08895d4d8aef3656e09c72758b1439ca8bb2b21aa45d1eca5e5816101666103e881106159565761595561fa8d565b5b6020020181815250507f7a89114244113fb98f4fa1c3b9f59c0db38a6af7e760e0dbeb5d68cb7a1524a5816101676103e881106159965761599561fa8d565b5b6020020181815250507f661d3c6db8f41789410d045c977fea5c0f5102ae57fdb170c137d7e5a2d39338816101686103e881106159d6576159d561fa8d565b5b6020020181815250507f5f2f8fbc2300c05d34f5539d3d070f66ebff05213851aaeb684bde5987ba1232816101696103e88110615a1657615a1561fa8d565b5b6020020181815250507fdb6b3e2c09ef41b52260f5e002bfa7f138f8fdfceea9308e6ca3acfefb7a44b78161016a6103e88110615a5657615a5561fa8d565b5b6020020181815250507fb4b3a45f86c236f98f9a39033f40cff251ce59198937793e0237b3a5705a8a7b8161016b6103e88110615a9657615a9561fa8d565b5b6020020181815250507f75262cacfd477de6107f48abcedf5a252c45880940779d0141a0eb725bdc5cc08161016c6103e88110615ad657615ad561fa8d565b5b6020020181815250507f72b2fd3dc1dfa903e2eefbabe591c7d6c77cdf9f4f049f05d4a85c3a507680998161016d6103e88110615b1657615b1561fa8d565b5b6020020181815250507fbc1beaa4e1b8ee63804e8b5149b4a5e85d1f4fb1f25e68c532af3b143dcc7d068161016e6103e88110615b5657615b5561fa8d565b5b6020020181815250507f173704c6aa04261618962efafa9218a363157bb84aa1e8d61df2b0f9a4db01fa8161016f6103e88110615b9657615b9561fa8d565b5b6020020181815250507f96d6f0ccb497aab254e49b9d480afd0903d050a819b5b77d0caa169e80c6e132816101706103e88110615bd657615bd561fa8d565b5b6020020181815250507fe7e51f2fb2b7920dc36ecab964820f70f33c7ea2384d917291543f212c5fc2e0816101716103e88110615c1657615c1561fa8d565b5b6020020181815250507f513cbddba187c560b4a438af760f175cae0b96100eb497a4a9900e73261c20ce816101726103e88110615c5657615c5561fa8d565b5b6020020181815250507f7aef60c48a20ac97bcc410585d3c258327ce0846536a685302b4e7df3b17394f816101736103e88110615c9657615c9561fa8d565b5b6020020181815250507fb331bc9a1fa025d5ca3e818b3e045957635dac85f69932b955cda68ee21b5a02816101746103e88110615cd657615cd561fa8d565b5b6020020181815250507fa530615b450749ef27a4e8cb1f610464cd30aa8307ad33d9065804a7198372ea816101756103e88110615d1657615d1561fa8d565b5b6020020181815250507f4575a53c82d16bb7476a00b05aa8e6b2272b57f5bc2054c732bb914f54470911816101766103e88110615d5657615d5561fa8d565b5b6020020181815250507f13930638ca3a86be5f8960b927abdd5d6e4f58f26b4a04b1a5ea798e04e4661f816101776103e88110615d9657615d9561fa8d565b5b6020020181815250507f47eff25d5a24ee5007bfb0110b79fa071ae1cd4daff01246b815aff33ae2eeda816101786103e88110615dd657615dd561fa8d565b5b6020020181815250507fba03d54d7a5d50f7094e47427cfb0949d2225a311a4085ea01e1b80d88e9090d816101796103e88110615e1657615e1561fa8d565b5b6020020181815250507f441940070788a6350e67b915a6ea45121600380901a69fccfaaa7f4fa45bc1648161017a6103e88110615e5657615e5561fa8d565b5b6020020181815250507fe3628963725ddc2e141f73f91e1198a19b5660da4abce24184c976fb397c3a898161017b6103e88110615e9657615e9561fa8d565b5b6020020181815250507f13e180050808edd021fec7e23bb8891f5a5d6f053d79b7887de03bab6a8cac998161017c6103e88110615ed657615ed561fa8d565b5b6020020181815250507f763a0e450dc58264392037121d44d5b8a94e1c4b6f2322a10395b3aa6b443e748161017d6103e88110615f1657615f1561fa8d565b5b6020020181815250507fb30b6a150e83bb8395c43a382de030a62e2fbbe27079cc194d1239d75121b8b28161017e6103e88110615f5657615f5561fa8d565b5b6020020181815250507f3fd5ff8b8d99d9c509339dd73472900450a6e76b115675ea4ebc507d92e7af238161017f6103e88110615f9657615f9561fa8d565b5b6020020181815250507f2bf5208e10add28c41e5d2e51fb3d10f204696e280593e79a3331913142ad224816101806103e88110615fd657615fd561fa8d565b5b6020020181815250507f31b475078842d134444df361460dc951ccabc9b58039676377f5050b5d00bcb4816101816103e881106160165761601561fa8d565b5b6020020181815250507f518687dea8e2b98abc76a28e917606dbd8488be3ea8ae9d071281eb5c2dccab1816101826103e881106160565761605561fa8d565b5b6020020181815250507f88a491da5bf176781a84acad0f67df088c6c6b962911d63262e1df77ece065e1816101836103e881106160965761609561fa8d565b5b6020020181815250507f61f5a7da42a3427231f875f183e4f022cd89c6586f91218eced74a0602a5a7ee816101846103e881106160d6576160d561fa8d565b5b6020020181815250507f01d80167ebb3ca7ea3e82a0f8cc837d21b7715f1f455b42e642e5645e7661bcf816101856103e881106161165761611561fa8d565b5b6020020181815250507fee94bcf5453b8641419d9c36d0d6b251e79f682adb50769520d41851f9126fb8816101866103e881106161565761615561fa8d565b5b6020020181815250507f18d42b1334426d271e7b6c0fe45176af7e92734f8b038756702e5b850d822bc7816101876103e881106161965761619561fa8d565b5b6020020181815250507faa652937acb1d79491ba86a83635d06c9e9424785c786ffda3eb98b9665078e7816101886103e881106161d6576161d561fa8d565b5b6020020181815250507fe53733b72e4601c0afb8947a323676012be417b54b54eb25bf9509ba4bff241b816101896103e881106162165761621561fa8d565b5b6020020181815250507f42c2589e83664381fb807a63e4cf99843538fcd8e802d2c0b1c9d3e65c95f7528161018a6103e881106162565761625561fa8d565b5b6020020181815250507fe4315554f247301539605ad0533df3871ea550dffe4ac753a83410ab0edfa4598161018b6103e881106162965761629561fa8d565b5b6020020181815250507ff71537c610d5abbb231b3d028d50c3203dd61fe1b46bb61b0dda53306b00eecf8161018c6103e881106162d6576162d561fa8d565b5b6020020181815250507f3f63ae7e87bd4a6266264e27efaf03be4dfff4ae4d661c417cc60e501d7642d38161018d6103e881106163165761631561fa8d565b5b6020020181815250507f3b58238f42f1e9fc65aa9bd485d04c965d7e64e24c3616b815aa971690cfaed18161018e6103e881106163565761635561fa8d565b5b6020020181815250507fde98958b3932ff0509620929235efd077b02dcba748fc93fd9b7bd9fd851bbc68161018f6103e881106163965761639561fa8d565b5b6020020181815250507f4775efcbc8a979dffdbceb6aa0a9afd12e573d64737d5dfe1ad416c7f2a078b1816101906103e881106163d6576163d561fa8d565b5b6020020181815250507ff6b494ae988d01b24996aa9de2f4bca60bedc287cd71b3d75a51a35567667349816101916103e881106164165761641561fa8d565b5b6020020181815250507ff3d4dac6b37eb722e768e4c3699afe04439f764b2e53d4dd339c5ae7fb013edd816101926103e881106164565761645561fa8d565b5b6020020181815250507f0f204163eb0b62fee758f42ae54ae92f1c38f4474630fc68630f3bd21835eb74816101936103e881106164965761649561fa8d565b5b6020020181815250507fa9aeab82eb1bcd4cc44927ff3cb136ccf4422755257ef1a78a0d40c01d89d5bb816101946103e881106164d6576164d561fa8d565b5b6020020181815250507fa31c4e146ca0ddf22d7f4861a2af9183701746fc93442419c961b23b3041c87e816101956103e881106165165761651561fa8d565b5b6020020181815250507fecd84abd2aa0bcc30848d7b138b2f3b36d020def718fb731ba786199e249c048816101966103e881106165565761655561fa8d565b5b6020020181815250507f7b6fb5580492b90f9a2f4d41d0dfc599786cd39bfbfa79599899919788951d4a816101976103e881106165965761659561fa8d565b5b6020020181815250507f16cd386fbbbb323dcbddd378184971c4c22d5c620754cf48b616591c5db919e2816101986103e881106165d6576165d561fa8d565b5b6020020181815250507f1b3cc0f267ece98166d6df9819b792d9c4b6e0aace010dd77edc128e89e84eb0816101996103e881106166165761661561fa8d565b5b6020020181815250507fcd2b6a9d7bf2a6ee237abb9316f24a0e4441710dd8467b56e895cd430e1caff98161019a6103e881106166565761665561fa8d565b5b6020020181815250507ff5785a0dc71bd74f280fe31efaf92ec31dbe3e807c120328091d19e972ba39978161019b6103e881106166965761669561fa8d565b5b6020020181815250507ffeb86f6dc0cf578efe60d1610d40b1347cfe91564130d2c7f656d0970e48c4ca8161019c6103e881106166d6576166d561fa8d565b5b6020020181815250507f35107b8905cd6f0556f3db100bb9eb239cc6357933c79ac4e4aede4a931315df8161019d6103e881106167165761671561fa8d565b5b6020020181815250507fce761d9c0d51ce548ae85bdefbb36f1aad82291644eb37d621c1aa709266776f8161019e6103e881106167565761675561fa8d565b5b6020020181815250507ff9e5fae22d6b5002b230bd35a4fd785c22d2ab49e34e89bb5f9f83d7052faa378161019f6103e881106167965761679561fa8d565b5b6020020181815250507f6a349360b0c1f5fb02a895d59bc0c8b571f940341286d75d72d1faf526eeaae7816101a06103e881106167d6576167d561fa8d565b5b6020020181815250507fa301260992c1e5f3e657f048901b8f51e69811ed3241cc38b5492200b12278da816101a16103e881106168165761681561fa8d565b5b6020020181815250507fc70a075a9ec45d7dce4f45637b06484001c330deb6b07892be4b801057d18d0e816101a26103e881106168565761685561fa8d565b5b6020020181815250507ffaf62ddeff4e5f2ab326acc9c5f85a53b52e67349a18d4fc095a6b8c121a253c816101a36103e881106168965761689561fa8d565b5b6020020181815250507f827eaac1f77ac3abd7150903e7089c03a4da735e425562fcc824c5a90ccd9d1d816101a46103e881106168d6576168d561fa8d565b5b6020020181815250507fb18679be22e44011a3fdc9931dc2ca681867a82e2393cabde944b3f05cf4af90816101a56103e881106169165761691561fa8d565b5b6020020181815250507f793e216e1a4015046597efe7f291f3fbfbfc0cbf5b5e63f3b91cf53519945556816101a66103e881106169565761695561fa8d565b5b6020020181815250507f98cee402a83e673c4e95f161f95046d7292f8f0b1774b41e081322cc5b3347f6816101a76103e881106169965761699561fa8d565b5b6020020181815250507f611f6fc8ed31e469c1f617cdbb3d22d260741dceb018e77eed92820c95b9f26d816101a86103e881106169d6576169d561fa8d565b5b6020020181815250507fe768e1546c803e8c3409ef9edde4c9c468addab5ada3801c28db87614bd67b57816101a96103e88110616a1657616a1561fa8d565b5b6020020181815250507f323883c246fbd6c7629226f9b76c84f0e49e692d8f5ad1d2e357ed3ce6c36776816101aa6103e88110616a5657616a5561fa8d565b5b6020020181815250507f03f9c9745dca447ab54216295dec5708ec7f108d260a2fd91085f3e5be95c788816101ab6103e88110616a9657616a9561fa8d565b5b6020020181815250507f633d6bc5d939fbb3ea842f9f53697746bfe6eb66376df7744eecb33323f1784c816101ac6103e88110616ad657616ad561fa8d565b5b6020020181815250507f05eb89d9951af07c41f650dfaede963593c39914b3625b9ea65662cbc5e0a27c816101ad6103e88110616b1657616b1561fa8d565b5b6020020181815250507f08c0097e7bc5011ccd125a0fa24c84d98c65bcd01ffa4a47ce8358cdcd487c9b816101ae6103e88110616b5657616b5561fa8d565b5b6020020181815250507f33a324fd4509488c77154265a26ecebd637b81b071b2f0d0f42a2317e057799b816101af6103e88110616b9657616b9561fa8d565b5b6020020181815250507f3dd1909baea4b79a2fce24f2c86ae68f17ec402d404d873871025e511dda9b77816101b06103e88110616bd657616bd561fa8d565b5b6020020181815250507f25acc77e2c79521e40c940b578ee4b9b8f1fe9503ca001237648e8cfc5bff9be816101b16103e88110616c1657616c1561fa8d565b5b6020020181815250507f5c078547e95272c8f2fe49f79b60bb684484d3a138d85b329cfc4b3fafe091e6816101b26103e88110616c5657616c5561fa8d565b5b6020020181815250507f42012ee6a7e9118dd3acf3cb5830991c92b49748d3d0ee0c25ce4e601010e46b816101b36103e88110616c9657616c9561fa8d565b5b6020020181815250507f363d67e5913193766737ead0328831fbea43a62cf0becad34750e899d88b04e2816101b46103e88110616cd657616cd561fa8d565b5b6020020181815250507f59c1279413891890b8b8a6e742569a83ea055f625d23c741e5dbf14ed285f618816101b56103e88110616d1657616d1561fa8d565b5b6020020181815250507f06f0734e10e9c68c914da92b8108da42382b56d2198bebe00a7721affe919558816101b66103e88110616d5657616d5561fa8d565b5b6020020181815250507f0ad0d846cf1ad934b7d8c0ff1b0c7495d101c80f28557a2c340c3341f244d771816101b76103e88110616d9657616d9561fa8d565b5b6020020181815250507fa9523ec2edad54093309ec840f826b041d60d0ae6733d31af16b84e36eeba7a5816101b86103e88110616dd657616dd561fa8d565b5b6020020181815250507f29dfa078ad43c11b586e1ca898d582f85b442c688438bea135a0980fafbdcbe2816101b96103e88110616e1657616e1561fa8d565b5b6020020181815250507f4d4e9c81584f2d02e202739a1aad2ec7770ef0fdf4ac30ce956fc9aca69d7007816101ba6103e88110616e5657616e5561fa8d565b5b6020020181815250507f342225af6a636932324503c5d5c98b0d527f3dfbe4e34ea7cd1b0d0d591f9d57816101bb6103e88110616e9657616e9561fa8d565b5b6020020181815250507f686c1322ff113a2db194eede4d52c0dff8e6085ffcea58720134283db415c818816101bc6103e88110616ed657616ed561fa8d565b5b6020020181815250507f177c84b999749d08d7055b5cc8259868f6d02fe662e76dce2c6de74fbb41d43f816101bd6103e88110616f1657616f1561fa8d565b5b6020020181815250507f07a4e5b52adbfd5c755bae8f00762dda966337c5c8627dbd3019ded212e99cd3816101be6103e88110616f5657616f5561fa8d565b5b6020020181815250507f4da4fa20229ba510d60f278bd18aa13fe7417068c6d053dd72fde5e06c1f8273816101bf6103e88110616f9657616f9561fa8d565b5b6020020181815250507fad2f8326e247f7effaaaaeb49b07edecae126e4fc6c15320f74df3c9bcef7829816101c06103e88110616fd657616fd561fa8d565b5b6020020181815250507faab2bad05501554f698137d9c9eeeeb09a25884662c462eaaf41656e3aeb1dd7816101c16103e881106170165761701561fa8d565b5b6020020181815250507f7ed73943f5fcb3a1828f298eda1b16191382479ddaa2edb2034f9917ad95b3ce816101c26103e881106170565761705561fa8d565b5b6020020181815250507f7c028118257c9631e8d821e1f9a860aeac15945de070cb1bcc7c4b1c470a2dcc816101c36103e881106170965761709561fa8d565b5b6020020181815250507fbef2358d8e77d7c6742cc0adeecec359601a8f43f39516e0142717329b355e98816101c46103e881106170d6576170d561fa8d565b5b6020020181815250507f7beb5a8460384144f606bf5b3de799b4ecdabc8c1d9c77e2d4be3f139cd51294816101c56103e881106171165761711561fa8d565b5b6020020181815250507f347b0619dec040790530eb72ad369720644b3e569d4cbb2c1775d84d5c1d9066816101c66103e881106171565761715561fa8d565b5b6020020181815250507fa5af9c57ef8b92ca155431fef4ead293e6907522df73a6f8e90759db9cb01325816101c76103e881106171965761719561fa8d565b5b6020020181815250507f0f1b73d0f0c30519b97f823b66649dafc6086316f29ab35bb7ce510084d07d26816101c86103e881106171d6576171d561fa8d565b5b6020020181815250507f536dfe324bd17e881c5e7a4ff669cfb161bc43bfb924dfcb710cf6637573468b816101c96103e881106172165761721561fa8d565b5b6020020181815250507fbdc79089ad722040c9e821a261972dfdacf68161121ed19fcf012d9fe7f08c76816101ca6103e881106172565761725561fa8d565b5b6020020181815250507f7205029aa58f2f215299b1c2e1638feb8aab546790d5085ce6d4c4b968fdfb9f816101cb6103e881106172965761729561fa8d565b5b6020020181815250507f1a3604e847722dc6d259e1117eb7976d4b66cf11c688d830e18775c779f55bec816101cc6103e881106172d6576172d561fa8d565b5b6020020181815250507fda1ca3ebcde72700df460758ab8ccd0755a54511a24f1fe5ef9f6a9258972ef7816101cd6103e881106173165761731561fa8d565b5b6020020181815250507fbb65af416cb3140f92e0616f6d57978788660911f028149c79d96096a8e99e61816101ce6103e881106173565761735561fa8d565b5b6020020181815250507fbd06a3cac3c12c2c4aad16228b77de736e213eb2ff13c2529f066136507f271c816101cf6103e881106173965761739561fa8d565b5b6020020181815250507fdbdaa3e867de8d2a4be2493e147d647463cc448d6bb08a5458c04a2421211590816101d06103e881106173d6576173d561fa8d565b5b6020020181815250507fb99ca93ab87bcd5929345ec76f0940793a3af72252b824abfb3b0e3ed87d1955816101d16103e881106174165761741561fa8d565b5b6020020181815250507f4911369e96652ed0f6ef4900ee94d7d01e352bada68f951579220e4eba789367816101d26103e881106174565761745561fa8d565b5b6020020181815250507f26f794bdbeaf2582c7bf0610d13501aca74a389cec460bda9a93850fc3f859f6816101d36103e881106174965761749561fa8d565b5b6020020181815250507fdcff3368cde8a6e491572f6bb724c7342b08a082615cb26a456c102913b1460b816101d46103e881106174d6576174d561fa8d565b5b6020020181815250507f843abcba3792e0050422d313631c11a7003e5288fc7a16cad92ff927adaac4fb816101d56103e881106175165761751561fa8d565b5b6020020181815250507f704f69824815c1462fffe6d1e903ac5cf43177dbfc2ccf7fc79c777331b1ea11816101d66103e881106175565761755561fa8d565b5b6020020181815250507f1161970e6dee7f54cc19cd69373769139bc31604e3aaf8ad572433fdb7db18f9816101d76103e881106175965761759561fa8d565b5b6020020181815250507f2b16788185699c3bf5dbbcf1ff73be7d42bbba053534de7242487f9e50c3252e816101d86103e881106175d6576175d561fa8d565b5b6020020181815250507f04074aa5086f3710a27d945c9c35a221871a76ef853f53a2f0402c31f5bdf481816101d96103e881106176165761761561fa8d565b5b6020020181815250507f0fc2abaa15360c5e1b4b6956fb0378005f352f1ca7b02e4b1de87a0346325913816101da6103e881106176565761765561fa8d565b5b6020020181815250507f6203e399259a7867bada992c3b8cad5e42687caf850ea57f82fab277fdad6e20816101db6103e881106176965761769561fa8d565b5b6020020181815250507f778cc1c03fe57add03cee5dfd59f3615e556f515885c6d9a51bd4dd1b7053fdf816101dc6103e881106176d6576176d561fa8d565b5b6020020181815250507f7f4e0b00c417f6c373d049525884c102b15cca3902b789ec2d4b5ad53a7e5fe9816101dd6103e881106177165761771561fa8d565b5b6020020181815250507fc1d293877b442fe999c3a086ea23fd7c158e0b5fe8c9656f03c489cfbdc4e489816101de6103e881106177565761775561fa8d565b5b6020020181815250507f12d1c95239e96f1ae68454f442d326d80cb12c6c813a863ca91c0903a8404d24816101df6103e881106177965761779561fa8d565b5b6020020181815250507f5c9a9544a65cfa098369c0330c81425c6cbae6f84f404b8949c966691edffbae816101e06103e881106177d6576177d561fa8d565b5b6020020181815250507fbb778ed797dc4c913cec61a667e97f4e5c9b236042845bb52f2d4ceddac3e641816101e16103e881106178165761781561fa8d565b5b6020020181815250507f0f8f382d268617cb239811ca3766032a839d4227dd251bc9825b3cae5767b66c816101e26103e881106178565761785561fa8d565b5b6020020181815250507f2ba33048fcf2081a12c8dd245386b7678203080f6c79ce25b1019c3dbccdb0c5816101e36103e881106178965761789561fa8d565b5b6020020181815250507f9493c8f58eb37552c92532df1dd603b7e6f175c8096db9776bf61351da22a707816101e46103e881106178d6576178d561fa8d565b5b6020020181815250507f86b271e6b7cc4b7748e72c43d9ec28e562084fb9e71124dacb6748f192b3804c816101e56103e881106179165761791561fa8d565b5b6020020181815250507f5cae28c1501fe254a06ba248af9baa02ddd6c8e22840bc1a59217bf22d7370ff816101e66103e881106179565761795561fa8d565b5b6020020181815250507f30422a087cc02a924e33fcf326c5391313305c55046920d9863d525ee297e2d1816101e76103e881106179965761799561fa8d565b5b6020020181815250507fcde847071c212c618f11a7dd68e854c00d419f2d1a8e0ed4788d3b382a5573a1816101e86103e881106179d6576179d561fa8d565b5b6020020181815250507f782dc860924820bf6d578404af112c9f13c249d89e50a0cb0f8b441d571e18b6816101e96103e88110617a1657617a1561fa8d565b5b6020020181815250507fe989d01cc6646beb59cd9adb44c8e535b8e8b1392f68f9b6f52a39c061e96bb8816101ea6103e88110617a5657617a5561fa8d565b5b6020020181815250507f7b6bd4a891d275e9d10691dac48d092f321a915292bc86c84d20a6866be7ce8a816101eb6103e88110617a9657617a9561fa8d565b5b6020020181815250507f706de2c8eebcde98cd48175bf62597383486a28d1f966fc4406f100211b593ab816101ec6103e88110617ad657617ad561fa8d565b5b6020020181815250507f0915c9953bfbbf81a7db70a16f293a19eb6edd49ed56db6d737aab56ec3d2b11816101ed6103e88110617b1657617b1561fa8d565b5b6020020181815250507f9b479785348a6e60faa7e6515251670bb4841cafd35e1d981dd3a80f23e4b6c8816101ee6103e88110617b5657617b5561fa8d565b5b6020020181815250507f1cd86df0ede3a8bb7758f78b6d937595f534d909759ae8dddf2cd4ddadd71f32816101ef6103e88110617b9657617b9561fa8d565b5b6020020181815250507f1bdfea40a218a9db5339d7d8db47125d183abaad82efd0f7fef9c84a46a61f9d816101f06103e88110617bd657617bd561fa8d565b5b6020020181815250507f58104d5e0bed1d3cec3764f44eff712892fa1c94d082cc6ebd6e438ef48ffc7f816101f16103e88110617c1657617c1561fa8d565b5b6020020181815250507fcf8d2ade0511789c1f511e557ccf581f6610cd37dd26d9e852b3e65f941a9b5d816101f26103e88110617c5657617c5561fa8d565b5b6020020181815250507f89e84650947cf9723af4e244b86f03069cd20e71d66b2a81562ebbb1f209a13b816101f36103e88110617c9657617c9561fa8d565b5b6020020181815250507f7036bcffdd0a5726f3d196fb6f50fb8f5510452deda342877fbbd281ce31e76d816101f46103e88110617cd657617cd561fa8d565b5b6020020181815250507f7b67825943645cee5b334a27bc79a0ab8e847c260f1c9ae0d833659454b3caba816101f56103e88110617d1657617d1561fa8d565b5b6020020181815250507fbc0b3d208af4f9c5ad38d878a4999189a035230ea7a32226a7ca228c3057486e816101f66103e88110617d5657617d5561fa8d565b5b6020020181815250507f4418aa1a90e8a80741de5d2def56b6e8050661c3664a35b329230a77d70f43c6816101f76103e88110617d9657617d9561fa8d565b5b6020020181815250507fdda0e5d23faa8a42656a600175979e960bb03e1df69f1948abbe1bf74d2d2a49816101f86103e88110617dd657617dd561fa8d565b5b6020020181815250507f44662cf8c0ec9b5399df670daa91a1be59150b94f281e4fe26d0970c67543bcb816101f96103e88110617e1657617e1561fa8d565b5b6020020181815250507f7d8244fe0606f56ba1a34fe339b3059d7657243ca32bf48a9dd143634de2d2c6816101fa6103e88110617e5657617e5561fa8d565b5b6020020181815250507f435bd478ed1bf939be6b116719fe49ff138337b04b28bcd30e0201dadfc4c89a816101fb6103e88110617e9657617e9561fa8d565b5b6020020181815250507fe94d33172158085a6b8339bfd24ab524ab5ede69f3f9955bd18583442b24e17f816101fc6103e88110617ed657617ed561fa8d565b5b6020020181815250507f98c17b48b9046610c6404bd209c4e8ae692971dee075df5e7baa73a1ce48d809816101fd6103e88110617f1657617f1561fa8d565b5b6020020181815250507fa9fca2be0f9049e19beefa2f619c77756acfd18bf775507d684a10d55ed928d2816101fe6103e88110617f5657617f5561fa8d565b5b6020020181815250507f118ac1ad40379a6514bba010eb59d427af92c609b1f429b2cf72472bfe8d0f10816101ff6103e88110617f9657617f9561fa8d565b5b6020020181815250507f13c1acc294f9007adbb32f8e0a4aaffa08126672fdf79686757c71dba2e1c277816102006103e88110617fd657617fd561fa8d565b5b6020020181815250507f4cec481e54354d20080259e02b2b1e5ba39ee7156a2d096bf7c89129fc293f18816102016103e881106180165761801561fa8d565b5b6020020181815250507fdf1c72144a2c356f644e2e7c5a519707ef96e91d9334303773f5094319e60aed816102026103e881106180565761805561fa8d565b5b6020020181815250507f46b2c44c463248100d9214548c56d06eaa1be02744ac972a19abd808652cfc6f816102036103e881106180965761809561fa8d565b5b6020020181815250507fed7ad1c311333acd8716c8b619fc6e4f3c9e3b3499f42781d6eafa231f05ab32816102046103e881106180d6576180d561fa8d565b5b6020020181815250507fd8311ca67711e0b0328c1d4b9027ec11dcf4625a1c7df80ba2c9e73c9275f15a816102056103e881106181165761811561fa8d565b5b6020020181815250507f5c34116845edb58ac0a7fc8bdf98a40b6855f699d1c44cb805e41f07f1ab0972816102066103e881106181565761815561fa8d565b5b6020020181815250507ffe556f8c24181c93a1a5501d8a685324053e7c9d8f08d87b70184711155a3caf816102076103e881106181965761819561fa8d565b5b6020020181815250507f030103715c2b796ea620dfe65a42ffafc81c0eed2c8811edc50f14efe12bb0a6816102086103e881106181d6576181d561fa8d565b5b6020020181815250507ff60f14ef4f9d2a9d2bffa3b23b64c887720d4781b093e2ae8f8a0ab317abd888816102096103e881106182165761821561fa8d565b5b6020020181815250507fdc3ff9943552fdc33f0c07b59dfdc92d9e113fb323a9d9a9c9a79fea06cf9c0e8161020a6103e881106182565761825561fa8d565b5b6020020181815250507f1bba99ab3296d82247bcc5202a927f9ec4994400bc6af44db1b8c579cc707ae08161020b6103e881106182965761829561fa8d565b5b6020020181815250507f4fadf1068fcfe71a8a75a36e2acddecea26470dcc141e8c8d53332ba43ce76998161020c6103e881106182d6576182d561fa8d565b5b6020020181815250507ffb756ddebb7c2d4cbb8c1895e3bc2bd910a1583ae9be1899c98ae6d317d636dd8161020d6103e881106183165761831561fa8d565b5b6020020181815250507ff8e26c25bf279e2ca8acd2ddea8ff09a7e31714e8fe80bd099883b1ed0c2cb318161020e6103e881106183565761835561fa8d565b5b6020020181815250507fe1779a487e6bab922ae58dd240cf513cc9421d1820753fe663e851adcf7302938161020f6103e881106183965761839561fa8d565b5b6020020181815250507f38202b74c4263d0936d92b2e836526dde14b1a1e6c0695080afde363c1fbd4e4816102106103e881106183d6576183d561fa8d565b5b6020020181815250507f10ba1999a11b579318ebac04402be3c4c8bdb9654c5695291212f8d8f3940902816102116103e881106184165761841561fa8d565b5b6020020181815250507fe545fd66ae94a9b6a4050ac1eaced94ff0a452b7ad2080c50e0defec0211fbaf816102126103e881106184565761845561fa8d565b5b6020020181815250507f427d7a82bb97e93bcfa3acd25cf501601b2e3c46e76172f80b2fda4e07b3f3a1816102136103e881106184965761849561fa8d565b5b6020020181815250507f5627760f2085951fafa86c81dd0f310cf220aa946986adc0c0ee8a0f7b2613bb816102146103e881106184d6576184d561fa8d565b5b6020020181815250507f299497ff987dd8a4c70b4dce031ba45e4ca339b121e6547d7c2191db80783e7c816102156103e881106185165761851561fa8d565b5b6020020181815250507f4c42fc438a3d5fb7ee58e80a2b965aa8148e54d98fbe0746aa47484969125c96816102166103e881106185565761855561fa8d565b5b6020020181815250507f1c81bd02f64d6284042298d03598bfe3935351ba26a7ccafd8fb034f2d302670816102176103e881106185965761859561fa8d565b5b6020020181815250507f4a00abc7ba6e817df454aad84569208ee653147a66886952394e9a95d3b4c0de816102186103e881106185d6576185d561fa8d565b5b6020020181815250507f41bc3e8ec1850e7d4a4fdb5f8cc9d0c59516e71564a0e24243554768f26c4dd2816102196103e881106186165761861561fa8d565b5b6020020181815250507f49c2c1e4a51cc0715ec23cffb3002056449e82ef9a2d9ec25c37b68b6a5656658161021a6103e881106186565761865561fa8d565b5b6020020181815250507f3c5e1ee39a11296ee0e1c8c580aa0ec2e03f3807b600d91705111086b3d18b718161021b6103e881106186965761869561fa8d565b5b6020020181815250507f8a0761941f1c614e612d063ac53b2a7f345232951fedbda1e4b6fb6a78c68a1f8161021c6103e881106186d6576186d561fa8d565b5b6020020181815250507fbeaada28414cfac0dc7a80e8dbe9a822f3ce6fab96aaed6137bbb3d1460b3ef98161021d6103e881106187165761871561fa8d565b5b6020020181815250507f2acffc299fd0c94ae5d9c24a11719f8f3b973fec19c58be56cdde330c9d7be938161021e6103e881106187565761875561fa8d565b5b6020020181815250507f2db9f5ea84a0edf660033da92c9b3b62bae9ad22d48536d002eeb2472ab47c938161021f6103e881106187965761879561fa8d565b5b6020020181815250507f6a99ad3e31ec9199613e18ce5443b637a3d6011c329794ffa11404b92fb7fe30816102206103e881106187d6576187d561fa8d565b5b6020020181815250507fbd817a78bcb225b120842587e205c988c8e66523cea95d72443bcb55245c2b75816102216103e881106188165761881561fa8d565b5b6020020181815250507f4b9a4cf7d46980c8f10901448b2d4ecd43c05071217a1ca7e3b710735a7daaf7816102226103e881106188565761885561fa8d565b5b6020020181815250507f697de08778e745adae4f21bf53805614b78f0c03a4bfef0b688fac509b9f490f816102236103e881106188965761889561fa8d565b5b6020020181815250507f719138e4dec1109908171a120e84589e49355bc2c99e3863e11b1cdaaf9484e3816102246103e881106188d6576188d561fa8d565b5b6020020181815250507f54ae10c12c0f31b5d1db604fc6e80d8b67b76c4ccea36359d3f96af237999c48816102256103e881106189165761891561fa8d565b5b6020020181815250507fb9da490caa2a8003e9d13e3110193d3c2e885efda85f507556bd70c01f440c8d816102266103e881106189565761895561fa8d565b5b6020020181815250507f5f246c3b90626b7fa24db6c61a0b85ca3ba0ecf84abb2de3936fc1d80145e14a816102276103e881106189965761899561fa8d565b5b6020020181815250507feae629ff160eefa6b093df5f7829e60ab05e55cf9722924d44efecfebc0a8f03816102286103e881106189d6576189d561fa8d565b5b6020020181815250507f7b920a5ad3d4980cda196b275c8e157c36b29e8cf4a33f884b98db58815bdc50816102296103e88110618a1657618a1561fa8d565b5b6020020181815250507f4c48112b6d547d051fb833fc55cb16653cbf68286592b4b90a5a7b46cc69a4d58161022a6103e88110618a5657618a5561fa8d565b5b6020020181815250507fc14c27be2b294bd41dcd3d0125eb641df6c53cfec56237c1f3986dcd30d15b2f8161022b6103e88110618a9657618a9561fa8d565b5b6020020181815250507f4a4e540badb5f59097ff6b068787282b8f43f91804b74ad543932b479bebd75b8161022c6103e88110618ad657618ad561fa8d565b5b6020020181815250507fd75cae7612a87fe721e1eb37bced7b94a4f0c8ac97c27b70e0784e8b006a9e788161022d6103e88110618b1657618b1561fa8d565b5b6020020181815250507f677778095d00683010e469690384ad2b83c1e1f4b49a683d1893f1e8a05bf07d8161022e6103e88110618b5657618b5561fa8d565b5b6020020181815250507feeeab7d338b67d82d69fa83a5a33c29ca2b18b3ffcf7efc5f53dc873e03ba0ac8161022f6103e88110618b9657618b9561fa8d565b5b6020020181815250507fb3277fc134fd96f66f8debb8d5bf322aef192191e27b1b0c6e32ab65f48dfbb1816102306103e88110618bd657618bd561fa8d565b5b6020020181815250507fc3b59bb664fbc068d577ae2475a9a5d5e1486ba981c2c5b8eb142f2aa0921f7a816102316103e88110618c1657618c1561fa8d565b5b6020020181815250507f7197c05ab4596d822faa55b32fe2f109b22661632078fa1c29e563a24bda359b816102326103e88110618c5657618c5561fa8d565b5b6020020181815250507ffddc702d9b2e8847f47e55a68f54b596145ee2501f771abe977220dedb72ad09816102336103e88110618c9657618c9561fa8d565b5b6020020181815250507f39af779d7199447bc4b1d6d373b58d7f83b325a73820dfc87b33cd954d99b06f816102346103e88110618cd657618cd561fa8d565b5b6020020181815250507f29ec1fa15061b94166684739843c492be9e4e7619e675744576046418ea9dbd2816102356103e88110618d1657618d1561fa8d565b5b6020020181815250507f63f1d3362c175c6fe2fc545405d28dbb329ebccb89641cd873d8ceac1cd31b65816102366103e88110618d5657618d5561fa8d565b5b6020020181815250507f5d6e742ba16bc53c0d358c0d1c8a052a1c15629e4477cffcbde84f2eda83b4ee816102376103e88110618d9657618d9561fa8d565b5b6020020181815250507f536ed4d9eb111e054df2c8cdc24ed3c2a63724fab9c20c061fb179d0695218b7816102386103e88110618dd657618dd561fa8d565b5b6020020181815250507fb9814373b6abf3107df813b02156e2643f559ebcce73c629de6ac46e430dcc2e816102396103e88110618e1657618e1561fa8d565b5b6020020181815250507fbe4831d4a7257ff9b75bfa1be1d1ac09ccc9b3def702ce8f0566b1eae33785ce8161023a6103e88110618e5657618e5561fa8d565b5b6020020181815250507fdbcb70954497f74410616578918a7ada9a83f791d8a7bb4e6fd9cc373a0809b88161023b6103e88110618e9657618e9561fa8d565b5b6020020181815250507fe1e061ac871c410d7fc6b27655d1fd2abde8bc9bf7ef55cebbf5250d175ab9a78161023c6103e88110618ed657618ed561fa8d565b5b6020020181815250507f81987858b06cba81463bf8ce83746c379560b27ea5fd56907b02b190ccbaa17c8161023d6103e88110618f1657618f1561fa8d565b5b6020020181815250507f10b4c1630772562221d45d2ccf515fce602fcc618dcb7cce035adc9bafddb00b8161023e6103e88110618f5657618f5561fa8d565b5b6020020181815250507f5af5ff323d58d68b10f1b741a7db274f1f0e1f95265fd01d8c1f66a64f3d88598161023f6103e88110618f9657618f9561fa8d565b5b6020020181815250507e508953413e661760d392fef5a91338c852dcfb2b51b6fee8c4b0252bbe2ef4816102406103e88110618fd557618fd461fa8d565b5b6020020181815250507fd2ab67ceb760705c06b762e7e7b1d01135a01eb8d7650e9a6185a36c68ed904b816102416103e881106190155761901461fa8d565b5b6020020181815250507fbe83aafe6deec58052db9dab484a16080e31f6914067d0bb324fd2ef4f933434816102426103e881106190555761905461fa8d565b5b6020020181815250507f31f865953135ee402e8f4780be91448d42b63fb417abeb339f8b73200937937b816102436103e881106190955761909461fa8d565b5b6020020181815250507f78715faf07e43002445a08b0848b21cf48f021b0853df15894d23580ea334171816102446103e881106190d5576190d461fa8d565b5b6020020181815250507ffa03f6aee584dbebc8a244f808f9faca1009ca205b8740c7d09de8091235e3af816102456103e881106191155761911461fa8d565b5b6020020181815250507fdea4b33cc153966d84cdbea6a00d0f2f23416020bd4e4fd0cead1900e026c121816102466103e881106191555761915461fa8d565b5b6020020181815250507f70d3514e95bc4e44e2a26188b00c52bce8fb9599428cde067df02edc50c459f6816102476103e881106191955761919461fa8d565b5b6020020181815250507f91c9d682ebe6bafda1254c628b5c7d6cc25d9798d0587f86d779fe13d50cfc0b816102486103e881106191d5576191d461fa8d565b5b6020020181815250507f88bb79d5217e968aec91a1b08ea5e9869e6064c0ee7f50a8cc66e2360b39cfde816102496103e881106192155761921461fa8d565b5b6020020181815250507fe95c0a7c681d0bcfbc2dfb4f065209a7bbdf881b2e64c0dc8a185a6fa36750608161024a6103e881106192555761925461fa8d565b5b6020020181815250507fae9b2a40146c1c7d88014429138f1590c6187389e63aa486babdfdca1af03a498161024b6103e881106192955761929461fa8d565b5b6020020181815250507f24a9112722d37627cbc4f35158fb17a747d7c5407d1fe250ea1928eabd54534d8161024c6103e881106192d5576192d461fa8d565b5b6020020181815250507f166ce9a79c4b14d3fcd9622cbff4c853d4e445dd80dbddfde85e57b0f658c6df8161024d6103e881106193155761931461fa8d565b5b6020020181815250507f8451cc09f3b0827b93cded20c02bf59914430a1f3272c8864c2128f5757704b08161024e6103e881106193555761935461fa8d565b5b6020020181815250507f1e60c74d1e17d322bd82448d082a1096b0ce0d6e80c541324a1071b4065340328161024f6103e881106193955761939461fa8d565b5b6020020181815250507fefd58819878ad55e4fe2ba80d8abc13ae2ab47cf748423519b07020114beeba0816102506103e881106193d5576193d461fa8d565b5b6020020181815250507f360941d61cc8506b3e3552842a370f7402a461a8600298e6b73ba50257696fe0816102516103e881106194155761941461fa8d565b5b6020020181815250507f2b92446e9fa8bbbc2cf817cd59cb1dfbe45841554c32de97cc444e03fc8bd78e816102526103e881106194555761945461fa8d565b5b6020020181815250507fdf29ff67765afc2a288dbe8af0b4e239d9e81e6b918a0b53d07714820c1697df816102536103e881106194955761949461fa8d565b5b6020020181815250507f2534741b9f165f82c1492d2009a6902a8c20c4928f85c0aa1ffbe5720467bb2a816102546103e881106194d5576194d461fa8d565b5b6020020181815250507fd1bd7ac7c54b7a04a2e501725323bef5ed52ee4088dbdd33de7d4f99d1b2264d816102556103e881106195155761951461fa8d565b5b6020020181815250507fb91133b0a3d2cf05a76c47653b05f0cf66435dcaaa785691d1b5f220c96a8352816102566103e881106195555761955461fa8d565b5b6020020181815250507fa451044c4d6291221f24f6c8cd99b98f9c805d7c16727d11cdd4b24761ed5f23816102576103e881106195955761959461fa8d565b5b6020020181815250507fc04b429fe8c0f7877f95b17e923484ec96276c22ed41bf45ba319da9b036bff7816102586103e881106195d5576195d461fa8d565b5b6020020181815250507f5e54c0165638cae17cb5231d5bca73dcb798edf6605f83f01262f01e04fd3ea9816102596103e881106196155761961461fa8d565b5b6020020181815250507fb68dba0b9dfdf22e8b6872f64bbefe00cffa509a4bc85b79bad5f761a9df7ff78161025a6103e881106196555761965461fa8d565b5b6020020181815250507f549d9364267ace5cffaf5153b3f96a39229f35ad17e0e0de75e32970fa221e3b8161025b6103e881106196955761969461fa8d565b5b6020020181815250507fa65c265191b248ee74c0f50079b37000318838bd52fcd6484b33ea5341af54268161025c6103e881106196d5576196d461fa8d565b5b6020020181815250507faa0342e3352cb159991eac7399f36b2f08d4727bf93a37ebf0584ad6b70b3e248161025d6103e881106197155761971461fa8d565b5b6020020181815250507f36fdcc9cae943fd85100a12ecd32a114d32b134be0a85857cb63164ea2ec00ff8161025e6103e881106197555761975461fa8d565b5b6020020181815250507ff84bee6187ee7f6eec22daa30b1542dc6a3a506788676f62f65591d7db5b04d08161025f6103e881106197955761979461fa8d565b5b6020020181815250507f198a5e9e78f0e316451340738fa8f12ac0d879d47a6371147f43b99512344edf816102606103e881106197d5576197d461fa8d565b5b6020020181815250507f40e09fa4ac7d65bcedf8e0ba12472b85189eed6bda6cf3d2d51581964049dff6816102616103e881106198155761981461fa8d565b5b6020020181815250507f0ef5bcd5a3aef159ed99e1412f03d9787ab57fd83a046e188d51563d3586d709816102626103e881106198555761985461fa8d565b5b6020020181815250507f65735b758643668cefa331289803a6f027402c914f31620201f7f2517dba8c16816102636103e881106198955761989461fa8d565b5b6020020181815250507fea12c2f399ae4578be93162475b080d075aee0a3cddb8c0d301924cefdb53917816102646103e881106198d5576198d461fa8d565b5b6020020181815250507f336c399fb19757474bb1336c40327cc1e47de79821fffd80041dec43ac8760c9816102656103e881106199155761991461fa8d565b5b6020020181815250507fd72eae680cb12c0d1510bf7da4d067c64c7ecf1b9fff6ae97d50988d27a25f13816102666103e881106199555761995461fa8d565b5b6020020181815250507f1d83e76b6aefb3fd599d24dcc5193984ae6c949c1ac6937079bd26b64f173bac816102676103e881106199955761999461fa8d565b5b6020020181815250507f91a80c3022b0a22da1bc34757f8acc2ac5923ba75c04e0d5cef0c7be18f8f578816102686103e881106199d5576199d461fa8d565b5b6020020181815250507f6113f0e25e1ad02edbda6ad321279d971b823aa9fd5a0ea877d2a97a54c63a85816102696103e88110619a1557619a1461fa8d565b5b6020020181815250507f2f2fc147a64885660c1738a2df8e3d2c1d9e82775f37a8b755bbf111fbc76b7e8161026a6103e88110619a5557619a5461fa8d565b5b6020020181815250507fdbc62c6ccfc957ff676e6819cc634500055adf50dd872b908018f217dfd648ae8161026b6103e88110619a9557619a9461fa8d565b5b6020020181815250507fa0f91b4be0d230c67d4bb9dc58c32207c34985c21481c87c1264301bad421fa28161026c6103e88110619ad557619ad461fa8d565b5b6020020181815250507f9237d7fb36f71083ff34534ab8e2500717709c84621ed28c93d8e626c79a62448161026d6103e88110619b1557619b1461fa8d565b5b6020020181815250507f10c35e8b5b5153829c8c862bfbcbeff76b37f120945f494e72a223a842762dad8161026e6103e88110619b5557619b5461fa8d565b5b6020020181815250507f466b6985a213c50cdc9076782f11785433ea014846d88cae798a8b1a69a8787c8161026f6103e88110619b9557619b9461fa8d565b5b6020020181815250507faf0c9b6bb09847413b62e4286bbd951ce5ccd410362f5203b52eb21a21594155816102706103e88110619bd557619bd461fa8d565b5b6020020181815250507fe5d2a49ddf4f06f52c161ea0a8ef3ceafc3ac6d6418542307e8272798a35210a816102716103e88110619c1557619c1461fa8d565b5b6020020181815250507f15e907322c2bc59a80a1ebe307a7b7bf66e239ef53446099b401058e840e966f816102726103e88110619c5557619c5461fa8d565b5b6020020181815250507f0808f1394899c9ab1eae7c073028b2ee7495e7fdb17c55ae3a1152c6f48b758d816102736103e88110619c9557619c9461fa8d565b5b6020020181815250507fa8398eccba4fe2be38aa1e6f68a7d5fb94416ceecd1a46ffeffb5065234d273b816102746103e88110619cd557619cd461fa8d565b5b6020020181815250507f16bc2e4767a3728086214a58c6a3670e07762d788c4e4efe77aa8844bf50894d816102756103e88110619d1557619d1461fa8d565b5b6020020181815250507f2bc8fd7c366550d47e930ca5d6c213294d47841b5b5d9034c349c5d6fea883bb816102766103e88110619d5557619d5461fa8d565b5b6020020181815250507f07e07e6f220edbc42cc0f51e83b469ef99885197d83c0ddf00a54de4a9146647816102776103e88110619d9557619d9461fa8d565b5b6020020181815250507f84866cb140d2c155fd584a4fd88aa52e5dc46c58d776ebc4745211c5e9c7e299816102786103e88110619dd557619dd461fa8d565b5b6020020181815250507f901773eaabe589c0c17cfb4020bab5bd0a7178b263311778c7de02d0bfe35f0f816102796103e88110619e1557619e1461fa8d565b5b6020020181815250507fd2a49fe2e8f9396f8b43003d2321e63a0a199abbc13325db33bb4658de4430048161027a6103e88110619e5557619e5461fa8d565b5b6020020181815250507f0b4a67e8d5e36fec2b25a0d87c45ebf6cb77065279521a0fde35afbb8f4032708161027b6103e88110619e9557619e9461fa8d565b5b6020020181815250507f97bc621eea29d25cb038ff6737648ecd606a33b5ba32e3c3489695a2f2ddf3a58161027c6103e88110619ed557619ed461fa8d565b5b6020020181815250507f33edfd30fee3deb7fad1b1523db8cc4856a9b5c6411a384f283316119b5dc1b88161027d6103e88110619f1557619f1461fa8d565b5b6020020181815250507f993643d045ce0bbd31530e82664890ae5c16911d367287ecb3846a6d23d69c3f8161027e6103e88110619f5557619f5461fa8d565b5b6020020181815250507f52de73169cf7663144ad26f244257391dbe8a6887c2013f16d8be7582e3a6a808161027f6103e88110619f9557619f9461fa8d565b5b6020020181815250507f5ada58a1d598c546bc2802e3880982319b1e53a65cc95199f5db3bc5d9a7aa5b816102806103e88110619fd557619fd461fa8d565b5b6020020181815250507f424c4a9bee7795fc86fa6bf3323d616cd10080894144fa6c4d742183d83d4880816102816103e8811061a0155761a01461fa8d565b5b6020020181815250507f3a533adedc070131593a7abd8d5d8855878b8b47d4c6de7bd7e9e281dbba935e816102826103e8811061a0555761a05461fa8d565b5b6020020181815250507f2fc68af61637662bc07b4029841ef3b9a1dcf61842de9c1e3114403f4adbb607816102836103e8811061a0955761a09461fa8d565b5b6020020181815250507f849336336facd19b9718fe58bf00eeefe4dd3fa8cd0aad45841ff52ee2c531d1816102846103e8811061a0d55761a0d461fa8d565b5b6020020181815250507f6d43c67388301234d7fddd9ae5705a93ebccce3952ddea3d505d698fb7b28b5d816102856103e8811061a1155761a11461fa8d565b5b6020020181815250507fc6a4464e066e9eedb1df7f6649eb0eb00caecdf1dcfb0c574598b399ec40ef30816102866103e8811061a1555761a15461fa8d565b5b6020020181815250507f9c199f72dcb27aa96f503b296279489b618e7bdcbcc92121ade29295f82009f4816102876103e8811061a1955761a19461fa8d565b5b6020020181815250507fb50aeb2aadfa531fa8b8e3898ebc2dd0fd77a98db61756d81f7dac9681a04b2e816102886103e8811061a1d55761a1d461fa8d565b5b6020020181815250507f1776cd354ef597eafeac2a9cab1454ad01a714403ee2cc6ddff4f2fe2300bcca816102896103e8811061a2155761a21461fa8d565b5b6020020181815250507f1c0f5860590059d1fd256d521d34812cabd5509b7a4eff14e97b44d98a6695e98161028a6103e8811061a2555761a25461fa8d565b5b6020020181815250507f89b554993e7295ef546d61870ffe7cfb59600689536a1f7279ea5b3761ce4c348161028b6103e8811061a2955761a29461fa8d565b5b6020020181815250507fe9b2a2944e1b6ee635c0a2e2856df34a7afe922f4f579f9d7772470b31def1748161028c6103e8811061a2d55761a2d461fa8d565b5b6020020181815250507f4be521cfd753da5edaab6a4beb240029bedaedb26aa7542489bdb60dd655cfda8161028d6103e8811061a3155761a31461fa8d565b5b6020020181815250507f97aeb1cb2ad21f736dff2481c8a816d00c8220b324541f459911c1d13bdd6a0e8161028e6103e8811061a3555761a35461fa8d565b5b6020020181815250507f3839c58bcf2792befb2b6c55a717d15315c47b0e0f78547446bf4790a23393888161028f6103e8811061a3955761a39461fa8d565b5b6020020181815250507f7cda516db6db3e89d7cb57ed330311241227dee0e2e96b580ac8e0ac19cfb85f816102906103e8811061a3d55761a3d461fa8d565b5b6020020181815250507f8992b0a0bb57c8cc8f799747370c39a3dad06714f5c5878e64375cd58ef19861816102916103e8811061a4155761a41461fa8d565b5b6020020181815250507fd0bdff91fc2d76ca8a44d867ec91642df228c7c3c6901d0cb3988ebb3f87409b816102926103e8811061a4555761a45461fa8d565b5b6020020181815250507f02b327bb5bc4f7df77a35c59c1c853cb33517a282215c721f4488381c22136b4816102936103e8811061a4955761a49461fa8d565b5b6020020181815250507f711da32f23e2b9b65e0d0ec916777f06a8f4f0e25c522ee972504a7b2c349a2e816102946103e8811061a4d55761a4d461fa8d565b5b6020020181815250507febdf63b3251634bbbbff7ffd63f2ab83f3042ebe7ade9babfa82c5c0a53933ef816102956103e8811061a5155761a51461fa8d565b5b6020020181815250507f6744187cf5b77544ef816bb16d445cf0ed275b330a8864c0945d9dffdd0cc310816102966103e8811061a5555761a55461fa8d565b5b6020020181815250507f9b565b85e313c827dab0c4ac94f0d9ffe4e4b22280eacb6a447e73c9694105a9816102976103e8811061a5955761a59461fa8d565b5b6020020181815250507f89f4741359d8b63a149a0a23af03fa599b73a5d15398715868dcdf68f8953053816102986103e8811061a5d55761a5d461fa8d565b5b6020020181815250507f088fc639a4b937caac5a8e07b120b913608b261e35fa8a1609e77ceef6b8dbf1816102996103e8811061a6155761a61461fa8d565b5b6020020181815250507fd6e208dbac23aefc7e52c9985b9535abc0effbb7a97d67b97f5c2ef849bc81508161029a6103e8811061a6555761a65461fa8d565b5b6020020181815250507f382e1b1110a2a55001cce64c770d8d04ec6832739aa5538dbe2d1a353da32ea68161029b6103e8811061a6955761a69461fa8d565b5b6020020181815250507f2097ad60d0a083af6d45062d8b2476d65d57fcfafe88c9e40dfedbb413cfa55f8161029c6103e8811061a6d55761a6d461fa8d565b5b6020020181815250507f2b1fa0e3032142853556b7c592cffa33a232aba76e1e98715700d98289950dd78161029d6103e8811061a7155761a71461fa8d565b5b6020020181815250507fe9415c381f6c2e81f5df23fcdaa63eaedad56c324039fe9067a22b04e8ce306b8161029e6103e8811061a7555761a75461fa8d565b5b6020020181815250507ff4cf0ebc8fd2866663af5a089ad7d0143d6d5dfcc17fabd5d4b8c133eaa873d78161029f6103e8811061a7955761a79461fa8d565b5b6020020181815250507fa7b036941c35b0e2a9d88c15eed45f0624211e4f1936f7f953a84bc1d87204af816102a06103e8811061a7d55761a7d461fa8d565b5b6020020181815250507fb816e72fad44217b983f4b02aca3c493244296dde45b26c7c2ee08a46d3cf5ae816102a16103e8811061a8155761a81461fa8d565b5b6020020181815250507fc43a546325b8cf7a1cc030c80d2b471b7d262192a7e275df1d0acb9cae2533a8816102a26103e8811061a8555761a85461fa8d565b5b6020020181815250507f9fa55dc4327fcc5af3bd15f9e43f4bdbda56ab17aab5352c8eed42353f74a05f816102a36103e8811061a8955761a89461fa8d565b5b6020020181815250507f9bdc0dec29de1dd1fdde49a28b0a8ee419aec6282b97d669cd19738911d132f2816102a46103e8811061a8d55761a8d461fa8d565b5b6020020181815250507f5d585ba21edd5837a01bb7b2a1091fc3e2e2fdbf5eb0061293ef69f471166dd8816102a56103e8811061a9155761a91461fa8d565b5b6020020181815250507fcbac756da3f1caa6a2577080c30dabdc2c335c65c7e463980bd0eda43304df8b816102a66103e8811061a9555761a95461fa8d565b5b6020020181815250507f71ee03c3e2e0bba586461def6dc8dc167b6b2f25a9a607b21a65d3b0d56f98ef816102a76103e8811061a9955761a99461fa8d565b5b6020020181815250507feb52729638a679b63ef755dc94ef9a1693bf13339c1936f8df24cb974f72ab4d816102a86103e8811061a9d55761a9d461fa8d565b5b6020020181815250507fbf29e66a590607b1c4aed589fa4222275fba5251a8268e46ff159e934264e848816102a96103e8811061aa155761aa1461fa8d565b5b6020020181815250507f8a90a5a51e745c08e9d643c31a8c7cae48a4d2b8aad38962285cbb8c040d44b6816102aa6103e8811061aa555761aa5461fa8d565b5b6020020181815250507fe1f0c6239c2934c73e25912d5ff12ba3cb331c5e6d7abcf8598812b1707ef5c9816102ab6103e8811061aa955761aa9461fa8d565b5b6020020181815250507fb5e200030051d4fb6e236306ab65b4b165e4cc53a7395e9e8f5e36ce5909e792816102ac6103e8811061aad55761aad461fa8d565b5b6020020181815250507fbb422c80483c335b10cba0552cbd2c96f2d4132d5ccb77ca707edf5009c483a9816102ad6103e8811061ab155761ab1461fa8d565b5b6020020181815250507f3ba447d84404bee585443cdcf82b55d9671ca4e39609fb9acd32786c99a66c18816102ae6103e8811061ab555761ab5461fa8d565b5b6020020181815250507f690e1e2f7b4c60177bc8fb904d0416dc03e2bdac9c61bf22067b7e29961ad21a816102af6103e8811061ab955761ab9461fa8d565b5b6020020181815250507fcb2301762a64894141bf6267683f6b21d3215ffc4c30f957f99ceb751f7988b6816102b06103e8811061abd55761abd461fa8d565b5b6020020181815250507f34dc9b6d91b431d04b91c57e7fa4de10d332deed3096a936c96e126f18a0bcb0816102b16103e8811061ac155761ac1461fa8d565b5b6020020181815250507f5ca9910bc7e8504320db0696aeb46df2a03ad09f4638f5455bfd883982f3b89f816102b26103e8811061ac555761ac5461fa8d565b5b6020020181815250507f5b27682739b7df6c9db6f0bed5c067e78099e92911338cdc752e45fc97f63ad7816102b36103e8811061ac955761ac9461fa8d565b5b6020020181815250507fc0a0cb9d0e01bcbeba42347ba7031daa1d74502484fc5c0c09a93375badc6f89816102b46103e8811061acd55761acd461fa8d565b5b6020020181815250507f06ba73e3a30fb490dff5913ea7671ca1a71abd67db50b66bb43fc9580612e2ce816102b56103e8811061ad155761ad1461fa8d565b5b6020020181815250507f70143caf0134a5627e0984b72398a24a446e09d6a1e6c0d339fd1555df55a89c816102b66103e8811061ad555761ad5461fa8d565b5b6020020181815250507f75a32f28711e973d3944e275daa24e724ce041f4132f6f6a5d9f59367ca70ca5816102b76103e8811061ad955761ad9461fa8d565b5b6020020181815250507f13de373e9316ae894831a7aa0879a2eddeff5e51e64ef0e067146ae3531583a6816102b86103e8811061add55761add461fa8d565b5b6020020181815250507fce2e700795df9d2243e339ca012d1e9d1807f3a01bcb5d981fb08c95858541d9816102b96103e8811061ae155761ae1461fa8d565b5b6020020181815250507fb0437144fdbe715cc2f254fa02fc6dc49818bb83caafb580b13ab744a6ce5e1a816102ba6103e8811061ae555761ae5461fa8d565b5b6020020181815250507f41c111b9ea5fc61f6f5c81640373d33d901c91ccad67953025e846011cf9dd97816102bb6103e8811061ae955761ae9461fa8d565b5b6020020181815250507fce1154f628fd3b609d70d48096c540720166317918b566517aabf8fc4d718d3d816102bc6103e8811061aed55761aed461fa8d565b5b6020020181815250507f305dcd27e17a3f3c0ada7b2524d9626824824c609ddac4622a1638a5af3f5a56816102bd6103e8811061af155761af1461fa8d565b5b6020020181815250507f2dcda2996dd5d3523f5d21cc2aaad8638774e51f353c1cbf22281a9e3f3844cb816102be6103e8811061af555761af5461fa8d565b5b6020020181815250507fd07bd0689984494cf2efe92019951a6accb606a4355873b6c28c4cfa370b0a43816102bf6103e8811061af955761af9461fa8d565b5b6020020181815250507fcb27a84ef8f2ec29cdae46ec082e14ffeaaea281c7e065b69c8e6ce24eef1b73816102c06103e8811061afd55761afd461fa8d565b5b6020020181815250507fbf7581067ae3a22339139500c3ab218f101101a2114a088f8b033535f1460801816102c16103e8811061b0155761b01461fa8d565b5b6020020181815250507ffa6c008a0a7d2c28479cea58af78ab1ee4cb9b981b545df3574ce857459c1768816102c26103e8811061b0555761b05461fa8d565b5b6020020181815250507fb8f99264b5b97ccd265cfa6cbb1870ff15375bc2dd24b0503777f08b20a1fe7e816102c36103e8811061b0955761b09461fa8d565b5b6020020181815250507f569e4671fcdac46083c10c91ffef54eefe4c507f403052f1e907bb3ec9a43d86816102c46103e8811061b0d55761b0d461fa8d565b5b6020020181815250507fc546454ebd64c12cf54fa4c1fc14cdf5a38df2a46b76289409a0a8d620a5c010816102c56103e8811061b1155761b11461fa8d565b5b6020020181815250507f9be7c9dca38311ade6675686f6f397752a4cacf12b072ede07aded6b0ebaf8f6816102c66103e8811061b1555761b15461fa8d565b5b6020020181815250507f253347b19d54cbd342249be9c6a09d7f862084b7f2d74ffb7a3c3705970d0def816102c76103e8811061b1955761b19461fa8d565b5b6020020181815250507f954aae7185dcbae53b42282d47f9144be74eb8919f1173450921b2da7c6b2043816102c86103e8811061b1d55761b1d461fa8d565b5b6020020181815250507f8a6bfcacfd03fb309d7e4987233cdfef73779e2bd3f0c18ce0fb91c66f81d3f6816102c96103e8811061b2155761b21461fa8d565b5b6020020181815250507fd9647b28cb466b088029c233345f3907d42669d17a991032c5ce4f086d04895c816102ca6103e8811061b2555761b25461fa8d565b5b6020020181815250507fad786ad5a6f561a6c21658520841c56cee46a8d394d4a419db6b9b400ebc3800816102cb6103e8811061b2955761b29461fa8d565b5b6020020181815250507f410a67c3b6aec8ac28903367a7e8a73bf244df0c0087e67433678ee0545a88ea816102cc6103e8811061b2d55761b2d461fa8d565b5b6020020181815250507f41764c3aa6250f0f2e00c5a8390f19af69ee98d6493802eaafd06902bce16692816102cd6103e8811061b3155761b31461fa8d565b5b6020020181815250507fc6d99e4880eb12e842fec165e2dff7596effe289740a98e50f40b9f287467105816102ce6103e8811061b3555761b35461fa8d565b5b6020020181815250507f6e9ae512ee0a00588a2dafd6669ea2609dcab04c62181eded94c28f6558b2700816102cf6103e8811061b3955761b39461fa8d565b5b6020020181815250507f1cbb97b9196c2a7b8dd937acba95c960cd17b7503abaebc4e0127f6b7fa76934816102d06103e8811061b3d55761b3d461fa8d565b5b6020020181815250507f4531d3f85408ac0050b311e0f77af9fda1a342bc4ecd6d1091b89a9ba1a3d097816102d16103e8811061b4155761b41461fa8d565b5b6020020181815250507f7cc4cc4858b2139aca0ed85499eaa5133789f4f44bb725b363699bfe46005663816102d26103e8811061b4555761b45461fa8d565b5b6020020181815250507fb98bda222d3cd1afef82e95ea4ee0532c0130cfe14e77e4600da1f4ec37a0797816102d36103e8811061b4955761b49461fa8d565b5b6020020181815250507fdc9eeb323a44f03049f108342d76891b1a554e27ca5258e61a4ccf1f6c2355e0816102d46103e8811061b4d55761b4d461fa8d565b5b6020020181815250507f1bd15d6e8c576a6b6fd57cfc7ec1ab89d6a147d0e387d539f5bc5299b40bf6aa816102d56103e8811061b5155761b51461fa8d565b5b6020020181815250507f422d9d9f62ae390ec43ee0d59ad7e46b184fb6a7f7186e28baefee812eb978a6816102d66103e8811061b5555761b55461fa8d565b5b6020020181815250507f4f1714c73e3f23c69b0f7782304d686788c6fbc8a9ebbba124fd86148f7f9dae816102d76103e8811061b5955761b59461fa8d565b5b6020020181815250507f2a4d77092c9958139b56079c50cc73303bef9749fe56abb5a5594d257741d3e4816102d86103e8811061b5d55761b5d461fa8d565b5b6020020181815250507f985659398afc0290bebd9f7c17f7f16933639b79d3f7769639a334d8fcd9aa19816102d96103e8811061b6155761b61461fa8d565b5b6020020181815250507fc7c82a2558221a7116a60810960bb568242a6d701dd1e06698a00bf159bb4fbd816102da6103e8811061b6555761b65461fa8d565b5b6020020181815250507f58b3a9f6d41710277eaa7ed78c2792ad7e1e3ab70301e1484b08ee2cf95758b4816102db6103e8811061b6955761b69461fa8d565b5b6020020181815250507f9888a7bd269235f300014bef4d87d66723b2b7302e81ac85e71c3e07d278cc76816102dc6103e8811061b6d55761b6d461fa8d565b5b6020020181815250507f04975a40dc8405999629f53baca2dc2fcce4bbbabc538b78913ae5a0e710aa37816102dd6103e8811061b7155761b71461fa8d565b5b6020020181815250507fee937d818086f10a9b7a6ce19640195e98e49623f035fbee21431f314eb75097816102de6103e8811061b7555761b75461fa8d565b5b6020020181815250507f8635f426874e2d27cdb366b6bc8a67dd9ea524def5eb7210477d7bd3f29eecc2816102df6103e8811061b7955761b79461fa8d565b5b6020020181815250507feb2a07f8ff2dfdc787576165e9beeda66c4397b636212b3c3b48d999959fa419816102e06103e8811061b7d55761b7d461fa8d565b5b6020020181815250507fb70f726541ad1bc530b8ff660d3705ffab6d74d4a76a5814cab326349aac69a3816102e16103e8811061b8155761b81461fa8d565b5b6020020181815250507fddc91d24c52bd12adf5a533b117f5b035e392ec5ae14ec2132bc52ec6ec6c9a5816102e26103e8811061b8555761b85461fa8d565b5b6020020181815250507ff636faa81c7636cb6d87f719d6e69bb53c236c128a796657907817f44e799051816102e36103e8811061b8955761b89461fa8d565b5b6020020181815250507fbfa4de5b552ef7f2ed5319d762bb4b90ec91201f00f5e1c9b99b8bfb2c328d00816102e46103e8811061b8d55761b8d461fa8d565b5b6020020181815250507f9119708ba086e7572db6989bad811fc081ee91265d4825aeb5a80c0a6406698e816102e56103e8811061b9155761b91461fa8d565b5b6020020181815250507f44f14fe64128ab44a1b7f251b0710d9a7b3e72e558818b8445d886961f93ae3a816102e66103e8811061b9555761b95461fa8d565b5b6020020181815250507ffdbb456aedcd3ff27ff2a595608375f41b7a6c787b5d6d6566277a62e911d2ee816102e76103e8811061b9955761b99461fa8d565b5b6020020181815250507fe038a3e9360f681200b5170b446179400b2394adbc669cfe9f24286ef0a45301816102e86103e8811061b9d55761b9d461fa8d565b5b6020020181815250507fa781f706049f2d7cfa7d16d24a17a667b45291198dd875761fc0117ae5ecd4e9816102e96103e8811061ba155761ba1461fa8d565b5b6020020181815250507f4cb7c0ea0a96a1c9faced1c7eb635a21f07de348558052645dcabea3a7130e09816102ea6103e8811061ba555761ba5461fa8d565b5b6020020181815250507f7ee9f93fd269e1b9a5993aa3e3bdbc5565c9d74b96c977f07daafc2e4be70615816102eb6103e8811061ba955761ba9461fa8d565b5b6020020181815250507fc253c5940dc57d909d19037118b0ec17036fcadaa88ebd015765067a4e028e04816102ec6103e8811061bad55761bad461fa8d565b5b6020020181815250507f03243d5a590136cb0bc65196eb6a2c188246605159218cfa870cd8c488bbad0f816102ed6103e8811061bb155761bb1461fa8d565b5b6020020181815250507fa3800a4839d5ffd4655a7a2a8c338a7664fce5538bc68243a1d4f57cd9eefb34816102ee6103e8811061bb555761bb5461fa8d565b5b6020020181815250507f6da50dfce207c64d3c9035d73bb20abdc2bf1617168e0f2a2e13543ea04df347816102ef6103e8811061bb955761bb9461fa8d565b5b6020020181815250507fbf0c321515b45a666735e52101d419b9b5b0be32999993f6fe29e918c2dd3a95816102f06103e8811061bbd55761bbd461fa8d565b5b6020020181815250507f3136da190df5986e25b443a39b1718c44884d317d88489799eff1e94feff1892816102f16103e8811061bc155761bc1461fa8d565b5b6020020181815250507f8c8154e32a760eff64f698f2439f126eba0dc0a5369f541336e7f3c8c5c4bda2816102f26103e8811061bc555761bc5461fa8d565b5b6020020181815250507fbd47cfbd1b8b7c5b02d667096ce7d83a88ecc932996a6fe52d0cc8aa0f2f5f0e816102f36103e8811061bc955761bc9461fa8d565b5b6020020181815250507f605b5763b4cce9230149ba396718a01eb2382c4eb032fedde585bee2b7c262ed816102f46103e8811061bcd55761bcd461fa8d565b5b6020020181815250507f2486e5355d493b75704b8b1da0f2448975fd89ef738a16c049e1c38537cf5cf4816102f56103e8811061bd155761bd1461fa8d565b5b6020020181815250507f06d462c98ac564402f26d0149b429587357626f53e41332ee440e84f5f8b1213816102f66103e8811061bd555761bd5461fa8d565b5b6020020181815250507f8f252a343b0cb15e52a3e3b44323c57a9264fc6a53c1cffcff7ade0bca95645a816102f76103e8811061bd955761bd9461fa8d565b5b6020020181815250507ff20334f5fb3bd4cb975f9767e5eb65dab920aca8415e3b0f127b82f8bb74d576816102f86103e8811061bdd55761bdd461fa8d565b5b6020020181815250507f3e2c75cfdfef1fdd7cb3def5c58d29a933306d9e9b4174828618049aba5fbdd6816102f96103e8811061be155761be1461fa8d565b5b6020020181815250507fdee04bf52f95075203cbe00e863684477c3b5077f8717e3a9608cb6859e8e4bb816102fa6103e8811061be555761be5461fa8d565b5b6020020181815250507fcee92d6cf99d0b548d06d1a2180a149b8a0cb3434c5359f50d1f4642e4931586816102fb6103e8811061be955761be9461fa8d565b5b6020020181815250507f6905ee27053d0faaf9cc05942b7cee617fa51b557b4e4816e3fa597699feeed7816102fc6103e8811061bed55761bed461fa8d565b5b6020020181815250507fb61c2666bdb36842cce193eea1b26de2406e2b34a60e3e9d135dbf6d4fe7acdb816102fd6103e8811061bf155761bf1461fa8d565b5b6020020181815250507f709ae8d9ddf727d61a03cec2168598ba7769709e44835c41b88bd6bc9dc161be816102fe6103e8811061bf555761bf5461fa8d565b5b6020020181815250507f9f23799f19bde72be5cd97dd88ef9cefa4af91de8aca64fffc85d1a7d3a0f4e8816102ff6103e8811061bf955761bf9461fa8d565b5b6020020181815250507ff0b2ae9330bdda3eab9e58393999417707ad330d1c2b04b3fefadd0b0d27cc51816103006103e8811061bfd55761bfd461fa8d565b5b6020020181815250507f6b0eb5561e7068baa84f5aef6b7c1fe51407fe68ec09a5f10d0514f1ae811471816103016103e8811061c0155761c01461fa8d565b5b6020020181815250507f761cc346b9fec9341b73ed7f4877d6a31606190b59190e5b66ce7e06258787f6816103026103e8811061c0555761c05461fa8d565b5b6020020181815250507f399dae8353f7cbc510c9fe1f8243261dc7db5d5845ec1021dadf7a4098d053ef816103036103e8811061c0955761c09461fa8d565b5b6020020181815250507f67c58f6dc51e2d1da6a284617ec13bce821de1ad687a36bbe3f77d388956a02e816103046103e8811061c0d55761c0d461fa8d565b5b6020020181815250507f4ad3ca599859e95e6ecdc5257e598d7d56acc6075b48af6d27882ce77846594b816103056103e8811061c1155761c11461fa8d565b5b6020020181815250507fcaaddea9cef9f3369d2fd9d4211775d995665d35ccd38732f4be61df660ea7eb816103066103e8811061c1555761c15461fa8d565b5b6020020181815250507fed4bcbec309527bf2d8379da593ae7cf3cd7694dfd0341a0103e2c7b0bb1a51a816103076103e8811061c1955761c19461fa8d565b5b6020020181815250507f53cec75ae9e6499959818d87a57f22dd57de8b755689e261f1858ddd6085d9f2816103086103e8811061c1d55761c1d461fa8d565b5b6020020181815250507fc432af8ba5c981f3c7c9d283343fbc8f2fc223f378d2191b09c1ee9b53243e7c816103096103e8811061c2155761c21461fa8d565b5b6020020181815250507f75e8574b22f0d054b63a1aeb477bec53f566dbf826d6bdaacec59acf8f2bb6788161030a6103e8811061c2555761c25461fa8d565b5b6020020181815250507fa43a5f1f4c0ed617cdc9546b8f999a15bb369c2843ef5bcce645285626b605ae8161030b6103e8811061c2955761c29461fa8d565b5b6020020181815250507fcaabf2fb3ca3505fea7da9682f1839b54e66bfae2c47736c36a2c1ac3bad4c468161030c6103e8811061c2d55761c2d461fa8d565b5b6020020181815250507f59e209c6a463b8ee3848199de505171eea38b1faaae5ba9f659eefdb02df91ae8161030d6103e8811061c3155761c31461fa8d565b5b6020020181815250507f4ef216ecd5074a81ad25d751cfd5b4be30cf9aea0c54259a92a8f1d44c844f218161030e6103e8811061c3555761c35461fa8d565b5b6020020181815250507f5aef6cd0f299836e078f525ae9802c11a06fa86cdd358cdb75eec60806c4bb418161030f6103e8811061c3955761c39461fa8d565b5b6020020181815250507f8f23437e90c25ebe7568ef63007a5f22a76d11e45f821ba7618b33389d89311c816103106103e8811061c3d55761c3d461fa8d565b5b6020020181815250507f8011b1a7a5341896e0623f8ae76b2b60e644202459edb95ddebc3e55802276f7816103116103e8811061c4155761c41461fa8d565b5b6020020181815250507fd305a196b33a5c7781cbac744b65cdcda0d2481d32fda1d6766fb4fa3c3993be816103126103e8811061c4555761c45461fa8d565b5b6020020181815250507f414b4ffcf8be761af2dfa7a393d42b50a72118c438c8ae8bf3b146d90ac73cc0816103136103e8811061c4955761c49461fa8d565b5b6020020181815250507fa34864515ac71c03340daa70a7d71aa8c0e287bdc420e795e18b976a05fcd2a8816103146103e8811061c4d55761c4d461fa8d565b5b6020020181815250507f53e747d5d2f383dcb78dcd3d07ff77b192126494cb577d85430c51472614bcf3816103156103e8811061c5155761c51461fa8d565b5b6020020181815250507f69465af5336d3bf4aa4c3df86082139014c23963239f63d4fcde89513fb71367816103166103e8811061c5555761c55461fa8d565b5b6020020181815250507fdfd6cba424a3c8af132881d7cdf0b5626163522ce343e9f1daaaff80297564f0816103176103e8811061c5955761c59461fa8d565b5b6020020181815250507f2210450b92530f655b241dbc497085267ddd677981a01ea6d05d1a999a4d89d1816103186103e8811061c5d55761c5d461fa8d565b5b6020020181815250507f5f15742cd8ce22e295c39a232120ccd266c9f20ada2dd3f11c64cf3d1b097f23816103196103e8811061c6155761c61461fa8d565b5b6020020181815250507f846f863723b0e3adc07fc35844a5b447ce77d407a519611d2aad260fe02955538161031a6103e8811061c6555761c65461fa8d565b5b6020020181815250507fbbf8e0c2c03c267d6cfea16979f2b2e1aff71002fe61a9bc8d60e3330768457f8161031b6103e8811061c6955761c69461fa8d565b5b6020020181815250507f41950cb6f4d9d6877cf14cae1dec7c07a7bf52a24370fd128309d94fe60a2d7d8161031c6103e8811061c6d55761c6d461fa8d565b5b6020020181815250507fc1096f3f0c1f85686b9dee406e9deb5a36c34f943a899e6605b9c9fb0f1e585b8161031d6103e8811061c7155761c71461fa8d565b5b6020020181815250507fa6427a5f6564aa7bb00babd990c9264cf07684ca44dec2d9b77770f25c1830b78161031e6103e8811061c7555761c75461fa8d565b5b6020020181815250507ff6860af8a68d78e29b9b918261f59384fc980ebcce3e045c068470f701e7d2868161031f6103e8811061c7955761c79461fa8d565b5b6020020181815250507f76abb1abf82962fcb6a1ae7d7ca3be4bf49df589118d6a3558d1eb57be877434816103206103e8811061c7d55761c7d461fa8d565b5b6020020181815250507feb7190b0f7e8bf44d7af9fe826d33a1ab0664a630fc0b13f910c40d4f7370a71816103216103e8811061c8155761c81461fa8d565b5b6020020181815250507fe3909cf78b477735cc460f9e074b84fdec92fc996346fdef8005dde38cbca442816103226103e8811061c8555761c85461fa8d565b5b6020020181815250507fc6b41f10636082e9f5fbfc4c5bbc07a3d7b13543485f713ffbe4565c3a7b161f816103236103e8811061c8955761c89461fa8d565b5b6020020181815250507f8f38104eefacdf925f600f03257014260d024cd690718a32e5fe8d2b82b9be40816103246103e8811061c8d55761c8d461fa8d565b5b6020020181815250507f5b1f1533be6cac00d2f3f2e8e51173d267f15eb2a96f6e98a42d5c88c49a9c67816103256103e8811061c9155761c91461fa8d565b5b6020020181815250507fe626e96e6e291cc34b09180183fc7118698f261ab435e24bcc745a364d59f8d0816103266103e8811061c9555761c95461fa8d565b5b6020020181815250507f6cf7718671e0ab4387f6a306b73deeaf59ab208bb334b8585470e81edfb21c27816103276103e8811061c9955761c99461fa8d565b5b6020020181815250507fba18d910387054ae3de16e72e0e7a4edf8d59b379cecf73a53175c8d08047497816103286103e8811061c9d55761c9d461fa8d565b5b6020020181815250507f3751b9e3454e58b2960a5f70bdd50bb067de2c012e59c81b8b3310ae86ff13cd816103296103e8811061ca155761ca1461fa8d565b5b6020020181815250507fa3d6f8c3bb7dc3723dd44efa8ad5e4020d0a0dc4fbac45da0848a08bc5d2f1868161032a6103e8811061ca555761ca5461fa8d565b5b6020020181815250507f35c890087918ed1cd0c01d012f84493a458b21b81382f63f151cbaf0d55792ca8161032b6103e8811061ca955761ca9461fa8d565b5b6020020181815250507f64d6b267fcd62caa539d24a618b463e76d5786dc327d28cb0593669e55d37cba8161032c6103e8811061cad55761cad461fa8d565b5b6020020181815250507f2dd5776efd530be33e887e0f5d37365665551c4f778fd6d8c3dbec37d37db1d18161032d6103e8811061cb155761cb1461fa8d565b5b6020020181815250507f31789216d6b85be92af31755fc8ded73db37a960a4b3fa347a593d040e4608c88161032e6103e8811061cb555761cb5461fa8d565b5b6020020181815250507ff6766c290b77ce5cf255c9e5a9cdf388774230d3598958ed3aca498317c1378d8161032f6103e8811061cb955761cb9461fa8d565b5b6020020181815250507f3d66dcae14539b9e6c59ab63b9b333d5b2c5c66d9c63526b09f70ca75aac7571816103306103e8811061cbd55761cbd461fa8d565b5b6020020181815250507f3fca6a87cb81bd72b00a376ac9981bbd2b73becf1207d94c1e1aa6dd98a055d9816103316103e8811061cc155761cc1461fa8d565b5b6020020181815250507f8ceac4ede0bd4b996800dd3f33b731d4b21fa962d35c45f1cf5cc5a9fa06873d816103326103e8811061cc555761cc5461fa8d565b5b6020020181815250507f5dc7c5089eb107d22e30fe01ebabec08b1c3e3f2cbe3f4ab2ff27855ba6873d4816103336103e8811061cc955761cc9461fa8d565b5b6020020181815250507f45979112130880fa3c1e90f8c99411de2d752be3a1be229fcd75692944bce7d2816103346103e8811061ccd55761ccd461fa8d565b5b6020020181815250507fee6ccb15725e4f5e567b7d7b25cf1ac8264bf2a67a284d06b048a07e5cb39eb8816103356103e8811061cd155761cd1461fa8d565b5b6020020181815250507f0c2edc0f09fa83e74a0ed8c5ca8fab0d6451f47b42ff4088e49b6ca3a158509d816103366103e8811061cd555761cd5461fa8d565b5b6020020181815250507f82e80f3382664effd9af65001e1c0ca8a43f1891c0734391040964e9279e7e41816103376103e8811061cd955761cd9461fa8d565b5b6020020181815250507fce031f11aef3f21bed78e4a406f9455fd3bce721333215ac370d5f787120f6d0816103386103e8811061cdd55761cdd461fa8d565b5b6020020181815250507f8cd90ac06ae976b682af3e4cb134ff331696d0fbbba10455edbf84bd024f2202816103396103e8811061ce155761ce1461fa8d565b5b6020020181815250507fa8948c359a1642a9861eda06cc4172a28dc3411b6da6c7666eaaf70fddaaee828161033a6103e8811061ce555761ce5461fa8d565b5b6020020181815250507f4f6c24709c21a36b83125660fc7546d7f35079342cea0811a6bfffd42f8a3b258161033b6103e8811061ce955761ce9461fa8d565b5b6020020181815250507f7951ea4cc4ee05f279be290a19e65453446fa6a8fac87ea74875c58bfab998998161033c6103e8811061ced55761ced461fa8d565b5b6020020181815250507f7df3eac0d25f92bea2400ce9aa880ce4027923c4c6f621ba6ec26b3ed7863c888161033d6103e8811061cf155761cf1461fa8d565b5b6020020181815250507fa3aa2b37a62e0beaec9ddc4578fcea92145cb6400b35de99935743d8ea6d099b8161033e6103e8811061cf555761cf5461fa8d565b5b6020020181815250507f133529b25fd6a1c01fbc012725de7660be6964ddb323362108f7844a46232aa88161033f6103e8811061cf955761cf9461fa8d565b5b6020020181815250507f3a29c27e7deb5bbad9008a226acd9c20e90a7d190d6362a755d28d351dc0cf53816103406103e8811061cfd55761cfd461fa8d565b5b6020020181815250507f3fa14947117033cec2bc2c3b548955deb05d53d3f80716cf51898e911fb232f8816103416103e8811061d0155761d01461fa8d565b5b6020020181815250507f35f9a0470d79d57d57a94ecdbcf8265b16c20b203de061f5691a26806390bc9b816103426103e8811061d0555761d05461fa8d565b5b6020020181815250507f4b018f965054d1a13d9666953be4494c6922607117c119537f7d07deecc7ea9c816103436103e8811061d0955761d09461fa8d565b5b6020020181815250507fdef54fe1643b7e4e3715560c86ed8d7be45dc2c5a74c30f491896018f423c714816103446103e8811061d0d55761d0d461fa8d565b5b6020020181815250507f5c86fed1168617570c17a6916266b36035a6675e83956b0be888b4c9bfc39a12816103456103e8811061d1155761d11461fa8d565b5b6020020181815250507fe5bb5920dace681142ce6225c6e4f50015c6784ebdf8b29f9f69856037c5b97f816103466103e8811061d1555761d15461fa8d565b5b6020020181815250507f6a0686a3780443d46c37bc99acbf7a8eb3a925c2be4edf88e49d9aaf1d583bda816103476103e8811061d1955761d19461fa8d565b5b6020020181815250507f075981168a4ab31a4f5253f4c8c90ce80ebce1110bc7979e02b496864b36024e816103486103e8811061d1d55761d1d461fa8d565b5b6020020181815250507f0221b27284af1d7841a66b30ccbfb8765c2ba517156de7d025b4a0b0994f98a1816103496103e8811061d2155761d21461fa8d565b5b6020020181815250507f0e78603384e749d0108f1a08ce0807d68e1a387b2900c96676311351d83b50558161034a6103e8811061d2555761d25461fa8d565b5b6020020181815250507fbe4c1ae2c3d8bed26c5e9ad2c7d0169f9b0bfb1d5d59e2a74031e5c537053fb98161034b6103e8811061d2955761d29461fa8d565b5b6020020181815250507faae0392e3a2d262ea953462a9ad44ca3d3550fbe1d34f464899480a0c67b16248161034c6103e8811061d2d55761d2d461fa8d565b5b6020020181815250507fbd3d6012baf3b34432808c7d1f76b80164cc10e0dd0f1f3b1f9bd514da318ce28161034d6103e8811061d3155761d31461fa8d565b5b6020020181815250507fa5b7676b766aeaf6116b4362c76d8060c27805e72c7ac2655915b013d518499f8161034e6103e8811061d3555761d35461fa8d565b5b6020020181815250507f3e64192bcebe15b955e1500940aca5272243d5296007de5c2a95e98924299f768161034f6103e8811061d3955761d39461fa8d565b5b6020020181815250507f93b991f416f097b773412b460e32eec9531bc8ddee9a5134b993be6f051bba2f816103506103e8811061d3d55761d3d461fa8d565b5b6020020181815250507f4445bdc44559271735b7e7c6d0f84b8c39cb719178f66d404c9230cbf3249c9f816103516103e8811061d4155761d41461fa8d565b5b6020020181815250507fdbd0810494feeaf808cebbdf90fecce2cc03383849bb9401fc0fe1caf7e8d65d816103526103e8811061d4555761d45461fa8d565b5b6020020181815250507ff759cd60be326865d987b3a2c298af17286cb87f362500f2d93f23b5bbc8e2cd816103536103e8811061d4955761d49461fa8d565b5b6020020181815250507f4a18b959454d274db6e8243903e5684dfc751cb1faf7903c536d53fa8bd2c5dc816103546103e8811061d4d55761d4d461fa8d565b5b6020020181815250507fedd76cea7095f2533572a9f5a560ebe1dd03c6ca52bda61866447af3a0c127b6816103556103e8811061d5155761d51461fa8d565b5b6020020181815250507f4ef267ad23be5c89516f95d0ea16ba2b155a80d0075b4c63e48c741b1c83597f816103566103e8811061d5555761d55461fa8d565b5b6020020181815250507f5d8ebd9e3fce816a1dc85934ce5b895de6fbe50b9cb1a6787fc769cbf58fb13b816103576103e8811061d5955761d59461fa8d565b5b6020020181815250507f9ffd97bbce0a0017f1aa4a32221844eaffa8b3ac0f9b2d1723dd3ea720c38de0816103586103e8811061d5d55761d5d461fa8d565b5b6020020181815250507f7a769e8b6c9ede2f855c7f1158e24894af1d22106b06beea9fc605e2b3e576c1816103596103e8811061d6155761d61461fa8d565b5b6020020181815250507f0d31ede80c7eedcbf0968c18298bec9f1982d9e9c56d066ab0065d12f1e514d18161035a6103e8811061d6555761d65461fa8d565b5b6020020181815250507f12f6ca35fbc18f3be8175759e44c99bf6f18b6df44d88b7f2659fcd31e76e4788161035b6103e8811061d6955761d69461fa8d565b5b6020020181815250507ff718f2e19334f10aa3f24c6d74c6184ec3b49c3239c7d45d9bf84e85776ab8628161035c6103e8811061d6d55761d6d461fa8d565b5b6020020181815250507f704bb7fc0c6b43650aa74c713ab05df90b35eccf9e9eb81b30ecd19b1a092a528161035d6103e8811061d7155761d71461fa8d565b5b6020020181815250507f5ef996d687c207eb35bbcf960efc479150235beed93f6201ede0663c7ada56338161035e6103e8811061d7555761d75461fa8d565b5b6020020181815250507f94bae82c3ad2742d2c089eab6c2be21febcfd588359142339375b54c7fff07a58161035f6103e8811061d7955761d79461fa8d565b5b6020020181815250507f98af008b6fbef8adbed2074f1b4dfe0f206a4ada5ff87e94a66d1ba638c37e5e816103606103e8811061d7d55761d7d461fa8d565b5b6020020181815250507fbc3deded4eda706c962cae2263167ece74ca0af5f48c68f0978937e9025322e0816103616103e8811061d8155761d81461fa8d565b5b6020020181815250507f91c8d8b5efbd82ca00f2a88e1537db7d9839abc2a202cbb7ce8a19357dfc8dd8816103626103e8811061d8555761d85461fa8d565b5b6020020181815250507f68bc82e0d33e3c7d25169cea1d04140ee132e9fd92a12f1826cf1bb903416346816103636103e8811061d8955761d89461fa8d565b5b6020020181815250507f59b6a63ff7168c386efbfb7cda4e72ea252c085e64bb2ac5a504c34eb2d83de3816103646103e8811061d8d55761d8d461fa8d565b5b6020020181815250507ff0b74d6e15daf312cb268a1a7d7aa611b811da0b40e7313349023fa2982820c1816103656103e8811061d9155761d91461fa8d565b5b6020020181815250507f34d3d685f7d7f70c02e6e1e39c74f6244cc871944ea0e5a0f8383329f8552108816103666103e8811061d9555761d95461fa8d565b5b6020020181815250507fb308eaa0bc69770526d5ac69701e291ef52b1009b9534e0fe2474a899fd430cc816103676103e8811061d9955761d99461fa8d565b5b6020020181815250507f0212340ec153d181d185f24a3d1cbd1a3c35384fac4d645ddda71884a967b6a7816103686103e8811061d9d55761d9d461fa8d565b5b6020020181815250507f368863f3c1855a935085b903cb5ebd95c0b3891a2f9551666808c564eba126c1816103696103e8811061da155761da1461fa8d565b5b6020020181815250507f39178728c474420bdf8f4109a9431bbf0303715f31bdde050ed8f447c524a9428161036a6103e8811061da555761da5461fa8d565b5b6020020181815250507f6d44c530bda9a6b607cee3fc84ce8772aaaca2707b2608f955321eb9060f8eee8161036b6103e8811061da955761da9461fa8d565b5b6020020181815250507f7b383d3c0ab92d978041c9ddb7b802bdd7d1c7fd3e218fb583d718e6994d80658161036c6103e8811061dad55761dad461fa8d565b5b6020020181815250507fea63342d167e1061712135320b46e181ad34e56f6da12b769d34be575bae6a848161036d6103e8811061db155761db1461fa8d565b5b6020020181815250507f2214bcd4542efc45ce17e176e816340c015ac0d557c48bc5c4c3809b2d4270568161036e6103e8811061db555761db5461fa8d565b5b6020020181815250507f4f39417555f6e8de9a5c3f6782f5cc7bd6b64cecaf4ff53f8a1551a00d3fa9dd8161036f6103e8811061db955761db9461fa8d565b5b6020020181815250507ff66a8f9b5c93c2e8195a149650530b84f9174b9fc0d49b7dea624f8dfe2f45ae816103706103e8811061dbd55761dbd461fa8d565b5b6020020181815250507fce7b9633a2900fba600398086d12f57af46a3e89d07f549f4ce6d08d84b39060816103716103e8811061dc155761dc1461fa8d565b5b6020020181815250507ff4bbfa6fb46b10bc96a9341e1e2c45cdf1aeee2c7e4a05fedd7c2c3642dee4f1816103726103e8811061dc555761dc5461fa8d565b5b6020020181815250507f13e2bc1e8d2d1597ac30783342a2e063b71ec9a9de2c421f6acc825a7eda5378816103736103e8811061dc955761dc9461fa8d565b5b6020020181815250507f1f1144657872d50edac9171720b8f1acfd9ed39a7e799a528134e7b323597da8816103746103e8811061dcd55761dcd461fa8d565b5b6020020181815250507f976b0fb711024a3e7b39f474d1c7edb7240cccd52063a03cedc5d38531c6b301816103756103e8811061dd155761dd1461fa8d565b5b6020020181815250507fd7e142af6097a992b2c825d8629347364bec0904e06560068f43a47915d5827c816103766103e8811061dd555761dd5461fa8d565b5b6020020181815250507fe3aa9a2c896ac5b1550a979af0d71b711a53fbd0e12df065b213fdaa2edbbadd816103776103e8811061dd955761dd9461fa8d565b5b6020020181815250507fcee7c5e079a72dfdfbca93ca725b7d128816418f37c1e3a22c64d993a8b63305816103786103e8811061ddd55761ddd461fa8d565b5b6020020181815250507f9290ab84e082df9e44e96a6ee6f897baf91925222d5362d4aaed1372127f5e02816103796103e8811061de155761de1461fa8d565b5b6020020181815250507f4b63f3547680d8adaf94593a6497d9e6581ea0011dc834397ecef09fd83502768161037a6103e8811061de555761de5461fa8d565b5b6020020181815250507f46e3c97d35f0c8b7311052e4daea110d0c2ea2e0b9685575e612cb05d2184ad88161037b6103e8811061de955761de9461fa8d565b5b6020020181815250507fb440fba19ce1707a6be32b4ec3fafbc82c3ef4e2bda27918885d8dd1cf4646a18161037c6103e8811061ded55761ded461fa8d565b5b6020020181815250507f0cc612ab7242d2c8fe935e2f2d034537a5e6025cd986a8b3dc6c51b28b84191b8161037d6103e8811061df155761df1461fa8d565b5b6020020181815250507f821eb45a2d69865f2d30af8285a129f4c8258b4d0f7f5a725c8d3118d87772178161037e6103e8811061df555761df5461fa8d565b5b6020020181815250507fd75176004262c7ce325117a742fdf61f73713319ec0c42aa6977f1a6932c07388161037f6103e8811061df955761df9461fa8d565b5b6020020181815250507f7d0b1dee00a7f288b6f120de3a1cafd0d623ca664676a32352cdcc9e3b096a98816103806103e8811061dfd55761dfd461fa8d565b5b6020020181815250507fe874d93e3f37422117e6ed91aa4c780008021fbfe319ff1f3439abba79630ba2816103816103e8811061e0155761e01461fa8d565b5b6020020181815250507f1ed048469e42210a1569b6d11809b318935945f8052d24759585f7528fe40b50816103826103e8811061e0555761e05461fa8d565b5b6020020181815250507fa01f35ce4e94573fcdc672e9c0ce4df4dc27176a02e014a2d9c998a529bd7fe0816103836103e8811061e0955761e09461fa8d565b5b6020020181815250507fce7a64fbe3977c37cc1b7247cdc85e05b91b1f6e6518d8ddcd22fe0684e3a341816103846103e8811061e0d55761e0d461fa8d565b5b6020020181815250507f654bec8fd71d61a65555a3ba00e752437d8fd4f420877f4747f08ac2b27f5dc1816103856103e8811061e1155761e11461fa8d565b5b6020020181815250507f53d745a2aab340b29eb2887d0994ec5d0c7b85ee81d3e7ea2da1e691e9f47c7b816103866103e8811061e1555761e15461fa8d565b5b6020020181815250507f35f0aa1094ce2bd0ab4febff560773cdccd8d65439a0dfb4859cde597a144591816103876103e8811061e1955761e19461fa8d565b5b6020020181815250507f514a9c5270c9d2e16d86925df4028caaac9966db315fc27de37b6832ce5de3e3816103886103e8811061e1d55761e1d461fa8d565b5b6020020181815250507f13be4ba49be09fb4b9c9424207232f8fa2229a830d80ddcc8a78a31591d1b618816103896103e8811061e2155761e21461fa8d565b5b6020020181815250507f504899fd4650b2e36466b5a48a71b4457e1f703de0ff8f3ce41966201551fd668161038a6103e8811061e2555761e25461fa8d565b5b6020020181815250507f7789cad457b28f5bc0b978f081e21694b1ba58ca1de54175fcb79e40ed03c73f8161038b6103e8811061e2955761e29461fa8d565b5b6020020181815250507f8b5f037adf92246665894f47dc587a8c08a87cd8ad352a862dd4cdeb2eede2368161038c6103e8811061e2d55761e2d461fa8d565b5b6020020181815250507f2d4ce53c38eb6c32f57734150077bc5a220b8a51372604fd00c52292c39a315e8161038d6103e8811061e3155761e31461fa8d565b5b6020020181815250507f2ae218495be483bfed7ef39dd49f56584da3a0c13d6fe3572a28eb291ebb254d8161038e6103e8811061e3555761e35461fa8d565b5b6020020181815250507fc75930c98b2c5fb54730b634ea8875f1bdea22ac4c4b0bb38cca7ae1628d276f8161038f6103e8811061e3955761e39461fa8d565b5b6020020181815250507feaa8e80934346177a797c27549c0fb7878300a9bd533ee6be09a2572d97a078d816103906103e8811061e3d55761e3d461fa8d565b5b6020020181815250507f77758b0883ba0e84b8cddee1dc5d8390339dca0bbcb5922786957f64b82f9b9f816103916103e8811061e4155761e41461fa8d565b5b6020020181815250507fa6f7fca8e087fcc5384f5cd99aea33728ea3f6a938ac6e6f602c91349d96334c816103926103e8811061e4555761e45461fa8d565b5b6020020181815250507fa0fb4c3a6d0cc16a2ac51d738b59b2c78d958ea99aa17c415c8478bdee2aeb47816103936103e8811061e4955761e49461fa8d565b5b6020020181815250507f68d3def44a8e431fe0576a463c1d2cdd1b4e2a9ee204c61234a270f29ad2d3f3816103946103e8811061e4d55761e4d461fa8d565b5b6020020181815250507f81e942d497e6b9ddff4c3c39904f6315a7a1299b0a3fb0bc1877a93120f668db816103956103e8811061e5155761e51461fa8d565b5b6020020181815250507fc997b5b486bdc1a49d5b126bc42bd7927fbeb51c89a5f20436bdadd586a1ca67816103966103e8811061e5555761e55461fa8d565b5b6020020181815250507f0bc832368de71d75882d9966c31e4b131bb4df465b37f92b4119811bc16f5865816103976103e8811061e5955761e59461fa8d565b5b6020020181815250507f3f9dc8a27c35696ccf51b4efb122e877a483abbf83aca5fa223749e6e4df8165816103986103e8811061e5d55761e5d461fa8d565b5b6020020181815250507fba59f28ed27118e490d2debf2fbbf4649d29902afa266373cdbd0703a85e4c9e816103996103e8811061e6155761e61461fa8d565b5b6020020181815250507fb2d8e8b99be6315ccdc8a4e4e1eb3d6f398aa280c13b1e51714450cd654f0f3c8161039a6103e8811061e6555761e65461fa8d565b5b6020020181815250507ff043c71d6a5d514bd875c829818571c744104e707ba36417d18ba5c6126abe968161039b6103e8811061e6955761e69461fa8d565b5b6020020181815250507f6c721b07f4de7047f1f8aa5a29ee17c90304210757ae063220930213e3ef15b48161039c6103e8811061e6d55761e6d461fa8d565b5b6020020181815250507eb32a26b11daf8965c6ed99a012a2cff8f3d660921e7e939064e8ae554a76268161039d6103e8811061e7145761e71361fa8d565b5b6020020181815250507fa7d80b0ec139f0f1231e3d580cc58fc8ccdc947f04cadc5565218bfc296c28518161039e6103e8811061e7545761e75361fa8d565b5b6020020181815250507f0e66f0836321fc9825769baa9f51a8359b9215dc5b6836da7ccfde2eaaf215e08161039f6103e8811061e7945761e79361fa8d565b5b6020020181815250507ff47317a40cad7bf74a209694559df70fac0f09ab005e13beb739330d4057e807816103a06103e8811061e7d45761e7d361fa8d565b5b6020020181815250507f53e4d95a69d26f642b8dad4de49e313670b7f94dbd222ba471bfbb3acca7e200816103a16103e8811061e8145761e81361fa8d565b5b6020020181815250507f728a24f5f0e311dc6674188a7c743dc56086bbbd9609d9bd4a733a1081577795816103a26103e8811061e8545761e85361fa8d565b5b6020020181815250507ffe0fc899436abf493ebcae37c0f2c4523f5addd436311125db13095cf302e207816103a36103e8811061e8945761e89361fa8d565b5b6020020181815250507ff7e7afd0265be9b27f78aaf398e1086299c927d3e0f59396161001422a15571f816103a46103e8811061e8d45761e8d361fa8d565b5b6020020181815250507f9fe032ff53f7b24ddf0f29c1746f96fd5949d01194c1e9d75d86a1dbd16be912816103a56103e8811061e9145761e91361fa8d565b5b6020020181815250507f3b94e4978e741daff095e94cfdc27d3d99850043e03f937d4415a161d58fad6d816103a66103e8811061e9545761e95361fa8d565b5b6020020181815250507fa7df1b92f0d7e3feb2587144aa85d1f88b83327f27cd63db2880cd2f57c7629c816103a76103e8811061e9945761e99361fa8d565b5b6020020181815250507fdcbc699db1c580bf1b8169171b0a405ccc42873bb316bf49b84a6e748b6f09fd816103a86103e8811061e9d45761e9d361fa8d565b5b6020020181815250507fa7a43acfc97d70cf3029f5de4efd08bdc8f95d33cf3cacc146d316fe8b00b202816103a96103e8811061ea145761ea1361fa8d565b5b6020020181815250507f8afe9361d4260bc61c6e3cc035ab16e0d5ef12c3b3511fc976f28b8c20754ef5816103aa6103e8811061ea545761ea5361fa8d565b5b6020020181815250507f0e7e8e659be661723747ec83813b6024f22d839a910f48bbc7e8c0eea60fc864816103ab6103e8811061ea945761ea9361fa8d565b5b6020020181815250507f929003d7e6f66fea3e058e50a586f7e5a4d6edca0411c50cc342ab3493640b68816103ac6103e8811061ead45761ead361fa8d565b5b6020020181815250507ff6aafcbe8409515c6d7eadfc616184b176604e995bf10011fea7858f7cf7963e816103ad6103e8811061eb145761eb1361fa8d565b5b6020020181815250507f8c0d62f472f0b6f7401ebdb284f91c724e39d99827e133954da1b97db71488d4816103ae6103e8811061eb545761eb5361fa8d565b5b6020020181815250507fbb0731a22f7bd0985e2f4cd0118dbb258904ff47a484a20a469fe7a947adc7ac816103af6103e8811061eb945761eb9361fa8d565b5b6020020181815250507fb91576dc0b647c8e7f281e1f87379689cd37a8c887d216511f459ad483cb5467816103b06103e8811061ebd45761ebd361fa8d565b5b6020020181815250507f9358a0983dec54cd8a6c1bc6294083ea5484c2740c4a3c5a5f773a4f2b2a812f816103b16103e8811061ec145761ec1361fa8d565b5b6020020181815250507f72626ab3453adc6833f411193b5906f0dbe6db0202106e3dfafecf156f9fb10b816103b26103e8811061ec545761ec5361fa8d565b5b6020020181815250507f3bb65598da9233fe0d73874c5106a4c32f4f52518de56e4b4fbd2e2c9e32a3f5816103b36103e8811061ec945761ec9361fa8d565b5b6020020181815250507f0a666d672b75d7e7e175ec1d0608d553cd9751f0d46a5435250d4f5f95cb1efa816103b46103e8811061ecd45761ecd361fa8d565b5b6020020181815250507f5f2c6f507b85fbf6b1818890c3b39eba90dd5d47d24eafea3ebee1df4d17864b816103b56103e8811061ed145761ed1361fa8d565b5b6020020181815250507fce686621359b5d3ccb6d29f9df5e27c5c728d52276fa4356fc3d4f6b2c8313d9816103b66103e8811061ed545761ed5361fa8d565b5b6020020181815250507fc362e25c2d9974bfd559ddc272b0da8d2890d86d56e2285dc92719c0ecca09cc816103b76103e8811061ed945761ed9361fa8d565b5b6020020181815250507f707971d364aadb0df30b3503dcd275f5d6d1b2152811655986853f75b28be533816103b86103e8811061edd45761edd361fa8d565b5b6020020181815250507f39c018f99143cb96766fcfe97085fa9dfc6d6712c1334934fbb49f850d25182f816103b96103e8811061ee145761ee1361fa8d565b5b6020020181815250507f218e27013f2df25761453e06d782cf74d02b8c15b15b64a7b38dd3833fd55c7b816103ba6103e8811061ee545761ee5361fa8d565b5b6020020181815250507f1587353913f3e4e8a0f4fbbb417669200c1b0ccd6c83d5b6b5c59727289d6924816103bb6103e8811061ee945761ee9361fa8d565b5b6020020181815250507f40518ceb759cf244520154c16e771f7fb77da9e6a261e414af41621bec502b76816103bc6103e8811061eed45761eed361fa8d565b5b6020020181815250507f6dd40edee890ef2ad96cb8464f97cc44f66b68c972084848ce521186a8d60294816103bd6103e8811061ef145761ef1361fa8d565b5b6020020181815250507f07a0a350d251a9ce303b1c7da706203363df9241dd07f0fca87b6f6d02f01832816103be6103e8811061ef545761ef5361fa8d565b5b6020020181815250507f6fbe0683170b1ba81439dfb533ed8e35faa3cb3943f4d89caa2741ba11cc972c816103bf6103e8811061ef945761ef9361fa8d565b5b6020020181815250507f9ca683eeb35a64f697e4b653e2ff7ab33be84306f264f313f4b86d273b67231d816103c06103e8811061efd45761efd361fa8d565b5b6020020181815250507f489cbf7c51c032f223b97d950a48e084fdd9d8c762f50782f0eea16c8891c3dc816103c16103e8811061f0145761f01361fa8d565b5b6020020181815250507f77dc433294bb0542b66e9b8adc28ef7dfdd128792823f1848dcdac9a79182f98816103c26103e8811061f0545761f05361fa8d565b5b6020020181815250507fdc8e8ddb28b16211a8bccdac26715035884e4c71de7256aeee551855632958ce816103c36103e8811061f0945761f09361fa8d565b5b6020020181815250507f55c96e6b5f71e7a5a13c168cb4f43520230207e8a3b4fad37a07e459c61fee0a816103c46103e8811061f0d45761f0d361fa8d565b5b6020020181815250507fd5880f7d9e2f1134c1c87a0e4c6eb904967b95e67a1c1619914522296c0b0113816103c56103e8811061f1145761f11361fa8d565b5b6020020181815250507f1c9f03632b433e30dfa0cb9e99d480f9eed3858f5c2abd7e775fc79e11f0dfbb816103c66103e8811061f1545761f15361fa8d565b5b6020020181815250507f9bac5c95649fe4420b745f2fa5750e87136358cae2e75a58678842d9281936b7816103c76103e8811061f1945761f19361fa8d565b5b6020020181815250507f4bbc2dcc6a957edb259baec0af17ec84a52ac78b43d550d9863bc24510299835816103c86103e8811061f1d45761f1d361fa8d565b5b6020020181815250507fcfbb392ef740f3052eff04befb98aed215b618cac989ff78a92c4f12509509a5816103c96103e8811061f2145761f21361fa8d565b5b6020020181815250507f72bb4ad9733ccbc9946746d5112c48d2bd7113e72570d2e0a48d88abdb836c63816103ca6103e8811061f2545761f25361fa8d565b5b6020020181815250507f59cb6e8fcdb007c4f7a873c5af1517867323a8e496273f38816a11a7085731af816103cb6103e8811061f2945761f29361fa8d565b5b6020020181815250507f803121bbd7d756e0eeb6009d36fea6b8d80d190f511ddbe90f043984fafb9a8d816103cc6103e8811061f2d45761f2d361fa8d565b5b6020020181815250507f19887069fa2d273007f393c477298e997670060da4cf83f6241e46293bd769ad816103cd6103e8811061f3145761f31361fa8d565b5b6020020181815250507f67e0c3a7eecd468f14d2cdc998938c6dcd0aa3ea7fc93096c3fe3a2ac2f70c62816103ce6103e8811061f3545761f35361fa8d565b5b6020020181815250507fabf886b96c6f004479983f501640c96f2f7a2588d85483e9e9736aad020a8f37816103cf6103e8811061f3945761f39361fa8d565b5b6020020181815250507f6d62b70107e4b2dbcbeb1103f87f9fa792f984cc50c67433f67c36dab35997f0816103d06103e8811061f3d45761f3d361fa8d565b5b6020020181815250507fe3ef3b2033d5181e859ff75a414152b6657d49796a600d2ddb28218cfc2ca683816103d16103e8811061f4145761f41361fa8d565b5b6020020181815250507fd6062a46cf3a49240ab7f6a694e1a28c1ac5eaba69caef65b4818c9f7938e5da816103d26103e8811061f4545761f45361fa8d565b5b6020020181815250507f74b13528c5303b89a2626d4529a7f2d1771bc9a16528e4cc1bd5580877a400a4816103d36103e8811061f4945761f49361fa8d565b5b6020020181815250507f27936388f46dbc1403a1058e2f17f0217e921f42f095b52cce855caa75f65444816103d46103e8811061f4d45761f4d361fa8d565b5b6020020181815250507ffcfd9e06d02343cf728528811db504f8b20c824d1852c04eb707244fb6f7e850816103d56103e8811061f5145761f51361fa8d565b5b6020020181815250507f795843ea1091795e72b45b6ef07b09a0e91f8ca09cd257f41ca8c84094961c6c816103d66103e8811061f5545761f55361fa8d565b5b6020020181815250507f2e890a539e077a0e83c77d6baf8aa5aee4e73733161701abb43c1e397024114b816103d76103e8811061f5945761f59361fa8d565b5b6020020181815250507f4351753cc9da887f4482877bd83ac661226e5686a6b6f3942b079742fe467f50816103d86103e8811061f5d45761f5d361fa8d565b5b6020020181815250507f3e653a28b66720776e1187f59cfcaf470d2771417de8db64a5b094d7f6cea4b3816103d96103e8811061f6145761f61361fa8d565b5b6020020181815250507f93cf670ae609d4ff80f67d797087f05379f3af7dd720906a5ebc971973fc4f30816103da6103e8811061f6545761f65361fa8d565b5b6020020181815250507f8d71b4012889c3604489df9dbf72be3fda47bfd5cfea2a8d309487bb24bf73c7816103db6103e8811061f6945761f69361fa8d565b5b6020020181815250507ffec286ffaa42cc0bb97dfd68a8e6129b67faeeecf0fc4b2bdb9d2dac167e32c2816103dc6103e8811061f6d45761f6d361fa8d565b5b6020020181815250507f43b0324e858451ccb25786a584d1d6daea05abc8b09b47b9f6ae10323e5b64d5816103dd6103e8811061f7145761f71361fa8d565b5b6020020181815250507f281cdb6a1786f4120e2d37a3cf9c23592e4685dad2f4396fa40996c17196ea9e816103de6103e8811061f7545761f75361fa8d565b5b6020020181815250507f09eec69a0a446a419b7cfb5f3388147e8c12f786a0d29d16d22431cd19476fb8816103df6103e8811061f7945761f79361fa8d565b5b6020020181815250507f15a5b9eed2eb386a74c138552cd680c5e2dcce20e41651cc4b827b29867192f8816103e06103e8811061f7d45761f7d361fa8d565b5b6020020181815250507fdd9f93fa63ff30725332899cfa3fa3f09148ae1696d50cc4e15ce30e82da2b53816103e16103e8811061f8145761f81361fa8d565b5b6020020181815250507f64913ecf261245b731cdb0300277f7da7f1fe172b8eebb80a91674e909db1723816103e26103e8811061f8545761f85361fa8d565b5b6020020181815250507f64af790b191c89d2fd25376fcb71ee127861e0b610a5429109ece732923d3b66816103e36103e8811061f8945761f89361fa8d565b5b6020020181815250507f8028dd5b3bce431076b529b07b39e062412ad505c6c4b8cc131400af23c6a358816103e46103e8811061f8d45761f8d361fa8d565b5b6020020181815250507f542920ccc418c11cf60ec2771d2890959afb007f96daa78959a63356f1f9485f816103e56103e8811061f9145761f91361fa8d565b5b6020020181815250507f547782eaaeec04231067f807c9e57be29d80643ceb96c81628c3ae2811ef0420816103e66103e8811061f9545761f95361fa8d565b5b6020020181815250507f8cce618efa12258aaa38fff59599ddcc77eda06f7304e762ad969ad2cde7e38a816103e76103e8811061f9945761f99361fa8d565b5b602002018181525050806103e76103e8811061f9b35761f9b261fa8d565b5b6020020151915050919050565b5f818154811061f9ce575f80fd5b905f5260205f20015f915090505481565b60405180617d0001604052806103e890602082028036833780820191505090505090565b5f5ffd5b5f819050919050565b61fa198161fa07565b811461fa23575f5ffd5b50565b5f8135905061fa348161fa10565b92915050565b5f6020828403121561fa4f5761fa4e61fa03565b5b5f61fa5c8482850161fa26565b91505092915050565b61fa6e8161fa07565b82525050565b5f60208201905061fa875f83018461fa65565b92915050565b7f4e487b71000000000000000000000000000000000000000000000000000000005f52603260045260245ffdfea264697066735822122084ae2f72ece9d5e32d7ac83b7ef01470a90812162a1fd6938b1200bf9c00c2f964736f6c634300081e0033","linkReferences":{}},"methodIdentifiers":{"Benchmark(uint256)":"239b51bf","numbers(uint256)":"d39fa233"},"id":0}