{"abi":[{"type":"function","name":"Benchmark","inputs":[{"name":"_input","type":"uint256","internalType":"uint256"}],"outputs":[{"name":"result","type":"uint256","internalType":"uint256"}],"stateMutability":"pure"}],"bytecode":{"object":"0x6080604052348015600e575f5ffd5b506191aa8061001c5f395ff3fe608060405234801561000f575f5ffd5b5060043610610029575f3560e01c8063239b51bf1461002d575b5f5ffd5b61004760048036038101906100429190619121565b61005d565b604051610054919061915b565b60405180910390f35b5f7f44cb6cffbb8f77fa5cdc24d2c1f158f6a1fe95ab1f2f4e8d56bfae5caed4fddf6080527fc488ee04a7cf35feae1fdccab33dfd3e512cfab98e97e2ea34a50f82a7bf5da560a0527ffdcab037fd1b2ee0efa31fecc2ebf078195f7df01ba46bfc445cffa8bcdbb1bc60c0527f1f001886daf6dafcbb30c2a2aad48ca12a2634fc10e1c9ee4e8bb66fadc2cbdc60e0527fdb21b6cd5b0dfdfd42f7cbbfa8d4fbf3b07eff2eabaee045d17442fd7ebbbb73610100527fcd72cfd0eeb9050f004ce0dd3b3eff6ffb8cdf64d5c01cbddfca2c0fceb4c8dc610120527fc1fa719cbceb604fdded941aa03c483bb68f7272eb4b61359dcfb6a9a4a6eec6610140527fcd3bee8209aaaeb1a9b6dce912d5cebc6c3cfeb68d581cf5690adca0a7bff452610160527fcdafeeaae8ddb32964c17efb635bd10914eb79a2a668e0fd8fce8ae98f1cc147610180527fe522abaf2105fbab0fc97357bc7eb0a9ae53b3046fbdfb2ca9c2aac43c6ab7256101a0527f2e8bb3d7ba2d85ebcbba401faecf18e2c01dcbec3beecc7d9034c74cc66f0bd96101c0527f21ebcf63a7acae1a3d0eadbafa69efaff7dd61ec9c51fcd0fc3b2ff435d24cb46101e0527fd5be4b8d2d870b3656eb5b30d4617f4c9be202ef2bbbfefcf9fd45cbf57cef86610200527fa7f66b98ebafeb991b9a6a947c929064aa25c91832198fe46e631a2f3492adee610220527fac0de7d72ea816cbbbccefdf4ada1dd42ab618ddfe2a303bfa9ccedc3fe0637d610240527ff9a9ccdc080ffe4b6cafbc7965bdde8caebc87c47fb3f496dd986bfa43158db8610260527fe2df1a8503ac9f33cd6f4bd5ef7aaccbcfe4c12b087183dbd5e18e3822e57f8d610280527f641fcc4b379febae84b0a07f207efdfc5b3d80cbb9bf1afdb5ae1e7bccdcfaa36102a0527f0b70739badce9c4359e49d4ffc906756deab6bfd17c5f60899cafade6cdee9b16102c0527fecdf4bb8a5dd00e778fda6e8bdbaaafeadeceac2403e8ce2eacbaafaf3bf5caf6102e0527f0c91c74faa84eaebf9eb8d8cb5edcb2b54e4c8e771d186dfef1b663ac3f7f264610300527fcce03b1f3a2a9c85bdbebe7bd6b1745a4796bdbf402affe4caa9d1ea1e23dd0b610320527f28a66a2cdca0ce29ea2c7c7e2dfa259ad0e32bab4a7e7952bc2b2bdaaf4bdedc610340527f5d6dc6a4e1ebb79d3d6ddafb7d78d0caddab5b2e72aca88af04adfaeef5a2ff5610360527f7ebce0ae5ae8d6b8c5fdc107e987a8d3affaa2ec09050ba4babd7b65a46f1084610380527f86cc621b683cd29bc7ea9fa46d522043b8e2a3e8b90cbbd6914d32c31a4a83236103a0527fdc82dbf2b3cb0fc841f2a9f9ecb1b251c5f6cc0555aed7cfe7efdacdc37ceeee6103c0527f4d2fb654bb3e4ccd7e2c01bbeef3ddec2c9bad35f3cfacaacb7ece3ba1fe9cb76103e0527fbdeaccbefb6554d2638c6df1f553f968e9729f6397ed37dc6fda0be3c6c60b2b610400527f5da9592f965052e2ee2414eb3afbafdcf9692b3d0451beeae197dc185c6bdf71610420527fae9aab8ff77bf8f2bc233eee6422aa01eded5888aebaabaa9e0afa2268bd15fa610440527f5a58af5baac43f1aadd534a4f9e6cdd536bca8bce22413c1acfe9c7c3c0d8a8b610460527f0bfcb9aafedb446c2e639acf8f1ff2acba0aefe0e0e7fd58cdcdcd9872b958da610480527fd649da1205edb8f78a5b1acc7a3df9dc77d56dbec462a84d62ede679a6f2bdbe6104a0527f6abd8f8d0b2c4d91f4dda6eeae76a954cadc4fe7923ff68d65dde1c9cc448bd36104c0527feaa2fcbff3eebd6aecfbcf4fa1131cc5d5fdfbd46c4159a183e0fd8c7ff2cca96104e0527ffc559d4f1cd33a9370ca2962ab38d363e6abea96fd782b8adcafacbc07f9bb20610500527fa44e616c4c989ebce0a90bbc1d3adc667fdf35b4daea3bab8ffacbdf54dbdbba610520527fd48559fcbcde19ff7ac046b4bb4bdb686f3daaad7c3b73249ecfc8adbebafc5b610540527fe6afbed23d60ba4cd5a8b82a3bd49f493fa65fceafed6308e07ebb45adababd8610560527fb8efd39eda5e8a1de56fd00f2d62268afdcda71cffebd36856cbac24b7cc175d610580527f2898ccbae1bd6b1f7cc1ccc42b37e4935215b8b7e89b18dfc9e2cdafc0c75a236105a0527f7d3bccbcdbc5acbd3db2cea4aea70bc97e9cd2dfd9f4ebca3e69cc0fad04f8056105c0527fe04a5473be0fb22cd24cba642b0ecdc2a66fbe4faad79d7f7f0a744fd3bd68bd6105e0527febd652d0f127d14f37407b84bcdffe4ea75c97dbbd8ea8a2fcb5695099da3fb8610600527fabdad7ccd1d8a4d9fddd4317d4f95ff6bfaeeb9e2ef4e8ee8ce0e47f2cdb1aeb610620527ffbfb360a13db7b8ddbb3eabaf0a2ea93cfd0f4cfe5e9dd62c2794e36afe78ab9610640527fdc95ec32d8bce4051da190e1b70e6b1af2dde1b4efe047cbdacff6aff129781a610660527f0ce5e2bdb4d5699bbd3e2a73345866d4b6546f2be12a41e3dd87b1fdccfa2ab6610680527f396b319b0fdac03f3d8eef26dbc4edbca6b7e7a054c86be7c8c839dee960a6496106a0527fb9dea34e78eaffcca371dda85db47aaaee0f1fca706b18f5e9cfcdffe92f00da6106c0527fdcd52d5e41d4248edcff6ec1e5bb9697faf771eceef6c5eca5ec9acebaa0c6cd6106e0527fe6ffc047cc4b4ec9e5a31fe286e64a4ab96f9c159fdf8edd2fa01be778279acd610700527f0ce65436da3bc3b82fc8cffd4f3da2d0a0611bac0cafe9aa78aa093ccfaef4cb610720527f8be3c9724e70ba39e4d3e19fceadbab8a6bafcd02d8ddd9befe1bff12eaaaeff610740527fc3a70fc45cd681a990c62b6d075ffef25afefbe781bf8fb5cb3e0cf51d7f38fb610760527f48dd2eab0a4e8dd49dc1a8c4cfb67ef0b96ba9dfda39d6dab34bbe4d686cfd39610780527ffffe8bbbcbaf56ec7d0a133eee4776907c2dfff0cdbea3fc7e1521a3bcf6ee9d6107a0527f3cdcaa7a1cd2e0c533fbeac1dd3d8c4fb3202a41a0b2ae8bca30fdbdf67db59d6107c0527fc7adf2a535616c47e5f1b50a541fafebdde44fd5cd64e44b7d7ff0cedbfeedec6107e0527f1e1c5b2e7f5d4c6eb1158cbecdabfcecabfdf17f66bcdf613b599406a2ba4bdb610800527fbd2da35ba69c8713d7dad8a7ea9c3e58e0ca4dc56e37cec5f0cc45f7cdb3c50e610820527f8add4dd5c9deaa1edf863faf014bd2ac0bee45a25a6ec0f8d7df96fea5c90bca610840527f8eab9fb3e5b12a37cb9fb12046f1eb9571b79aa7b188ecd5d3a707f0fdeaaf3b610860527f137b353de3dcc9bdf2aa1f05681709871eb9bb90c8e3cbffe77cd34c657eac2e610880527fd4d9cf80dafdc5b998b5b3af2c6beffcf90efdedab34b48fbe76ee9cadcc1df86108a0527fb8cc48ad05e47c1bfe4e3e122a492f9fa7b73b49fab56c0fbf52b7b56a0f204c6108c0527f763dfdceefece844bcbbfa669e9c0cb8f8cfa84aea1a5ac02fafaa3090fd4f356108e0527f1bea95769210fe0d7c9ef22d0bedc0fdfff26cfed5c2ed8b3f8c64e8b01cf8c5610900527f8e98bcfd48cc57d8365edb1e3f2650bffadd9e7b168bba29d55c2c99d0ec1bcb610920527fa0bb8ac97cc0fa1de3c9fab2cafbb062e1fdfd889a5407edd8fdde9d42bc748a610940527f57f82961aff8afbb8d6904d77a7fa1b6aed4bf22438ab2e7aad4b4aaca1b9ddb610960527fda958af7ccf55fcae576ccbcccab53fcbd42bb7dafca52ddfedbbcdafa6c1c5f610980527f8844cfbe14b2db9a16ad46c440b7cc9a7e8effb1ba4b9baddc22b6ccadcb714a6109a0527f6a4499d15000c8bc69b10a419f03b689b22328ba4781afaa9fd04f2d6da3e1cc6109c0527f57bde5fb47cca1bc817bb8b7aaceec438f1a111fe194bbb0c80720965d5c253a6109e0527fccf7eebc7d95b22c0ec3b1cfd892b86f9daa4dcdf979c97339ff9364fa9924c4610a00527f26cef3c6f9cbb533a5a7240faed7becbbb7af7eae9bab9ddb5dc7edcaae6f6c4610a20527fb4dff7bab530bc9c7ef3fb85adcc741055bdf157d8c625cafbd8f0ec96ea85b8610a40527fa04a5701a0650a462dfce8a64cd37f29ccbcde9a1ca66288e5104ba86e6e18ec610a60527f89094a81cfd9ab3b62c3809178eacade901fb5ea7b9d9c7acef3cb4f1a4c478f610a80527f019a3ef06c1a0fda9c2b5f7e35e7d19f3ca25b4f5ffbd99bc13ebdce3c4731cb610aa0527f9bc85c2dbe048bd2eb06a9f2c1f2c57d01f662474fcde3f8ecebc7a5beb4fb1d610ac0527fa680de3f9dccbba52c1fea1ef5c85ddebbe1e2b26b5c494cbaf3ca3396de82e9610ae0527fd5d9b07c0acef8a74dbbf0ae3b7f9c4b79df4d702afae1ea19dc00a19292508f610b00527fee735b8e95b6b11b0b79da0376a4b0e2367fc4cdb60acc22baa6a22d7e09cbce610b20527fa71efeb1eb2511412c3b43b03e323bbd1c4cfb5b5bf089f46d9a6a8afa6af641610b40527f8dcfed05217c8207bfaa48d56a0c62b2d06ac29cbb8340aac020a1e0cfbd683f610b60527fd90db9e2267d9aa92783042c52cf9fcd64d84d508d7ce3cceedd9aaaebc55e0e610b80527fe621afb1ad867b1f40a3cdfe34cb942a62db5eddde051eaba28adf4d7bb4f4b0610ba0527f6a9b9b7ac4eefdad03328f7407a2e1a661b71c13ebdb79c89ef7dcb0721e59b3610bc0527fe7ea13d3dbd0afedafe11ca61a830b5f56bab17f4da77ee629e490cacfbdda8a610be0527fdbfecead9e8ccdedc2a005fc0b3038ef5caadaadbbcefa1b88e5ecee274ba2b6610c00527fb5cd6c9b30b121dee7e02efc7d9e5015eded0cfd7cba79fdebf6e82af92eb7ff610c20527f0eff87ef4ec55c0aecd45decad487fca60b5fe5aeb3d816cc0a89b7f1812da7b610c40527f9feb809cbce36e674feb5313c5a5a9bfbee887b9b6a91df0c28bf62cce0b8dad610c60527fdc8ffaba7aab44fa44cdb65e883ad5f78d684abb2962abbfc4a9ebdc1b9f2bcb610c80527f5fa9cbaffedf3f53d222de0166f9e4799dd5ee4b72dc4e54bf0caec0bacafba7610ca0527ffd3f5fa0b2ff5bde24c8af1b05dac128b306192fd725acfeed048cca6b79adcf610cc0527fc27d64cd889c4346bd1a09ebcfc4fed578cf0acea3cd4873264cbb5cce61435f610ce0527faa8293aece3d22d6a23e2ecae7ececf20e137c2b6c1a4f3dffdc4fd258ea7007610d00527f83a766da3f9bccbac069a67e5cdab4adfcdc7e217db60fbaea5bd0796bf2ffa1610d20527f2fc319f0bab02983e4dc45b1f7c8ed4c02ac6ef7e6acacbaa694fbaf542e1fa9610d40527ffaee8d8b522cecdae86fbcfbcafafdd3dc4bb0eec89e64cddfe6b8e375abcbde610d60527ffaee02c0ba654a1ede9af3dacbb32cbcfaba3f3eccc4de3c111eec48c14a266c610d80527fecfe8a45590de3d82ac7fd8b4ce7c8f798baa93fcf349ff3cecade4eba209dcd610da0527fdd11dc5c2be558b8710bffcd65b9b3747bbaad1ec674de118d3c3fba3c1f32ce610dc0527fc484aebed3c4eea9a1770beee86e3b58bea42bed85cbe9c472d067b54bf4ef7b610de0527fbe4dda84bfc2d44f667babfcce6fce7fe33829fed247252aada0a5dbc104bbff610e00527f9daabbcf0987456cc4030100c9c0dbb9ccf0ecfaf9ac503e61ac9fb14fa435f5610e20527fbe8ab8447edbdadaf2dffcc755e9cbe347ee46dd8c6cbf96eaaa9a2750c8b1ff610e40527f4eeffd7fecf0a6bb6866ed49ee44716e5cf5a8c2abcfdcf76ee899d910b0aaf8610e60527ff9c0ca559443b173aa9962889bcb46cf76c03cfffef4deee8ecf58fb5acb09f1610e80527ffc5dcd5ff2998ade4640ba823edbccda5d35c7c13e4e29f67f21bcdff6bcc99f610ea0527f83925a42edd49cf26e8dcf3a2ce4ed15bd6da225ebb8b7d4cebfdbc5b37960e8610ec0527f5ebea9fb6a154ac3ce4e0dcfca844cf7d428d3a2ad9fd8aef8bef2aadadcfba7610ee0527f348314fbffc5d03f4bc7fd7dffe696af3beefb8c1fe3a5507f0fa38df6fc9391610f00527f31dfbf497aaed0ffdff2fcdb0a9b211c7abc4fb4270dbfcfdeaadcfcf4e11bee610f20527f5f40eceacbdab6aeebcfd55ea48a1bcbbfc7ae1acb75cb31ee89233b85a2727d610f40527fb696ce67218dd76b6061d78809cf7e3bc690ffc6ca3614e9acefb0abb5a1e8e7610f60527f16b003dfea0dfdfb711e843cb784bfd1a42e139cb01baea1afaf2e87a3a4cdfa610f80527f87ca7777c2d53ee31852c7efebaffb6e9fc0dbcf147c2cbbd613a6df73da6ab8610fa0527f9d42b6a8c26c73e5e8ceec24bbcc0da18bade11baf2f111dabb4c968cdee896a610fc0527f44c3c09031421dddb4ee91ccf3fa6d24489bb4bfffdc1f7c7cf0d2a0fdcf84d3610fe0527fcc9ef7fc9eabeb5b5a0a9d3d7ef1cfc6fdf2aa5fc467e746a41bd6e9e850beaf611000527f7e87c9b0eb99fb434f8e726cf0e575be93c2982be7cc8dde1d3cda5bc924339f611020527f76b82175e3ea8f95f134558b1bfbe8e55f76fcdd9dda5daf13ffbcfd2883dfc4611040527f9dbf90e3deadebecafb14fcf36e7036cc64bfa96c0bbea8d8bea9f7f94593fad611060527fd8cdd50be04f4e88a7ad1c5d9bf0e33f96995de3aee5ef4db5bbcad0a4f7f3aa611080527f599813ec909a16913e99596f4fd3daea04de3f66eab0f4e73e051aad575b85f06110a0527fd4c9dd59308eb7a004a1f420536910fbe0bb3bb8573279eaed0ae4cf1b8fe15c6110c0527f0ba364a53b4e9cbe12db021a0a1f8ebfeaff1ede3cda0ef55ef18a7478398f526110e0527fff9feec75fdca061f7abf85c2de12eabaef5decb6fe2cc3eec00b847f038e08b611100527fabf2629dc7f60bfedfa8a741061ec35bfbd08c06eb3ccbaee3cc7f9b088bee33611120527f1efcce4fb001f0b7cdcbf65cb51b3e8f3d6d064ca7dbfd7e9ad5ddfeeeddc9e7611140527fb30dbbacf2e5cf5f25efd3bcdd54e76b4ed0a16e7dcf77fd0bffaf69db2c8a8e611160527f93abe72bf6f4c2da7ef7f37da3c1ec9bd2b7cd40db3b6a1ee82bb05201697d98611180527ffcc1e31cba7c49aec1ee1a0bc7c4bbdcdbbebcaa921ae46c01e0bd6917d7b3dc6111a0527f78ef768d03f0e0fcddc153b83f6d7e9bd01b9dba6adb06f6bc2af324f6f37eef6111c0527fefdc8c6a8e5a4e1ffeee16dac0ae7a298984caefc2109609ceaecd065f4b14e96111e0527f30c3abbc9f6cb75de3efbabe3a277cb8ccb667ef4400badeaac9c9eb9fe75fe1611200527f0acef79fce8a6f9fe2beaba3526393ff6a7882d7e906f23e48a6fd7fcae9eabc611220527ff7bacb14abbcf5b2b072c12f82552bb438fb4cca3c0dd789f6c5fda4fd7a2cca611240527fd4f39eda8f11d6df2abccbcc9e304cbbdce9eae728e5f38b7ebddaafad93ce7c611260527fadb6d66ec09cfcdb9b3ab0bd550060caee1ac7dbde8448fdcd21eb1fa53acebe611280527fcc7ee2b4b043dfbf6cc18eea12febbcc05f4fcafd3ed2ceacdaf3d2c7ba6acea6112a0527faabbac2cb636f1da42dd636fe62af5a18ec57d13de67eacdaf19b2c0b44a1dbc6112c0527fe02c1f5ca92a5ddf0c8cd1b5ffa9ecf7159e8ad2babdac1174d297cfa7e2df5b6112e0527f6bcff5415ee3ce1149c65b549dcaa4a87a235f4a578c10ab1d276aca92adcdd3611300527ff3d062d2ff3b3285b1ec28698b8bfbbcc5d28273dd4526de4ddbea353c3baf40611320527faa3dacefaad7b6a4f790fcb77cbabac05b29a93eaa37cd76a4e6cbe8c9ae2720611340527f0c8f521437d47dbcf6cb9ddceaa5a7f6eefe9e7cfbacbba9d5c0f18aaea7b8b8611360527f36ec2cf6f6b0d70e4db2b7aeb8f5dbb6bcddaeca4c32f1f560de9b2b1ae72c5b611380527f0f2ea60cdda0de3abfa64c27c75edeeb7c6dff8ca2e12f08bfa5988be1edc5a66113a0527fadb3f2fcdddd48ad04aacddbfd90cbe440cd75e54130d3dbb9c31d8b05abcf9a6113c0527f4ff4cea8dc2ee2d5dbdeea8815c5f957a182a8ebf386cad7e7c77abe63bbe5b46113e0527f419c9f715ecd1f6dcda3ec0eb8cb12e019d19d6d49211e0abadcd5eb1effa2ff611400527fbefe860ac76ef489d4736c6deddce1c027ff6c5d75fc4c22e3bb3e8faab7c805611420527fcf2dfbe3249fc0df853c501e4bfefb6fff166ff9d99c90cb71515d019d5bbed6611440527ffc62fabdd2d15fa1e3242339b6ab5ea1ebb36cc7d4ff412fd1efd7e6c7d409f9611460527fbefce9d14ec1cf0bed2fa1aa9dfd33e7dd908b2a14db05b9a1d07c48e3e887cb611480527f51190c09eb49f8ca3dfeb98fffef15e6becbabe1c6f16dd4f8f0b1acc964de536114a0527f0471f21f85a87ac5abc3033ae9a5760afcadbccadda98ccdabe2fa2db9ba19716114c0527fbfda0f24fafada1defc9a2eac84c8543b1d615b9bd1f6ddbda03b8fed8878def6114e0527f0ed0bbaedeef0e82a2b64d3ed74b306be4b214f943c78d6bd7e3a4ed4166dabe611500527fc83fbe1b0b686af860b9aa19ba6103fda0ac7aa75bb1ddb4b852e5016bbdbdde611520527fca5ffd7c36cb2bcd98a44ea74bb4aa7a7c0f3e8b9cea1060dabd5dec0e9efdc8611540527f8a52e7db4cee9fdb34c3e8dfe6f46f9c6ee2ba1cdbd5bbb5e5f6b639b8ebfca8611560527f544ee27a11c4dda4cda8c71ccb76fa7eacae488a0eb5eaf40cdf3dda8bebe4de611580527f0a0aecddda077f54252aae01ca0ebbdfe1b0e2aed20e01de02b2c8eb2bef99176115a0527fe2076606abecbdfbdefd19cfcdb59e18afb6ea55cceb031d5e32731cc48aa94d6115c0527fc0aadbfdd1ad1de81a2bc54572899f34cd6f913da0aa14f37c444d0ce2fd722d6115e0527f51d97abecd4dce3388b97b83bff31dff63fd3fa21397dfb92f1d2ebccf0e657e611600527f8b16370f3c8dce677e1f5e89dc9f2ede4cc6d08d98ba66feadcd0439172a4cbb611620527f1baae2e8db6ede8ae01d32e91e5dca9e7b82b5ae876837d074c0cdb11ee10ec8611640527fa7d4173bbd7f26583b5b179c6606e4ce0c4d76d5bd28de42a6c520ff91b115a8611660527f78c35d3b289d37220d8a4eba8a5ae0dbd97975f989f1b6c2cbcdccfa3dfca4d7611680527f7eb2edec086ffa3da2cc8f17efaa355d55990a5c59abcae9fe7b6dceb9d7ba7e6116a0527f5f3c166a3baf0d3c6bd0cdfa523b3c4acc3e6f40935fadfbcac0bd50acfb6edf6116c0527f10518a58b0de3eb4ef1ca1b428bbfa7b0c9fc7dce7c0fd3c8ca7b9ebd4fbc9286116e0527fcdd399b17b46ede6ac9cf6c3f99c0e06d7dcf3e3fb0053ded8c821ea5c76f5d8611700527f6cab96e0155adaa585dbed69dd4cca460c0badb7d2e4bd55305dec599f68eed9611720527f5eae8fac2fbaa7e6ddf817acdda8d57cbbba503a4c407bb89ceaa7a95e786a49611740527f442525fac4d2dafaa4d2efe351e2d716aa9ecc25f5d3e6aa8ebce813ce51cb84611760527fa7dfbd467c0c17d77f00cdaadb2e87ec7f70ce93784acae0cd5da04deec994ab611780527f26dd03ec9edd7be5e1d870ce364b124f7b7afcbd21b24e0fb5ba0ebc7ce9cb096117a0527fe02aa891b5baa3945bf8f0ab40c8ff7dd91b9f2fa957de521a9bacfcf65acfc66117c0527fab1d764c9dd9eed5123cd373fe0449cbd4f806dabf4a37a47dc15634d1fe1d0f6117e0527f037c4389f094c0a65bb9dcebe62abfcc36e442fedac03f72aff82dddfb6fdc22611800527f40d37602ce8beb4be7eba6ce9b0cc237b1cef5fbaffdb2edc0886d4eedb9b248611820527f98df37fe9a5a8d7cc34d8cfeddf80ba984896e1bc1a51bb78f2d55d4cb754fb4611840527f6ecfdf826f99f1e2f3c9dadb381437edaa8c065ddecccfeab0d9faf8c631c0ba611860527f016b427ea718b0d3b5d7b0499960c09fb3e62f5ba50cbc0bd5cf67f5db7b06da611880527f1ab87d4bdd2ad6aa992d7fc724eae2bfdecb313c9c75cc6bfec7b3aff029aced6118a0527fa3fdb5c5b88b6dede21ad1d0b43ed77cdb8ff3a42ac820bd8d5e74e1e6e27d5b6118c0527ff39ae2c356cabfe5568b4b2cf331a8c5acbcaed76bead9bf6aee7ddf06bdc0726118e0527fb0edd84d8b0eff1dcbd1bfbb1a67719bd8afb21d998efbade6b91e8799cd5dbe611900527f51b2121dda2bbc589abde5eb7ef8c8ce0cf89443d9ba4a2ba77d253baf6fb6f0611920527f4f6dff68a3eeafbcc9c03885cfbfff2ebf8faec485e5fbbfcba4492b868fbfad611940527ffe6ccb9bc062672db2dc9ffd9cda304fd6555b7671caaf9f4fcec94383ba6feb611960527f71bb84cbcc730f1ad1ecc09fcbda2a80be07fbdcad6a80cf71c62ca2d30c878e611980527fd7cefe0bd05af9d9118ff7ad05d5f879d9d8f0beb18dfbe5c6eecbbe7f05db916119a0527fa0c71df6e965e3ea819dba5ad9dbf9cfab3e74b3493eeba1bcd3a6f0510bf8d06119c0527f1aeac53ea6ac1143e9acfcb71b9b58b450b668f0df1625339c7deb08e1349cb56119e0527f15d8ffa5c1a7c9a5c5a0cc7fc1edebfd5e6d0cb68f85f7ea11d9a7baddbddfb9611a00527fb89291cb67947cdbc6a51a61711b5df902a76dbefd76fcb9f9ff144cd6defea3611a20527f218c753fc4539abded0ff1b0db2d3c4e9bcaddb2aac9c56beeabfa1b6fbf7e6d611a40527f148e555c604da4df7eecdb8d35968c0016a2f284bf0eb3b8f8e9e4204930f930611a60527fbc851cad5757e8dfced1de77c73db57a4ba31dac7aaac26c23cee6fd7725b81d611a80527ffdbf98cdaaaf67ad8e4e2647aa88da5bbaca30d41afb486dbaddebd1dcd4cb2b611aa0527fccac2af9aa3caecfa4fec01bcc152e5e0a61f3c26b00955c67ea8d4b1a0612bd611ac0527ffefbfcfc6503565c5ed71ac02ff61a95ffd19d8aebc9f805e5a7cc506d02ed8a611ae0527f0ddc35dfdac0c6dd3ddf078b82549cff2cdca4a6e49bd628e61f9ca5b0103c11611b00527f0ebceb0085d36a7f6de39ead4b89ad3ab0d82fb7a5af5a9256a06fea781f34a6611b20527f96e5d82cbdb2fba5c8a0045c9a570c7bc16a3bf2c4dfb36769fabdb59c7b137c611b40527fa00ec1c6ace5b0295df4ccefbd4f1dbd6ea3c25624b8fea0b978d6a57cb0bb64611b60527ff7e86fc90d90b5bd34ba43dac37eefc0fa6b3ac4bab4d0dcdcd893eee9ad22bf611b80527f5a4bf8e14a7a7a4b816e44f3e2e657d830d4b8190be2c064d04c124b4e6ab1f1611ba0527ff49f1dbf89d4e6f2ddef03b9b8cde2a370fdcdda9fbc3f77ff90d39bd06b2b8d611bc0527fffd6a714cd4cac759aaeeabefb7f7c8ea9cb045fd61953beceb5a0cccaaf7273611be0527f3e94bedbc8acb128866ecfb99fc77f85941f92dc510a441d6b65c8deb5aca6cc611c00527f80ab61aba66f89dfaaa20692e46d9a17a98c4c6dea76f5e488913c8eaac06e6a611c20527fefa4dc453d660fbdb8be5cd1fcbbdab9a1eb128d1e6ca58f0e4c92ddef2c36ee611c40527fef033cf77eaca352411cf5fcbfd8add3d50af5eeddd671ad84043ca38064ac9a611c60527f9011bea4bfaeecd28a8b5e2e14672e6cc7d891ffd1cc1db7fec9d96d0febc13e611c80527fadc87c3a793f115fc11df283fc0bd0c2eff5f3e65d13c9febc9e02808ddfe7fb611ca0527fa722e162f1fbfdd8119a02ba2eee712dbcbecac3f0ddbebb681f24817c40cb7d611cc0527ffcedcf14f3aeb7fcb85fe2b3c2efbacb5485cc26fdb21eb843fcbca6a026e004611ce0527fa5fdcbf8d146a25b3d707ace08a556b33ab0275bcfdd4f6f5d462fd597dafeec611d00527f340e72d7cbdeaaff0e33a7ffb47fa3a7bd6baa43e8851273060e63edab72dec2611d20527fad0f2c12edfe61fa06abec5fc33eeea20183436d2905330cda71e58dcb2c3feb611d40527fad76a5fafdff6eca0dba399629b9ab9350bec1ba4e1fdcd0de53c1b662d38edc611d60527fcc2a77fbecafc9996291dd44bb23d2f58caf27cbffca7b0f0ec39bd6eef3fea7611d80527fafd9a445fa50f6e742bb6a0e7e606aea7d136cccbdd5d9f188ec04275b3bad6f611da0527f5ee1f7fb3aafedb667fd843db9dca3da0abc51adaeb3c0afe2bdcc9175afe39a611dc0527f20dd674fd9b3549c02ff2c58bcd9dd5feff56abe8dcf08c6ef65ebb3d7e9c455611de0527f64a062bc1fdb4afef9830ae2582dec7bf4ce9cc6ddae726faacb7be90a764ced611e00527f27ef3a7ca2cff4c8c4064965f4f6f7ecaa5a161ea0564f1b0bf5ff784b6f7cf9611e20527f69df2fe9e7bc0b0ecb27a35da3e30affa3f233b9630e6bcf1af4356694ef04ca611e40527f4b219a26afaab3935ca7ef8a2ac1ab5e620f6a66afdb7645d18bfa2d990a63f6611e60527fc9fec0da0860b29bc106e8ffec2ac40fc7b9f4e1beb7aabff2de48a45ebc6aab611e80527fec37da05a716cdab0e542be1a5c57f0b7b8daaf2faeeecc035b53fc493ffc52a611ea0527fe56ecbbb8fececeb9b2b4fe7eaffeade2d9bdc81ad580c8bb6bc6faef2ac31fc611ec0527f8dbebeffcb4de74aee729cd7c420d1cfe017c67061ddbc1cf9a2cfa91432fb03611ee0527fd3c3e60e86ab88edf6db3acbc51c46aee3d8af2c19ba3b1ceae794c513fef5bd611f00527ff240df154ec73ad7d20e7fb37c8ebf227ddd99d0badf4de8dba96a2096012363611f20527ffdccb4fc9ffa87960f64bcabdaa2f6a3f3e8d5ff5cc25e6003fcdcfec9d2254a611f40527f2c1dbecd94cd6dc37dafe5fbc2a4fc168c8f715c10f3d12c7a5b3b3ef9dab9fd611f60527fac6aa690ce6dda5aecd73d0da6bbacbdde3e2f70a0156d3ddfe29062cf38b7b5611f80527fca280c5322b86bf5a7fc5df3edf77d2ffe70b2e964971bccd95a7f38b8306af0611fa0527fa1dc2c3d531fcab0f8aaaaac9da27eb0679ebc8ce165efcc1dd98df5400ca73e611fc0527fcb85a6dce1f14cebea5d22ddc9e9aaf6fadbe44adcc0ec6d72cb92fdaa26c8cd611fe0527f94e74a7bebad27ddc36bf7c29fe5b8eec33ecce95ffd944fadefd3bdf7bd26da612000527ffdee2f66c472d4cab0d329edd0f9c61b95595fb9b6f5fdf4ac4a6bff5decbe2a612020527fdb2cd3e0b97efde0a2758d50e3e5caa35d9c864e3e9ee77a3fccf0bcaa0a38df612040527f7da95f93ed13fe317a9bc787d9ffaee2fcf1bdc200cac6eb0f3afeee2fbeaa7e612060527ffc8cd9d6be4e77ffed6da522905e43d1b4ebef9ef79bc82e4f0fc9966adf460b612080527f9ca40cdc20bbc32cade00ee57eb1ce8717a3cb9dfaafcdcef9cdbd452bdaf1f16120a0527faae86e1ab20ccc18791eb32846acfc7fbebc8cae469bd4ec22fa4dec31c51acf6120c0527fc957c5ff204bc5e5d7cc8624fd2dcef7ebc77f24cf2460bb90211f5bdef6a1f56120e0527fa75aeb5a9bdbe0e486ae8e9c76e946abe64a5aefb9aa14bfd23bce2db5f14499612100527fcd38303e26ac2dd477143f6db70bc12adc20fb905a3e5aaaef8063bc73baca3b612120527fb3895cc1a8fffef7c7c7862bc93bdae1d4d8ffababb7c01fbebe720bbcadcea0612140527fcb37c7d6f4a3cc4fe33a09fc08b809bb63e89b6faffa6d7f18ee5ec37f9ccec2612160527f57a9b5a4c25d42b9515dbaf4cf29a16abe9cc1dd67ff4e4f052ecc6155f170b5612180527f7bd478fcb7eae3fbffedbc393fe1f1de5f3ddfdd2fdb15906940ebbc21b295966121a0527fbd8c78f33ee8b132b7998c56900015a834bdcfd18d2bf5b3a7b89105dc37d0ea6121c0527fb559a87ed4f9b3bbdbbdea8e4e4a869cd6ef965a1ee9dc732a6eaddc5f1dd56c6121e0527fa5eb3a349afafe0cb0cbac0a3a8e5dcccc3c7ac3f3d53d7d5153fbc2f1efc6ed612200527fd4722ee9baf7cbf31eec55d7efaaf9b68dee9157a9b47dbabc3fc9af21cf4f06612220527fb37fc16174c982fcdc04b7337dda77a6f51fab6506bb2b1beb11fdedddebf611612240527fc64f4cbacd3c0e3b476eafa186b5aea9b6acdafbcfd545dc83fe78393c91fa44612260527f07e5dea9cdecb6f2b1d1ad0a8fbde8d649dd787dd95e930fa4b1b87f3db0d4a7612280527fbbad0de0aafaf18eeefa79befee2b8a00e2838adf9deeebb2a8da8ebd96f183c6122a0527f38ff01cbded5ce55e3ae3572bc3a7faa1dfe6a08e73c5eca1eff34dfcd6da0ac6122c0527fdbeea74eb5742e79b6b1f489a0feae6ae74d8b6f87a58e7c57cf4364cabfdbd26122e0527fe8de0ddfcea1018e4641c6bb6fe9ebd7967a7da5c1c3c4e23eedc5ac1fa95906612300527fcbc3d84283cbffcd9abfabda8afddbf3513a965255b2d6d2a4cf3958bb6ecb5a612320527fdcfe8fff6f6fca384437cce6b497e7c181d4f358cbfc3102cbd8d7cfa163bdb7612340527fb782ca173cc5fbb4dcb59da6d2cdab804d0067ecf5bb5b2bfedcdcf1dfe349c9612360527fcb6bdfdcea7adbbfb309e7a81074caf1a236a72cb21dcdcfc8fcb0aadda2ffe1612380527ff0b8eb1dee49b7fe4ad47157ae030e76ec9bfdbbab29710a60976d391749181a6123a0527fdbad5c7eea2d5cd1074bf3f881ecd096fda5ffa0baa4f382cfb1cce5aa55c92a6123c0527fffc11b9cface1ba37fd97284ce8e6a13eff0af0aa32c908fc93ff23606cbb1ec6123e0527f7bdf7c27f4aa12ee2d8ff9746fd8a1d36f3fd782b73ece8029a660fdbb2faa79612400527f8ca6ce3cd57c0ab07fd3fa2dadebffda7b3af3fcb39e377e602fdeb4ed021eea612420527fbab2b6c0fbd1cabbdc98d4a3d85bffa3fdedfb21745be29a02f2aaf0a6c45d51612440527fd7b66486dfecc1932c6ad6a7c6c59e3d4be5afa2edd3ebfd742ea1c6fcfa5cd4612460527fa688920fe01e8b7a6ccf4a9fccd071c3856d54f2a0aa362fa060b5c7e9a50ff9612480527faeb6fbe2a7b5c0cbb3febc2ca5ee2eacfdc5adbbb4223e4bacac15b8d4f3e4556124a0527f6e30a407a594b71fbbe12d34c6a561bdbefdd444a6496a432ae7e1745ac4faad6124c0527ff70b573f9b1f9426efa7ebd7cdf8fc2a0d5babe47685ed67319a1ae5ca80def56124e0527f9daffaacce8fcf70fe7d13a8d0b0eabe20eac026dbc0ae1f3ed2b0941e7a7f2a612500527f892cf1070f8bfc71958ff29a4f83f9acdcb422eda6a57942eabf454d26405f41612520527f7799c56e817ae8fbefac773ec8dae7df8194a8cccda5d6b3b11066ca5be81fa5612540527ff2eccad42af4ddedb049faefd0fe7bd2ad1ad4efdad1580c7ba85e0e8dfdf757612560527fac4d78cb2db951b2fe3377c84b334af868c066d1bde8bfc29bcf9c8b79c3ed7c612580527f5bbcb1c1cded2ccee691d8aa6b68f39aa1ecedacd389ada6c812ad9d2cd12fab6125a0527f1da17dabcbae4d58eabd19cbeff7ae0e27e24c95a304cf4f999cffbb0f304c136125c0527fbd77acc0bd0f5ce6cd9d502e4faed0d4a9ec34ccb17b4ad33b131fbcfcc33a6c6125e0527f1bed20af6adba3eddf70ab1dd7ec28e6fbdcc305b3ce11c9a3c5fcfced4cad8a612600527f253fe00fad0d0c10b8540c66fbcdbdcaaf788e4d0defd76a4c26adf36fe96bb3612620527fd147dec4f72aeeeff4fe0af1eae87f20ea4fa7bf2ac110dc3c67dcd2cfc42553612640527f0e6a5cd1be0fee4fe8bc9c3685fe60f96c6d8faf36ff0c4ce64e5bbf4d756086612660527f8f7f363ca1d063976fd87efacc741bdfaccf9da080c548072c8510816fc5a2f0612680527fd66f5ef9c0f0166ece4bcfe4ef1c80e5a3635abbcf4d337fc01aef3d83ec2c7f6126a0527fefee6eccda7e1e9fcf8d10d7a6e04bd1fdd60eceedaaefe73cb5ecb2e88e84366126c0527fd2a3bb913619ecfa55bdeb6aea734abfa5bceed80eceec2dc9edbc983abdea6f6126e0527f9c5fe1b2c7cdcc59bec9dacfc7b5da6fcec8ab84a4476fad1d3c14d7cadbed53612700527fb43ae6ee08adf9d0c47fcc87cda4ff98d5f1837bb92c2e95c1d9fbeb65c43081612720527f7b966e1d0e427af4f2ed6d337a8e7edb81e59ba9dd028c60622f16af6eb285e2612740527fe942bb59de0debfc5c96f900ddd5a2254a6eb6010ad68902fadbd4be9ad3a0ff612760527faf758faf48e0cdf67ae9edad7e0f3b2acff2bd53ebcca66d504f2194db66eebd612780527f70ffff9c6f76fedc0ed1c993f8bdb3cfa7ebd55eb4d3ffce23f0db2f4801b9fb6127a0527fae836ef0aefcedc5da28ac90dfdd1e61a9ba0d514d59d2fc4d9cc0187084f3d76127c0527f18ba3916f4db2efc5d7f1e6bfcaa074d703e055c6cc611d659e19ce3abaaa0d06127e0527f8ea9ddacfb299e318efddc3a9dcdf5c4db5c793fd0cd85f84c4a69a1e6eaddb7612800527f3dd9ef82d9c2dcaab1dd48d58d2cc70f3c3714bc912aec495183bf4fa91f9338612820527fae3745b9fb8f6c3babb59d5fda3f891de4eee8d7a92a8da1dffd2ff1ee4c3d4b612840527f71ccf2dc0ac90c6837f3dfd4b90bc41bbedd47ae94eaa476d6a3a8a6ebac6cad612860527fbad5eab3acb1effd7c3fbedd4af8b7ffdafc7dbd30ff0bfa9486d7d3b11fee36612880527f4c6b98ad39731ce020d9bbc0f795c9d7b4b81ac8fe3c334da3ea66a00c4b5e3a6128a0527fdb80f29d9b058f0dc41dd90cddbc2cc2ffe19afc9416f0026ddb631bbbec8ec76128c0527fda008ba9a5822e4fbfaef4a5e5cdcdb1bc0cdf870c7863a17156d6eb1bcb7d9c6128e0527fecdbbd60c1c7b3bccafc07defacab36ced5c18e154a8726faf4a1e87ea5e0e2a612900527f4b17f07dfa74ee25dedd3a45db115c09d569a5b48dca6c248f90e91f0aad698c612920527f2f22ceaddf219973e5c4eb51acd4dece5a2a9bf7369ec8dfac37ee7dcc5b7fb3612940527f56bd7ba048d2e277f0fd8fdfe01b8abc6ac1a8803ccb8dd1ac7ea6f3ad160ce1612960527fef614abfd253a52402d0315a20cbaadb04e8f36e91f77bac8df37fabcaabfe88612980527fce666fc227f083c9ca55fc8e75996a8caccf27dd82891ccdaf1e3e44ea66fd126129a0527fda1b80f4b9cc81d7bcae09bc66b0fc0d2ae192d6e6cb1e3eab5b90e79c6feb8a6129c0527f2ff1ccb35c3fcb2c737be4fcf0516fd6ab31b7fcde6e1497bdbdbb67bcaadb7b6129e0527ffc86ebcaee5efdedcbcefdfbb5cd0ef2e1ef7bc9aef3ff390335e7f9fae6200e612a00527f53dd1f642e987aaeaeddff7e756053fb8eee2b506eaeca9315e8eb8b55aaca30612a20527fec813cbccee5f8f79ec7d256c90f5575d259affee6a788b9fe86d8dbd61cdac9612a40527fee8dbadc40c40d42c7c6be8e1bee7d4d1bdc95c8d06ee9d3ee2ef9ccb707b8f0612a60527fc035f4bcca60b16aeed9dc57c6f3b2952dcbae540b4dfe97a13da4ac3ccf1e90612a80527f6a6c3b33a420cbabad381afafbc9bfdbf86ef1cf2b8003ae8798916fdccf205a612aa0527f8bbbb2ab103c648f36bf6ed4f7bffbcc8bc81016c5739e94e2f995dc586bb6f2612ac0527f8ff8afb05e3324209ad877679432b727fccbeaad616047f2fce7aeffade3e43d612ae0527fdbdfbb8c0485bb9854b8bf2ef6b36ed7a0a4f559acdb17a3dc0d53403c5e9d2b612b00527f5ff53462acac3275a5ee6e81ab0f61ec2bb2c2a2bca1daefc2f1dce3a8bad79a612b20527f3fcffd4ae7e3a7de9b618eeb9a5433c76e03e506b32d13d7bb6cf7cd7c4bdf13612b40527fb251ea6ab4cfee52fcfca19d3ceed4e5f7f0f5281effdc6bd7fbbdbbd07e43dd612b60527f18431e8b99afde0bbd2c97a3afd6a0bb9ef93fafbba5cebcfc2cb60a1ba58d8a612b80527fd76010a8cfead6a59fbef2f89bbb3e03e0a2c915dc36ad59b8eecaa86d98d3eb612ba0527f08be4ede84b3e8ab9dec3a403caaeb8adf4adfba3ad04ecb69ccfa9b2d1c7d72612bc0527f4e46dc08c6f32fafb8b1cbf594f33eedcf6cf5013d1bfc5b9baeb906aee37ee8612be0527f03933b5f413dba399184bb6bc16da69f0e882ef69f9f5cef20a2f2cd6cc684cf612c00527f2f07e030daf1bab276b7693a76e653ad2dff7bdd0e0e8a8744a3ab42b1f1799c612c20527fa76924cbb541d1b4dbff2d380b5817b7bc6ddf81c0e8c3b2e80adcb5fac70bae612c40527feab1ed1ed87cbcd5ea9c8cfa9aa6b9f8d3b2ac8aa0ef98d7109e1806946a19ae612c60527f54df88bd44bd72b9ed2cdcbaa9d9494c481ab8e27dec95a75ccfd6df4ba5fdad612c80527fc99fcb24ab154ad0aadae9d7fa91a4f866ecaf8fe419c2b3faf49940af3fe26e612ca0527f5fa433ca8feb0fefc6edc098a1c39cd67df6fac9ccb54d7cacfb45de1f907edc612cc0527f37e3e4feac279f1ea1a4a8428b4fb0b4eae7dbe3dfdb47ad7e1b37affffe7d5b612ce0527f6ad8bca2e1e912c8c926e0fb5e1b222b2a0a8fd2c0d9e8da19e1005578aa82f4612d00527f0dd9ff63d213d629fddb6c8ac6b9bf20cdcdeda2cebb980de3cd8ac1b8f47a71612d20527faf37dbfde289e6def8ccaafefbfc8ae770f2b2a5ed4ad6d976bdcff3b8cdbab3612d40527fcd4fd77bad1d2bbd55bcaf003d6629df1a48ccb9c1e9d5eb92e3bbfe8aee7ed2612d60527fde02bc8fcc8202ad3f0c3557dfa68e055855081d6b2ced3d40063cc1bd84b022612d80527f4d69fdd88b00beaeac6bbf0b7bfc1a35cd13e2eeb23fb22ecba2c508fbb45fce612da0527fabbabf92728f32d7abea3ef02052b6caa1a97cdebb316494bcaf9ef7efefdd9e612dc0527fb3832ce5d8eadacedf445efa9ee6c4b9b7f3abecbdd5bb5bfefe28ee68ecdb3c612de0527fe198d709056cd54c6d3f23cf2986529ac5cbe726efe1aac002c00287bfc0f2b5612e00527faa969aa7870b17de31dcbdd2211426e2e918430aaf8eaaf265e13220db5cbcc9612e20527febca6dccaa015e7b2ad1c4cbda986c04bbbcffa6bca1a0b899af47adbcdba1f9612e40527f08f5bf26ee7809061c01ca7c3d8eca45d6b52a4aec332aaba29ede5eecaddf68612e60527f3ad3c90898bedbae0ce8cfbbbb7ce9d4de21defaaafe0736fc1c4e736d2faec2612e80527fd778ef7b9abbfddafc02df68572f7a36bb2bfae0acaa7460a01becbae99cbae7612ea0527fcffc9ef4abaef1dac63aa6faba47df1ad7f77fbf8d902e73cc21aabdbc4f5dcb612ec0527fc5b9fa77bebe3af27b0fcfd00cc8a7bbaff3f54cb1317aed5db04ea17da73ef4612ee0527f85519aeafce5cdaa7db80b5d023ddc2ff0f1643e986f2827eb1d0ccc00ec3cee612f00527f4b3eb97786071e59a09bedbe1f7de2eeb949fa42a2e4f9c3a56ef3f8a85a7c5e612f20527f18edaee119eb89c9fe224be524eca9cdcc6fff7ededca7a1eab8cc02eabde33f612f40527fc0b958aaecbdc6cd1a71feaf58ab39a5dffb8dc0e86e6bfac2c8a1cb154a8d52612f60527fbcde1ab3e35aededbdebbcbfeedada4eadadf2dcfa7be2dfc58c054fb7bd243c612f80527fdfdb71385ac76e118ebce4cddac7f60a8a5e7e07abf16e3e7539cf18dc817cd8612fa0527f17bdfce23156d2cfbdbbfab9cce5bfc0176d8d2fcb5b4cffe3dbebaf40de65b1612fc0527f9ba303afde9dca768599c8e65aaeee8c06a2c3de5c7f2c20fb5fbf30852ffdfa612fe0527fdf4eba5f644bb69f0acbabaa7617354cc43375cea349aeefda098c595db53caa613000527fcd56e852bb69aa0736bff2ec1ba2fdae62fddce39a2afd5e8cf53f66d66b01e8613020527fbab8d70fddbeb88e16d728e7368c600a4d6e7d5df2d2ebef9f8bfeca5d3abbdd613040527f45cfcdd17f1db5bbbedabda782b75ffcffcb76dbeedd5c3e04e6870f94ff2fbc613060527fbcbdcedabd1c03b995ab75aac8effd908e01ce0158e09e4960adbbc4dbe0119f613080527fc64b4d8dd9aacfbdae8d3228cbf2b5abbb3ddab53d9dc9adc8d6ff1c06a4ff7a6130a0527fa694ae5fda5d4f1658adcfb1aafd38f484ce20dbcf8abcf64ab19bd8e08d8eff6130c0527f208dce8cba09e58c3cb3f9bcf28fff737aedb360d3fc8be9cfbbbfdac1043e086130e0527fefea3e0cd8aae05f4a70176ffbbc0dbb223b89f9081bddd1cec36d5adaaed2fb613100527fc0d9256377c167adc6899a3a8ca8e5fb395eabef80743c84e36719aa8b23c08b613120527fc1750f929155cf1cce0f7bcf28c5a5bfb27daaacb8d7852a7e24c64dfbcfcddd613140527fdffd0e9fcad9febfbfdfa7bfaacb97e79be8fefa96dc0a3cca4daf1152fbec52613160527fbff4e73fbaf63ae6c6b056d8250c9afb7f8b6a200ea967e3fabaf31e0ceaf8be613180527f57e45bb5c9b00c5cf4ca92eb1404ce54c0c53a3f8fccd34eeb8bf3b0d89286fa6131a0527fecaea2cec2aedebedcbef9a5b6a4432cd2a243fed68bcbc5e1df4bb85fdfbaf26131c0527f7fdfde613e375cbcec4d8b5abd53ebbe4cca0b0301aadc2c9a8d255ae3a4fdcc6131e0527ffd62a1df025894c3f6edc6adadcf8dd2de2fbb28fdd54a2ae5edfc4fde3d554d613200527f05efc8dfb0967a4366ca7a3e2cd0e8efacf727f274ae546e2e05e5e5d9fb41cf613220527fb27fd97a40ee4a720feaa1ca253fdff1923ad7d0aa61e0fc0ed6c4f6ee3dd5bb613240527ffbec0eb1adf78dfeec81defd14ccd8b2ecaf643061d9047b3dc34cc26abce2af613260527fafd432afaf87e6b09b8afc888cf85ef19dee2f4f0edfd7fb13f0bfdcbecbf5d5613280527f7384bdb12aa038e7f1ebaf5ebab589122e97ec3f54c2acbd7bbceeaac3f05cdd6132a0527f663b32dfe7d7a348f5c7bf61c4938bf43ceb761fa0c02d9b636f25601fbbd7fd6132c0527fcc5593530fdd27b430bedc443c8ac72d88d15fbe7aa38515192fcf2ce2bffff26132e0527fffcec6bb51bce1cec0dd0b4d5ca62e0d97fe216ad9ccd3fee7ad7f9aeaeeebc9613300527f516bca5bbffa3ab5bfb9b862e87fc5f0e5b54c7554aed6dd4f52baace5eafeda613320527fea916ff207ec93327ccea8bf6518bb92c4ecf991aadc7fef3c0e1d80d26af8f4613340527f8ccd3ade83dfcdb8f6df3f8fb0a4b2bb3df1edc7708a5a3814e60afd2ceb4ca7613360527f1b663d951a9f9363d281d9da7ceb39028f7becef27fbecbfdcd0f486fbfcf516613380527fc79dd02becedbc92706590aea34ff643ec66fe1dfd9de17f4ec6ffdd14baad256133a0527fc3144f2da5be0868a7eaec0be9de9f8a8d517c2a8df42110cc58ad1985f4565d6133c0527fd8bfcfe331be052817482b0f4ed07d2ae9cdf020efa75d3a1af6ffb974d3a7fb6133e0527fa5ddcd5b22ef53bf5dd24401c590ab4f56ed4c22c706b7fb7af141bdbff1e2b4613400527fa1fbd85ee9d15b29e3fd6f4e6f7e7cb2e589f3ab3cf2ae51b9ec5800cbccbf06613420527fc8b4af5fa8d1dd878cdaffb911dcc1f2dea13de6ddd1dbeff5be65cce60faaf6613440527f36f1a27e7faa60e8cfdccbdcaffc398dcdea52c594b17d4b813fa23c3d7a5ef6613460527fec218ab20fdc8fab536b095c5ddb6ebb34dc38da35e85beda1a9bef5b66ad6ca613480527fd9a4aa4cac253c7f7d686a4f0f5ef98bb651148145ac206cc1feb3c92c0fe00e6134a0527f9b659d0cb3c78f47ece6b3a6f1b85277fc4e3ac92aae0ee90feaccafc4f47e9c6134c0527f5ff81f5cee4bff44fa8e57fece98c45cc450bed2c4ec71e4dd264daa2ebfade46134e0527ffc30971eef911a6d4abc8cd807cf5573574ccc8cfe90e29aefcc4bc3bfb5a88b613500527f7f3e8abde39d1aa310c9fbffab89dd42bdd03baf356e434309b65abc8dbebdba613520527f0cfeb7f7cbfdddcafd8a8c32cb57fbe4fabaad63a93a673e283dcfcaabdf0854613540527fa9b6cafbbefce335a3a7d84c41381254bfa3ffeedeaef4fbfbd43bfecd34a0bc613560527f5b4f7c08a0bd55cdddcdee7cacc3a51c2287c6c9fdcdfa0abf2f9f9bb10a2de5613580527fb40b9d07a5e7ab827b14d3ff4f96a6db1a3dd20bf7faf23dbea2dfdaefaf2bb16135a0527faff58c6f4ceb5c82629cd88fbfe43a829e881eea24cde3ace8209a0164ee3bb26135c0527fdd9faab1c9c78fbabec235b4ec3c2bebf360269fd4d9f6897baaaad16a3af8f06135e0527f3a5bbaf967f8d8487aa3025c6d2495bfdd8d1c52a0ed9bfd3d2ab787e8e100ac613600527f32478d8dcf8a84be566fd0bc4eeb33da4cd91e6321d08b1eaee07d93af5a19df613620527fa55b1c5a4fdc2ea848b4e3da5ebd16c0ef7fb7e22cecb95905fd24adbe24afdc613640527fe38c91afafee8f8ce0595ecad647f96cb630c74b92dcd6d6ffa0c212e0df2ebe613660527fbc73fce93f1a1d14dadcea68cf03ceb597dace2eaee1e2bd3994d760d02dbe51613680527faa2e6babf3ee27d2eaea26ac9e1c9d4a716ed7fc067480f3f75d9e732ec1bc956136a0527fb0d7994eaca1be6cdb2f8f494dd7f50b66bf66ea59ea2d7592c4cecbcbe8d93d6136c0527f86efd9ab34b7a6a9eb5d5e48c47fa21baaace484f6d8becee3cff0b0a00db38f6136e0527f6a55caa28bed620414e059e79ba7bd75c1da5abce1d95a472e7597b98a7c26dc613700527fddeb5deb3b86ac551f7e686c74abb216345ad81dfa72f3ced79edbe5d8f6af6e613720527f92d77eace6bf26e5d77b4ed87df8fa77e1a4abbc2e1e0abececfda94bcd4cdc4613740527ffae708f1e18e0efe9fbadadc4dadefe3e02a73b2d6dbf2ad0bcacf05bc46cddd613760527f39731b7de0cc60257bebec41094bf5e74aa801313c92eea77f042bcfd3ffbf58613780527f9bcfa5126d0a65722ee24bff2cecad47dd76b316bee0bf6caedf7503a4da8f396137a0527f8ba342ef3aa20832afaa0971ffeccc58ecab2a19d6b4d7eb7d97bddfe9829b9a6137c0527fad40d1c4e5bb48bb72119d9f6d2284c0a25ff3c760ec71dcbcafadb4ec2acece6137e0527f53ef6a0c9e9a8e11fd20f6b3fcc99772d70fab9fdc7a63bba6ca132c02c3a0ba613800527f2c0f90e4bb9ee694cf4f2c0fd20ac4b5fcc46ea67ebd5afb74b7afe2b08ec21d613820527f3aaccfaedeff57c1aeebcc8d2c6ebbee9cc4f7b3fe801ae34be66a6e40c7ba30613840527fce82d223fcabcbe84de0d1fb5bca86dabe42daced968c3b5f5bdf3afec66b6bc613860527f5429f3396add2cbd36ab2928deb95d933d79cfb16f2d46dc52bbda1d0ecaf0a2613880527fa8896a3e0bac7bf5cd9a1fcc06efcabc842555dfdbd5f2cd50a9beee4bca5b566138a0527fcf4edfb0c1f2ae2a7fff3f4b45b4b13c6c1392c7c369e30cf6df61b38ffe1dcc6138c0527f1540ddf4fe560fecc74a11f1771da7e90a3eadb75e70bfb356832b1401591ac86138e0527f8c6dafedd4e4cea4cf95903cabcadde05766199a312a3f7301ec04eabecddff5613900527f7bcee76b38bc7c5303cc17ab2bebfd92aadcb4bfff0e2d536b2c2f715ec91cce613920527fcf41bbabbcbe742fd2f21a749eac75c3ce5bbdaf4ed9d7f177d7bbb9972c9b83613940527fcf78dc8ab511b87aac1dccdb5173903b9b99d2012d36b98bfdfb6afc657cb25c613960527ffb1ad4e83c34bbba0c4684165b9158abc23eddcd25ac4fb9c5dedbd16af88544613980527f1ebc43dbcb5cdc4d7a0baaffb70ccad975afa7f3e5d4d1dd0a9b10afa9226ebc6139a0527f6b1f6d5c7916125e6a5fac4d1ade794ca8ab03c542bafe4dd5a10b6693aa04cb6139c0527f41be73f143461497fd86ed4b52c35fbf3270bb9fc89e1bedabe76b6de180bae56139e0527f61ff4667fc01f28e4bcb06bdafaafbd4a9cc8f490bdc7e8dc33aadd76fa8c44c613a00527ffc89ebc9bfefbb6d71bde41cf5e3efaadcb332fc0c7cca85db0a0c98e32b2ea5613a20527ff70ac4a3275e28ea28ca0cbcfa9c5356a12d5cbffcc06f4921602cbed69584a5613a40527f23eefd6d4fbb42ecaadfd6f3df3ba0caf6fabda4f5a4182f2c7b65b6dfb9afb5613a60527f9e654b3e8feb1ea8365cd48b0ddfbda4f0beb55c3a212a92a61458037dd8ed7b613a80527ff8a88b87c17bff5bde9b1c6c48087bb55bee46d8df9fccaaca4c3069c9e315d7613aa0527f1ab0f0fe9cd1d342ec7b6ddaaf7baaaf7a0fc93fbdabc7cfb163cd2d0e0eb8c3613ac0527f5e2bc5bcf6efef0e33a07178b92506199c8edeb76bff5fbcde0b78da4aed780c613ae0527f0bbceae4fd3d1ecdedf449354a9e51df4cfdb12739c3daf819895a2ab497deac613b00527ff8ae8cae8ac4ca2fd4076f54cdeaa5edba60c7bccd6bf7cc6a71fe2cddc5a7ba613b20527fe04eb61f4d6cc7d326ab45fdfcc1fff0eda5bbbe9b5bcb2cb9ae06ca56b88abf613b40527feebaf5f21430adcef69ea98eef801ac90374dcc9db911f5b890df6b8b2ced9a5613b60527fcc5ea3c5c9ef841d2a31d9485f0d43bd0cecbe08ec3caea66ceaa2fba94bf41b613b80527fcaeec9eadacaa17fdfad292fc4bd92c10c288f96bc5bac74aaada4651c61beb1613ba0527fb5a943a7c4f1bdfdfd038cfdcce529dd5c4cd66d6a655b456d9cabed3bd77e8e613bc0527f8fce5af9ecccab645fbaf69bfdeaf9adb857c1db08daa1dc0a844cb34d61fa00613be0527faa1c116be026fb1f702fd5c6a8609b7f10dc0dcc3a38deec12e163becc5eeae5613c00527f39b1a3ee2a18fb4fa3f94088844ddec3f444398f66ee8df3b0e2c8213c7fd8ea613c20527f65d2e3fafa2c06ccf24ed4b511a34e443b7aefb4e7dbaa1bce2dcffeebace39f613c40527fdaa6bea768cb7f6e23a9f4b7fb4ddc6cf05808cb0fbe53bfc9c014f8cefca0aa613c60527f72b2d3dd2b57dc5d29da7931ea5fe14e2e52dbb1269468f2308cd7fc4afffb0d613c80527fec4511b2eba7fc78ea7f93e5d1a7e7aaf304abdd62e37edb729bdf98d06f1768613ca0527ffeda073abe4f660da94181c280f7e7efc7386eab29825aadaffd83c3ffcdee32613cc0527faa8aad2e9da3d192fbffdcb56abe509bbbd32f7f5dff96c95b4967bc5fabcb97613ce0527f0bcd4ded6fdff4eb67caa640ee5ecb9da84d44766e786bc3eecd04d7ca3c62cd613d00527fc3cbd7aaddee94af7aba2e09cbb2aa7b704cf0125c4abdd6ff75dd0dcda2ed49613d20527f6eafd2bac3c5ecb632ecbdea94fbb502bdb7d7bddad8fbc47dee8f71dbaa7aa4613d40527fac71ca3aee85cf6ad3ce8b1a00f5df9a3aeebae4ee50e4ce0ccef413e2ec1fba613d60527fb1bf09abc2ea90da99daa8cd23e5eccfa7b6a88c5701faf64a28ae1bc3ce89a3613d80527ff90f648bbb0dca25d5c275ea65d9f90df8e5a3bfdcae675deb0fec72bbf220e5613da0527fa324b5c8c6cb2270f266a0090800359bb8df76caafb5e0d5eea58883a8efdd2f613dc0527fdb6da23b27d0aaae9cd72edbee9ad66b3b97883460497efb6ed9dee2a6f3baf4613de0527f782d6e3bba5bd73e1dd40d5057c24b8e3e2ef98757814feee2adcc5f4be44f1a613e00527fcf490963975cb429ac64d0d0d4aa7f37b51d7968f3745d81ebd4b6ababbb789f613e20527f6e9bfbe089bc4aefbedd8fddb31b3adea6eb2a5f6ebcda0bdbbfb4e9e3d9aeba613e40527fcf74e22910efb760aadaf4cc8e68e62a7eaa93ae47c1fc657e8abe1c8f2ccead613e60527fb0a2eb4a8caf3eb0bffae79ac8240285c16a5d6ad5b365e3bdf906b7ba8a7ab7613e80527f822283ec3e816c9d0bd87b6fba5bd09b41589380a3afaf9a6f16dd3dc56c99c3613ea0527f87f76dde22b7d4c5adbc602eea2ddfd2d22f55cc0031c0fde2e299fd3aecfaef613ec0527f43c189aa3aca2d481af67a1d7146dabbf1dbc6cbbab24a7acd691c2b0680db2e613ee0527f4a21f2eaaff3a26cdda84faafbcfb05ddbecc37de8a2b80b24b8be0e22bc2ecd613f00527fdfcffd17909efe848ce7a04ecea86d5e37e8fcff0bba7dee71f6ac8180eb4daf613f20527fc8c80b87f5046f571a37e2b2cb6f1dfb47ecdcebec1b50a7ff53e9a2caab7dc3613f40527f87cbee25f5ea3a8a4daaf6daf865b23eeefdf3553770b689bec5d525addd1d57613f60527feece716ad0ab83ac22becef5e3babdfe2eb0a7f363a9d88a0de0339ee9d31caa613f80527fe002994a8efeb417da5bcfea476840bc7f3cd5064ca3cd9139fa26ad1aa0e1bf613fa0527fedb15ed416a3dfbeb85eb68eca13d6edccd22aaeae2ca1fdb22abcdedcfbef56613fc0527f0fcdeabfa19ae6f475fc15edf428c3ccec2c93c439c03ae288138f0584be31ff613fe0527f50efa12b981ccfbe1c7bc36056dd5a9e2c7db98bb1fdc7fb93cb7fddf95e5d9b614000527faf6f431a68a0dbc52e7ba2f2d5ee04abc72f3ffccaf9ebc66fabb5ddcbbcc2fb614020527f8dcb27a1ac91f277bf46ff107ff48ee44cc4febdafcdf7ebc220a2ecdd63f6b7614040527fd59beaf2abec0ffdde1378f0d2ef3a847c85f6ed7daccedb125a8720f4aa88f5614060527f46c2a6b4c93f3ec09221d2a4514f528ea4454a7de3feabdd8f0cc0bb0dde0dd9614080527fa98d623a0fcf55d5fdd5ccca0f6c9f2b36beda341eaf8db4fc1fab89ffbeb5fb6140a0527f2caebedcaf5ea7da2c351de11bf2c796c8b209c84a61ba5a111dbde7e81716db6140c0527f39fd51fbd9db9ab2b43f23038d53dbb653b8177b0279e1de290ad25a22a72e2d6140e0527ff0bc4daaeec234bee314b149fd00ed0e4ad73ca4dada81ff6eda29832b92c5cf614100527f491df91a9afe5f04cec72fbafb8eb1714fbc0c4a57f3f7fea35c3c28df0cfc0c614120527f76cb0f8aee0f5ebc26954fa3af512ca6819aae9eed2bc0a6aad9baaac3395f6b614140527fcac83221cf8588a0ffc4df52fa6bf4b10a20ab6a50fa9ed173fd957cff8943b2614160527f53ec1c61661ecb6546f4fe77c36af248977bea5bcae04fb5c8f8eac4aa3bc81f614180527feaefbb07c06c9b473687d8f7cfb477b2a5156abdc6cb2a926b0ead6e974dfc3e6141a0527fad709bf7cdbd160e47e914aeb7e6b9ee2ce44267ece4524d99ca794e1514c3026141c0527f1b97fee44fb697cb09e024aa2cc7fdce431fa4ff54c5b49dca8c8fafa2bc91546141e0527f1b22c0efadecb4e1c9913fcedd1e49b0dae8e9f9b5f8ec40f407377cd8c5f5fa614200527f4bac4c3ddabbdd527906e32bdc8cfcef346c539bea440abda049bc55b0a1a87c614220527f0ce53087bec87bbff9ede9a9a813c4b954c29bcffdb0a9fbbb9cbfbda16fb6de614240527f71ccaedb6b8be253c6fecaef7d1bf816d3e54fba96dd3d5ccfdeb25eeefa2de5614260527fdedca1ed1b1e3dadd6f31b3281b9ff1c6b487aaf3e4a5ec7dd62dd5f2bc88c35614280527fbda7c9ddab7c9bc5ded3f818d45befea3f572556d418bfc65cddb34903f18d756142a0527f77cc4aabafd39de5f8bea1da9a3c3509e27fc9869a5f5ac8eff1a5731c6cbe3e6142c0527fbc4a2f6f6daa7fa4e2f93bfee254c1ffe665c02ea97ffea6a5c61748c49a5ae96142e0527ffbe9c9ca5b3115f0140e38cf7ca517e20af9ecfc0dd73b13556cb38dfe85b1ed614300527fe841c9f5b78fda5ff1bdaa1450af3dcaf46afb4c2b0e4f0fadeb6d71c4506715614320527fcb313f5cd8bdc1c8da65ea6d0cf7cfa1193cbe934b89c2b2f88acca52f88a7b0614340527f8c9fbcd8e31dbfc84e1dc432f55ee44f2e07a01f44eafc4b4c9376b7ec4ba6cf614360527fdd83bdb8ebcbc29021fd2ff90f52cc946dafdb4a7ae74f38f6ff917afbd7cdf6614380527fc43ed1fd6abe606ac751df3bd578d78531a1efeff7a007f8a8e679d0c643e6e16143a0527fa1abe3dacdb6aad529f2810cddceae6a7eafaae4f6d20aa2c5f209ade8fbbca26143c0527fd0ffa4bda0afd008bccbc6f9fe1e35a1dc1fbf2298201d274d9bdef2caf3c3e26143e0527f0d49eed8e1a472ce741f0edc8dfbb544baddbe2064241e9d5b195a0f10547a2b614400527fdbbccf19871c10bcce446ce2b00bfb7db8ddbbc65b5b65cb2e05fcfc754bcbec614420527fd994a8d6fcebaf7cd5abffbbee8f0943ffeba754b63bb020163addeddd36bce8614440527f4bcdddf5ac6f83c4cad8a4fd4cab3cc0ececd97e7b3fa9e0c1e9ec96d655b911614460527f694e7e84f9bfbceeee3d8c941ea6876fe2dfba5b19d1babbbe3a8eada0ff8ec5614480527faadab2cefee94cf2a4faacd94afeec5121ac1d8bd001e9edeb5d8f8c27eec9656144a0527fba85fefadae534fdda54edd3ebec2c5e6bfb5fd5faaaec3fcae36cf75036be376144c0527f0f2dfa0fe0bec6d9ea9bb03bb2d4dea5fabd45fcf39264cbc473e091efeaf0dd6144e0527fa80fb648ca79bbe4df55e83981fef9adc05cc62daeeca5faf79a8366a91dcebc614500527f52010e96ee3aaec9d33edc23319ede4bc5598989d8b4fc09d3f76c48f7cbbb9a614520527fb58e062a6f77fd5d9cddddf99b3f4674d7f4a5c228ac84f7e13d7caf1cb7e68c614540527f8c1ccbe23a16fbc5dcc9a8f324bedfd32b0d26112769f2f77a3f673c1242a4c2614560527f37c368ec36af38aca0e7d5662a77419eb8b1d35e7b8f0797bd826d282cdc938a614580527f5a44a6caeda6ddffbafdfaaa7a04c0bfeddf6f45fdfb1502aaaf8fa3cdf9cc336145a0527ff63df3fec9f0b0cbf63adc248b8e2fffdecfca52faef2ef1dbbc0dcefde188ee6145c0527f1d4e9bee8067ec6fc9f36a2cdf0b0ceefc3f065b48bff42bfcbb4ae16cbbdd0a6145e0527f7b58e0b51fedaed7d08ded5cd866ee8bd4ade76aa6583edb4486c06ae7df1eda614600527ff6e694a67a2bb9abab7fecdbf8bd5b277e1dd4a3efefcd0028a67d152f04ad1c614620527f52e05beeeb0ca89e58a2f19d8e88cfd3ffd4fcbabbfbf0afc1ce44a41c4a827e614640527f7af28ddeb6fed40e48f63fd387dd0bcccae9da6dc39fd5dd4f2de3abaadcdc30614660527f83cc90dfaea7909ad6ed57ebc8ac66e7eba7e2faf5efe34138b10db3cb11f0c7614680527f7f2c3bef8d488add0a8aff85b1dbf8154cada2c46ae4cd2feecb41fe41b9cdcf6146a0527f6ce78bf9810d90ddbb5199edba51dd3d888ca039beaccbf6f03332d75af8dcee6146c0527f038efcbbd11eacd5eae9bda2176d57e26c2f8f23a9af2dd9a73fd4eaf4da92e86146e0527fa4fb28f3aefd381ecac7ce4ed84af08001fac5cdf5e7aeabeb7f18b6fda50ab9614700527fbf9bec7a53ed56cedc9ddfbfd10eb6cde9fda392a33bf7a1a8de0e9cad610940614720527f26fbda5bbfc897d7483ffcc1ad02d6ac9a0b9b5b49eaa97ea71d78d49f3bd1aa614740527ffbbc1bfbd8f90ce3dd1eb8df2b79d14933a8aefc00589cfdde0cd7ff2e3d4d5b614760527eab13ea7a7c2cf0cb74acedf97c8a08ccf2f477b1d3eace34b7d8de3d56cf5f614780527fadcdefcef872fd7ea11f3406ed7f3eae6d3cce5cdc5ec7aaac6aefdb3493ebd66147a0527fe1ae24cbf760beedabaebaa4de4fcbfffec2ea2a14c9e63814a94b0ff3ebecca6147c0527f7a74c3b81c272fce71079c1b52219d84dba7209db6f6691ef1e87f11fbd3a2e66147e0527f0999fca1d5d8ca2161ea5cc13baf63a3afaf1a398b7a7ffe8beba9eda6e5b85c614800527fdddab2eb8e16beef246dcf03fcad9eb8daab28a8f475540eff6ee9fb7019fcdb614820527fb6de7aa72007f4dc5d3fc6bd2bb0e1a1fe7fdee6bfa11ae8d0bbdad54b1c58cd614840527fc2d8e303e48c22d37cd3a7a56a6fe44c6589bb345a3b850901c2a10b83497ca1614860527f1aabd5f378ca4e3eb58cae3acdfb514de183b30bcee6c67eb232e4969fb5aacd614880527fab329c788bde2c85f433fbf0bbb7ac1d4d6ec20efbf17afba53072a9652bce866148a0527f67d114d1cddab7a3226b9f9a98aaacbcfdf743cbef9b9940931f68173b0b60fb6148c0527f711fa431d9cede16bfbef6fd8d6ddc25d01a2baa9275bba6a4da0e51bdc08a696148e0527f8c4ce07ece304f115faece0cfa5f153bc23e26cbb64f25c926a7dc08e46e928c614900527ff7c1792ca8fb5dba5384cba2c0bbab94cecacc108a9bc3bd49982fa5260e2d4e614920527fba1996a187dfd5aa2ff32c522ef9ce788cd12a38c0c67e82eafcbd1b1e36bdeb614940527f084fd2fc9aabcd1ffbd9cb8bccdae5ac1a2ad29e3ede2ca3ded5d21b639c3d3e614960527f4859fa8de8744cde9c744b587b8b41be8d9deac06cc8b2af33d579d5a67c83d1614980527f61053c55f2f889ccd182dfd1a18c8bbc85ebe23dcde50cffe4dcba3ced9fe1fd6149a0527fdaf81f69ddefec50b15c6ea50ac07d992c9a7ab9abdfd9edc1a7636455bfb5d36149c0527f0d4bfc3a11c638fedacbf33cdacbc36eafd5c6dbaccae70e5f2a9a8fb0c3a1ac6149e0527fa13bdcef3f39bdeadbcfac9d58cb9f68b52fafaee8c5ee1ffcaf685c94d0059f614a00527f7532c1ba59dcefe6ea5c4bad12e93699f4dca7a616bf1f46ce9e94afacdbd8d5614a20527ff9a9b7ab4bc14cedad37ae3f2dd4325ab1b893ccc98eedd5013259050e01b3ab614a40527fbfe33ec25afc3ebb3afd5a9eaa58aa8358efedef05a1f66dedcef8e37bacffce614a60527fb6fbbaa780ca404da1b4ec09e961967dd4f4fc5b8cd0d6703150a5e42ba8e5be614a80527ff0fcfbf7dbbb2fa2f6e2affbd72f0e6f832acbedf490151ccde59a47d200304a614aa0527f938b3984f4b4a140f965d9b7bda2558ec6eda9eedc7a5ed10f0cd9c4e813d6ad614ac0527f09337d44a500894df3b5cf0daec697aea693beacd29fa3b29097f1a630ef76fd614ae0527f8b63c4f20ebdcc4ababff18f6dedd1941fbd4fa1043bea5fabca5de86df4ba23614b00527f2860e8b943ed96aaf6f8e32322f684e51c34afe7cb5eec23daaabf0d8c6ee4df614b20527f368c56eebdbffebce5ffaee1dcadfb45c0b7b1bb1c6a392ede9f9fd6ed3380d7614b40527f8b8b14edf324498adef06bddeab07e365d77caf2ac33cdab71e9f05c5b7aaeba614b60527f7bdeda5708febc91bcbe91f73cefc6415d530c59e9874fab5b2f3c3fb5b46dce614b80527f54c6198fb5925c9bc94c4aea2b270d449e62bdfa1bffc8cbcb8cb1f0afc0dbc0614ba0527fad27606bc5e1d78b4f0feac5dceec8e653dbceb1174dde0eec2e1f24f3cfaabb614bc0527fcc2c1fdf6accffc9fe016bbedee1bf6f7a9d5c651f76c7bd0190fcaccde81f49614be0527f4efcd7ae2e3cc53f44d8b4ba7245fefcbe7bc00cf2eda1e2d3e75f78c9f6d1de614c00527f8cdef2eda59b699f6fe0f13e65e7038f6fe469eec71b51fe134375e25bdc9c58614c20527f8385da5e35e3bb44894ff8beeb44bce4f1f6b1aa036bcc64a1f36dacfe51ada4614c40527f6df0a2cc0beaa1ba0eca9ad0bca1767e5f3dbbbd2dd52d8f7bcc8eeeeac7edc5614c60527fcc6f6b8eb7d9ba127f6b1f79c4b06e5ff3ca7ba240a387b9a3aecae3dfdec8bc614c80527ffc5cdeeec07fdd7f6ac52e1b73dead6073f83a8b3a8e9ea6cdf2a71b9d1f389d614ca0527f9f1ae7cd97e659e3ae7d8e3b56b1ab5d51d6512bb4ca6cfb62fa146cf983a83b614cc0527f0eb84d1addf70eaac5efd9124adca64f44fb4fd44ffbe14bf7d68b2d04ebdb6c614ce0527fc86bf1b3ffd32b34e47ffebc9aa5af84dbdc1f3ad2dd8ffbdfaf8f17aaeacae7614d00527fd5e759cee2b712d9c9e2bbd1cd8b6c7c9b9ef2a0889dd8d36529f4b94e6aa5ee614d20527f1ffbcd80f3fff232ccde1b515e97b8ad71d57b10d22d8f60bf9fbf4c8abfb8a8614d40527fae21aa6bfb31fdfcbe19bef4e402dfcf9ad385a771132991bad2cb88bb025ae5614d60527fab2e7025841bc448a7a182cccf61cbdf42338ecfe67c44f0da5d8bdbfb0a5a5b614d80527fae9f0d95485d7fe64e0ddedc9ddc5ec5d7c1e7cbda7df05d3cb4e8409a4c00d7614da0527ffbaecec725a03834f5ecadcf391ce16f2d8fbd88b8bf9cc866b40bbeaeaea8ea614dc0527f03ce3834a2b0f630f0becdba471bdcefbcd04daf90e3ce16598d72aeb157ca0a614de0527fd6c1940c8e7e897ebfc112bb8547c1cec3b94b0d4ed0da73368ca13b31a1eeff614e00527f565f24e2b6dfa2b9df107ffaed998e68ee6db652703ceadac681b6ff4cc0f9ba614e20527fc0311849634d18f65e85df4de5133f22f9d12fdcfeadcb5bda4c80ed8dba1fc5614e40527ff10ee2a4e933a24a8d4ebaf7785747ec211bc8377f48d5dc85b61e2a95fab8b6614e60527ffcf6ce054062a6a5d69cd5f1e29c1bde7f4fe4ecbf30caa3043fa5ccbc27dffe614e80527fdcacf184da5cab9dd5e817dde742a0a73fe954defdfaf2e8af3d48779eb20af6614ea0527fcc0bce5d8efd80ae795cb97bf8beb0c5db5dbbd915cb15cd6a1dd9a68b75ddea614ec0527fd4fc6520eedd30ab06f2068ad374a05fa43be20cd18cfbbbdab786b8dfd632cc614ee0527f97d7ccd47121d7b864c463304194128003efb2dab6a3b8da3fef8be3f8aae00a614f00527fed0c0df2dbadc93118cee892295b7da9a8a626b4cf23eada11aa688cd1eaf8b9614f20527fc53fbefcaea89c61fd2fc35d584983a2b7b66efccf44cfd8dfcd2998df9a617c614f40527f1644b351aebcc47a6274dcf2856507f681aedacbf9f1b6837eb47dc9dc5644c5614f60527fa6fd6f46daaa3099bd2dc58eeccb2fc2b0f6c5cc46f67ddcb3ffff9a71d8d40a614f80527fb05883dbaae37e520dfc7eefdefc45e4df945f969fa711bdda62b84bcdfc51e7614fa0527f11a74b8accf7c204db3ac17dca3f0660c5af1905bbd42da31be14b803dda0b50614fc0527f6bb8b4cafe482b42cddac58f2ab10f3beadcb1acb82691e7c9ecb660def7077d614fe0527febdb81eed9632e73dec5dd7d5a0dbacdb9f7e8d57dd5e2f8673adc2012e1141d615000527f9cecd2f3ca17b5a7b326fc3d2aebe97fe39e55bc0de33b5e1d5be1efd41aae3e615020527f7d60587eb312ceaffae9ebc34fe5ecac9edbab00e5dccfb93f801715c8599197615040527fe3faca0a39edcedd10a9e28ddb6cfbf56a1abaad3dbddeca53a3c384b24a10eb615060527ff8c1b1d7ea0ebc0939485afabd08b90a7ce9ffe5aeab9fd6cd128e35e558bc9c615080527f4290da95bfc37fb7fd8b2d8ba6c0da85a4aea611aebb5caad32221a8ccfc62d76150a0527fb4876a7bdad00aa5aaedd50bbec2e44fbecc3a54eeba3ffaba0bb1f6542cd67b6150c0527fdbffbc0d897a7768059feeae1bedbde278ebb4cd4e8ef78cbd584cc53d5fd2de6150e0527f5d9fe2f5a1a0e666de36c88d3fb9ea3dd0f3bb948cc5eacde16aaeadf6d19cdd615100527f8f5abfdbaaacf7eb7cbbb19df2bfd1bed636ebef80daea0feed2d17afb6b897c615120527f6bd31fdabf9d8ddcee5bc3b88313502fdce71f722e2a3758e720f6cc755a9f3d615140527ffc66fa7dfe7d3dec612bafb1e354bc1eac0af8fbddfd0333a0fa0ecec4be8a7f615160527f7bcf03eabf1236307fab39b7bdbab487e1d9ab5bf7f2cde44c7521957ceeeae8615180527f9a080c2ae07fa9f7fcace30eecdab0eb9b9f67bf0c00bf0a0deb04d3d3bda1466151a0527f8b62f5dacab99ab397b6bc8ccb6ca193cd7becd52edd377ccc2572b45d6e3c876151c0527f94e52545a6536d5ccfd3c4385dd93d63ed250ab00beea702a7a4cbfcff956f246151e0527ffffbf7169f3eec275beb6a9f0fabda789aaef419f98f0b47a5c9c40fcf841557615200527f0114e5c7dee284eeb7ad231d1297db3ffefd60f583aea78daa7cbca7bbad1fa8615220527faf59a514f2dfaeaa6f8dc3c91d21347db4fd69a423e990ad0bdde749cdacce27615240527f3bf720f2b8be7e8aa000def2bc0dc4ea77ecd8f2cedccf4dcdfffac75aa8bb4d615260527fda1af17bf099edb1001a4ed6e3f4bf54ca86a384d8974daf51de25eba5b5ad5d615280527f46ddfac875d997630a55de76a8de7ff85ad0377acc9983372dc8eee07ec3bc1b6152a0527fdfa0bf5692cb6ed0d8f3ff8c9daebae7f4ba8d5b2da704acbf76dedfe3adc9cd6152c0527fbbcec0d5ec5f54fd46ac8fefcfe08faacf6abc03ceb1b8bcfc9435a20d6edbe86152e0527fde0e21e05a1eba71bf9df4d4f3f3bcc9bd0ebcb2db2810330dcc86e759d9ad3f615300527ffe1c9b1ebabffdefecfd68cbb0a5c922a75b6b1ceb0de58ac0d1e6e9dedd9cdc615320527fe853daeab6bf57fff7ccf110efb1db33cf4fd831befb6cccc741bcb3679b0b34615340527fa4d805e44e33b0803a6aa5a9a09e473fde8b56fca0dba7565f2864b5cad01a1e615360527fc0fb3f7afddd3a3fd1aea207f1eb1b57fd5cbddb2e771bc95cbd1279dc2480f2615380527f64c4e6731e0c5aaaba1ad4756eeaff2fb092bacedd0a690cfc279bb91bb93a736153a0527f5a85fafa67e4391ffb5d34efdbfc29aac9f27cf57c0cbe94b5bbeacdd9b1eb816153c0527f41e7f2af06dc9edfb0acaaf9bbdb8f244d368feaddf5f3ceafac819dac6c77c66153e0527fb5241a6fc495bd98581be2d3dd8cef4dfbc9f92f97c8691083abc533fef175ae615400527f66ac4a0ca274e3be4337556fdbcbfe53dbadc0bfe41f9ccf53c0aed14dce0ec6615420527f0fa550dd3ad5fbe7f602b41babfc1bec4e39f5c0c0b617d0c1fdbfaaeb21b834615440527fffc43c03dc27457c2ecfc411797938592838bcb61823eacd88bab7d6ffc7a299615460527f1f0a134e2b5ddf3a3accfce8c4eda86179bea26f2eaf728968f08499b29d617d615480527fdd2ec16ef416586e330ebbfebfa6e159f74ee88f2f1e29a2daee1bf8c595fc936154a0527f1aa4a39bbeb8fc721ebadf50c7a44a6d97ec3f4d2549f7edd88618d69beddd506154c0527f9e657cbbf03e4db0e5cf617f2dd5a346f5d1ddf4edcaee9ec78deea5fba9c6d16154e0527f4ab2f1480d4f56cba05ab487bdde0debfbbab4ca55b685adecf2ae075ed3acc6615500527f8f4d4bf001edb09f9b17cf19c3b0b2dabd00e3f5ef53fd4a65b90d6dcdee0e4c615520527fa8b09feeafef64c3710d6cbefaac5efca53ad9a6c1ba32fdf0eedc1574e02d82615540527fa9c7b781d6eb2ac853b3fc1dbf9bd6b47ecdf3bdcf371f8ec5b97eecaafff1f6615560527f030fcd75edf745eeb8c093dc98fcb38baeb5024b2aeece6c333ca7354f01544a615580527f33d5e6fbeff1ea9cb53b72fcf535a157c1eeadaa9a1ab21631aa4c9ccf39ce5e6155a0527f39f9114426bdbb1087c37e3369f14bba68fd19e7eafda6f195ecfb1a7bfbcfcb6155c0527f7aed9ec35acf1dcea5f8fb37d8c850c9e26ecce79d46dd515cb13deed1e91ad16155e0527fce5c87ddac2aee5ffc4f5cd3fc5ac8b17ba0fe1404745deadbbbffc0a7843aea615600527fca6aefc9b428d66cbbabb13f163e91ab8ffcf3e1455de9e58dc20ceffc2ea2e4615620527ffaabac515fedccfa3630b4f5ee05684d3958f07af1dddb61aaec3eac7dc21ade615640527f0c9af6f3acb5eaf9a9cceaeea0d3bbbaeab9ae9d8fd0feea6c0f1f4cf104b8a7615660527f7ecdc09dcce49ffa35dbeede3f8912a4d8c2b4efb7cd44c2e46cf90ba2e891ae615680527fdbcfda3bfad13ddbf33c69c72a1612e4fbdd2ae3ae330bc2c3e58aaaf7e6f12f6156a0527ffb3c78bd3e426fb2c7d65aafc40fb8daf709e27ec7fe08d91f20f8fc236d61ad6156c0527f385cbea1bc8fdbd5f58d1fc912fa65da0df3f21f831afcfc9ded9bbbfb5ec3a16156e0527f29534c57d06ab04be5ea1e4ef1caf41c42abae49a2b2b5c8edd43a5f35a7becf615700527fc4377ebb6fa6d6b43c6ce9a7bcdde3c3ee3346b8babbff1e0ecce6e2e060dc9c615720527feb6d20b0a910bce3ee7e63de5dacba24caebf0ef9cecebf97c1be9c45bfe76af615740527ffbd0ecca33bb45a2aacc5d2601bbd9860eeeb5f3acf4a2dd0b499cf687ccaca4615760527fdeaa7920a70fee2cdbaf126cbff95eac2d4b9f56cb85b1097a09563cb1ed0a76615780527ffa6fc461987d2dade7f1d67051f27a225058b01c56f5c5df0b6a0df6fe079ea06157a0527fa2dfc791cecf333feba7e0a072fd24dcebb3e4e7fcddf153e1a35a0fe81c5cc96157c0527f7e4ffcdcec1cb4e73f0e41f87cdee9855fdbabdf1dad0ee5bacebe12eeaa82086157e0527ff4c3c21f3dc99390da68ab1d3a8fdaf0eae01c3e6179f1fcf84fa71e5a0a640d615800527fdcbc22e083a7a8fb1c3fbbb9cc73d7a1a1aecd0fa8f5a82dfa3f0adf9f5bfcc4615820527f224ce5aabfdfde3465cdcce302c00c1fbff63fbfaf3e40c53726054b6bdddecd615840527f8a3a3dd3e4afdc7977f42587caa7b2ee9dfefc54ab454cbae383c6bbfbb5b2bb615860527f80e9ca3d0c4e9cf4331c99cea0f256ba6c822dd5a4de02a5581ffe2dc9cc1ecb615880527f266a2e1f48c3d6e2f72e386c5edcbc44dd0dac2c1d7dd9edd419addc69ad8ca06158a0527ff921d8a81f3dc1ba3fadaa37e1f9d5b2890cfdea1ab5f00af9e47bdf0a479c8a6158c0527facffb32f66948b7cdbf79ab68996bce919e6db966eb1d0eddd468d2605d02ff26158e0527f06ecae3eed2d43beaa52a2ea5af7fa84fbdd7d1d338f5acb79ffaa8e5dd53dd9615900527fdfe3ffa9c79f5c8fd685bf11f20b3ace4916abcdbce8bcc09e4cdae84fbcc3f7615920527f38b4779faedc020d9feb0d1ac7c3fb369d23272fba3d133b386b46bdb324bb7c615940527faed4f20389c02301ccbad9dc7c9abfb39b3497d83cbae3b7fdfdce9bf3a96db0615960527ffcdaefadb7a7c8db94e5a1505edb8e9d03b41b40ba6a2a377d78afae0005ddd0615980527ffdca5eeab85e777dbef17ae8fbd6b4abfef5c5bd285aad6ee6972eb4d35553ae6159a0527fc9d38e41a936cc2bf4cede4bbc2dad07c0eac780e83f7e6e82afcfbcd8ba34c46159c0527fda807fdaac2f82fbbacf48c9d6e9c907c1d7b925200c9adf41a5bfaed7baf31f6159e0527f8035a75d4692bd66df345d1ef648a698dbf2b21d56da56ea0afa6d8fcf6806d0615a00527fe6e379bcacfe5c44f1141aeb0adaa447a5b56cc2db9a60ada2ecfce1d5d6bd91615a20527f1a4b86decb32dab0fed63bcaddf4cf00bec56deef00df2fc057ec2fecc54c952615a40527f7f372eb771304aae5290f9aefcb1fcc7db8f5b336db3d28dc65bd5cb5d4c0cfe615a60527f898f7acaeea7516572fedb7d1dba0bfbac3acf87bba83dc4fafce4fbaf004baa615a80527f066544fdcc601fe5cc226a8cf47c52bbdccd44a3aae972dfd0cc9ce92aff8e51615aa0527fff60b2abca60a80d5bfaacec0d2cb1e2ba2ad8bdc4b71b0c5ff5b4becae765f6615ac0527f70d6d1369f88e1083cfece05c3dc5f43e6b4eac4ebca5c9297946ae2bfd8fba0615ae0527fc8abdbd7e1886be490a6cafc0b212baab7dd9bfce4f75a58bd6538c1e1fb464d615b00527f53a3dc2cd1ecaf83f53b3f36a4f0c4bbaeffba5662fd0bc30efe2f57d6be01a0615b20527fbb4c9c42f34a7bbea093fee60aeeac4f8bc967bf2f4dfa1ebee851bde9adb33b615b40527f4dddc74d7dbfa22ae9e61d08bcafdaf4887c6ea2275ddf03407bbacade15f287615b60527f350a789e4ccf4aaf937c0d6b8bca2cd3d5b5b1ff88f3cc57e12c4966f6fa3410615b80527ffc6fa12dbb8f30d6ebba2c57aabfeeb0f3b6ee79e9abc5bde44edd5b01b82fe2615ba0527ff4de202ed3725ea30420aee0a7ad22ffb1f68a9c37f19cc2c2fa6da43cdbf505615bc0527fa70260ef9fa4d5918eb9dbbe25f5debbbae9a73ce7f5a5dcedbc0a87def24c9b615be0527fb5f8cacb6851885f8d1c39ec8ed143fbbc9c50bfb5ee54beaafcfa48b56d2a3d615c00527fe32a4e3631a874a49b6fbc3791df59c67a96a43e4d5aa7e0ecfe61cc588b9ce6615c20527f5bac08a5f92ae4dc513b6feffdecccb3e18e71cc3cf5aafaec5cfb8ff8898a07615c40527fdaed86e46c888c9a2c9f389a50cf0b9827a30ecb8ca4ce0eaf31723781fd0cd2615c60527fd9991d6ac5b4b5bceaeb5972d4dfbd03ecde03dcf9e1790adfdb8ccc2f37d16f615c80527f9d19b7b2dabc6d6ea872ff43fe70cf0ec5ced1ef837ff2cd31942d6da00e7fe4615ca0527fff698ac9ec9fc6d4f49addee459ccd274a1d7af4f73ebdba790ddbedbdaad387615cc0527fcafa3e2fb13f8be5ce809a5aafddedc6fd406babcbcfb3d4cae9ee8e7acd19eb615ce0527fe6dbc07ee60aa8baca8aee0ce4dba7a157edd0d8cf6afcff75cd32f9ee4c0fab615d00527ffe740a20ab3c7cd7bf7bce02dd2fb9dbad51c03eca9a361610fbfa21bfb2cc8b615d20527fa9daeaef54e62adbe007d7c35aab5c917c441ce2140afcc15fefbedcbd7db4bf615d40527fa0250805ee3cc43b0b42be7914f6e2d7283baf10fb2dc57dfd5b3d7f3ab76c09615d60527fc8b36183771c318aa3ef8acffccedf6369cad8af87ce0aa84ff351ec4623ebcf615d80527fdc32896e10afacdebb2718331ac7ab87cf2f88d33af7cce97fb3bbecf0c7b199615da0527feddbaf7fef49b8bbaf30fc744eeed62fb5afe370f1e08bb5dfd9fd01a5ae7d1e615dc0527fb37d177eb7dfb5ab47b4ee07115f2320835c9e35cda8c41b4741abc6010ec334615de0527fa4a71c35dba6fde92ffad65cf375b9b0669fec7cedbfa0c5dcd4adef018a9cf6615e00527fb78aeef7ec0d18a41eddb3edafcce2e0b0d55deab8b96dd9db2e24cefcfcdbcb615e20527fff2d957dcfe74038813cfad6d58ffef7beab16850ad3ecafcb4b0a4ca4b0d3ae615e40527fe2d80ed325c30e46d676ad8cd4b71cd8ef66283b078ebf7949fd643ccfad4154615e60527f08aac8a0effcee3fdfabcb736a24af6f92dcffedfb56047adc7ac96d785e8d4d615e80527fa37f3467ad7a9d1ca9f1726e80c911caf4aaccb4defacfd5d2ebefa90dbaaf3c615ea0527f7ca7cbcacc3175e3615ba2f619292f418232d8dcf571d3c93efaec41e4e21ccf615ec0527f6fd86bf927fae8cafaed5dfcc6f55ea3f9fbd32d24271adf6db743d3dae9cffb615ee0527fcbda4edcfc71bea2ad4a3dfbaebaf8ea07d16beb12d6d6c0e5a51e62e5e6ba8c615f00527fd2baea6f8b7e0448bd7ccb6d3bb5f3a68938b1d5c00f3985957ba3a7b358aacd615f20527feeaaa0db145fe1d8bbcf89ae3bfcc33bfeb5067aaecee0bae72cf2422224f2fa615f40527f062d9e7a8b157ab40cd545e03bf5c1d5a6fcfc7b3beca7aef6bd0bdb9cbe8e2a615f60527fcededf1eea0eb1ec04bda726de489bd6c964c52cfbbd7f24bafff960b6ddbaaf615f80527f2fdd994e94767f5a1cc71efc9c8e93073fee3a20dca10f7e0488c4eee7ad41ae615fa0527f18c41d43483d5d247fcdd3b63ab0a5ee3b166359a7b51e85cbf1ded21aabfbeb615fc0527f1db16ac1c157666ebb23a668b1e1a70e2d05addfc7a392e0fedb18e4ae63d70a615fe0527fad59c3b4bbd35d31153ee0b0c540c2d9fad1ec09361adaee7ec0da27aa662137616000527fcbef5bcfc6380deeccb2f2ebef9e4af0ef92d149daba9a1dadbae9db6eee835d616020527fbab8dedceeadd3cd0c4dc6f8a6a21aad44feefb588a1a393c036d68c3842e9c6616040527fd86ef7f3bd6c1f02eae0dac7ad6e5a6bcbd4edce1eec6cbeaf9df51c304dbfed616060527f0ea13176f69cdca0ed6db8a1be6a0e94adffbbfab5aeed72f6f4fddcaac3df6d616080527f0befe2bddf3a30ff3e73fd0b0ebec7c8beecceb2a2a195f0cf187ebcdbfca53e6160a0527f4e23a7e91ba3582902c1496fc708e5ce27a15eced90a8e9d291e8d9b2af6aab66160c0527f5e5c03e8b2d1ff2d8bc48901a064a17cba6fae22cfe05dbb3641dc7ebac517da6160e0527f2a6a8dcc7baca6b4abbce8d725faf9cadee842be59598aa4b12b4c84ef95eb3b616100527f0cac40f5c98c20bb747fd60a1adce5d40cc0dc1b129f43f59558bc0ee3bd74cb616120527fdf2c2ecdd644b9b67eda59ca8424bafdffdc8d7da4493a15ceba8b77f8d3ba37616140527fc8f31be2de756f5fe954c5ead5d7aafa7ccd5cfacfabc7fcded2f37ec550fac2616160527f02330df5b8b0b3fe9facad990f0d4b8ef3eef1fe0f8c58fe40c13ef9ba9f4f85616180527f4f2781765b3a428cf26a1786dbbe2c0ea3e3cbc6fed0aaaa07bc97bb442ca4fb6161a0527fe31abb19ab34598b2acb7f1f5d0eb309265f6fc968e7bc1ee85f95cacf00afca6161c0527f1afbd9b5f2fb9a8fd9ac9c27bacbfdc34efcdad3edfc50d3e3a7eba2e6a03ff86161e0527fffe072adeaec3addcbbf9dc012ccf3fdb1987e156ceb8f79cea4ecc683eb4fff616200527f5c3a9bbbfd7da93a5b9f904fa0f8cc6c8f4eaad5ec3d9db7cc3bbf7b2c8c9f35616220527f7d4b81cfde387405c33ea1c8a1bbf8aa2b191d1f7a74b5c2a6faf13e2913ebcf616240527f4bcaa2ad3de1cee0cfbce3e81ef9f4bd3b56e6f5bb7a52ccd2cb0c43be65fd48616260527fcfdfcabaf0652aecdce7f29c48c8fb46f17eefc9af9dc5f2aa9ad77e62702cf9616280527fecaa6d282f4e7cf62dbedfdc547ecbacee33fe4116ca103afa3fbb8bfdd439fe6162a0527f2abe597d4605236e83f395e1afdac54c9f1c3e8cffeb5e4facfd29cecabb6ca86162c0527ffbc9609471aa9c8c22ebb7d5aeff179cba2d8e5d32defb01a5f3b47dde21daa86162e0527fa04c0c31e198c9d9baade36c62a0deedcdbcc8ddebbbbf63219ab5a98aea10c3616300527fabb3be9fdf26af0f9da3aeda77a181a6f7cc9be0b2ff7f08eed4feaab3fdbbfb616320527f3a6cd9fcc1acc3ea3600da68ffaee36b962c5af80c3fd69f8ebf56d6aede9c85616340527fc0dffb1cbccabe3f9bbcdee9bebceedaadebdc4bc5d5e7f6fbdc4578bfcbe341616360527fdd22295eaa2401b8bcf993cdba5b137ada3ed0cdd06f9b11e4295efcba96e5bd616380527f4fa4c5440abaebfdf2889272ac048ea3e21fa63ceac71fe9f84bb567aca68ca16163a0527f0ce0ae3ecce188ffeb4ebc06aae6ffe827cc5970f216fc4557ca6a173bbcf7816163c0527fa5abbd75eb9d2fc4fe2d69bbbb78da96ae61a604d9c831fda7150ada5bdaeba86163e0527faefc5d46dea3d1dbefe2ecb6c84ce2a8328074b176dcecf9c20b4b19ea41c05d616400527faf6bdc26fa6fb1e3cd5f1ada6f4e9686898eeb9cd025c6d5a89f6aea6a3fdb88616420527f5bcd570ad4f69c1681bbc8e4dc23c61bc7bf13bafcdbafbf70dbfd267c5cc62d616440527f4edfdf6d08baec99ee31af27c30b74bdbb0eec7fa2aaba6ec65eccc77e2f9e84616460527f2f858c913b2d05cf9a5ebb53f304df1aac408d4ff8a08a5caa1fcbc966ebc210616480527fdbabbcb666fc3ebb62364ddc2a6dbd06e7bc1df5578fae5d57ea1e7fab5cc9ba6164a0527f79dd4af95ccdcb37ebc62fee2eafac0ae8bfdb3cc70db2d3f1a82bedc6f2c0ee6164c0527ff2dfd239a49bb5ae852eb975cadefdddd998cdcdd77d7a05bb50bd52aea6aabc6164e0527f4baad6cbc7b5eb6ecfa55555341331fafafa0abba152e8ce9bcd7689ba535fca616500527f164a4ee69abdfa97e79f585d1ccdace9b50b49bd538e06d07faae8cbbf40f0c8616520527fb2ea48943ebef84decfa0dd8e261cbed6daaa7e5fc52ef12df9993acf17cfa9c616540527fb1a5cd1165c416ca287fc2fc46f1c42ece2d57cf1acd7ddce9d3aec34e3fe5cd616560527f5c12fa86adaf73fcc2fd5e7b18aeac56804840e3e83e5f05ceb1abf23fcb80bd616580527fe020178e106cbe3bf1dcd5a5475a93d3b8a9ffb7d99637f820f6fb1be65df1056165a0527fecd13ad266dbbd3224dfb260c2c8dd93765e33e0ede14ed0b7af47cbee9b2eea6165c0527fec2d899cb8ccd2526f0fa2e602bda21f5ab48126591daaed34a2bdd82cbfd99d6165e0527fe9eb4ff7704ebedc7fcbceb6eccacebdd31ebd84c9b3b9badd61daba8dbda1e2616600527fe79a2ebdc153bea2dcababcfe62d0ecfd116b62fdcbf0f6cd9cdfbfd1ffdec4c616620527ff75ba414a96bcba486a2a54fb2ef6b02b0cc566f2f12bfa0dcf448a0b7036bef616640527feb5c8e0dfa87adcfbf89f8ed5ca2d6bc4e1e7dff4ab4f12aeacbff4abfe61f7f616660527f85f2814596d3ecd6e57b7130794f852e5fce0a442fff46e5f70ac346e607a83f616680527fcc4cfc3d1bacfb6ba56e001ef5de3c2cc6c5fbc680a2ea79bfccfafc38ac2cdb6166a0527fb8f2e1ae68dfe3d337a4acbcbb950430a0a5dfca2137f99f5ce5dfaf10f1746a6166c0527f76ab9c90b3cf96a07c6cfddff58f8adaa79ee93d682ba80082f69ccb19c4e4ee6166e0527fda0ee4e878cacdca2b208a8dfbb6b1942f5df9ca896713acfe6bf7bfadbba38e616700527fcfeb6135bb873ae8aaeaa7dbaf87e59dfecb05d8163acaddb7a1d8ebe9a3bcf5616720527fd2b8ce6ece4f3c6fba6f630ed4d94f0f05f4598f5b3f9e751ffed8e3b07aaddf616740527fca820cfaa37e6cdcf68ee1c35b53f27fceabfee5fccf63cb5e522c06901f94aa616760527fc5e8c4a60fee6ed7692c7cb5eed4fc7b5b8cbdcccacdf1ceba83c7effa59bdee616780527f0cd87f1e92c2cb9d6cc81e3970d429ec2cb8dc3a3efefffc4c4e8cf5ff6b9e686167a0527fa4f042fc98c08cecabe4ce35d24badab2e1a63da89be1361c3956cfcaf649f676167c0527f1ecda5c5c03c29bbb8ddfaeb3a1ed9c21246835a10bd11fed7acbbb0a588ec4b6167e0527fc0fba426c115abaf47f95ed2bdf8eba2e026fe83cdbceb7cf228c0ccbcbc6bf1616800527fcdeaeb74ce009dda8bd8f94fef4bdbc7abcadb6ffa225a612c12236cf8f793f5616820527f85eaec4baa2a46ae6b54aede15e65daee020b5af364dd2a7f9bb0c638e4802e9616840527fce6bfef962dbf09b8c31c8ba27c0c3462eeb9d176be8e54e1b48b6b60b2df29a616860527f80c7dce3b35f8452c173f6791c0df691f6b5fb9a3fef30debaedf711531ea941616880527fccd42d0af39dfbbadbcef3acae7c160cb23b0cb9acae23753d6c79531af9c7af6168a0527fcb7ade6de23db683f1b774ca605ddea2bf4fc7dca18ea9e1fcb24beee85b5bcc6168c0527f6c6e157bdc9ab92a8d0ceb7cbfced2c67b0c1dae4ae2f4b5adebfa7a905f2e2c6168e0527fa9cd8db18bdca2c3b5d25c66c1e67fef9f7cb9feaee37a1ecab4ba79ccbaef2e616900527ffbfc47bd7156d8a0b874bf6f682bca75cb932a89b6b3f98d461c9822c8b4dcef616920527fa42fe83dd96186f9c1608b937155b6bcefdbb87b6edefcfdaa136dc9defb7367616940527f08bcf87dcbc0bbd038196fb3d5d3bee8fa9447f3eecd0885c9a5ab08e8eef3c7616960527f344e17daa70d9c0ec4fac33b1a38f9f2ee651ba92b2f09cbecaf34861da68aca616980527fa0c6f09a314f0edbb748b8e1bceba97bbe2cbce54d9ee8ac5d67e49100b8b2e66169a0527f0eebdf4675aaf4567d86c449a0c6fadeabefc33a8b10d55fdd1defca9e8a7d6f6169c0527fbeb969e22dfae30de1e6ac0fd2dece790cc67e56ad942aeeaeb718d7b6c7a6ba6169e0527fa6c79a9fd4cacbd6728eaace0a2fddc72def73d67ec4eedad8d1adbbbedadbba616a00527fdad0ec7864ff9618450bc76e820f17a5f90b6f91cae78a0daa69517eda4db6dc616a20527fddd01158b2bdf89e1c5c98323ad760b1d0e91ee39c34f7cbed926fb03aaf44db616a40527fa8983b6aebeccecd63573e5bb9f005bb3eceb72f826365f6fc0f9cfe7fe82eb8616a60527f843bf4c37601cd003dab6d357feeffbadd8ffdafbbd2616daa39aabf222b85d5616a80527fed90482cdade774d6b0e02b2beed638b29eadebcf9d0e97cba6ae46472ace233616aa0527fed1910bbdbeadcb874b8be19ea9e250645ccf9faccbabf76eccf10f5ce889ece616ac0527fe5adbeb31dade6ffde416a9387d5324bfaa76db6b4e5eeb5cb28ad4587da1ddc616ae0527f393bd8ae38ba42bb4103fea1d4c94d16bf73ec67516a63acde9f664650c4b584616b00527ffde8cc3d36bfdf6b39cb7ea1feeab616f0a31e71ad0efafca18de4e01a49d3b1616b20527ffe063ed2d688ada697ac6a9b625224cd89ea2fe582cddebd6e41bfee0cdc8ede616b40527f532eca855deb8c4b9bfaebe11e1cdab65fb61da8e0820e7adbdd23fca6a6633c616b60527f76632cd1dfd2dd9e1aa1cfffea56403fccf9cb4cf57cead5669a62ccb702c0e9616b80527f7426fd5e6d9413bfcb6f1cc1ed61b51e9e4d89efe7b585f87e9a36c5c6e6028f616ba0527fdacbc0e2db09cec7f564fb5cc1ec32a33090c307af7bddfdf6e35c3b6aabf3e6616bc0527f7eefaa4ca5ffddcb2e81eb5fc0abaeac3e7bf51a2fc5b0f34c6eef1e2419dfc3616be0527fd373b0b8e5cebabda38c4ddc7bc8227ef55adff32eba30fca9b5b0396e7e91f0616c00527fab0ffea5a6e9187e1be3ca39f245cceb087b3b7d5701db5faaac66b8db67bdff616c20527fef2d597b94d5d08813a46775e8af217a13ea3cdcd03ac8ce2eba73a6e6af8d67616c40527fdfc10a44aeea0f7f2a267ceb498f0cecbbbb8b79d212a9edb87767dabdafcd24616c60527ffb69a0b48a0e0f24f1a1fc1658877b1aeddbc8e9efae635ede1d836cd7ce5ea9616c80527fd2f3b7c5dd3218a02ed6edde3d729e1b497d905eeeb2e36cc8afcf6c1ebbbccf616ca0527fc9feb7beb2d0a1ab8fd7aeedacfd25a6b4ca0bc16da55eb08efe7b7fe68d9db9616cc0527f72db5a6adaea4ac3b265ed83a805cdefd9cc619cfcc0b5136c469fcadc8acab2616ce0527fa8dd85637756a65eb0ac77b5ea6ed45cba05ecda1dfa0a77acf6dcaa98cbbcbd616d00527fece9aff69fe6eba778da5985de8baf5caaac144c3ba9e7fe41c081bbcf90a9fe616d20527f014b48eada3daa6b5e652cd50620ddbcc29fbd5e19ce9d9aaa3dd6007d36aa1d616d40527f1e3ae371cbdaffa8b57c1cd41bf54fd9bfad66ccc66ddaaa9a837f6e08ce6c76616d60527ff5dfd1c504dc1f65af4f46b7c95cc2efa35f19be6edba0f90e815fdabb7d62a4616d80527fb6cbcfcf7da0ca47acbdbafbd97ab3bfbadfee4a6a3859f5d4ba1efd2c7b4341616da0527fcbbfb5ffd8d3d03ffd452ea0f81b01cff3aa8cd0dace00ea2c1b34eb1cee27a9616dc0527fff1a6cdfb10bad4d1b7b2bdce50ffde47c49e13dc34bccdc9780156ef412c4a6616de0527ff1ab2bedbd82b20823c9afbc1e4d6cdeddab4a3923a609b1bcf7e11e0f54ee5e616e00527fe73af5efd7aff4034ea2445baefbeae781546cd12c0e4956a63a901eac4cb462616e20527f8b97b6ce96cbb8aeecdbb7e47e9dc1c2c7ccd9eefdcd8ced6f5cc79b6f577bf9616e40527fbc0bd394f8dcfbe695931f875d55ff15e325ed39631d843ce30decc115387e94616e60527ff90a361db7df11b55893fab892fd2dee4afc4ddc57c2abcfc79a4aa09a25f213616e80527fd8daaa35c61f95b2baf32b8cb5f6966ec6ae35bc55fcae7cadad67ffd90ca8ac616ea0527fdebf5ee4b8f2232b6df6a4beecb4bd8dffd0be7e24fab01aca507bcfead3aa9d616ec0527f2b1aa9d78c485c7e6f0f4378f3db8a0bf69f6ac03267bae782ce21a8ee4cea8c616ee0527fe5aeac0f511a3d7ce1db8e54bfcbf1a76debcd31108fa3a80e9c6eacfa2aacad616f00527ff1a9fdabe7fd21bfa1dbeabefb9d6a4b9c1a54fe46d6d34a53cfff1f3d1df5ef616f20527f3f72ee8c9326a8fdaccccddbeabd4fed90e9cb72fe44a6ede1545c3cfd3a4fb6616f40527fbca7baff6bd3e7947b6c5ba1d434addb8f0b3bff52e46c3c74ab7d7dafdb5e0a616f60527fd148a7d407e5facd6bdd9f761b3dfd66c030dad2be03118bbe5bcf3bf57b6fcd616f80527fafd57bcacbebed2caad6a0d1dddfb745f8fcedabee6cb1bba0eecfa9b27be095616fa0527f88c76cbb6f0ae9feddd1ca5d8cfebed5fef98228aa6ed6bec756aa6adf37dbbb616fc0527f2bde5ecc1df5b50b9cd30cface687d3cc18330f3916cedf03f3f245d2810ee5f616fe0527fe0b4cb8c114329dc91e0a82eeb21ec8debb15bbb8de56a471a119005904feb0c617000527f3d3cd9d8d8bda211da43c94a4562364b08d32a6dcc8469d57c6b2a71ac7aa3f6617020527fcdbf1b3dffa2efdaaf3424ecdfee1dcbca647eabbc690caec6f8ca3fe5ea3832617040527fbe3b3c749d5b0f75e470dc44ca25e17a487797cba3ccfabe6fe0bbbeed1c2880617060527f11ece3eb78bfed3a358355aac4fbfff2ce7cadaceaddb2eff4f2063a74dc7bd2617080527f6a2bd2d3ebd5c8db03d91e7e865a417ddf778470dabcd12fdb82cfcfed7d9a1c6170a0527f7d7ac6b83b1d4ecc5e71bab9accfefa4098bb7db6e0af52af5bfddba3badc2566170c0527f4b0afaecbece16ef762cd7a21df6a56eee7ff5130f9db297d2418cf970dddbd56170e0527f8dabedace64d9ebd667c563dabea9c16cc2f1df9b575f10f56eec37aefe681a5617100527f294acd9993da4c6f6cddde84db32cf5dc5ab67efe5ed7dadfbc90cf63821e1ab617120527fcc3defaa47c0eccbff4adc40f3ccffefe45411e012f57d9cad93ef80e91fde1f617140527ff6fdcabc7db9f492cc2c17e426094dd449ae322fdfddd4ffddc2db5273135db1617160527f980dd756ea067ad1a0ccfecd350a5120befc151b301cab80df557fbac2fea5fd617180527f648a9beebdb5a03f9a30cbf0bc2a92fced53be8e4dba7bacd1d54d08df77bc926171a0527fed286e65fcc6ea4792d9fe3e3b1a155e66ecf3fc41fd5e6bfe11776bbcfefcf86171c0527fdebbedabcbf8f8df9bd526fbdd3b3b89ef2ba9c9c68fd7fbb7782fc3beacfdbe6171e0527f42b3ed4cf5709f880eaba723f1ebe1169172cefbeec85ff4f8778cc86fb3d9a1617200527fff50e9bd1bcf2c05eac480b28f8a0afd10787f45703df6a84ea8ea991f51d86d617220527fbb91fb000e47ead6d1b6cdc2fbeaacb36bb217cc49f1dc6cdafebf3a6ccb9a1a617240527fe0189bb7bb1fe06830d180c2fa9756599b9b0eaa09ad2cfdcd3c1df711f66eb2617260527f31abd3d45abc2e7733a30cd52ebb65dd0ad4fe2fd9fb011fe41c7e99eb5d9af1617280527f9cf3f1b1bbadecd6fcaa1b00b5e4e83aa5773edccf1e6a6e6cec9a1acbe4da1b6172a0527fb93fbc4cbcffd10dbc7fbdd8c257fd70deba3abad9a3cb31c2bdcf806ccb8dcb6172c0527fd0dabcceddbffbdae690effccc8415b23ec1a0fe89bdd6b6c99dd5e22c8ae9c26172e0527f4be404b6fa85a929feaea6f4cffeb763dc5dd88cbffaf6fcaa1c61fd1debbdba617300527fb2c1acbe1cdabc9e658114cbb9c84f2cf7f102baabf5684f5c1cbd5838efccaf617320527f8c88f734e1b49df4c7e25be16e92dbf276f61e211cbbdd6221ef823e51fa45cb617340527fada9c6cee02e27abeaa648e61ce3847bceae5fd960770d7caee3dfea90be0f61617360527f5a34e141e0c9f3b95ff505ec38c3dc8ca4d6ca35ff1692c92ab0303a6e36fd27617380527f4efb6647bff3bd6738efffe3d85bccc3c82dffff94daabbfee92e2f98ebba9da6173a0527f5bede6b39b8d8b0abc9709dff20059bf78fe57cbb9785ac7dcdd5efac295e72a6173c0527ffdfe49c6a0aa842f358b812fedee3dadb94bea5c3d8f1e4abea16a7f9fa7d39d6173e0527fae4ddcfcba758efee14d6fcadbbea8ba64bde96fee8fccdadff9f8ac5ca19add617400527fffff1bb7dcbbabcff4ca7a5ff4fab0eb781cc292eef9f4d356c8d4a29ebb261f617420527feed61eaa041adeeafe5bf40593788c14acc78e975d4ab4b88caaeac2de3f287b617440527f9ce5ccdb7ca47bac9317aaebdc7bf64c6fed69803cdcffeca0f6b65b113dfc6d617460527fdf518d8bf9abea3eb90ae0ebb8bd74e0c83b4e3ff38fdd1add31adaebd99a17f617480527fdae5c879cf25fc8474f7881da91b1e8f11b5f79805fda5fa243ffd3e62c635566174a0527f36096f302b9f4e7be397b7cc33904fda84ba9795236c6240e9e0cffcc0fab3a66174c0527fef5a48cc7fce6eae5378aa8ba884f5dcf60ccf2ae0baed860ba992bd646e3ddb6174e0527fbdccdcdf06cc4cd7a2beab1d49b2ab1edb6b01e1b3d89bfeb784726deb0eb92c617500527f3c174ba6f9c64cab45962fe09e5c5a60df28a3d1cb46a2f11b498698349ca011617520527fdfdc737ed380872f8ccae4fafe8a70ee82ceaabb96f9ba10afdeaca2c19c9aff617540527fb6ccd22dafcea992e69d0db0195c0f5c22cecb0b7acbea5aafcd114a11be7aaf617560527f6fa74a9c2bfda7df46345ef0fcfbcea034818d0ec2ad863ced7e6a17d49d05e8617580527faffbba24e3bfe9d1b9a0a7555c430e3af82bfe76b0fd8120a90984b18849a85e6175a0527fc2b4aad1e3d1d5121715cddd03325ced4d53a086f8850992e3a529116ddb4ecd6175c0527fe824fef313b92016176eee0a0c847fd759cf2964cb881ba1a0f2cc4caeac9fd66175e0527fafd3d508fb02ea441df83aadedbafde6fd6cedb10250e3de30d3fdfad76fbdcc617600527f887d6e5c73c3a0239d75eb37aa0edfa5c621afd0af7af42ffab0d3bd6eb6b031617620527fde4a57f8d8833dcbca1e9f1da2a3fc5accba2225a4a3dbee78c3da4f3ed2eb07617640527fe917b51e446911c6fb36cc6cdedaece2fd15446349296daa7bfb9adefd14de2e617660527f9e9d4d1bbb8fddea69ccb128e0db86e98a91c6e875c3ec9faf0bdd2a08d5128d617680527ffe6d44eed7afa75ee8ccca3fac2bd78e08a3ef3f1e1b5f39a6c0eab9b2b8c00f6176a0527f740f2dd3ebdacd971a9340ce1e6dacafbcfdf4fd7a860c99e363efd5b4f4d48a6176c0527fcead810accad9fcf22cad0efe57ceaf9738eb2ddee3b3c9b612987be5b5cada76176e0527f63781d3604aade0d27e33a3ad1f8ce97e3eee1bf524c43dde1d25dedfdcebba1617700527f1d8d6a1fcd537aceff24972dcbf82eaadbcdfc0baf2f5bdc0bce8da0f63e0dd4617720527f8ca14c5c51b6db318d01d6e07dcdf06affb1905c43fa3aa39a6b2a3a7a14cf4b617740527f59e4e98ce90ef8ff38fbb3591eb0fdb2c6ac02a35c0ff86d8787d808be210552617760527f5d32d1c2afe04bf3fe54cb8247ff21a3e63df4edfeea516a16a269ebf6b2a1bc617780527f5cb3af1cc5d82f4d4b208cbaf330a7eb9d9f8632da22cd3604dadfabfb855f176177a0527f2efb00dc7aedfcda31c2e82a2bfc0ebcaf4d5a0587ab647f9e0fd3c7cc4a5ccd6177c0527fc87bcf3c0ed382fb296aeae0ade7fd0e37cbb8eba3c4689cc86a65ddbaa17c3c6177e0527fae97d39d33e6f8db0cfcb4a820b808cd9ed56c08af9ebfddababcd3c59de7f77617800527f0530c29a58ff567bb4445e8b35d575cc921ba3efa9b2bd762c41e5e6c7abd733617820527fcaa23dc210f93fe804a33dff23fb64ba3fb4cea931ad039d195e3278ebc810e8617840527fe93b1fc86d75af04ef1849b3cf658b5db0aedca357509e56ebbe677d762ff860617860527f8429423e8df6ab8d9b0bbfd8fdc5fe5b343fa52bdfa5c57cd74cd452ccca013c617880527f2694947bcaeebbb4f24f47e9aa8bde3d195e7debfaaf61caa35ad29fef5c9a0f6178a0527f82ba4ddcb46ee14dab3fcba8bb309ed0ba65fe2dc6f56a8dad544f9cddc04f9b6178c0527fbc9ee0384ac1030eed6cee2ecaaee0f8d829ffecdfe384787e79d0cedd1fb50b6178e0527fb2c5c0c07abdead2ec7fda2acee1b591adeffadc4c41a8aedf492b7460ae4633617900527fa17bca1e798f7feeb7e4aae4cf6a369b0d4e9ebeeb82d7dbc10acbb36777aa94617920527fc0153b3e9aff7b72a110db730c4eceb23ab1a506adde2a619ddee0ddd8c00c3f617940527f32df55d85fb9be5519abc8b82662b715deabb97fee95bfbd168fb6dabb43c8ed617960527fdfca682ec36ffc92c8cbe20ea1c8be49f54a807d9e293271eddf4db41dbdd3f5617980527f4e9bd9d491669daba510f0d8f1ff83cb450db40f362e1abb62ca6a1f1fcf2dab6179a0527fbbb562acda878903b2caef71243cd359fdaf5adeac92fafd77ef1d9b1eca79036179c0527fa9cce50a7f29ef949f469b3d2f8fdce90aad7eddefb7ed1d8a755feedbea438d6179e0527faaae9dc319f2bdf8dfbbfa9fd6531749f5f54989f1a95b3a9b33fa6f571c6c0c617a00527f3a0510af9dee01015b2ae4c8186ac014cadbc39fe2072eb9d7c292cc89ec47fe617a20527f0c8887046c0ef6bfafd3bfd6639e327e4c6d835e6d9dd98fba3febf4e7242d1a617a40527fd4c8a05607aaba459be2629ac2c7abbd41c5a4ece5713af8493d42aa38edc44e617a60527f986517ba91d903cefab1bf9881309e02517f771bcc1ea52c9fbbbcd07cbe4c30617a80527f0ff069ace82a6aa9efad48010103c82f5c81058ea0525ae0be14d4ffee6c5f86617aa0527f2379be548a5e45067e022ecfc5ac036328a2da3d9e3c002b56a0fcd04b5bd965617ac0527f96b9bebedf06acdd02d493b1a9d8fe952ece2da2d3adac8eaee7b3309c00ecaa617ae0527fcc11b4bdd47d38af6624aa35efa6d9fd37930e924a4dc56ca33e286cac8cd36b617b00527f7b81d3ac235a4e16bccc5d69e4d59a54ee9dd186a590b8ec73afcdab9c8d879a617b20527f4ea5cbcb75a180ddf5adc9d4b132edafbadf0f1bcea2843118fbd8ef44ccdc3b617b40527f0a2864ac42ad487ef8df240cb105bbce2e122a6bceda3cfc7eeadc77bbefa060617b60527fe79da8e75ef5bf6c7aeafafafd0e2efaf2eb573ee38f5dfa5c8cbafbf15b7653617b80527f3e6fb78f3cc16e3ba1fcddc494a108effe54fa3e57971efb99cdc51b2a872eaf617ba0527f3967da71dabfb9fdce9d39e2e2ad8f3deb510b668cbdaaeeca701bc2feeda7a6617bc0527f0566aa0dfcecdaec07ed2bba5acebf678f8cf6a9d28f5bbbf2fbb67cd210a6d6617be0527f9afee60eb2c5c2c9bd9bf9b2f5eceeef13a4cceca9edabc9b4d1eaf9e1d6ae67617c00527fbb93d9a8cdadea18cbc58eb5bbda8a78eef5c20dccb0cdc9bdd6ebe1aedee6ba617c20527fecbf1c40bb3fbeb5ddec56dadb82abda0044d5dfae9aed13dad1f851b6ad52f8617c40527f15f8ddeecad8262723cd5f3dc530e15c7cbdf0d08ead23d5fa3eeb274c5d0374617c60527fe14df98b1662e91f55df4e890d61dea14af1a8b4b6ea1afb80c3ca228e2f393d617c80527fc2ccbbe70bedc9303ce9d73d4efe9eeca4d39659698052b53bab793bfb45e1b4617ca0527f1a3c0cc6eb04004bfd578a0f9b58f8fe6de1abf007f41f42b6fb5acc33eabfa5617cc0527fec7a93ac033e8a3dd61ac6d1d7ffb1add6f7dce7383c8addd2a792e0f4b6ad6b617ce0527fca3f4a0381a31b99dbabc14cf2c256edfdfcef6987779b706669a0c9cbcafdeb617d00527ff908c2cdda99db42cafafa3ecfbc18cd3142e0b367ec4da5ce475f9123e7142a617d20527f29f43b0cfdeba706a9ce303174bd6dab7e76e2a1ece5e2a3aeefeca645fb0ff2617d40527f67babfdf3cfa1fbe6f47e4ee9de9caca7cdffda8f4ac9d4dc1f142dffaf94ea5617d605260019050919050565b5f5ffd5b5f819050919050565b619100816190ee565b811461910a575f5ffd5b50565b5f8135905061911b816190f7565b92915050565b5f60208284031215619136576191356190ea565b5b5f6191438482850161910d565b91505092915050565b619155816190ee565b82525050565b5f60208201905061916e5f83018461914c565b9291505056fea2646970667358221220f77377bbb796d396b7b1fd5ae5b3470c829093bbf2c6ee8755428d583627e5d664736f6c634300081e0033","linkReferences":{}},"methodIdentifiers":{"Benchmark(uint256)":"239b51bf"},"id":0}