{"abi":[{"type":"function","name":"Benchmark","inputs":[{"name":"amount","type":"uint256","internalType":"uint256"}],"outputs":[{"name":"result","type":"uint8","internalType":"uint8"}],"stateMutability":"nonpayable"},{"type":"function","name":"numbers","inputs":[{"name":"","type":"uint256","internalType":"uint256"}],"outputs":[{"name":"","type":"uint256","internalType":"uint256"}],"stateMutability":"view"}],"bytecode":{"object":"0x6080604052348015600e575f5ffd5b5061055b8061001c5f395ff3fe608060405234801561000f575f5ffd5b5060043610610034575f3560e01c8063239b51bf14610038578063d39fa23314610068575b5f5ffd5b610052600480360381019061004d9190610325565b610098565b60405161005f919061036b565b60405180910390f35b610082600480360381019061007d9190610325565b6102cf565b60405161008f9190610393565b60405180910390f35b5f5f5f90505b82811015610110575f60644244846040516020016100be939291906103cc565b604051602081830303815290604052805190602001205f1c6100e09190610435565b908060018154018082558091505060019003905f5260205f20015f9091909190915055808060010191505061009e565b505f5f8054905090505f5f90505b60018261012b9190610492565b811015610250575f5f90505b600182846101459190610492565b61014f9190610492565b811015610242575f60018261016491906104c5565b81548110610175576101746104f8565b5b905f5260205f2001545f8281548110610191576101906104f8565b5b905f5260205f2001541115610235575f6001826101ae91906104c5565b815481106101bf576101be6104f8565b5b905f5260205f2001545f82815481106101db576101da6104f8565b5b905f5260205f2001545f83815481106101f7576101f66104f8565b5b905f5260205f20015f5f60018661020e91906104c5565b8154811061021f5761021e6104f8565b5b905f5260205f20015f8491905055839190505550505b8080600101915050610137565b50808060010191505061011e565b505f5f90505b6001826102639190610492565b8110156102c5575f60018261027891906104c5565b81548110610289576102886104f8565b5b905f5260205f2001545f82815481106102a5576102a46104f8565b5b905f5260205f20015411156102b8575f5ffd5b8080600101915050610256565b505f915050919050565b5f81815481106102dd575f80fd5b905f5260205f20015f915090505481565b5f5ffd5b5f819050919050565b610304816102f2565b811461030e575f5ffd5b50565b5f8135905061031f816102fb565b92915050565b5f6020828403121561033a576103396102ee565b5b5f61034784828501610311565b91505092915050565b5f60ff82169050919050565b61036581610350565b82525050565b5f60208201905061037e5f83018461035c565b92915050565b61038d816102f2565b82525050565b5f6020820190506103a65f830184610384565b92915050565b5f819050919050565b6103c66103c1826102f2565b6103ac565b82525050565b5f6103d782866103b5565b6020820191506103e782856103b5565b6020820191506103f782846103b5565b602082019150819050949350505050565b7f4e487b71000000000000000000000000000000000000000000000000000000005f52601260045260245ffd5b5f61043f826102f2565b915061044a836102f2565b92508261045a57610459610408565b5b828206905092915050565b7f4e487b71000000000000000000000000000000000000000000000000000000005f52601160045260245ffd5b5f61049c826102f2565b91506104a7836102f2565b92508282039050818111156104bf576104be610465565b5b92915050565b5f6104cf826102f2565b91506104da836102f2565b92508282019050808211156104f2576104f1610465565b5b92915050565b7f4e487b71000000000000000000000000000000000000000000000000000000005f52603260045260245ffdfea26469706673582212205e08c1ceb9468bd82ced6197d7f7bfc55afae0b7a1a688a67946c556d68f283c64736f6c634300081e0033","linkReferences":{}},"methodIdentifiers":{"Benchmark(uint256)":"239b51bf","numbers(uint256)":"d39fa233"},"id":0}