{"abi":[{"type":"function","name":"Benchmark","inputs":[],"outputs":[],"stateMutability":"pure"}],"bytecode":{"object":"0x6080604052348015600e575f5ffd5b5060e88061001b5f395ff3fe6080604052348015600e575f5ffd5b50600436106026575f3560e01c806330627b7c14602a575b5f5ffd5b60306032565b005b5f5f90505b614e2081101560725780604051602001604f9190609a565b604051602081830303815290604052805190602001205080806001019150506037565b50565b5f819050919050565b5f819050919050565b60946090826075565b607e565b82525050565b5f60a382846087565b6020820191508190509291505056fea2646970667358221220d258461799e16c9aef79b32f322a8aa1e67d68e75d13e0bdae62f17e425fbcce64736f6c634300081e0033","linkReferences":{}},"methodIdentifiers":{"Benchmark()":"30627b7c"},"id":0}