{"abi":[{"type":"constructor","inputs":[],"stateMutability":"nonpayable"},{"type":"function","name":"Benchmark","inputs":[{"name":"n","type":"uint256","internalType":"uint256"}],"outputs":[{"name":"result","type":"uint256","internalType":"uint256"}],"stateMutability":"nonpayable"},{"type":"function","name":"allowance","inputs":[{"name":"owner","type":"address","internalType":"address"},{"name":"spender","type":"address","internalType":"address"}],"outputs":[{"name":"","type":"uint256","internalType":"uint256"}],"stateMutability":"view"},{"type":"function","name":"approve","inputs":[{"name":"spender","type":"address","internalType":"address"},{"name":"amount","type":"uint256","internalType":"uint256"}],"outputs":[{"name":"","type":"bool","internalType":"bool"}],"stateMutability":"nonpayable"},{"type":"function","name":"balanceOf","inputs":[{"name":"account","type":"address","internalType":"address"}],"outputs":[{"name":"","type":"uint256","internalType":"uint256"}],"stateMutability":"view"},{"type":"function","name":"decimals","inputs":[],"outputs":[{"name":"","type":"uint8","internalType":"uint8"}],"stateMutability":"view"},{"type":"function","name":"decreaseAllowance","inputs":[{"name":"spender","type":"address","internalType":"address"},{"name":"subtractedValue","type":"uint256","internalType":"uint256"}],"outputs":[{"name":"","type":"bool","internalType":"bool"}],"stateMutability":"nonpayable"},{"type":"function","name":"increaseAllowance","inputs":[{"name":"spender","type":"address","internalType":"address"},{"name":"addedValue","type":"uint256","internalType":"uint256"}],"outputs":[{"name":"","type":"bool","internalType":"bool"}],"stateMutability":"nonpayable"},{"type":"function","name":"name","inputs":[],"outputs":[{"name":"","type":"string","internalType":"string"}],"stateMutability":"view"},{"type":"function","name":"symbol","inputs":[],"outputs":[{"name":"","type":"string","internalType":"string"}],"stateMutability":"view"},{"type":"function","name":"totalSupply","inputs":[],"outputs":[{"name":"","type":"uint256","internalType":"uint256"}],"stateMutability":"view"},{"type":"function","name":"transfer","inputs":[{"name":"to","type":"address","internalType":"address"},{"name":"amount","type":"uint256","internalType":"uint256"}],"outputs":[{"name":"","type":"bool","internalType":"bool"}],"stateMutability":"nonpayable"},{"type":"function","name":"transferFrom","inputs":[{"name":"from","type":"address","internalType":"address"},{"name":"to","type":"address","internalType":"address"},{"name":"amount","type":"uint256","internalType":"uint256"}],"outputs":[{"name":"","type":"bool","internalType":"bool"}],"stateMutability":"nonpayable"},{"type":"event","name":"Approval","inputs":[{"name":"owner","type":"address","indexed":true,"internalType":"address"},{"name":"spender","type":"address","indexed":true,"internalType":"address"},{"name":"value","type":"uint256","indexed":false,"internalType":"uint256"}],"anonymous":false},{"type":"event","name":"Transfer","inputs":[{"name":"from","type":"address","indexed":true,"internalType":"address"},{"name":"to","type":"address","indexed":true,"internalType":"address"},{"name":"value","type":"uint256","indexed":false,"internalType":"uint256"}],"anonymous":false}],"bytecode":{"object":"0x608060405234801561000f575f5ffd5b506040518060400160405280600e81526020017f45524332305f5472616e736665720000000000000000000000000000000000008152506040518060400160405280600c81526020017f4532305f5452414e534645520000000000000000000000000000000000000000815250816003908161008b91906102e0565b50806004908161009b91906102e0565b5050506103af565b5f81519050919050565b7f4e487b71000000000000000000000000000000000000000000000000000000005f52604160045260245ffd5b7f4e487b71000000000000000000000000000000000000000000000000000000005f52602260045260245ffd5b5f600282049050600182168061011e57607f821691505b602082108103610131576101306100da565b5b50919050565b5f819050815f5260205f209050919050565b5f6020601f8301049050919050565b5f82821b905092915050565b5f600883026101937fffffffffffffffffffffffffffffffffffffffffffffffffffffffffffffffff82610158565b61019d8683610158565b95508019841693508086168417925050509392505050565b5f819050919050565b5f819050919050565b5f6101e16101dc6101d7846101b5565b6101be565b6101b5565b9050919050565b5f819050919050565b6101fa836101c7565b61020e610206826101e8565b848454610164565b825550505050565b5f5f905090565b610225610216565b6102308184846101f1565b505050565b5b81811015610253576102485f8261021d565b600181019050610236565b5050565b601f8211156102985761026981610137565b61027284610149565b81016020851015610281578190505b61029561028d85610149565b830182610235565b50505b505050565b5f82821c905092915050565b5f6102b85f198460080261029d565b1980831691505092915050565b5f6102d083836102a9565b9150826002028217905092915050565b6102e9826100a3565b67ffffffffffffffff811115610302576103016100ad565b5b61030c8254610107565b610317828285610257565b5f60209050601f831160018114610348575f8415610336578287015190505b61034085826102c5565b8655506103a7565b601f19841661035686610137565b5f5b8281101561037d57848901518255600182019150602085019450602081019050610358565b8683101561039a5784890151610396601f8916826102a9565b8355505b6001600288020188555050505b505050505050565b611600806103bc5f395ff3fe608060405234801561000f575f5ffd5b50600436106100b2575f3560e01c8063395093511161006f57806339509351146101a057806370a08231146101d057806395d89b4114610200578063a457c2d71461021e578063a9059cbb1461024e578063dd62ed3e1461027e576100b2565b806306fdde03146100b6578063095ea7b3146100d457806318160ddd14610104578063239b51bf1461012257806323b872dd14610152578063313ce56714610182575b5f5ffd5b6100be6102ae565b6040516100cb9190610ccd565b60405180910390f35b6100ee60048036038101906100e99190610d7e565b61033e565b6040516100fb9190610dd6565b60405180910390f35b61010c610360565b6040516101199190610dfe565b60405180910390f35b61013c60048036038101906101379190610e17565b610369565b6040516101499190610dfe565b60405180910390f35b61016c60048036038101906101679190610e42565b6103ea565b6040516101799190610dd6565b60405180910390f35b61018a610418565b6040516101979190610ead565b60405180910390f35b6101ba60048036038101906101b59190610d7e565b610420565b6040516101c79190610dd6565b60405180910390f35b6101ea60048036038101906101e59190610ec6565b610456565b6040516101f79190610dfe565b60405180910390f35b61020861049b565b6040516102159190610ccd565b60405180910390f35b61023860048036038101906102339190610d7e565b61052b565b6040516102459190610dd6565b60405180910390f35b61026860048036038101906102639190610d7e565b6105a0565b6040516102759190610dd6565b60405180910390f35b61029860048036038101906102939190610ef1565b6105c2565b6040516102a59190610dfe565b60405180910390f35b6060600380546102bd90610f5c565b80601f01602080910402602001604051908101604052809291908181526020018280546102e990610f5c565b80156103345780601f1061030b57610100808354040283529160200191610334565b820191905f5260205f20905b81548152906001019060200180831161031757829003601f168201915b5050505050905090565b5f5f610348610644565b905061035581858561064b565b600191505092915050565b5f600254905090565b5f5f73123456789012345678901234567890123456789090506103b361038d610644565b610395610418565b600a6103a191906110e8565b6127106103ae9190611132565b61080e565b5f5f90505b838110156103d8576103ca82826105a0565b5080806001019150506103b8565b506103e281610456565b915050919050565b5f5f6103f4610644565b905061040185828561095c565b61040c8585856109e7565b60019150509392505050565b5f6012905090565b5f5f61042a610644565b905061044b81858561043c85896105c2565b6104469190611173565b61064b565b600191505092915050565b5f5f5f8373ffffffffffffffffffffffffffffffffffffffff1673ffffffffffffffffffffffffffffffffffffffff1681526020019081526020015f20549050919050565b6060600480546104aa90610f5c565b80601f01602080910402602001604051908101604052809291908181526020018280546104d690610f5c565b80156105215780601f106104f857610100808354040283529160200191610521565b820191905f5260205f20905b81548152906001019060200180831161050457829003601f168201915b5050505050905090565b5f5f610535610644565b90505f61054282866105c2565b905083811015610587576040517f08c379a000000000000000000000000000000000000000000000000000000000815260040161057e90611216565b60405180910390fd5b610594828686840361064b565b60019250505092915050565b5f5f6105aa610644565b90506105b78185856109e7565b600191505092915050565b5f60015f8473ffffffffffffffffffffffffffffffffffffffff1673ffffffffffffffffffffffffffffffffffffffff1681526020019081526020015f205f8373ffffffffffffffffffffffffffffffffffffffff1673ffffffffffffffffffffffffffffffffffffffff1681526020019081526020015f2054905092915050565b5f33905090565b5f73ffffffffffffffffffffffffffffffffffffffff168373ffffffffffffffffffffffffffffffffffffffff16036106b9576040517f08c379a00000000000000000000000000000000000000000000000000000000081526004016106b0906112a4565b60405180910390fd5b5f73ffffffffffffffffffffffffffffffffffffffff168273ffffffffffffffffffffffffffffffffffffffff1603610727576040517f08c379a000000000000000000000000000000000000000000000000000000000815260040161071e90611332565b60405180910390fd5b8060015f8573ffffffffffffffffffffffffffffffffffffffff1673ffffffffffffffffffffffffffffffffffffffff1681526020019081526020015f205f8473ffffffffffffffffffffffffffffffffffffffff1673ffffffffffffffffffffffffffffffffffffffff1681526020019081526020015f20819055508173ffffffffffffffffffffffffffffffffffffffff168373ffffffffffffffffffffffffffffffffffffffff167f8c5be1e5ebec7d5bd14f71427d1e84f3dd0314c0f7b2291e5b200ac8c7c3b925836040516108019190610dfe565b60405180910390a3505050565b5f73ffffffffffffffffffffffffffffffffffffffff168273ffffffffffffffffffffffffffffffffffffffff160361087c576040517f08c379a00000000000000000000000000000000000000000000000000000000081526004016108739061139a565b60405180910390fd5b6108875f8383610c53565b8060025f8282546108989190611173565b92505081905550805f5f8473ffffffffffffffffffffffffffffffffffffffff1673ffffffffffffffffffffffffffffffffffffffff1681526020019081526020015f205f82825401925050819055508173ffffffffffffffffffffffffffffffffffffffff165f73ffffffffffffffffffffffffffffffffffffffff167fddf252ad1be2c89b69c2b068fc378daa952ba7f163c4a11628f55a4df523b3ef836040516109459190610dfe565b60405180910390a36109585f8383610c58565b5050565b5f61096784846105c2565b90507fffffffffffffffffffffffffffffffffffffffffffffffffffffffffffffffff81146109e157818110156109d3576040517f08c379a00000000000000000000000000000000000000000000000000000000081526004016109ca90611402565b60405180910390fd5b6109e0848484840361064b565b5b50505050565b5f73ffffffffffffffffffffffffffffffffffffffff168373ffffffffffffffffffffffffffffffffffffffff1603610a55576040517f08c379a0000000000000000000000000000000000000000000000000000000008152600401610a4c90611490565b60405180910390fd5b5f73ffffffffffffffffffffffffffffffffffffffff168273ffffffffffffffffffffffffffffffffffffffff1603610ac3576040517f08c379a0000000000000000000000000000000000000000000000000000000008152600401610aba9061151e565b60405180910390fd5b610ace838383610c53565b5f5f5f8573ffffffffffffffffffffffffffffffffffffffff1673ffffffffffffffffffffffffffffffffffffffff1681526020019081526020015f2054905081811015610b51576040517f08c379a0000000000000000000000000000000000000000000000000000000008152600401610b48906115ac565b60405180910390fd5b8181035f5f8673ffffffffffffffffffffffffffffffffffffffff1673ffffffffffffffffffffffffffffffffffffffff1681526020019081526020015f2081905550815f5f8573ffffffffffffffffffffffffffffffffffffffff1673ffffffffffffffffffffffffffffffffffffffff1681526020019081526020015f205f82825401925050819055508273ffffffffffffffffffffffffffffffffffffffff168473ffffffffffffffffffffffffffffffffffffffff167fddf252ad1be2c89b69c2b068fc378daa952ba7f163c4a11628f55a4df523b3ef84604051610c3a9190610dfe565b60405180910390a3610c4d848484610c58565b50505050565b505050565b505050565b5f81519050919050565b5f82825260208201905092915050565b8281835e5f83830152505050565b5f601f19601f8301169050919050565b5f610c9f82610c5d565b610ca98185610c67565b9350610cb9818560208601610c77565b610cc281610c85565b840191505092915050565b5f6020820190508181035f830152610ce58184610c95565b905092915050565b5f5ffd5b5f73ffffffffffffffffffffffffffffffffffffffff82169050919050565b5f610d1a82610cf1565b9050919050565b610d2a81610d10565b8114610d34575f5ffd5b50565b5f81359050610d4581610d21565b92915050565b5f819050919050565b610d5d81610d4b565b8114610d67575f5ffd5b50565b5f81359050610d7881610d54565b92915050565b5f5f60408385031215610d9457610d93610ced565b5b5f610da185828601610d37565b9250506020610db285828601610d6a565b9150509250929050565b5f8115159050919050565b610dd081610dbc565b82525050565b5f602082019050610de95f830184610dc7565b92915050565b610df881610d4b565b82525050565b5f602082019050610e115f830184610def565b92915050565b5f60208284031215610e2c57610e2b610ced565b5b5f610e3984828501610d6a565b91505092915050565b5f5f5f60608486031215610e5957610e58610ced565b5b5f610e6686828701610d37565b9350506020610e7786828701610d37565b9250506040610e8886828701610d6a565b9150509250925092565b5f60ff82169050919050565b610ea781610e92565b82525050565b5f602082019050610ec05f830184610e9e565b92915050565b5f60208284031215610edb57610eda610ced565b5b5f610ee884828501610d37565b91505092915050565b5f5f60408385031215610f0757610f06610ced565b5b5f610f1485828601610d37565b9250506020610f2585828601610d37565b9150509250929050565b7f4e487b71000000000000000000000000000000000000000000000000000000005f52602260045260245ffd5b5f6002820490506001821680610f7357607f821691505b602082108103610f8657610f85610f2f565b5b50919050565b7f4e487b71000000000000000000000000000000000000000000000000000000005f52601160045260245ffd5b5f8160011c9050919050565b5f5f8291508390505b600185111561100e57808604811115610fea57610fe9610f8c565b5b6001851615610ff95780820291505b808102905061100785610fb9565b9450610fce565b94509492505050565b5f8261102657600190506110e1565b81611033575f90506110e1565b8160018114611049576002811461105357611082565b60019150506110e1565b60ff84111561106557611064610f8c565b5b8360020a91508482111561107c5761107b610f8c565b5b506110e1565b5060208310610133831016604e8410600b84101617156110b75782820a9050838111156110b2576110b1610f8c565b5b6110e1565b6110c48484846001610fc5565b925090508184048111156110db576110da610f8c565b5b81810290505b9392505050565b5f6110f282610d4b565b91506110fd83610e92565b925061112a7fffffffffffffffffffffffffffffffffffffffffffffffffffffffffffffffff8484611017565b905092915050565b5f61113c82610d4b565b915061114783610d4b565b925082820261115581610d4b565b9150828204841483151761116c5761116b610f8c565b5b5092915050565b5f61117d82610d4b565b915061118883610d4b565b92508282019050808211156111a05761119f610f8c565b5b92915050565b7f45524332303a2064656372656173656420616c6c6f77616e63652062656c6f775f8201527f207a65726f000000000000000000000000000000000000000000000000000000602082015250565b5f611200602583610c67565b915061120b826111a6565b604082019050919050565b5f6020820190508181035f83015261122d816111f4565b9050919050565b7f45524332303a20617070726f76652066726f6d20746865207a65726f206164645f8201527f7265737300000000000000000000000000000000000000000000000000000000602082015250565b5f61128e602483610c67565b915061129982611234565b604082019050919050565b5f6020820190508181035f8301526112bb81611282565b9050919050565b7f45524332303a20617070726f766520746f20746865207a65726f2061646472655f8201527f7373000000000000000000000000000000000000000000000000000000000000602082015250565b5f61131c602283610c67565b9150611327826112c2565b604082019050919050565b5f6020820190508181035f83015261134981611310565b9050919050565b7f45524332303a206d696e7420746f20746865207a65726f2061646472657373005f82015250565b5f611384601f83610c67565b915061138f82611350565b602082019050919050565b5f6020820190508181035f8301526113b181611378565b9050919050565b7f45524332303a20696e73756666696369656e7420616c6c6f77616e63650000005f82015250565b5f6113ec601d83610c67565b91506113f7826113b8565b602082019050919050565b5f6020820190508181035f830152611419816113e0565b9050919050565b7f45524332303a207472616e736665722066726f6d20746865207a65726f2061645f8201527f6472657373000000000000000000000000000000000000000000000000000000602082015250565b5f61147a602583610c67565b915061148582611420565b604082019050919050565b5f6020820190508181035f8301526114a78161146e565b9050919050565b7f45524332303a207472616e7366657220746f20746865207a65726f20616464725f8201527f6573730000000000000000000000000000000000000000000000000000000000602082015250565b5f611508602383610c67565b9150611513826114ae565b604082019050919050565b5f6020820190508181035f830152611535816114fc565b9050919050565b7f45524332303a207472616e7366657220616d6f756e74206578636565647320625f8201527f616c616e63650000000000000000000000000000000000000000000000000000602082015250565b5f611596602683610c67565b91506115a18261153c565b604082019050919050565b5f6020820190508181035f8301526115c38161158a565b905091905056fea264697066735822122006a357ef8378d1337e7c636cdee32fbe52688cc9c10ef93d065a4b38f552e54a64736f6c634300081e0033","linkReferences":{}},"methodIdentifiers":{"Benchmark(uint256)":"239b51bf","allowance(address,address)":"dd62ed3e","approve(address,uint256)":"095ea7b3","balanceOf(address)":"70a08231","decimals()":"313ce567","decreaseAllowance(address,uint256)":"a457c2d7","increaseAllowance(address,uint256)":"39509351","name()":"06fdde03","symbol()":"95d89b41","totalSupply()":"18160ddd","transfer(address,uint256)":"a9059cbb","transferFrom(address,address,uint256)":"23b872dd"},"id":0}