{"abi":[{"type":"function","name":"benchmark","inputs":[],"outputs":[{"name":"","type":"uint256","internalType":"uint256"}],"stateMutability":"view"},{"type":"function","name":"failingFunction","inputs":[],"outputs":[],"stateMutability":"pure"},{"type":"function","name":"helper","inputs":[],"outputs":[{"name":"","type":"uint256","internalType":"uint256"},{"name":"","type":"bytes","internalType":"bytes"}],"stateMutability":"pure"}],"bytecode":{"object":"0x6080604052348015600e575f5ffd5b506104578061001c5f395ff3fe608060405234801561000f575f5ffd5b506004361061003f575f3560e01c806363b0e66a146100435780638903c5a214610062578063d1b9666314610080575b5f5ffd5b61004b61008a565b6040516100599291906102b6565b60405180910390f35b61006a6100b8565b60405161007791906102e4565b60405180910390f35b6100886101cf565b005b5f6060602a607b6040516020016100a191906103a5565b604051602081830303815290604052915091509091565b5f5f5f90505f5f3073ffffffffffffffffffffffffffffffffffffffff166040516024016040516020818303038152906040527f63b0e66a000000000000000000000000000000000000000000000000000000007bffffffffffffffffffffffffffffffffffffffffffffffffffffffff19166020820180517bffffffffffffffffffffffffffffffffffffffffffffffffffffffff8381831617835250505050604051610166919061040b565b5f60405180830381855afa9150503d805f811461019e576040519150601f19603f3d011682016040523d82523d5f602084013e6101a3565b606091505b509150915081156101c4573d8084019350604051815f823e80518501945050505b604051838152602081f35b6040517f08c379a000000000000000000000000000000000000000000000000000000000815260206004820152600d60248201527f4572726f72206d657373616765000000000000000000000000000000000000006044820152606481fd5b5f819050919050565b6102408161022e565b82525050565b5f81519050919050565b5f82825260208201905092915050565b8281835e5f83830152505050565b5f601f19601f8301169050919050565b5f61028882610246565b6102928185610250565b93506102a2818560208601610260565b6102ab8161026e565b840191505092915050565b5f6040820190506102c95f830185610237565b81810360208301526102db818461027e565b90509392505050565b5f6020820190506102f75f830184610237565b92915050565b5f82825260208201905092915050565b7f74657374206461746100000000000000000000000000000000000000000000005f82015250565b5f6103416009836102fd565b915061034c8261030d565b602082019050919050565b5f819050919050565b5f60ff82169050919050565b5f819050919050565b5f61038f61038a61038584610357565b61036c565b610360565b9050919050565b61039f81610375565b82525050565b5f6040820190508181035f8301526103bc81610335565b90506103cb6020830184610396565b92915050565b5f81905092915050565b5f6103e582610246565b6103ef81856103d1565b93506103ff818560208601610260565b80840191505092915050565b5f61041682846103db565b91508190509291505056fea2646970667358221220647326c7d47dc32cd8dca9cb4ef8f1fe2e02f8ffc11d37ee6ab19f68e08257c464736f6c634300081c0033","linkReferences":{}},"methodIdentifiers":{"benchmark()":"8903c5a2","failingFunction()":"d1b96663","helper()":"63b0e66a"},"id":0}