{"abi":[{"type":"function","name":"getValue","inputs":[],"outputs":[{"name":"","type":"uint256","internalType":"uint256"}],"stateMutability":"view"},{"type":"function","name":"setValue","inputs":[{"name":"_value","type":"uint256","internalType":"uint256"}],"outputs":[],"stateMutability":"nonpayable"},{"type":"function","name":"value","inputs":[],"outputs":[{"name":"","type":"uint256","internalType":"uint256"}],"stateMutability":"view"}],"bytecode":{"object":"0x6080604052602a5f553480156012575f5ffd5b50610171806100205f395ff3fe608060405234801561000f575f5ffd5b506004361061003f575f3560e01c806320965255146100435780633fa4f24514610061578063552410771461007f575b5f5ffd5b61004b61009b565b60405161005891906100c9565b60405180910390f35b6100696100a3565b60405161007691906100c9565b60405180910390f35b61009960048036038101906100949190610110565b6100a8565b005b5f5f54905090565b5f5481565b805f8190555050565b5f819050919050565b6100c3816100b1565b82525050565b5f6020820190506100dc5f8301846100ba565b92915050565b5f5ffd5b6100ef816100b1565b81146100f9575f5ffd5b50565b5f8135905061010a816100e6565b92915050565b5f60208284031215610125576101246100e2565b5b5f610132848285016100fc565b9150509291505056fea2646970667358221220b68b871fa26a3dac7e19bdbe72cd83d58cd8a42d5c060bb184ffa1703ed4ad9964736f6c634300081c0033","linkReferences":{}},"methodIdentifiers":{"getValue()":"20965255","setValue(uint256)":"55241077","value()":"3fa4f245"},"id":0}