{"abi":[{"type":"constructor","inputs":[],"stateMutability":"nonpayable"},{"type":"function","name":"Benchmark","inputs":[{"name":"n","type":"uint256","internalType":"uint256"}],"outputs":[{"name":"result","type":"uint256","internalType":"uint256"}],"stateMutability":"nonpayable"},{"type":"function","name":"allowance","inputs":[{"name":"owner","type":"address","internalType":"address"},{"name":"spender","type":"address","internalType":"address"}],"outputs":[{"name":"","type":"uint256","internalType":"uint256"}],"stateMutability":"view"},{"type":"function","name":"approve","inputs":[{"name":"spender","type":"address","internalType":"address"},{"name":"amount","type":"uint256","internalType":"uint256"}],"outputs":[{"name":"","type":"bool","internalType":"bool"}],"stateMutability":"nonpayable"},{"type":"function","name":"balanceOf","inputs":[{"name":"account","type":"address","internalType":"address"}],"outputs":[{"name":"","type":"uint256","internalType":"uint256"}],"stateMutability":"view"},{"type":"function","name":"decimals","inputs":[],"outputs":[{"name":"","type":"uint8","internalType":"uint8"}],"stateMutability":"view"},{"type":"function","name":"decreaseAllowance","inputs":[{"name":"spender","type":"address","internalType":"address"},{"name":"subtractedValue","type":"uint256","internalType":"uint256"}],"outputs":[{"name":"","type":"bool","internalType":"bool"}],"stateMutability":"nonpayable"},{"type":"function","name":"increaseAllowance","inputs":[{"name":"spender","type":"address","internalType":"address"},{"name":"addedValue","type":"uint256","internalType":"uint256"}],"outputs":[{"name":"","type":"bool","internalType":"bool"}],"stateMutability":"nonpayable"},{"type":"function","name":"name","inputs":[],"outputs":[{"name":"","type":"string","internalType":"string"}],"stateMutability":"view"},{"type":"function","name":"symbol","inputs":[],"outputs":[{"name":"","type":"string","internalType":"string"}],"stateMutability":"view"},{"type":"function","name":"totalSupply","inputs":[],"outputs":[{"name":"","type":"uint256","internalType":"uint256"}],"stateMutability":"view"},{"type":"function","name":"transfer","inputs":[{"name":"to","type":"address","internalType":"address"},{"name":"amount","type":"uint256","internalType":"uint256"}],"outputs":[{"name":"","type":"bool","internalType":"bool"}],"stateMutability":"nonpayable"},{"type":"function","name":"transferFrom","inputs":[{"name":"from","type":"address","internalType":"address"},{"name":"to","type":"address","internalType":"address"},{"name":"amount","type":"uint256","internalType":"uint256"}],"outputs":[{"name":"","type":"bool","internalType":"bool"}],"stateMutability":"nonpayable"},{"type":"event","name":"Approval","inputs":[{"name":"owner","type":"address","indexed":true,"internalType":"address"},{"name":"spender","type":"address","indexed":true,"internalType":"address"},{"name":"value","type":"uint256","indexed":false,"internalType":"uint256"}],"anonymous":false},{"type":"event","name":"Transfer","inputs":[{"name":"from","type":"address","indexed":true,"internalType":"address"},{"name":"to","type":"address","indexed":true,"internalType":"address"},{"name":"value","type":"uint256","indexed":false,"internalType":"uint256"}],"anonymous":false}],"bytecode":{"object":"0x608060405234801561000f575f5ffd5b506040518060400160405280600d81526020017f4552433230417070726f76616c000000000000000000000000000000000000008152506040518060400160405280600781526020017f4532305f41505000000000000000000000000000000000000000000000000000815250816003908161008b91906102e0565b50806004908161009b91906102e0565b5050506103af565b5f81519050919050565b7f4e487b71000000000000000000000000000000000000000000000000000000005f52604160045260245ffd5b7f4e487b71000000000000000000000000000000000000000000000000000000005f52602260045260245ffd5b5f600282049050600182168061011e57607f821691505b602082108103610131576101306100da565b5b50919050565b5f819050815f5260205f209050919050565b5f6020601f8301049050919050565b5f82821b905092915050565b5f600883026101937fffffffffffffffffffffffffffffffffffffffffffffffffffffffffffffffff82610158565b61019d8683610158565b95508019841693508086168417925050509392505050565b5f819050919050565b5f819050919050565b5f6101e16101dc6101d7846101b5565b6101be565b6101b5565b9050919050565b5f819050919050565b6101fa836101c7565b61020e610206826101e8565b848454610164565b825550505050565b5f5f905090565b610225610216565b6102308184846101f1565b505050565b5b81811015610253576102485f8261021d565b600181019050610236565b5050565b601f8211156102985761026981610137565b61027284610149565b81016020851015610281578190505b61029561028d85610149565b830182610235565b50505b505050565b5f82821c905092915050565b5f6102b85f198460080261029d565b1980831691505092915050565b5f6102d083836102a9565b9150826002028217905092915050565b6102e9826100a3565b67ffffffffffffffff811115610302576103016100ad565b5b61030c8254610107565b610317828285610257565b5f60209050601f831160018114610348575f8415610336578287015190505b61034085826102c5565b8655506103a7565b601f19841661035686610137565b5f5b8281101561037d57848901518255600182019150602085019450602081019050610358565b8683101561039a5784890151610396601f8916826102a9565b8355505b6001600288020188555050505b505050505050565b611808806103bc5f395ff3fe608060405234801561000f575f5ffd5b50600436106100b2575f3560e01c8063395093511161006f57806339509351146101a057806370a08231146101d057806395d89b4114610200578063a457c2d71461021e578063a9059cbb1461024e578063dd62ed3e1461027e576100b2565b806306fdde03146100b6578063095ea7b3146100d457806318160ddd14610104578063239b51bf1461012257806323b872dd14610152578063313ce56714610182575b5f5ffd5b6100be6102ae565b6040516100cb9190610d9d565b60405180910390f35b6100ee60048036038101906100e99190610e4e565b61033e565b6040516100fb9190610ea6565b60405180910390f35b61010c610360565b6040516101199190610ece565b60405180910390f35b61013c60048036038101906101379190610ee7565b610369565b6040516101499190610ece565b60405180910390f35b61016c60048036038101906101679190610f12565b6104ba565b6040516101799190610ea6565b60405180910390f35b61018a6104e8565b6040516101979190610f7d565b60405180910390f35b6101ba60048036038101906101b59190610e4e565b6104f0565b6040516101c79190610ea6565b60405180910390f35b6101ea60048036038101906101e59190610f96565b610526565b6040516101f79190610ece565b60405180910390f35b61020861056b565b6040516102159190610d9d565b60405180910390f35b61023860048036038101906102339190610e4e565b6105fb565b6040516102459190610ea6565b60405180910390f35b61026860048036038101906102639190610e4e565b610670565b6040516102759190610ea6565b60405180910390f35b61029860048036038101906102939190610fc1565b610692565b6040516102a59190610ece565b60405180910390f35b6060600380546102bd9061102c565b80601f01602080910402602001604051908101604052809291908181526020018280546102e99061102c565b80156103345780601f1061030b57610100808354040283529160200191610334565b820191905f5260205f20905b81548152906001019060200180831161031757829003601f168201915b5050505050905090565b5f5f610348610714565b905061035581858561071b565b600191505092915050565b5f600254905090565b5f610396336103766104e8565b600a61038291906111b8565b633b9aca006103919190611202565b6108de565b5f600190505b828110156104a9575f6103af3333610692565b146103ef576040517f08c379a00000000000000000000000000000000000000000000000000000000081526004016103e69061128d565b60405180910390fd5b6103f9338261033e565b50806104053333610692565b14610445576040517f08c379a000000000000000000000000000000000000000000000000000000000815260040161043c906112f5565b60405180910390fd5b6104503333836104ba565b505f61045c3333610692565b1461049c576040517f08c379a00000000000000000000000000000000000000000000000000000000081526004016104939061135d565b60405180910390fd5b808060010191505061039c565b506104b333610526565b9050919050565b5f5f6104c4610714565b90506104d1858285610a2c565b6104dc858585610ab7565b60019150509392505050565b5f6012905090565b5f5f6104fa610714565b905061051b81858561050c8589610692565b610516919061137b565b61071b565b600191505092915050565b5f5f5f8373ffffffffffffffffffffffffffffffffffffffff1673ffffffffffffffffffffffffffffffffffffffff1681526020019081526020015f20549050919050565b60606004805461057a9061102c565b80601f01602080910402602001604051908101604052809291908181526020018280546105a69061102c565b80156105f15780601f106105c8576101008083540402835291602001916105f1565b820191905f5260205f20905b8154815290600101906020018083116105d457829003601f168201915b5050505050905090565b5f5f610605610714565b90505f6106128286610692565b905083811015610657576040517f08c379a000000000000000000000000000000000000000000000000000000000815260040161064e9061141e565b60405180910390fd5b610664828686840361071b565b60019250505092915050565b5f5f61067a610714565b9050610687818585610ab7565b600191505092915050565b5f60015f8473ffffffffffffffffffffffffffffffffffffffff1673ffffffffffffffffffffffffffffffffffffffff1681526020019081526020015f205f8373ffffffffffffffffffffffffffffffffffffffff1673ffffffffffffffffffffffffffffffffffffffff1681526020019081526020015f2054905092915050565b5f33905090565b5f73ffffffffffffffffffffffffffffffffffffffff168373ffffffffffffffffffffffffffffffffffffffff1603610789576040517f08c379a0000000000000000000000000000000000000000000000000000000008152600401610780906114ac565b60405180910390fd5b5f73ffffffffffffffffffffffffffffffffffffffff168273ffffffffffffffffffffffffffffffffffffffff16036107f7576040517f08c379a00000000000000000000000000000000000000000000000000000000081526004016107ee9061153a565b60405180910390fd5b8060015f8573ffffffffffffffffffffffffffffffffffffffff1673ffffffffffffffffffffffffffffffffffffffff1681526020019081526020015f205f8473ffffffffffffffffffffffffffffffffffffffff1673ffffffffffffffffffffffffffffffffffffffff1681526020019081526020015f20819055508173ffffffffffffffffffffffffffffffffffffffff168373ffffffffffffffffffffffffffffffffffffffff167f8c5be1e5ebec7d5bd14f71427d1e84f3dd0314c0f7b2291e5b200ac8c7c3b925836040516108d19190610ece565b60405180910390a3505050565b5f73ffffffffffffffffffffffffffffffffffffffff168273ffffffffffffffffffffffffffffffffffffffff160361094c576040517f08c379a0000000000000000000000000000000000000000000000000000000008152600401610943906115a2565b60405180910390fd5b6109575f8383610d23565b8060025f828254610968919061137b565b92505081905550805f5f8473ffffffffffffffffffffffffffffffffffffffff1673ffffffffffffffffffffffffffffffffffffffff1681526020019081526020015f205f82825401925050819055508173ffffffffffffffffffffffffffffffffffffffff165f73ffffffffffffffffffffffffffffffffffffffff167fddf252ad1be2c89b69c2b068fc378daa952ba7f163c4a11628f55a4df523b3ef83604051610a159190610ece565b60405180910390a3610a285f8383610d28565b5050565b5f610a378484610692565b90507fffffffffffffffffffffffffffffffffffffffffffffffffffffffffffffffff8114610ab15781811015610aa3576040517f08c379a0000000000000000000000000000000000000000000000000000000008152600401610a9a9061160a565b60405180910390fd5b610ab0848484840361071b565b5b50505050565b5f73ffffffffffffffffffffffffffffffffffffffff168373ffffffffffffffffffffffffffffffffffffffff1603610b25576040517f08c379a0000000000000000000000000000000000000000000000000000000008152600401610b1c90611698565b60405180910390fd5b5f73ffffffffffffffffffffffffffffffffffffffff168273ffffffffffffffffffffffffffffffffffffffff1603610b93576040517f08c379a0000000000000000000000000000000000000000000000000000000008152600401610b8a90611726565b60405180910390fd5b610b9e838383610d23565b5f5f5f8573ffffffffffffffffffffffffffffffffffffffff1673ffffffffffffffffffffffffffffffffffffffff1681526020019081526020015f2054905081811015610c21576040517f08c379a0000000000000000000000000000000000000000000000000000000008152600401610c18906117b4565b60405180910390fd5b8181035f5f8673ffffffffffffffffffffffffffffffffffffffff1673ffffffffffffffffffffffffffffffffffffffff1681526020019081526020015f2081905550815f5f8573ffffffffffffffffffffffffffffffffffffffff1673ffffffffffffffffffffffffffffffffffffffff1681526020019081526020015f205f82825401925050819055508273ffffffffffffffffffffffffffffffffffffffff168473ffffffffffffffffffffffffffffffffffffffff167fddf252ad1be2c89b69c2b068fc378daa952ba7f163c4a11628f55a4df523b3ef84604051610d0a9190610ece565b60405180910390a3610d1d848484610d28565b50505050565b505050565b505050565b5f81519050919050565b5f82825260208201905092915050565b8281835e5f83830152505050565b5f601f19601f8301169050919050565b5f610d6f82610d2d565b610d798185610d37565b9350610d89818560208601610d47565b610d9281610d55565b840191505092915050565b5f6020820190508181035f830152610db58184610d65565b905092915050565b5f5ffd5b5f73ffffffffffffffffffffffffffffffffffffffff82169050919050565b5f610dea82610dc1565b9050919050565b610dfa81610de0565b8114610e04575f5ffd5b50565b5f81359050610e1581610df1565b92915050565b5f819050919050565b610e2d81610e1b565b8114610e37575f5ffd5b50565b5f81359050610e4881610e24565b92915050565b5f5f60408385031215610e6457610e63610dbd565b5b5f610e7185828601610e07565b9250506020610e8285828601610e3a565b9150509250929050565b5f8115159050919050565b610ea081610e8c565b82525050565b5f602082019050610eb95f830184610e97565b92915050565b610ec881610e1b565b82525050565b5f602082019050610ee15f830184610ebf565b92915050565b5f60208284031215610efc57610efb610dbd565b5b5f610f0984828501610e3a565b91505092915050565b5f5f5f60608486031215610f2957610f28610dbd565b5b5f610f3686828701610e07565b9350506020610f4786828701610e07565b9250506040610f5886828701610e3a565b9150509250925092565b5f60ff82169050919050565b610f7781610f62565b82525050565b5f602082019050610f905f830184610f6e565b92915050565b5f60208284031215610fab57610faa610dbd565b5b5f610fb884828501610e07565b91505092915050565b5f5f60408385031215610fd757610fd6610dbd565b5b5f610fe485828601610e07565b9250506020610ff585828601610e07565b9150509250929050565b7f4e487b71000000000000000000000000000000000000000000000000000000005f52602260045260245ffd5b5f600282049050600182168061104357607f821691505b60208210810361105657611055610fff565b5b50919050565b7f4e487b71000000000000000000000000000000000000000000000000000000005f52601160045260245ffd5b5f8160011c9050919050565b5f5f8291508390505b60018511156110de578086048111156110ba576110b961105c565b5b60018516156110c95780820291505b80810290506110d785611089565b945061109e565b94509492505050565b5f826110f657600190506111b1565b81611103575f90506111b1565b8160018114611119576002811461112357611152565b60019150506111b1565b60ff8411156111355761113461105c565b5b8360020a91508482111561114c5761114b61105c565b5b506111b1565b5060208310610133831016604e8410600b84101617156111875782820a9050838111156111825761118161105c565b5b6111b1565b6111948484846001611095565b925090508184048111156111ab576111aa61105c565b5b81810290505b9392505050565b5f6111c282610e1b565b91506111cd83610f62565b92506111fa7fffffffffffffffffffffffffffffffffffffffffffffffffffffffffffffffff84846110e7565b905092915050565b5f61120c82610e1b565b915061121783610e1b565b925082820261122581610e1b565b9150828204841483151761123c5761123b61105c565b5b5092915050565b7f416c6c6f77616e6365206174207374617274206973206e6f6e7a65726f0000005f82015250565b5f611277601d83610d37565b915061128282611243565b602082019050919050565b5f6020820190508181035f8301526112a48161126b565b9050919050565b7f53656e64657220686173206e6f20616c6c6f77616e63650000000000000000005f82015250565b5f6112df601783610d37565b91506112ea826112ab565b602082019050919050565b5f6020820190508181035f83015261130c816112d3565b9050919050565b7f416c6c6f77616e636520617420656e64206973206e6f6e7a65726f00000000005f82015250565b5f611347601b83610d37565b915061135282611313565b602082019050919050565b5f6020820190508181035f8301526113748161133b565b9050919050565b5f61138582610e1b565b915061139083610e1b565b92508282019050808211156113a8576113a761105c565b5b92915050565b7f45524332303a2064656372656173656420616c6c6f77616e63652062656c6f775f8201527f207a65726f000000000000000000000000000000000000000000000000000000602082015250565b5f611408602583610d37565b9150611413826113ae565b604082019050919050565b5f6020820190508181035f830152611435816113fc565b9050919050565b7f45524332303a20617070726f76652066726f6d20746865207a65726f206164645f8201527f7265737300000000000000000000000000000000000000000000000000000000602082015250565b5f611496602483610d37565b91506114a18261143c565b604082019050919050565b5f6020820190508181035f8301526114c38161148a565b9050919050565b7f45524332303a20617070726f766520746f20746865207a65726f2061646472655f8201527f7373000000000000000000000000000000000000000000000000000000000000602082015250565b5f611524602283610d37565b915061152f826114ca565b604082019050919050565b5f6020820190508181035f83015261155181611518565b9050919050565b7f45524332303a206d696e7420746f20746865207a65726f2061646472657373005f82015250565b5f61158c601f83610d37565b915061159782611558565b602082019050919050565b5f6020820190508181035f8301526115b981611580565b9050919050565b7f45524332303a20696e73756666696369656e7420616c6c6f77616e63650000005f82015250565b5f6115f4601d83610d37565b91506115ff826115c0565b602082019050919050565b5f6020820190508181035f830152611621816115e8565b9050919050565b7f45524332303a207472616e736665722066726f6d20746865207a65726f2061645f8201527f6472657373000000000000000000000000000000000000000000000000000000602082015250565b5f611682602583610d37565b915061168d82611628565b604082019050919050565b5f6020820190508181035f8301526116af81611676565b9050919050565b7f45524332303a207472616e7366657220746f20746865207a65726f20616464725f8201527f6573730000000000000000000000000000000000000000000000000000000000602082015250565b5f611710602383610d37565b915061171b826116b6565b604082019050919050565b5f6020820190508181035f83015261173d81611704565b9050919050565b7f45524332303a207472616e7366657220616d6f756e74206578636565647320625f8201527f616c616e63650000000000000000000000000000000000000000000000000000602082015250565b5f61179e602683610d37565b91506117a982611744565b604082019050919050565b5f6020820190508181035f8301526117cb81611792565b905091905056fea2646970667358221220f666612fdb90091a5310f3520f6e4ae680a2b79081b75dcaa2b5c38c3b6a500a64736f6c634300081e0033","linkReferences":{}},"methodIdentifiers":{"Benchmark(uint256)":"239b51bf","allowance(address,address)":"dd62ed3e","approve(address,uint256)":"095ea7b3","balanceOf(address)":"70a08231","decimals()":"313ce567","decreaseAllowance(address,uint256)":"a457c2d7","increaseAllowance(address,uint256)":"39509351","name()":"06fdde03","symbol()":"95d89b41","totalSupply()":"18160ddd","transfer(address,uint256)":"a9059cbb","transferFrom(address,address,uint256)":"23b872dd"},"id":0}