{"abi":[{"type":"function","name":"benchmark","inputs":[],"outputs":[{"name":"","type":"uint256","internalType":"uint256"}],"stateMutability":"pure"}],"bytecode":{"object":"0x6080604052348015600e575f5ffd5b506101b38061001c5f395ff3fe608060405234801561000f575f5ffd5b5060043610610029575f3560e01c80638903c5a21461002d575b5f5ffd5b61003561004b565b6040516100429190610137565b60405180910390f35b5f5f600190505f7fffffffffffffffffffffffffffffffffffffffffffffffffffffffffffffffff90505f5f90505b61010081101561010557600183901b9250600183901c9250600182901d9150600282901b91505f604082816100b2576100b1610150565b5b061480156100bf57505f81115b80156100cc575061010081105b156100f857807fffffffffffffffffffffffffffffffffffffffffffffffffffffffffffffffff901c92505b808060010191505061007a565b505f811215610114575f610116565b805b82019250505090565b5f819050919050565b6101318161011f565b82525050565b5f60208201905061014a5f830184610128565b92915050565b7f4e487b71000000000000000000000000000000000000000000000000000000005f52601260045260245ffdfea2646970667358221220cd90bfb5aa229fb8956a720c0ffdcbad28bbe144bcf7cc102dde6e3854cb76fb64736f6c634300081e0033","linkReferences":{}},"methodIdentifiers":{"benchmark()":"8903c5a2"},"id":0}